:020000040800F2
:10C00000E041002075C20008C1DD000895DD000890
:10C0100081C2000883C2000885C200080000000039
:10C0200000000000000000000000000087C20008BF
:10C0300089C20008000000008BC20008C5DD0008AE
:10C040008FC200088FC200088FC200088FC200088C
:10C050008FC200088FC2000801DD00088FC20008EF
:10C060008FC200088FC200088FC200088FC200086C
:10C070008FC200088FC200088FC200088FC200085C
:10C080008FC200088FC200088FC200088FC200084C
:10C090008FC20008A1DC00088FC2000869DD00081B
:10C0A0008FC200088FC200088FC200088FC200082C
:10C0B0008FC200088FC200088FC200088FC200081C
:10C0C0008FC200088FC200088FC200088FC200080C
:10C0D0008FC200088FC200088FC200088FC20008FC
:10C0E00051DD00088FC200088FC200088FC200080F
:10C0F0008FC200088FC200088FC200088FC20008DC
:10C100008FC200088FC200088FC200088FC20008CB
:10C110008FC200088FC200088FC200088FC20008BB
:10C120008FC200088FC200088FC200088FC20008AB
:10C1300000F002F800F08EF80AA090E8000C8244AB
:10C140008344AAF10107DA4501D100F083F8AFF288
:10C15000090EBAE80F0013F0010F18BFFB1A43F0E5
:10C160000103184748120300681203000A444FF005
:10C17000000C10F8013B13F0070408BF10F8014B46
:10C180001D1108BF10F8015B641E05D010F8016B8B
:10C19000641E01F8016BF9D113F0080F1EBF10F8EF
:10C1A000014BAD1C0C1B09D16D1E58BF01F801CB12
:10C1B000FAD505E014F8016B01F8016B6D1EF9D595
:10C1C0009142D6D3704700000023002400250026AA
:10C1D000103A28BF78C1FBD8520728BF30C148BFEA
:10C1E0000B60704766290FF00987692900F0F2801B
:10C1F000642900F0EF80752900F0EC806F2900F0D1
:10C200008381782900F0A8810368DB0928BF41F009
:10C210008001632900F0A187732900F0A687E32934
:10C2200000F0B187002070471FB518F034FB01F013
:10C2300001F804000020002118F0B0F8401C6060F4
:10C240000020002118F094F8E06000F0DDFC1FBD34
:10C2500010B510BD01F0F7F81146FFF7E5FF17F034
:10C26000C1FA01F015F903B4FFF7F2FF03BC00F0C7
:10C27000D3FF00000948804709480047FEE7FEE772
:10C28000FEE7FEE7FEE7FEE7FEE7FEE7FEE7FEE786
:10C2900004480549054A064B70470000D5DD0008F3
:10C2A00031C10008E02D0020E0410020E0310020F5
:10C2B000E03100200FB41CB5074B06AA7B44694649
:10C2C0000090059800F01FFF0020694600F02EFF47
:10C2D0001CBC5DF814FB00006D0E00000FB41CB513
:10C2E0000C0007AA009001D02044401E074B7B445D
:10C2F00069460190069800F006FF002C03D06946BD
:10C30000002000F013FF1CBC5DF814FB450E00007C
:10C3100070B5044685690068C10601D5302600E085
:10C320002026C00707D070BDD4E9012130469047D0
:10C33000206A401C20626D1EF6D570BD70B50446A3
:10C3400085690078C00707D170BDD4E9012120209C
:10C350009047206A401C20626D1EF6D570BD0968AA
:10C360004A0501D540B27047C905FCD500B27047F7
:10C3700009684A0501D5C0B27047C905FCD580B22D
:10C38000704770B50C460546012A05D0287880060E
:10C3900000D5EA69002302E0012305E05B1C93421B
:10C3A00002D2E05C0028F9D1A869E618C01AA86199
:10C3B000286A184428622846FFF7AAFF04E0D5E956
:10C3C000012114F8010B9047B442F8D32846FFF737
:10C3D000B5FF70BD2DE9F0410646002410687529AF
:10C3E000314616A510D0FFF7BAFF002802DA404206
:10C3F00013A507E031688A0701D512A502E04907B5
:10C4000004D511A5012401E0FFF7B2FF00210A22A3
:10C4100006F1240709E0B0FBF2FCB0FBF2F302FBEB
:10C420001C00303078541846491C0028F3D12346AC
:10C430002A463046BDE8F04100F0F8BB000000009D
:10C440002D0000002B000000200000002DE9FF5F00
:10C4500015468A460446DFF8AC80F8440027D8E940
:10C4600000103E46CDE9001010E03AF816106A467A
:10C4700002A800F094FE411C07D02178890603D55C
:10C48000E269391891420DD80744761C207880065D
:10C4900002D5E069B84205DDAE42E6DB3AF81600A7
:10C4A0000028E2D1A069C01BA0612046FFF730FF41
:10C4B000D8E90010CDE90010002017E03AF8181074
:10C4C0006A4602A800F06BFEB0F1FF3F81460BD038
:10C4D00000250DF1080B05E0D4E901211BF805004A
:10C4E00090476D1C4D45F7D308F10100B0428046DE
:10C4F000E4DB206A384420622046FFF71FFFBDE8D6
:10C50000FF9F00003A9E020070B504462146106865
:10C51000FFF72EFF002104F1240505E000F00702DB
:10C520003032C0086A54491C0028F7D12068002323
:10C5300007A2050707D5800600D421B1E0690123D1
:10C5400004A2401EE0612046BDE8704000F06EBBD2
:10C55000000000003000000070B504460D46214682
:10C560001068FFF705FF2188090502D50F4A7A44B4
:10C5700002E00E4A7A440E32002104F1240305E061
:10C5800000F00F060009965D5E54491C0028F7D1A3
:10C5900020780023000704D5702D02D009B10223B2
:10C5A00011322046BDE8704000F040BB2E9D0200D5
:10C5B0002DE9F05F894604464FF0000ADFF874B1B8
:10C5C000FB44C0F820A02046E1688847002874D0CA
:10C5D000252806D0D4E901219047206A401C20621A
:10C5E000F1E700265F462046E16888472028054697
:10C5F00007DB312D05D2781910F8200C08B106435D
:10C60000F1E7B00701D526F00406C4F81CA0002706
:10C61000C4F818A02A2D09D0284617F0DBF838B343
:10C6200004EB8708303DC8F8185019E059F8041B8E
:10C63000204604EB87029161E1688847012F054697
:10C6400018D1E069002820DA26F020061DE0D8F88D
:10C65000180000EB800005EB40003038C8F81800E7
:10C660002046E1688847054617F0B4F80028EED167
:10C67000012F0AD02E2D08D12046E16888477F1C63
:10C680000546022F46F02006C4DBA069002803DA25
:10C69000404246F00106A061F00701D026F01006E6
:10C6A0006C2D0BD0682D09D04C2D39D06A2D35D08A
:10C6B000742D35D07A2D33D016E038E0E1682F465E
:10C6C00020468847B842054609D16C2F26D04FF442
:10C6D0008060E168064320468847054604E06C2FE9
:10C6E0001AD04FF4807006430DB3A5F1410019280C
:10C6F00002D8203546F400664A4629462046266080
:10C700004E46FFF76FFD80B101280BD0F61D26F0D5
:10C71000070000F1080956E74020E4E78020D8E749
:10C720000020D6E706F104094DE7284652E7206AC3
:10C73000BDE8F09F049D02000EB5054614460E4666
:10C7400013A000F057FD284600F054FD16A000F09D
:10C7500051FD304600F04EFD15A000F04BFD0021CC
:10C760008DF80B100A210DF10A008DF80A1008E06F
:10C7700094FBF1F201FB124294FBF1F4303200F829
:10C78000012D002CF4DC00F035FD00F028FD000048
:10C790002A2A2A20617373657274696F6E2066613C
:10C7A000696C65643A2000002C2066696C65200085
:10C7B0002C206C696E652000401ECAB210F8011F63
:10C7C0008A4202D00029F9D10020704740EA0103D3
:10C7D00010B59B070FD1042A0DD310C808C9121F2A
:10C7E0009C42F8D020BA19BA884201D9012010BD64
:10C7F0004FF0FF3010BD1AB1D30703D0521C07E031
:10C80000002010BD10F8013B11F8014B1B1B07D194
:10C8100010F8013B11F8014B1B1B01D1921EF1D105
:10C82000184610BD40EA0103024630B59B0710D1FF
:10C830004FF0013400E008C208C91D1B9D4315EAF2
:10C84000C41FF8D013F0FF0102F8011B0DD01B0A22
:10C85000F8E711F8013B002B02F8013B05D011F875
:10C86000013B002B02F8013BF3D130BD10B5431C56
:10C8700002E010F8011B71B18107FAD14FF00132CB
:10C8800002C88C1A8C4314EAC211F9D0C01A0A06E5
:10C8900003D0C01E10BDC01A10BD0A0401D0801EF6
:10C8A00010BD0902FCD0401E10BD032A40F23080AA
:10C8B00010F0030C00F0158011F8013BBCF1020FE1
:10C8C000624498BF11F801CB00F8013B38BF11F862
:10C8D000013BA2F1040298BF00F801CB38BF00F879
:10C8E000013B11F0030300F06780083AC0F00880B4
:10C8F00051F8043B083A51F804CBA0E80810F5E7DA
:10C90000121D5CBF51F8043B40F8043BAFF30080BC
:10C91000D20724BF11F8013B11F801CB48BF11F831
:10C92000012B24BF00F8013B00F801CB48BF00F801
:10C93000012B7047431A28BF9A427FF6B6AF032AED
:10C940001044114440F2268010F0030F1EBF11F86E
:10C95000013D521E00F8013D10F0030F7FF4F6AFC9
:10C9600011F0030300F06D80083AC0F00B8051F81D
:10C97000043D083A51F804CD40F8043D40F804CD98
:10C98000FFF7F3BF121D5CBF51F8043D40F8043DB2
:10C99000AFF30080D20724BF11F8013D11F801CD9B
:10C9A00048BF11F8012C24BF00F8013D00F801CD6B
:10C9B00048BF00F8012C704710B5203AC0F00B803A
:10C9C000B1E81850203AA0E81850B1E81850A0E893
:10C9D0001850BFF4F5AF5FEA027C24BFB1E81850ED
:10C9E000A0E8185044BF18C918C0BDE810405FEA5D
:10C9F000827C24BF51F8043B40F8043B08BF7047D9
:10CA0000D20728BF31F8023B48BF11F8012B28BFDD
:10CA100020F8023B48BF00F8012B7047431A28BF9B
:10CA20009A427FF6C9AF104410F0030F11441EBFA5
:10CA300011F8013D521E00F8013D10F0030F7FF484
:10CA4000F6AF103AC0F00A8010B531E91850103A2C
:10CA500020E91850BFF4F9AFBDE81040530724BFD8
:10CA600031E9081020E9081044BF51F8043D40F8AE
:10CA7000043D12F0030F08BF7047D20728BF31F8FA
:10CA8000023D48BF11F8012C28BF20F8023D48BFE5
:10CA900000F8012C70474FF000020429C0F012800A
:10CAA00010F0030C00F01B80CCF1040CBCF1020F61
:10CAB00018BF00F8012BA8BF20F8022BA1EB0C0136
:10CAC00000F00DB85FEAC17C24BF00F8012B00F82C
:10CAD000012B48BF00F8012B70474FF0000200B552
:10CAE000134694469646203922BFA0E80C50A0E891
:10CAF0000C50B1F12001BFF4F7AF090728BFA0E83F
:10CB00000C5048BF0CC05DF804EB890028BF40F80A
:10CB1000042B08BF704748BF20F8022B11F0804F4C
:10CB200018BF00F8012B704710B5044610F0030F32
:10CB300008BF11F0030F40F015804FF0013E121FA7
:10CB4000C0F20E8051F8043BA3EB0E0C2CEA030C50
:10CB50001CEACE1C08BF40F8043BF0D0A1F1040150
:10CB600002F10402521E08DB11F8013B002B00F811
:10CB7000013BF7D11146FFF78EFF204610BD0000A4
:10CB80004FF0013C50F8042B51F8043B9A4221D15C
:10CB9000A2EB0C03934313EACC1317D150F8042BE8
:10CBA00051F8043B9A4215D1A2EB0C03934313EACC
:10CBB000CC130BD150F8042B51F8043B9A4209D105
:10CBC000A2EB0C03934313EACC13DBD04FF000002D
:10CBD000704700BFD01A01BAB1FA81F101F0180113
:10CBE00022FA01F0CB40C1F12001DBB2C0B2C01A81
:10CBF0002CFA01F3D11A914311EAC311E6D170471F
:10CC0000704770477047000070B5064C7C44064D75
:10CC10007D4403E0206820448047241DAC42F9D1C4
:10CC200070BD0000E8080300400903002DE9F0474B
:10CC30000D4699469246044600F12408016888068C
:10CC400004D5E06921F01001216000E00120A84234
:10CC500001DD471B00E00027A1697A1902EB0900FA
:10CC6000081AA0612078C00602D42046FFF750FBC6
:10CC7000002608E0D4E901211AF806009047206A4E
:10CC8000401C761C20624E45F4DB2078C0060AD595
:10CC90002046FFF73DFB06E0D4E901213020904714
:10CCA000206A401C2062381EA7F10107F4DC07E06F
:10CCB000D4E9012118F805009047206A401C206241
:10CCC000281EA5F10105F3DC2046FFF737FB20788D
:10CCD000000602D50220BDE8F0870120FBE770477F
:10CCE0002DE9FF4F0C461E464FF0FF378BB0D2E9BF
:10CCF0000001DDF860800A908A46C1F30A5505B943
:10CD00003D46002108464FF00000BAF1000F00F444
:10CD1000400005DA00EB80004FF4400101EA5000CA
:10CD20004FEA9059B9F1010F00DDB9460A9850EA6F
:10CD30004A000ED044F61050A5F2FF3545432F149B
:10CD4000B8F1000F1ED07542291E1EDDC9F1000288
:10CD50001CE0B8F1010F4FF0000001D0302103E0DA
:10CD6000F24305E02154401CB042FBDB3046002278
:10CD7000002121540B99C1F80880C1E900200FB0AF
:10CD8000BDE8F08FBD1B6D1CDEE74A4600DA694244
:10CD900006A800F0D9FA06AB93E8070003AB83E8D6
:10CDA000070050460A9900F0B2FB8DE80700A0F595
:10CDB00000501F3800900398002D0ADD42F21F0139
:10CDC0004A460844002303A90390684600F01BFE6E
:10CDD00009E0A0F500504A461F38002303A903903C
:10CDE000684600F025FE8DE807000004000C03D023
:10CDF0004FF0FF30410800E01046B8F1000F03D0BB
:10CE00000022009215461EE0751E05D400F016FAA9
:10CE1000303262556D1EF9D5B3460122084302D067
:10CE200000227F1C04E02078302801D100227F1EE0
:10CE3000002A099784D01DE0112D07DA00F0FEF9D1
:10CE4000303262556D1C50EA0102F5D1084302D020
:10CE50000098C8B10EE00021681E05E0235C625C0A
:10CE600063542254401E491C8142F7DBAB46A81B89
:10CE7000401E0990002004F80B000B98099AC0F896
:10CE80000880C0E9002B7AE711264FF0000857E729
:10CE90002DE9F04F88460446D21D22F0070191B0DB
:10CEA000D1E90001CDE90A0116F0BCFB02460B985E
:10CEB000C00F01D02D2007E02068810701D52B206D
:10CEC00002E0202101EAC000032A099001D0072ACC
:10CED00005DB03464146204600F0F6F90BE12078D9
:10CEE000800601D5E06900E00620B8F1650F8146B3
:10CEF00006D0B8F1660F18D0B8F1670F70D131E0E5
:10CF00000020B9F1110F009001DB112301E009F1BC
:10CF100001030AAA01A90CA8FFF7E2FEDDE90C70E3
:10CF2000002609F10105834647E001204B460090A9
:10CF30004FF000470AAA01A90CA8FFF7D1FEDDE9CE
:10CF40000DB00C995D46002610B909F101000D18CD
:10CF5000B9EB050003D4C0F1FF3609F10105A5EBDB
:10CF600009002BE0B9F1010F01DA4FF001090020AF
:10CF7000B9F1110F0090484601DD112300E003468E
:10CF80000AAA01A90CA8FFF7ABFEDDE90C704D461B
:10CF900000268346207800070AD4AB4500DA5D46B8
:10CFA00001A8012D04DD411911F8011C302907D019
:10CFB0004F4502DA17F1040F04DA012082460FE030
:10CFC0006D1EEEE7002F02DCED1B3E4403E0781CF3
:10CFD000A84200DD7D1CB81B00F1010A4FF000479C
:10CFE0002078000703D4AA4501DB4FF0FF3A002167
:10CFF000B7F1004F0DF143088DF8431024D0022003
:10D000002B23002F01DA7F422D230A21021EA0F1DB
:10D01000010000DC5FB197FBF1FC97FBF1F201FB33
:10D020001C7C17460CF1300C08F801CDEEE7A8F196
:10D03000010003702188090501D5452100E0652123
:10D04000A0F1010800F8011C09980FA9A1EB08073D
:10D05000FF1D00B10120411901EBEA70A1693844BC
:10D06000081A401EA0612078C00602D42046FFF7AF
:10D070004FF9099828B1D4E901219047206A401C52
:10D0800020622078C00622D52046FFF741F91EE035
:10D09000002E04DBB34502DD01A8805D00E03020F6
:10D0A000D4E901219047206A401C2062761CAAF135
:10D0B00001005FEA000A0AD100F0BCF8C06801680C
:10D0C000405CD4E901219047206A401C2062281E60
:10D0D000A5F10105DCDC07E0D4E9012118F8010B1A
:10D0E0009047206A401C2062381EA7F10107F3DC3C
:10D0F0002046FFF723F9032011B041E601694A1CDD
:10D1000002610878704700B58FB0CDE90131002188
:10D11000059105497944CDE9031011466846FFF7AA
:10D1200047FA0FB000BD0000E5FFFFFF0A6802F8F4
:10D13000010B0A607047D1E900239A4202D2531CC6
:10D140000B601070704710B5436913B1AFF30080E6
:10D1500001E0FFF716F9012010BD127800F124015B
:10D160000A7000224A700122EDE711684FF0FF3289
:10D17000E9E710B5436913B1AFF3008001E0FFF7B1
:10D1800065F9012010BD128800F12401828400227B
:10D19000C2840122EDE711684FF0FF32E9E770B574
:10D1A00016460C46054600F03DF8036893F8010169
:10D1B000012806D0FF2C0FD8185D68B101202C7013
:10D1C00070BDD3F807013246214603F2071303442A
:10D1D0002846BDE8704018474FF0FF3070BD10B5CD
:10D1E000002000F023F9FFF733F8BDE810400120DC
:10D1F00000F012B810B5044602E0641C00F004F818
:10D2000020780028F9D110BD08B569468DF80000D6
:10D210000320ABBE08BD000001491820ABBEFEE7ED
:10D220002600020010B500F005F8001D10BD00BF7B
:10D230006D71010000487047A02D002030B5B0F19D
:10D240000A024FEA900E71F100034EEA817EB0EBC4
:10D250000E0061EB91014FEA101E4EEA017E10EBC9
:10D260000E0041EB11114FEA102E4EEA016E10EB49
:10D270000E0041EB11214FEA104E4EEA014E10EB29
:10D280000E0041EB1141401841F100014FEAD0007E
:10D2900040EA41704FEAD10110EB80054FEA81046A
:10D2A00044EA907444EB01046D1944EB0404521BEE
:10D2B000A3414FF0000348BF0A3200D530BD401CE7
:10D2C00041F1000130BD00002DE9F0411F46044648
:10D2D00003260168072A01F4006004DB08B116A5E3
:10D2E00005E016A503E008B115A500E015A521F09D
:10D2F00010002060A069C01EA0610FB1401EA06197
:10D300002046FFF705F84FB1D4E901213846904790
:10D31000206A401C2062C01C206206E0206AFAE7F6
:10D32000D4E9012115F8010B9047761EF8D220466A
:10D33000FFF704F8BDE8F0814E414E006E616E00CB
:10D34000494E4600696E66002DE9F0478146164653
:10D350008AB0354878440DC88DE80D0032487844CD
:10D36000801C03AC0DC884E80D0041F69B300844D6
:10D37000372190FBF1F290FBF1F5A5F1800501FB5F
:10D3800012041B3C02D56442012000E00020DFF8BB
:10D3900098A080460027FA44AAF1BE0A0EE0E007F2
:10D3A0000AD03246684607EB470101230AEB8101A8
:10D3B00000F03EFB8DE8070064107F1C002CEED1CE
:10D3C000194F7F44AE3F19E0E80715D007EB041072
:10D3D0000DF1180A90E80E008AE80E00C068F042CD
:10D3E00001D1981908903246012306A903A800F03C
:10D3F0001FFB03AB83E807006D10641C002DE3D115
:10D400004FF0010332466946B8F1000F03A802D07D
:10D4100000F0F9FA01E000F00BFBC9E90001C9F8DE
:10D4200008200AB0BDE8F0870090020010B500F0B7
:10D430003DF8BDE8104000F034B8000000487047E7
:10D44000802D002070477546FFF7F8FFAE460500B7
:10D450006946534620F00700854618B020B5FEF710
:10D4600017FFBDE820404FF000064FF000074FF0D7
:10D4700000084FF0000B21F00701AC46ACE8C009F2
:10D48000ACE8C009ACE8C009ACE8C0098D467047FB
:10D4900010B50446AFF300802046BDE81040FEF70B
:10D4A000E2BE002801D0FFF7B7BE704710B50021DB
:10D4B00002A000F013F8012010BD000053494741BD
:10D4C0004252543A2041626E6F726D616C207465F5
:10D4D000726D696E6174696F6E00000070B505460B
:10D4E0000C460A2000E06D1CFFF78EFE35B128784F
:10D4F0000028F8D102E0641CFFF786FE14B1207802
:10D500000028F8D1BDE870400A20FFF77DBE5FEA31
:10D51000400C08BF91F0000F4FEA8C234FEAC12264
:10D5200043EA51514FEA1C5018BF00F5F0404FEA52
:10D53000300018BF41F000415FEA6C5C00F02980C8
:10D54000BCF1FF3F08BF40F080407047130C06BF9E
:10D5500012044FF0100C4FF0000C130E04BF120217
:10D560000CF1080C130F04BF12010CF1040C930F03
:10D5700004BF92000CF1020CD30F04BF52000CF157
:10D58000010C11464FF00002A0F11F00A0EB0C00AF
:10D59000704711F0004F08BF704731F000413FF471
:10D5A000D5AF0B0C06BF09044FF0100C4FF0000C68
:10D5B0000B0E04BF09020CF1080C0B0F04BF09018C
:10D5C0000CF1040C8B0F04BF89000CF1020CCB0F83
:10D5D00004BF49000CF1010CCCF12003A0EB0C00BE
:10D5E00022FA03F302FA0CF241EA030100F101000E
:10D5F000704720F07F4C80EA030023F07F47ACEBBC
:10D60000070303F57C5300F0004003F1FF032DE90D
:10D6100080494FEA154B09B44FEA144325EA0B4EF3
:10D6200024EA03480FF2042606EB132749083E7844
:10D630005FEA320203FB0667C7F5000707FB06F641
:10D640004FEA54374FEAD64606F1020607FB066C4E
:10D65000CCF1005C4FEA1C472CEA074C07FB06F4B0
:10D660000CFB06F504EB15464FEA961634BF002076
:10D670004FF000404FEAD13706FB07FC4FEA1C4C45
:10D680000CFB0BF7D21B03FB0CF761EB07010CFB48
:10D690000EF7B0EB074072EB17420CFB08F734BFF4
:10D6A000A2EB0742B2EB074261EB17414FEA0C4491
:10D6B0004FEA910706FB07FC4FEA1C4C0CFB0BF7EB
:10D6C000B0EBC74072EB573203FB0CF734BFA2EB51
:10D6D000C742B2EBC74261EB57310CFB0EF7B0EB20
:10D6E000C70072EB57720CFB08F734BFA2EBC702FE
:10D6F000B2EBC70261EB5771039F4FEA816141EAC8
:10D70000921104EBCC044FEAD1374FEA826206FB58
:10D7100007FC42EA90124FEA80604FEA1C4C0CFB77
:10D720000BF7D21B03FB0CF761EB07010CFB0EF7A9
:10D73000B0EB074072EB17420CFB08F734BFA2EBCB
:10D740000742B2EB074261EB17414FEA8C554FEAB3
:10D75000910704EB9C2406FB07FC4FEA1C4C0CFBD6
:10D760000BF7B0EBC74072EB573203FB0CF734BF3B
:10D77000A2EBC742B2EBC74261EB57310CFB0EF78D
:10D78000B0EBC70072EB57720CFB08F734BFA2EB8B
:10D79000C702B2EBC70261EB577115EB4C254FEA9C
:10D7A000816141EA92114FEA82624FEAD13742EA3F
:10D7B000901206FB07FC44F100044FEA80604FEA38
:10D7C0001C4C0CFB0BF7D21B03FB0CF761EB0701A6
:10D7D0000CFB0EF7B0EB074072EB17420CFB08F79F
:10D7E00034BFA2EB0742B2EB074261EB174115EBE6
:10D7F0001C154FEA813141EA92414FEA823242EAF6
:10D8000090424FEA80304FEA0C7644F1000448EA37
:10D8100003434EEA0B484FF0000EB2EB080C71EBDD
:10D82000030724BF624639464EEB0E0E4FF0000B45
:10D830000018524149414BEB0B0BB2EB080C71EB5A
:10D8400003077BF1000B24BF624639464EEB0E0EF8
:10D850004FF0000B0018524149414BEB0B0BB2EB60
:10D86000080C71EB03077BF1000B24BF62463946BD
:10D870004EEB0E0E51EA020718BF46F0010616EBFA
:10D880000E7655F1000254F1000103D5BDE889017F
:10D89000BDE80088BDE88901BDE80048B6195241DD
:10D8A00041EB0101A3F10103704780807F7E7D7C05
:10D8B0007B7A7978777676757473727171706F6E22
:10D8C0006E6D6C6C6B6A6A696868676666656464CD
:10D8D000636362616160605F5F5E5E5D5D5C5C5B57
:10D8E0005B5A5A59595858575756565555555454C6
:10D8F000535352525251515050504F4F4F4E4E4D24
:10D900004D4D4C4C4C4B4B4B4A4A4A49494948486F
:10D9100048474747474646464545454444444443AF
:10D9200043434342424242414141002B9C4630D452
:10D9300077002BD01CB54FEA370703B44FF0100027
:10D940004FF01001BAF1000F06D0BCF1000FDCBFA0
:10D9500040F0080040F008014FF000000FBCBDE8A7
:10D9600010400BF1010BBBF1010F08BF5FEA170775
:10D9700022BF12F1010211F101014FF0004143F108
:10D98000000300F0004043EA00007047F9D3570855
:10D99000D0E746EA064613F1400F4FEA16461FDD70
:10D9A00013F1200FDFBF16430A46002120335B42EC
:10D9B000BED0C3F1200746EA064602FA07F74FEA4F
:10D9C000164646EA0706C3F1200722FA03F201FAD7
:10D9D00007F721FA03F14FF0000342EA0702A7E735
:10D9E00046EA020646EA06464FEA164646EA0106B7
:10D9F000BCBF46EA0646360C4FF000034FF000026B
:10DA00004FF0000194E72DE9804C9A46934670B49C
:10DA100091E8380007C831EA400C48BF34EA430CAB
:10DA200003D5FFF7E6FDFFF780FFF0BCBDE8008CF3
:10DA30002DE9804C9A46934670B491E8380007C8A7
:10DA400010F0804F08BF13F0804F03D100F005F8AD
:10DA5000FFF76BFFF0BCBDE8008C20F07F4780EA49
:10DA6000030023F07F4C07EB0C03A3F57C5300F07D
:10DA70000040A3F1FE0392F0000F00F0B38095F098
:10DA8000000F00F077802DE901494FEA11404FEA7D
:10DA9000144621EA004800FB06FC24EA064708FB7E
:10DAA00006F607FB08F800FB07F718EB06484CEBF7
:10DAB000164C4FEA124B18EB07484FEA15464CEB51
:10DAC000174022EA0B4E0BFB06FC25EA06470EFB2D
:10DAD00006F607FB0EFE0BFB07F71EEB064E4CEBA4
:10DAE000164C4FF000061EEB074E4CEB174B18EB95
:10DAF0000B0840F1000018EB0E0B58EB000840F14A
:10DB000000008F1A4FF000013CBFC943661B14BFD1
:10DB1000B5EB040C00213CBFC943F61B4FEA174488
:10DB20004EEA8E0E27EA04454FEA1C4704FB0762C3
:10DB30002CEA074C05FB07F70CFB05F604FB0CFC75
:10DB400016EB074642EB174216EB0C4642EB1C4223
:10DB50001BEB060658EB0202414146EA9E0601D540
:10DB6000BDE80189B619524141EB0101A3F101035E
:10DB7000BDE801894FEA14454FEA114724EA0546FA
:10DB800021EA074C05FB07F406FB07F70CFB06F13F
:10DB900005FB0CFC11EB074144EB17444FEA12471D
:10DBA00011EB0C4144EB1C4422EA074C05FB07F245
:10DBB00006FB07F70CFB06F605FB0CFC16EB07460D
:10DBC00042EB174216EB0C4642EB1C456A1854F127
:10DBD000000148BF7047B619524141EB0101A3F162
:10DBE0000103704795F0000F37D04FEA11424FEA1A
:10DBF000144721EA024624EA074C02FB07F106FB20
:10DC000007F70CFB06F402FB0CFC14EB074441EB9A
:10DC100017414FEA154714EB0C4441EB1C4125EA30
:10DC2000074C02FB07F506FB07F70CFB06F602FBA9
:10DC30000CFC16EB074645EB174516EB0C4645EB7F
:10DC40001C42121951F1000148BF7047B6195241E8
:10DC500041EB0101A3F1010370474FEA14454FEA7C
:10DC6000114724EA054621EA074C05FB07F106FBAC
:10DC700007F70CFB06F24FF0000605FB0CFC12EB5D
:10DC8000074241EB174112EB0C4251EB1C4148BFDC
:10DC90007047921841EB0101A3F1010370470000A6
:10DCA00010B54CF28101134802F03AF801280DD169
:10DCB000114A00210F4801F0B5FC0F4828380CF03C
:10DCC0000BFF4CF281010B4802F08CF90B4909481B
:10DCD00002F026F801280CD1074A0121054801F07D
:10DCE000A1FC054828380CF0F7FE0449014802F071
:10DCF00079F910BD00640040A014002084000100E8
:10DD000010B5012002F04EF8D8B1012002F06AFAF5
:10DD100001210C4801F028FB40B101200A4948705C
:10DD20000A480DF069F9084988600AE000200649B0
:10DD3000487006480DF060F903498968401A0249A5
:10DD4000C86010BD0008014050200020F8010020EC
:10DD500010B54FF4806002F025F818B14FF48060E0
:10DD600002F040FA10BD000010B5202002F01AF8B1
:10DD700050B1202002F036FA01200449087004480E
:10DD80000DF03AF90149486110BD00005020002013
:10DD9000F801002000BFBFF34F8F0748006800F470
:10DDA000E06006490843001D03490860BFF34F8F38
:10DDB00000BF00BF00BFFDE70CED00E00000FA056A
:10DDC0007047000000B502480DF01AF900BD0000D0
:10DDD000F801002010B51048006840F470000E49AA
:10DDE00008600E48006840F001000C4908600020FF
:10DDF0004860C86208460068094908400749086049
:10DE00004FF41F0088600846006820F480200860F6
:10DE100001F004FD10BD000088ED00E0001002409C
:10DE2000FFFFF6FE10B504460548844207D140F2D4
:10DE3000194002F03DF840F2194002F0C3F910BD5C
:10DE40000064004070B504460D462946204602F0A5
:10DE50005DFC08B900BFFEE705EB8500810004F119
:10DE60000800405820F0010105EB8500820004F114
:10DE700008008150002105EB8500820004F10800B4
:10DE8000815005EB8500820004F10C00815005EB08
:10DE90008500820004F11000815005EB85008200AE
:10DEA00004F1140081506068AA000F2191400843DA
:10DEB000606070BD1CB501200221CDE9001004484E
:10DEC000C3791E22BA2103480DF082FF1CBD000059
:10DED00088200020180200200C48006900F0800013
:10DEE00020B10B48094948600A4848600A48008840
:10DEF000B0F5007F09D90548006D00F0800020B121
:10DF000003480249486403484864704700200240BF
:10DF100023016745AB89EFCDE0F7FF1F01460805F8
:10DF2000094A92F8A82900EB4230074A92F8A92939
:10DF300000EB8220044A92F8A52900EBC200024AB5
:10DF400092F8A429104470477814002010B50446B4
:10DF50000D48204418B1B0F5806F12D108E040F2AE
:10DF6000154001F0A5FF40F2154002F02BF909E041
:10DF700040F2164001F09CFF40F2164002F022F9F8
:10DF800000E000BF00BF10BD00ACFFBF016841F062
:10DF9000010101607047000010B50346180540EA12
:10DFA000413040EA8220054C94F8A54940EAC4007B
:10DFB000024C94F8A449204310BD000078140020BE
:10DFC000016841F040010160704700000A888262E8
:10DFD0001D4A90420ED0B0F1804F0BD01B4A9042A8
:10DFE00008D01B4A904205D01A4A904202D01A4AE1
:10DFF00090420BD1026822F07002026002684B88E6
:10E000001A43026002688B881A4302608A68C262FF
:10E01000124A90420AD0124A904207D0026822F473
:10E020004072026002688B891A430260064A90427D
:10E0300002D0094A904201D18A7B0263426942F0D0
:10E040000102426170470000002C014000040040C2
:10E0500000080040000C0040003401400010004067
:10E0600000140040816821F0010181607047014681
:10E070004FF4784000EA11204FF4FC6202EA51129A
:10E080001043C1F3C402104370470000484000220F
:10E090000AE000F001031BB1054B83EA500300E0E6
:10E0A00043081846531CDAB2082AF2DB7047000016
:10E0B0002083B8ED10B5024602EB9110006801F024
:10E0C0001F040123A340184008B1012010BD002007
:10E0D000FCE7000070B588B004462248007AB0B171
:10E0E0002148015D4638405600EE900AF8EEE00AFD
:10E0F000B0EE600A1D480CF0B7FFBDEEC00A10EE8E
:10E10000105A2A461AA104A8FEF7D4F807E01648C8
:10E11000015D4638425616A104A8FEF7CBF8124816
:10E120004F3890F84E00032806DD04A8FEF79EFB4A
:10E13000401E04A900220A54204600F02DF905468D
:10E14000204600F0FBF806460020012103222B4662
:10E15000CDE900210290324604A907480DF056FF90
:10E1600008B070BDDC07002093080020F8010020F3
:10E1700025303264C2B00000180200200146074A70
:10E1800002EB9110006801F01F0301229A40104039
:10E1900008B1012070470020FCE700000020024089
:10E1A0002DE9F05F06468846934616B9B8F1000F90
:10E1B00000D105E04FF47A722EA134A0FEF7BCFA2C
:10E1C0000024002745E006EB0710D0F8049006EB8A
:10E1D0000710D0F80CA0B9F1000F03DBB9F5004F20
:10E1E00000DA05E040F2ED3222A12FA0FEF7A4FAFA
:10E1F000BAF1000F03DBBAF5004F00DA05E040F298
:10E20000EE321CA132A0FEF797FA06EB0711087850
:10E21000594600F0AFFF0546002D02DB102D00DC53
:10E2200005E04FF47C7213A134A0FEF785FA0120BB
:10E23000A840484503DC4FF0FF30BDE8F09F281DA3
:10E2400050440444B4F5004F02DB4FF0FF30F4E7D4
:10E250007F1C4745B7D3002C03DBB4F5004F00DA31
:10E2600005E040F2F73203A12BA0FEF765FA204645
:10E27000E3E70000557365725C5172436F64655C3F
:10E280007172636F646567656E2E63007365677393
:10E2900020213D204E554C4C207C7C206C656E200E
:10E2A0003D3D20300000000030203C3D206E756D6B
:10E2B0004368617273202626206E756D4368617213
:10E2C00073203C3D20494E5431365F4D415800008B
:10E2D00030203C3D206269744C656E67746820266E
:10E2E00026206269744C656E677468203C3D204945
:10E2F0004E5431365F4D41580000000030203C3D07
:10E3000020636362697473202626206363626974E4
:10E3100073203C3D2031360030203C3D2072657337
:10E32000756C7420262620726573756C74203C3DD4
:10E3300020494E5431365F4D415800000146154882
:10E3400090F84E00062823D2DFE800F02203050CE7
:10E35000121CA020704701EB8100502202EB4010FC
:10E3600080B2F7E701EB8100502202EB0010F1E7E9
:10E37000012901DD481CC1B201EBC100C0EB8110D5
:10E380003230E7E701EBC100C0EB81103230E1E74A
:10E390000020DFE7440800200146174890F84E00AF
:10E3A000062827D2DFE800F0260305071708C82053
:10E3B0007047C820FCE700BF4A1C02EBD270401037
:10E3C000A2EB400000EBC00303EB0010C823A3EB5B
:10E3D000400080B2ECE7012901DB022901DD0120C8
:10E3E00000E0002000EBC00303EB0010C823A3EB08
:10E3F0004000DDE70020DBE74408002001617047B2
:10E4000030B502460023002001F00043B3F1004F75
:10E4100007D194698DB22C400CB1012008E0002096
:10E4200006E054698DB22C400CB1012000E00020C0
:10E4300030BD000010B504463349601A8C4244D008
:10E440000CDCB4F1804F1CD03048204410B3B0F540
:10E45000806F28D0B0F5006F52D12DE0B0F5806FFD
:10E460003CD0B0F58E3F03D0B0F5923F48D13EE0AE
:10E4700040F20B3001F01CFD40F20B3001F0A2FE27
:10E480003FE04FF4806001F013FD4FF4806001F035
:10E4900099FE36E040F2014001F00AFD40F20140F1
:10E4A00001F090FE2DE040F2024001F001FD40F24B
:10E4B000024001F087FE24E040F2034001F0F8FC46
:10E4C00040F2034001F07EFE1BE040F2044001F008
:10E4D000EFFC40F2044001F075FE12E040F205400E
:10E4E00001F0E6FC40F2054001F06CFE09E040F26C
:10E4F0000D3001F0DDFC40F20D3001F063FE00E074
:10E5000000BF00BF10BD00000010004000FCFFBFB6
:10E51000016841F0010101607047014600208A69ED
:10E52000C2F30210704700002DE9FF5F82460C46DF
:10E530009346584615F034FD074600257E1E3DE003
:10E54000062E00D105264FF0000834E04FF00009F8
:10E550002CE0A6EB09000390701C012121EA500079
:10E560000290029818B1781EA0EB080000E0404627
:10E5700001905846019A039900F028FDA0B9B5EB27
:10E58000C40F11DA05F00702C2F107010AEBE50238
:10E59000107802F0EDF900905846DDE90032039959
:10E5A00000F036FE6D1C00BF09F10109B9F1020F40
:10E5B000CFDB08F10108B845C8DBB61E012EBFDA73
:10E5C000B5EBC40F00D105E040F2622202A108A021
:10E5D000FEF7B2F8BDE8FF9F557365725C51724358
:10E5E0006F64655C7172636F646567656E2E63004E
:10E5F00069203D3D20646174614C656E202A20389D
:10E60000000000002DE9F04706460F469046994667
:10E61000DDF820A000240BE0002506E03A1971196E
:10E620000123504600F0F4FD6D1C4545F6DB641CEB
:10E630004C45F1DBBDE8F087044A116821F0070181
:10E6400041EA0002014B1A607047000000200240BE
:10E6500010B5094810F0EAFE04465CB10648407E59
:10E6600040B10648C0684FF47A7200FB02F10348DB
:10E6700011F096F910BD0000502000202C20002041
:10E68000016821F001010160704701460A78C02A43
:10E6900009D3DF2A07D84878802804D34878BF28D0
:10E6A00001D802207047E02A0FD3EF2A0DD848780E
:10E6B00080280AD34878BF2807D88878802804D3D0
:10E6C0008878BF2801D80320ECE70120EAE70000A2
:10E6D0002DE9F84F82460E469346002E02DB072EA8
:10E6E00000DC05E040F212224BA151A0FEF724F815
:10E6F000584850F82A0046EAC0084446002006E080
:10E70000611240F23752514381EA4404401C0A2806
:10E71000F6DB44EA882045F2124180EA01094FEA1B
:10E72000E93000B905E040F219223BA14AA0FEF70A
:10E7300003F800270BE03946484602F019F9034672
:10E740003A4608210090584600F062FD7F1C052FD4
:10E75000F1DD0621484602F00BF907463B46072249
:10E760000821584600F054FD0721484602F000F900
:10E7700007463B4608221146584600F049FD08214D
:10E78000484602F0F5F807463B460822072158465E
:10E7900000F03EFD09270CE03946484602F0E8F853
:10E7A000C7F10E01034608220090584600F030FDE4
:10E7B0007F1C0F2FF0DB584615F0F2FB05460027B3
:10E7C0000CE03946484602F0D3F80090681EC11BA1
:10E7D00008225846009B00F01BFD7F1C082FF0DB31
:10E7E00008270DE03946484602F0C2F80090A5F12E
:10E7F0000F00C21908215846009B00F009FD7F1C3C
:10E800000F2FEFDBA5F1080201230821584600F085
:10E81000FFFCBDE8F88F0000557365725C517243D0
:10E820006F64655C7172636F646567656E2E63000B
:10E8300030203C3D2028696E74296D61736B202661
:10E84000262028696E74296D61736B203C3D20374A
:10E85000000000005488020862697473203E3E2064
:10E860003135203D3D20300030B505463648008822
:10E87000B0F5007F48D9354885421ED24FF470204C
:10E8800001F044F90446002C5BD13148006940F0A6
:10E8900002002F49086108464561006940F04000C8
:10E8A00008614FF4702001F031F9044628480069EE
:10E8B00020F002002649086143E04FF4702001F087
:10E8C00036F90446002C3CD12148006D40F002008E
:10E8D0001F49086508464565C06900F0020008B197
:10E8E000084645611A48006D40F040001849086527
:10E8F0004FF4702001F01BF904461548006D20F01C
:10E900000200134908651CE04FF4702001F0FEF886
:10E910000446B4B90E48006940F002000C49086191
:10E9200008464561006940F0400008614FF47020DE
:10E9300001F0ECF804460648006920F002000449A2
:10E940000861204630BD0000E0F7FF1FFFFF070809
:10E950000020024041617047012904D1026842F45D
:10E960008062026003E0026822F480620260704705
:10E9700070B5044600250BE02078202801D1032043
:10E9800003E0217805480FF0ADFA284485B2641CF5
:10E9900020780028F0D1284670BD000068140020BF
:10E9A00010B50021837A012202FA03F13E4A12686F
:10E9B00042F001023C4B1A603B4A1C3212688A4307
:10E9C000394B1C331A60C289DAB9374A0C321268E3
:10E9D0008A43354B0C331A60C288344B03EA024237
:10E9E00043881A434389304C403444F833208288AA
:10E9F0002E4B03EA024203881A43438904EBC30304
:10EA00005A60C289012A1BD1274A0C3212680A4374
:10EA1000254B0C331A600288244B03EA02424388D8
:10EA20001A434389204C403444F8332082881F4BDA
:10EA300003EA0242C3881A43438904EBC3035A60C2
:10EA400082893AB9184A121D12688A43164B1B1D57
:10EA50001A6006E0144A121D12680A43124B1B1D6D
:10EA60001A6002893AB9104A143212688A430E4B6E
:10EA700014331A6006E00C4A143212680A430A4B37
:10EA800014331A60027C012A06D1074A1C3212682C
:10EA90000A43054B1C331A60034A126822F0010234
:10EAA000014B1A6010BD0000006600400000FFFF2F
:10EAB0001149C979104A9279C2EB021201EB820026
:10EAC0000E4949780D4A1278C2EB021201EB82011D
:10EAD00081420DDC0949C978084A9278C2EB0212DA
:10EAE00001EB8201814203DD0021054A117002E041
:10EAF0000121034A117070478820002098020020ED
:10EB0000050000202DE9F14F88B0089815F048FA6B
:10EB10000546002400273EE04FF0000A00261C2195
:10EB20006846FDF7DAFFB34628E03A4659460898AA
:10EB300000F04CFA504508D1761C052E01D1E41C9A
:10EB40001AE0052E18DD641C16E02A466946304698
:10EB500001F03AF9BAF1000F07D12946684601F0F1
:10EB60001DFC00EB800004EBC0043A4659460898AF
:10EB700000F02CFA824601260BF1010BAB45D4DBE9
:10EB80002B466A463146504601F0FFFD00EB8000FF
:10EB900004EBC0047F1CAF42BEDB00273EE04FF019
:10EBA000000A00261C216846FDF797FFB34628E0BF
:10EBB0005A463946089800F009FA504508D1761CA3
:10EBC000052E01D1E41C1AE0052E18DD641C16E0A8
:10EBD0002A466946304601F0F7F8BAF1000F07D12E
:10EBE0002946684601F0DAFB00EB800004EBC00424
:10EBF0005A463946089800F0E9F9824601260BF199
:10EC0000010BAB45D4DB2B466A463146504601F03A
:10EC1000BCFD00EB800004EBC0047F1CAF42BEDBF8
:10EC2000002622E000271CE032463946089800F012
:10EC3000CDF982463246791C089800F0C7F9504554
:10EC40000ED1721C3946089800F0C0F9504507D122
:10EC5000721C791C089800F0B9F9504500D1E41CE9
:10EC60007F1C681EB842DFDC761C681EB042D9DC0F
:10EC70000020079000260EE0002709E032463946C2
:10EC8000089800F0A3F910B10798401C07907F1C6A
:10EC9000AF42F3DB761CAE42EEDB05FB05F80799CD
:10ECA00001EB8101890008EB8802A1EB42000028FA
:10ECB00001DB014600E041424144491E91FBF8F16D
:10ECC000A1F10109B9F1000F03DBB9F1090F00DC73
:10ECD00005E040F2CE220CA111A0FDF72DFD09EBBD
:10ECE000890004EB4004002C03DB1248844200DC62
:10ECF00005E04FF4347204A10FA0FDF71DFD20467E
:10ED000009B0BDE8F08F0000557365725C51724325
:10ED10006F64655C7172636F646567656E2E630016
:10ED200030203C3D206B202626206B203C3D2039A6
:10ED300000000000B832270030203C3D207265738F
:10ED4000756C7420262620726573756C74203C3DAA
:10ED500020323536383838384C000000016841F42C
:10ED600000710160704700002DE9F04103460D4637
:10ED7000164600240027A0462A48006800F4E060F8
:10ED8000B0F5E06F03D100BF4FF0040830E0254834
:10ED9000006800F4E060B0F5C06F03D101274FF0C8
:10EDA000030825E01F48006800F4E060B0F5A06F9C
:10EDB00002D10227B8461BE01A48006800F4E06060
:10EDC000B0F5806F03D103274FF0010810E015481C
:10EDD000006800F4E060B0F5407F03D104274FF0F5
:10EDE000000805E04FF4A06001F048F80227B8469B
:10EDF000C7F1040005FA00F4C8F104010F20C8406F
:10EE00003040044324010848C45403F01F0101208A
:10EE100088405911890001F1E021C1F80001BDE8E5
:10EE2000F08100000CED00E000E400E010B51148B6
:10EE3000007803280FD01048007960B90F48007897
:10EE400010B10F48807901E00D48407901460D4826
:10EE500010F09CFD0DE00C48C07A012804D100217F
:10EE6000084810F093FD04E00748017B054810F0C6
:10EE70008DFD10BD0400002030080020050000209A
:10EE8000980200202C200020DC0700202DE9F04112
:10EE900090B007460D464FF6FF7600242EE0281B63
:10EEA000402801D9402000E0281B804607EBC7001E
:10EEB0004FF4CA0101EB004000F5803002194346CF
:10EEC0006946114810F026F8002014E01DF80010E3
:10EED00001220DE006F00103761001F0010C9C45C3
:10EEE00003D04AF2010C86EA0C064910531CDAB230
:10EEF000082AEFDD401C4045E8D34034AC42CED375
:10EF0000304610B0BDE8F0811420002070B50446F2
:10EF10000D4600262A480088B0F5007F35D92948DB
:10EF2000844219D24FF4702000F0F0FD0646002E06
:10EF300043D12548006940F001002349086125605C
:10EF40004FF4702000F0E2FD06461F48006920F0F3
:10EF500001001D49086130E04FF4702000F0E7FD2A
:10EF6000064656BB1848006D40F00100164908657A
:10EF700025604FF4702000F0DAFD06461248006D5F
:10EF800020F001001049086517E04FF4702000F0F0
:10EF9000BDFD06468EB90C48006940F001000A49E3
:10EFA000086125604FF4702000F0B0FD0646064869
:10EFB000006920F0010004490861304670BD00007E
:10EFC000E0F7FF1FFFFF0708002002402DE9F04196
:10EFD00007460D4616463C78152C0ADBB12C08DC9A
:10EFE000002D06DBA54204DA002E02DBA64200DA81
:10EFF00005E040F20F3208A10D48FDF79DFB06FB2E
:10F00000045808F00701012202EBE802B85C01F0A5
:10F01000AFFCBDE8F0810000557365725C5172432E
:10F020006F64655C7172636F646567656E2E630003
:10F030005CD303082DE9F05F04460E46914602209A
:10F0400000F09AF907464348B7FBF0F8B8F17F0F94
:10F0500001D34FF07F08D4F804B02BF07F0B4BEABC
:10F06000080BC4F804B03C48864218D83948B7FBAE
:10F07000F0F000F1010ABAF17F0F02D37F20206285
:10F0800001E0C4F820A07000B7FBF0F5042D00D219
:10F090000425E069C5F30B010843E06158E02F48FF
:10F0A00086422CD84FF4967008FB00F04FF47A712A
:10F0B000B0FBF1F0401C2062B9F1000F08D106EB63
:10F0C0004600B7FBF0F5E06920F48040E06109E01C
:10F0D00006EBC60000EB0610B7FBF0F5E06940F464
:10F0E0008040E061C5F30B0008B945F00105E06917
:10F0F00040F40040E061E0692843E06128E0C8EBAB
:10F100000810C0004FF47A71B0FBF1F0401C20628F
:10F11000B9F1000F08D106EB4600B7FBF0F5E06946
:10F1200020F48040E06109E006EBC60000EB061029
:10F13000B7FBF0F5E06940F48040E061E06940F43D
:10F140000040E061E0692843E0610120C4F89000DC
:10F15000BDE8F09F40420F00A0860100801A060023
:10F1600001460869C0B27047016841F480710160CE
:10F170007047000070B506460D46012D02DB282DB4
:10F1800000DC05E040F2FF3214A11A48FDF7D4FA82
:10F19000E81D112190FBF1F4092E18D2DFE806F0EA
:10F1A000170509170D1717151100134850F82400FB
:10F1B00070BD124850F82400FAE7114850F82400B6
:10F1C000F6E7104850F82400F2E70020F0E740F29C
:10F1D000074202A10CA0FDF7AFFA0000557365725B
:10F1E0005C5172436F64655C7172636F64656765DF
:10F1F0006E2E630014D30308648802087088020826
:10F200007C8802088888020866616C7365000000CB
:10F210002DE9F05F04460F4690469B462578152D54
:10F220000BDBB12D09DC002F07DBAF4205DAB8F1AB
:10F23000000F02DBA84500DA05E04FF446720FA18B
:10F240001448FDF779FA08FB057909F0070A01204F
:10F2500000EBE906BBF1000F06D0A05D012101FA29
:10F260000AF10843A05507E0A15D012000FA0AF069
:10F2700080F0FF000140A155BDE8F09F5573657215
:10F280005C5172436F64655C7172636F646567653E
:10F290006E2E63005CD3030802469068084008B1F4
:10F2A000012070470020FCE721B9026842F40062A7
:10F2B000026003E0026822F4006202607047CAB292
:10F2C0000261704710B5002804DB0A07130E054AD7
:10F2D000135406E00A07140E034A00F00F031B1F25
:10F2E000D45410BD00E400E018ED00E02DE9F04139
:10F2F00006460D4617461C46002D05DB102D03DC87
:10F3000026FA05F000B904E0C62210A11548FDF761
:10F3100013FA681E16E026FA00F101F001012278C6
:10F3200002F00702C2F107029140226807EBE202F5
:10F3300012781143226807EBE2021170401E216827
:10F34000491C21600028E6DABDE8F081557365723A
:10F350005C5172436F64655C7172636F646567656D
:10F360006E2E63008CD1030802469068084008B1F5
:10F37000012070470020FCE72DE9F04F8CB00746D4
:10F3800000200A904AA090E8004CC068CDE905BE74
:10F39000CDF810A007900FF21C1ADAE9000ACDE9A7
:10F3A000020A0FF2101ADAE9000ACDE9000A44480D
:10F3B0004068C0F381000B900B9820B1012804D065
:10F3C00002283FD103E03F4A3EE03F4A3CE03C4850
:10F3D000406800F4803CBCF5803F12D13848C06AD8
:10F3E00000F08048B8F1000F01D1374C00E0374CF5
:10F3F0003348406800F40039B9F5003F02D1314C80
:10F4000000E0334C2E484068C0F383412C484068EC
:10F4100000F0006008B141F010012948406800F098
:10F42000804008B141F020010F2901D2891C06E07B
:10F430000F2903D33E2901D8491C00E03F2104FBDA
:10F4400001F201E01F4A00BF00BF1D484068C0F341
:10F45000031504A8465D22FA06F319484068C0F374
:10F46000022502A8465D23FA06F009901448406878
:10F47000C0F3C2251DF8056023FA06F0089037B1E5
:10F48000012F06D0022F06D0032F0AD106E00A92E0
:10F4900008E00A9306E009980A9003E008980A90A9
:10F4A00000E000BF00BF0A980CB0BDE8F08F00007C
:10F4B0000000000000000000010203040607080924
:10F4C0000010024000127A000024F400006CDC02FC
:10F4D00000093D002DE9F04106460C4615469846C8
:10F4E0003778002C0BDBBC4209DA002D07DBBD426C
:10F4F00005DA43462A4621463046FFF789FEBDE835
:10F50000F08100002DE9FF4F8DB00D461646002E0C
:10F5100006DB042E04DA012D02DB282D00DC05E0D9
:10F520004FF49A7236A13C48FDF706F906EBC60087
:10F5300000EB461039490844445706EBC60000EB7F
:10F540004610374908444757284600F001FB8046DB
:10F55000C01708EB50704FEAE00B3146284600F028
:10F5600003F90C909BFBF4F004FB10B0201A0B90F5
:10F570009BFBF4F0C01B0A9002A9384600F0ACFED9
:10F58000DDF834904FF0000834E00B98804501DB43
:10F59000012100E000210A9801EB000ADDE90C10CE
:10F5A0000844019001983B4602AA51460090484603
:10F5B00000F048FF002041460AE00A9A904201D13B
:10F5C0000B9A891A19F80030109A5354401C2144A0
:10F5D0005045F2DB00200C9A02EB080105E0019A8D
:10F5E000135C109A5354401C2144B842F7DBD144B9
:10F5F00008F10108A045C8DB11B0BDE8F08F00009C
:10F60000557365725C5172436F64655C7172636FB0
:10F61000646567656E2E6300ACD20308B08702088C
:10F620000C87020810B500F5D87303EB01131B68B3
:10F6300003F004031372137A3BB900F5D87303EB9C
:10F6400001131B685B0D136006E000F5D87303EB34
:10F6500001131B68DB08536000F5D87303EB01133B
:10F660001B6803F00203537200F5DA7303EB011316
:10F670001B681B0AD37400F5DA7303EB01131B68D4
:10F6800003F00F03937200F5DC7303EB01131B68A7
:10F69000D37200F5DC7303EB01131B681C0A1473AF
:10F6A00000F5DC7303EB01131B681C0C547300F5AD
:10F6B000DC7303EB01131B681C0E947300F5DE73FF
:10F6C00003EB01131B68D37300F5DE7303EB011327
:10F6D0001B681C0A147400F5DE7303EB01131B682E
:10F6E0001C0C547400F5DE7303EB01131B681C0E35
:10F6F000947421B9C36843F02003C36003E0036935
:10F7000043F02003036110BD00200A49C96801F0DD
:10F71000010109B101200CE00649C96801F010019E
:10F7200009B1032005E00349C96801F0040101B1F2
:10F73000022070470020024000200A49C96C01F0F5
:10F74000010109B101200CE00649C96C01F010016A
:10F7500009B1032005E00349C96C01F0040101B1BE
:10F7600002207047002002402DE9F04107460D4677
:10F770003E462C46002C02DB042C00DA05E040F269
:10F7800055120FA114A0FCF7D7FF304600F0E0F9A6
:10F790008046C01708EB5070C01004EBC40101EBA9
:10F7A0004411114A1144895704EBC40202EB44127C
:10F7B0000E4B1A44925701FB1200BDE8F081000085
:10F7C000557365725C5172436F64655C7172636FEF
:10F7D000646567656E2E630030203C3D2065202601
:10F7E000262065203C2034000C870208B0870208E0
:10F7F00030B502460B46002007210CE0C4111D2540
:10F800006C4384EA400043FA01F404F001045443D9
:10F810004440E0B2491E0029F0DA30BD10B500F0D6
:10F8200057FB10BD01460848027F0B2A00DB00226F
:10F83000B02901DB05A07047054800EB0210806885
:10F8400050F82100F7E70000DC0700203F0000002F
:10F85000F466020870B505460E46B6F5004F02D3B1
:10F860004FF0FF3070BD3446012D08D104EB840009
:10F87000022101EB4000032190FBF1F421E0022D75
:10F8800008D104EB440101EBC401481C00EBD0712A
:10F890004C1016E0042D01D1E40012E0082D04D133
:10F8A00004EB840000EBC4040BE0072D02D10EB979
:10F8B000182405E04FF45B720AA110A0FCF73CFF8E
:10F8C00000BF002C00DB05E040F26F3205A10DA067
:10F8D000FCF732FFB4F5004F02DB4FF0FF30C1E719
:10F8E0002046BFE7557365725C5172436F64655C77
:10F8F0007172636F646567656E2E630066616C7319
:10F9000065000000726573756C74203E3D20300008
:10F9100042690A434261704730B502460B460021F6
:10F92000906800F08060B0F1806F00D110E09068C6
:10F9300000F00060B0F1006F01D1012108E0906893
:10F9400000F08050B0F1805F01D1022100E003217E
:10F95000032901D1032030BD02F5C07000EB011076
:10F96000006800F0010402F5C07000EB01100460B3
:10F97000187A88B918883B4C04EA40505C7A2043D6
:10F9800002F5C07404EB01142468204302F5C0742E
:10F9900004EB0114206013E06FF00704586804EAD8
:10F9A000C0001C7A20435C7A204302F5C07404EB4B
:10F9B00001142468204302F5C07404EB0114206094
:10F9C00002F5C27000EB0110006820F00F0402F590
:10F9D000C27000EB0110046002F5C27000EB011070
:10F9E00000689C7A204302F5C27404EB0114206085
:10F9F000987B4FF07F4404EA00605C7B4FF47F0506
:10FA000005EA044420431C7B2D1205EA042420430C
:10FA1000DC7A204302F5C47404EB01142060987C66
:10FA20002C0404EA00605C7C2D0205EA04442043B7
:10FA30001C7C2D1205EA04242043DC7B204302F5C4
:10FA4000C67404EB0114206002F5C07000EB0110D5
:10FA5000006840F0010402F5C07000EB0110046082
:10FA6000084678E70000E0FF10B5024609B900BF7C
:10FA7000FEE732B1012A16D0022A20D0032A41D152
:10FA80002EE000234B71CB718B7140F2FF334B8121
:10FA900000230B724B7002238B700023CB700B7111
:10FAA0004B720B7030E00123CB8100230B740B8170
:10FAB0000B804B808B80CB808B814B8124E000209E
:10FAC00005E0002401F10B031C54431CD8B20828A4
:10FAD000F7D300238B724B600B724B720B6013E0F9
:10FAE000002005E0002401F10B031C54431CD8B294
:10FAF0000828F7D300238B724B600B72CB744B72C8
:10FB00000B6001E000BFFEE700BF10BD00B503467B
:10FB1000012200BFFFF7F8FD02465B1E012A01D15A
:10FB2000002BF7D1012A00D10422104600BD00B5F8
:10FB30000346012200BFFFF7FFFD02465B1E012ABC
:10FB400001D1002BF7D1012A00D10422104600BDBB
:10FB500070B50446012C02DB282C00DC05E04FF4D4
:10FB6000B07215A11AA0FCF7E7FD200180306043B8
:10FB700000F14005022C0FDB072194FBF1F1881CFA
:10FB800000EBC00101EB00110A39414337396D1A0E
:10FB9000072C00DB243D00BFD02D04DB47F2D03022
:10FBA000854200DC05E04FF4B47203A118A0FCF715
:10FBB000C3FD284670BD0000557365725C517243E9
:10FBC0006F64655C7172636F646567656E2E630058
:10FBD0007172636F646567656E5F56455253494F36
:10FBE0004E5F4D494E203C3D2076657220262620F2
:10FBF000766572203C3D207172636F646567656E47
:10FC00005F56455253494F4E5F4D4158000000002A
:10FC1000323038203C3D20726573756C7420262686
:10FC200020726573756C74203C3D2032393634384F
:10FC30000000000030B50C460021016821F00201EF
:10FC40002143016042EA0305856030BDF0B50A46F4
:10FC5000002300240021002500F00046B6F1004FEB
:10FC600002D11D4EF16901E01B4E7168C0F30345DE
:10FC700083B200F44016B6F5401F08D121F0706140
:10FC8000154E766826F07066134F7E6012E000F421
:10FC90008016B6F5801F06D1032606FA05F4A143A7
:10FCA00041F0706106E0460D360103FA06F6B143F5
:10FCB00041F0706122B1460D360103FA06F6314378
:10FCC00000F00046B6F1004F02D1034EF16101E0B1
:10FCD000014E7160F0BD00000000014012F1020F02
:10FCE00002D121F0010101E041F001010161704701
:10FCF000024A0A400243024B1A60704780FFFF1F0E
:10FD000008ED00E0044A516821F4605141EA000224
:10FD1000014B5A607047000000100240C1607047FC
:10FD2000F0B505460C46002600274CF281008442BF
:10FD300005D10021284600F01BFD064619E01348B6
:10FD4000844205D10121284600F012FD064610E04C
:10FD50000F48844204D12846FEF7DFFB064608E040
:10FD600005EB14300068C4F384120121914000EACD
:10FD70000106686904F01F020121914000EA0107B1
:10FD800016B10FB10120F0BD0020FCE78400010096
:10FD9000CB80010081621AB9436943F001034361DA
:10FDA0007047000001460748006800EA0102054864
:10FDB0001438006800EA010312B10BB1012070474A
:10FDC0000020FCE71404014070B505460C461646B9
:10FDD000206800B9354418222146201DFCF71EFE7C
:10FDE000256070BD10B500228B071C0F0F2303FA8E
:10FDF00004F204290EDA204B9B6893431E4CA36047
:10FE000023469B688C07240F00FA04F423431A4C02
:10FE1000A3602FE008290EDA174BDB689343164CDA
:10FE2000E3602346DB688C07240F00FA04F42343C5
:10FE3000114CE3601EE00C290EDA0F4B1B69934353
:10FE40000D4C236123461B698C07240F00FA04F430
:10FE50002343094C23610DE0074B5B699343064C38
:10FE6000636123465B698C07240F00FA04F4234383
:10FE7000014C636110BD00000000014002490143D4
:10FE8000024A1160704700000000FA050CED00E026
:10FE9000064A02EB9011096800F01F0301229A4004
:10FEA0001143024B03EB90121160704700100240A7
:10FEB000064A02EB9011096800F01F0301229A40E4
:10FEC0001143024B03EB9012116070470010024087
:10FED00070B5002400254048006840F480303E4959
:10FEE000086000BF641C3C48006800F4003515B988
:10FEF000B4F5006FF6D13848006800F4003008B956
:10FF000000BFFEE73448C06940F080503249C86104
:10FF10003248006840F44040304908600220FEF753
:10FF20008BFB2D4840682C49486008464068486073
:10FF30000846406840F4806048600846406820F405
:10FF4000403048600846406840F440304860084609
:10FF5000406823490840204948600846406840F40A
:10FF6000501048600846006840F08070086000BF8C
:10FF70001948006800F000700028F9D017480068A0
:10FF800040F480301549086000BF1448406800F410
:10FF900080300028F9D01148006840F400300F4943
:10FFA000086000BF0D48406800F400300028F9D018
:10FFB0000948406820F00300074948600846406847
:10FFC00040F00200486000BF0348406800F00800AD
:10FFD0000028F9D070BD0000001002400070004001
:10FFE000FFFFC3B7C1F3841301229A4000EB113322
:10FFF0001A6070472DE9F34F83B00F46039813F052
:020000040801F1
:10000000CFFF804607240CE00023224606210398F8
:10001000FFF7FEF80023062221460398FFF7F8F8C1
:10002000A41CA8F10700A042EEDC6FF0030435E049
:100030006FF003052FE0281E01DB014600E041427E
:100040008946201E01DB014600E04142494505DDAD
:10005000201E01DB014600E041428946B9F1020F52
:1000600002D0B9F1040F15D1E21CE91C002303985A
:10007000FFF730FAE21CA8F10400411900230398AD
:10008000FFF728FAA8F104000219E91C00230398DD
:10009000FFF720FA6D1C042DCDDD641C042CC7DD98
:1000A00001A9384600F03EFB0646002436E0002554
:1000B00031E004B93DB114B9701EA84203D0701EDE
:1000C000A04201D105B925E04FF0FF391EE04FF005
:1000D000FF3A16E0BAF1000F04D1B9F1000F01D1D7
:1000E000012000E00020034601A8405D00EB09026A
:1000F00001A8005D00EB0A010398FFF789F80AF1F7
:10010000010ABAF1010FE5DD09F10109B9F1010FA9
:10011000DDDD00BF6D1CB542CBDB641CB442C6DB29
:10012000072F38DBB946002007E04FEAE92141F606
:100130002572514381EA4909401C0C28F5DB49EA44
:100140000734A01400B905E04FF4FF7213A119A001
:10015000FCF7F2FA00251BE04FF0000A14E0A8F1CA
:100160000B0000EB0A0B04F001032A4659460398E2
:10017000FFF74EF804F001035A4629460398FFF7AB
:1001800047F864100AF1010ABAF1030FE7DB6D1CAE
:10019000062DE1DB00BF05B0BDE8F08F5573657239
:1001A0005C5172436F64655C7172636F646567650F
:1001B0006E2E630062697473203E3E203138203D0C
:1001C0003D203000064A02EB9011096800F01F0341
:1001D00001229A409143024B03EB90121160704749
:1001E00000100240014908607047000014040140FB
:1001F0002DE9FE4380460C46112000EB880505FBE7
:1002000005F0C61DF01706EB5070C010411C2046CB
:10021000FCF741FC25702B460122002106200094AA
:10022000FEF7F0F901232A46062100200094FEF78C
:10023000E9F909231A46002108460094FEF7E2F97D
:10024000A5F108000923082200210094FEF7DAF93D
:10025000A5F108010823092200200094FEF7D2F935
:1002600001A9404600F05EFA814600261CE0002706
:1002700017E006B9A7B11EB9A9F10100B8420FD025
:10028000A9F10100B04200D157B101AA0094D25D9A
:10029000911E01AA925D901E05231A46FEF7B2F93F
:1002A0007F1C4F45E5DB761C4E45E0DBB8F1070FC0
:1002B0000FDBA5F10B000623032200210094FEF7BB
:1002C000A1F9A5F10B010323062200200094FEF7FB
:1002D00099F9BDE8FE8300002DE9F04104460D4682
:1002E000012C02DB1E2C00DC05E040F2731216A18B
:1002F0001BA0FCF721FA21462846FCF7CCFB012184
:10030000601E295401274FF0000818E000260DE078
:10031000A85D3946FFF76CFAA855701CA04204DAB4
:10032000A85D711C695C4840A855761CA642EFDBAD
:1003300002213846FFF75CFA074608F10108A0459C
:10034000E4DBBDE8F0810000557365725C517243D7
:100350006F64655C7172636F646567656E2E6300C0
:1003600031203C3D20646567726565202626206447
:100370006567726565203C3D207172636F646567D7
:10038000656E5F524545445F534F4C4F4D4F4E5F36
:100390004445475245455F4D415800002DE9F04125
:1003A00005460E466C6806EB4600A04200DB05E001
:1003B00040F2D92218A11EA0FCF7BEF9002C0FDDD7
:1003C000A868A0420CD104EB4401E868884207D138
:1003D0002869A04204D16869A04201D1012000E04F
:1003E0000020074647B12868B0EB840F04DBA869FA
:1003F000A04201DB012000E0002047B1A969B1EB78
:10040000840F04DB2968A14201DB012100E0002107
:100410000844BDE8F0810000557365725C51724379
:100420006F64655C7172636F646567656E2E6300EF
:100430006E203C3D20717273697A65202A2033005A
:10044000416270472DE9F05F8046894692461C461E
:100450000A9D012C02DB1E2C00DC05E04FF4C77264
:1004600014A11AA0FCF768F921462846FCF713FBF3
:1004700000271AE018F80700297880EA010B621EAD
:10048000691C2846FCF756FA0021601E29540026F4
:1004900008E01AF806005946FFF7AAF9A95D484096
:1004A000A855761CA642F4DB7F1C4F45E2DBBDE875
:1004B000F09F0000557365725C5172436F64655C18
:1004C0007172636F646567656E2E630031203C3D19
:1004D00020646567726565202626206465677265FD
:1004E00065203C3D207172636F646567656E5F5285
:1004F0004545445F534F4C4F4D4F4E5F4445475227
:1005000045455F4D4158000010B531B101293FD03C
:1005100002297DD003297CD1BFE0036A23F00103C7
:100520000362836923F003038361036A146823432E
:100530000362036A23F002030362036AD48823433D
:1005400003626A4B984202D0694B98421FD1036AFA
:1005500023F004030362036A948823430362036A5B
:1005600023F008030362036A148923430362436888
:1005700023F4807343604368548923434360436892
:1005800023F4007343604368948923434360ABE0E2
:10059000036A23F010030362836923F440738361C9
:1005A000036A146843EA04130362036A23F0200316
:1005B0000362036AD48843EA041303624B4B9842F4
:1005C00002D04B4B984226D1036A23F040030362CA
:1005D000036A948843EA04130362036A23F08003E6
:1005E0000362036A148943EA04130362436823F431
:1005F000806343604368548943EA840343604368EB
:1006000023F4006343604368948943EA840301E070
:1006100002E068E0436067E0036A23F480730362EA
:10062000C36923F00303C361036A146843EA042324
:100630000362036A23F400730362036AD48843EA03
:1006400004230362294B984202D0294B984223D1BC
:10065000036A23F480630362036A948843EA0423F1
:100660000362036A23F400630362036A148943EAA2
:1006700004230362436823F480534360436854892E
:1006800043EA04134360436823F400534360436820
:10069000948943EA0413436026E0036A23F48053F9
:1006A0000362C36923F44073C361036A146843EAB5
:1006B00004330362036A23F400530362036AD48899
:1006C00043EA04330362094B984202D0084B984234
:1006D00008D1436823F4804343604368548943EA64
:1006E0008413436000E000BF00BF10BD002C014038
:1006F00000340140012904D1426C42F400424264BA
:1007000003E0426C22F4004242647047024601203A
:10071000034B9A4202D1042900DD002070470000FB
:100720000004024070B502460B46012A01D10020A8
:1007300070BD072092FBF0F0811C01EB410000EB43
:10074000C200401D0425C5EB810590FBF5F0440077
:10075000481E0A2606EB820502E01D54401E2D1B92
:100760000128FADA062018700846E1E7C1627047EE
:100770000246002019B9D36803F0030004E0012900
:1007800002D1136903F0030070472DE9F0410746D9
:100790000D4616461C462FB1224631462846FFF725
:1007A00013FB00252544224631462846FFF70CFB63
:1007B00021463046FFF7F2FDBDE8F08121B982689D
:1007C00042F08002826005E0012903D1826822F0B4
:1007D00080028260704721B9026842F0080202601C
:1007E00005E0012903D1026822F008020260704787
:1007F000016821F080010160704731B101290CD0FE
:10080000022913D0032922D118E0836923F00403BD
:1008100083618369134383611AE0836923F48063EE
:100820008361836943EA0223836111E0C36923F092
:100830000403C361C3691343C36109E0C36923F4BB
:100840008063C361C36943EA0223C36100E000BF60
:1008500000BF704731B101290CD0022913D0032900
:1008600022D118E0836923F0700383618369134305
:1008700083611AE0836923F4E0438361836943EA77
:100880000223836111E0C36923F07003C361C3696C
:100890001343C36109E0C36923F4E043C361C3693F
:1008A00043EA0223C36100E000BF00BF704731B1DB
:1008B00001290CD0022913D0032922D118E0836921
:1008C00023F0080383618369134383611AE083691A
:1008D00023F400638361836943EA0223836111E0A7
:1008E000C36923F00803C361C3691343C36109E00B
:1008F000C36923F40063C361C36943EA0223C3618C
:1009000000E000BF00BF704731B1012906D00229C5
:1009100006D0032908D105E0426306E0826304E0C3
:10092000C26302E0026400E000BF00BF704742689B
:1009300022F07002426042680A4342607047000041
:1009400001460805094A92F8A62900EB4230074AF9
:1009500092F8A72900EB8220044A92F8A52900EB1F
:10096000C200024A92F8A42910447047781400206B
:10097000024642FA01F000F0010070470146088883
:10098000104AB2F91C20904201DD0020704788888F
:100990000C4AB2F91C20904201DA0020F6E74888A0
:1009A000084AB2F91E20904201DD0020EEE7C88817
:1009B000044AB2F91E20904201DA0020E6E7012045
:1009C000E4E700005020002010B5FDF703FA4FF4D3
:1009D0000050FFF797F90F480AF0AAFA62B60D48DF
:1009E0000AF066FA0C480EF06BFE0C4809F0F0FFB6
:1009F0000B480DF09BFF012109480DF0D3FC09487D
:100A00000EF09AFB084811F019FD084806F02CFD7D
:100A100010BD0000F80100202C20002078140020D8
:100A20001420002050200020882000200C290020C5
:100A300010B5032390FBF3F403FB140303EB8303D0
:100A40004FF6FF7404EA03130B80032390FBF3F3C8
:100A500003EBC30303EB4303182404EB830313806A
:100A600010BD70B502464FF6FF730020146824F0E5
:100A700002041460146844F00104146000E05B1E7A
:100A8000546804F001040CB9002BF8D1546804F048
:100A900001040CB9002074E00C784FF0404505EAE1
:100AA00084744D784FF0407606EA05652C438D78C6
:100AB0004FF4702606EA05452C43CD784FF4E00646
:100AC00006EA05552C434D896D1EC5F309052C43D7
:100AD000D4610C79012C04D1146844F080041460B2
:100AE00003E0146824F0800414604C79012C04D1D4
:100AF000146844F04004146003E0146824F04004D7
:100B000014608C79012C04D1146844F02004146022
:100B100003E0146824F020041460CC79012C04D183
:100B2000146844F01004146003E0146824F0100406
:100B300014600C7A012C04D1146844F00804146089
:100B400003E0146824F0080414604C7A012C04D1EA
:100B5000146844F00404146003E0146824F00404EE
:100B60001460146824F0010414604FF6FF7300E071
:100B70005B1E546804F001040CB1002BF8D103B1E2
:100B8000012070BD08B50F48407A58B10E488079F1
:100B90000C2807DA002021235A22EB2100900B4871
:100BA0000DF0C8F90748407A58B1074880790C28F9
:100BB00007DB002022235A22EB21009003480DF08E
:100BC000B9F908BDDC070020882000206814002047
:100BD00010B588B000207723B422692100904548E1
:100BE0000CF06EFF00207723B422B9210090414819
:100BF0000CF066FF4048807A00283CD03F480279DC
:100C00003FA104A8FBF756FB002001210222B423D8
:100C1000CDE900210290502204A93B480BF0F6F9DF
:100C20003648427936A104A8FBF744FB0020012195
:100C30000222B423CDE900210290A02204A9324867
:100C40000BF0E4F92D480068642190FBF1F201FB00
:100C5000120422462AA104A8FBF72CFB0020012144
:100C60000222B423CDE900210290F02204A92648F3
:100C70000BF0CCF93BE02148427921A104A8FBF715
:100C800019FB002001210222B423CDE900210290AA
:100C9000502204A91C480BF0B9F91848027918A190
:100CA00004A8FBF707FB002001210222B423CDE9B1
:100CB00000210290A02204A913480BF0A7F90F48C5
:100CC0000068642190FBF1F201FB120422460CA1A2
:100CD00004A8FBF7EFFA002001210222B423CDE99A
:100CE00000210290F02204A907480BF08FF908B008
:100CF00010BD000068140020DC07002088200020C0
:100D00002530326400000000180200201CB5134892
:100D1000407A58B901200221CDE9001010488379AA
:100D20001E222C210F480BF053F816E00C48807956
:100D30000C2800D106E00A4880790C2190FBF1F2E2
:100D400001FB120004460120022123461E22CDE9A8
:100D500000102C2103480BF03BF81CBDDC070020E1
:100D600088200020180200200848006940F0800018
:100D70000649086106480088B0F5007F04D9084696
:100D8000006D40F0800008657047000000200240C0
:100D9000E0F7FF1F02460020106800F441500B6886
:100DA00018434B6818438B681843CB6818430B698A
:100DB00018434B6918438B6918431060D36923F4B7
:100DC0000063D36170470146212905D37E2903D8EA
:100DD000A1F12100C0B27047B02901D15E20FAE72D
:100DE000C42901D15F20F6E7D62901D16020F2E7BE
:100DF000DC2901D16120EEE7DF2901D1A720EAE754
:100E0000E42901D16220E6E7F62901D16320E2E777
:100E1000FC2901D16420DEE740F20140814201D18A
:100E20006520D8E7B1F5826F06D3B1F58A6F03D29A
:100E3000A1F2AA30C0B2CEE740F25140814201D1C6
:100E4000A620C8E7C02901D1A820C4E7C22901D142
:100E5000A920C0E7C72901D1AA20BCE7C82901D130
:100E6000AB20B8E7C92901D1AC20B4E7CA2901D128
:100E7000AD20B0E7CE2901D1AE20ACE7D42901D115
:100E8000AF20A8E7D92901D1B020A4E7DB2901D1FF
:100E9000B120A0E7E02901D1B2209CE7E22901D1ED
:100EA000B32098E7E72901D1B42094E7E82901D1DC
:100EB000B52090E7E92901D1B6208CE7EA2901D1D4
:100EC000B72088E7EB2901D1B82084E7EE2901D1CA
:100ED000B92080E7EF2901D1BA207CE7F42901D1BC
:100EE000BB2078E7F92901D1BC2074E7FB2901D1A7
:100EF000BD2070E7B1F5A97F01D1BE206BE740F2BC
:100F00005310814201D1BF2065E7CC2901D1C02017
:100F100061E7EC2901D1C1205DE7D22901D1C220CE
:100F200059E7F22901D1C32055E7C52901D1C420D1
:100F300051E7E52901D1C5204DE7C62901D1C620D9
:100F400049E7E62901D1C72045E7D82901D1C820C2
:100F500041E7F82901D1C9203DE7C12901D1CA20C3
:100F600039E7CD2901D1CB2035E7D12901D1CC20DA
:100F700031E7D32901D1CD202DE7DA2901D1CE20C7
:100F800029E7E12901D1CF2025E7ED2901D1D020A2
:100F900021E7F12901D1D1201DE7F32901D1D22088
:100FA00019E7FA2901D1D32015E7B1F5827F01D1E4
:100FB000D42010E740F20510814201D1D5200AE784
:100FC000B1F5837F01D1D62005E740F207108142B9
:100FD00001D1D720FFE6B1F5867F01D1D820FAE60E
:100FE00040F20D10814201D1D920F4E6B1F58C7F99
:100FF00001D1DA20EFE640F21910814201D1DB2065
:10100000E9E640F24110814201D1DC20E3E6B1F58E
:10101000A17F01D1DD20DEE640F24310814201D103
:10102000DE20D8E6B1F5A27F01D1DF20D3E6B1F50D
:10103000AD7F01D1E020CEE640F25B10814201D1CC
:10104000E120C8E640F27910814201D1E220C2E6F7
:10105000B1F5BD7F01D1E320BDE640F27B108142B6
:1010600001D1E420B7E6B1F5BE7F01D1E520B2E6BB
:10107000B1F5B07F01D1E620ADE640F261108142CA
:1010800001D1E720A7E640F27D10814201D1E8209E
:10109000A1E6B1F5BF7F01D1E9209CE64FF6FF70D4
:1010A00099E600002DE9F05F824688461646002E3C
:1010B00002DB072E00DC05E04FF41B7262A168A082
:1010C000FBF73AFB404612F06BFF07460024B5E001
:1010D0000025AFE0224629465046FDF777FF00B1D4
:1010E000A7E0082E73D2DFE806F004101C27334671
:1010F0005B76281900EBD0714910A0EB410109B9CA
:10110000012100E000218B4684E0204604EBD071F1
:101110004910A4EB410109B9012100E000218B46EF
:1011200078E0032095FBF0F100FB115008B9012095
:1011300000E0002083466DE02819032190FBF1F2C6
:1011400001FB120008B9012000E00020834661E0A5
:10115000032295FBF2F2214604EBD17302EB63000C
:1011600000EBD0725210A0EB42020AB9012200E05B
:10117000002293464EE005FB04F1032291FBF2F3BB
:1011800002FB131205FB04F000EBD0714910A0EB39
:101190004101114409B9012100E000218B4639E0E9
:1011A00005FB04F2032392FBF3FC03FB1C2305FB6A
:1011B00004F101EBD1725210A1EB4202981800EB3E
:1011C000D0725210A0EB420212B9012201E01BE0E2
:1011D000002293461EE005FB04F2032392FBF3FC7E
:1011E00003FB1C22291901EBD1735B10A1EB430314
:1011F000D01800EBD0725210A0EB42020AB90122C3
:1012000000E00022934605E04FF41F720EA11DA0DE
:10121000FBF792FA00BF224629464046FDF7D6FE6C
:10122000814689EA0B03224629464046FDF7F0FF36
:1012300000BF6D1CBD42FFF64DAF641CBC42FFF603
:1012400047AFBDE8F09F0000557365725C51724373
:101250006F64655C7172636F646567656E2E6300B1
:1012600030203C3D2028696E74296D61736B202607
:10127000262028696E74296D61736B203C3D2037F0
:101280000000000066616C736500000010B52C4B17
:101290001B6883432A4C2360231D1B688343241D42
:1012A0002360231D1B688343241D2360231D1B68AB
:1012B0008343241D236011B101290ED105E0204B89
:1012C0001B6803431E4C236008E01D4B1B1D1B685D
:1012D00003431B4C241D236000E000BF00BF22B16C
:1012E000012A0FD0022A27D119E0154B08331B68B9
:1012F0000343134C08342360231D1B688343241DC0
:1013000023601AE00E4B08331B6883430C4C0834EF
:101310002360231D1B680343241D23600DE0084B3D
:1013200008331B680343064C08342360231D1B68E5
:101330000343241D236000E000BF00BF10BD000078
:1013400000040140F0B50C4616460025002204F0CA
:101350000F0504F0100747B1042E05D145F0030531
:10136000C76B1F43C76300E03543002118E0012726
:101370008F401F4097B102684FEA810C0F2707FA90
:101380000CF7BA438F0005FA07F73A43282C01D12E
:10139000436102E0482C00D1036102604F1CB9B2E6
:1013A0000829E4D308211CE001278F401F40B7B172
:1013B0004268A1F108074FEA870C0F2707FA0CF7DC
:1013C000BA43A1F10807BF0005FA07F73A43282CF2
:1013D00001D1436102E0482C00D1036142604F1CFF
:1013E000B9B21029E0D3F0BD10B586B00446132081
:1013F0003D4908703D4809F041FF00213C480EF08E
:10140000C5FA0020F0214FF4A0730246CDE9001088
:10141000014638480CF0F8F90520374900220192BE
:10142000CDE90221049028200346C3220521009023
:1014300030480BF071FF00201423C72209210090CF
:101440002C480CF077FD2078032844DD05202A493C
:1014500000220192CDE902210490282003461722A0
:101460004FF48A71009023480BF056FF002014239C
:101470001B224FF48C7100901E480CF05BFD052080
:101480001D4900220192CDE9022104902820034643
:1014900084224FF48A71009016480BF03DFF002023
:1014A0001A2388224FF48C71009012480CF042FDF0
:1014B0006078421C11A105A8FAF7FCFE0420012166
:1014C0000091522340F22712CDE9011005A90C48E2
:1014D0000AF09CFD00BF204600F014F8204600F002
:1014E00087F806B010BD000004000020C4020020F0
:1014F0002C200020681400202929290025640000E0
:1015000018020020F0B589B00546002446E068784E
:1015100000EB40000119281D10F8310000283AD0D6
:10152000687800EB40000119281D00EBC1063178F6
:10153000284600F043F8074605201A491A4A0023B6
:10154000CDE90132CDE903103B200090052000EBEE
:101550008412FF23014615480BF0DEFE00200090A8
:1015600001900A2000EB84130246114879680AF0C2
:101570001FFB737832780FA106A8FAF79BFE0020B4
:10158000009001901E2000EB84130A2206A908484F
:101590000AF07CFC00E003E0601CC4B2032CB6DB64
:1015A00009B0F0BD29292900AAAAAA0068140020C0
:1015B0001802002025642D256400000010B50346A4
:1015C0000A4600210CE001EB4100074C14F8200012
:1015D000904204D101EB410004EB800010BD491C96
:1015E0002F29F0D30148F9E7708402089886020891
:1015F00070B58CB00546002424E0687800EB40000C
:101600000119281D10F83100C8B1687800EB4000BE
:101610000119281D00EBC1060CA104A87268FAF795
:1016200049FEA02000210091CDE901102D2000EB02
:1016300084130A2204A908480AF0BAFC00E003E077
:10164000601CC4B2032CD8DB0CB070BD43414E20EB
:1016500052583A25750000001802002010B50446C3
:1016600058222146014809F00DFD10BDF801002067
:1016700010B5044660480078132800D010BD5F48BC
:1016800009F0BAFC616D401AB0F5FA7F06D95B48E3
:1016900009F0B2FC60652046FFF7AAFF5848407E7B
:1016A00010B90020564988705548407E00287DD0EA
:1016B00053488078002879D10120514988705148D9
:1016C000FFF75CF910B150480AF0B0F84F48FFF747
:1016D00055F94F48FFF752F928B16078002802DD2C
:1016E0006078401E60704B48FFF748F968B1217878
:1016F000891C032291FBF2F1C8B26278411E8A4232
:1017000002DA6178491C617000BF4348FFF736F97F
:10171000D0B12078617801EB4101401A002813DD37
:10172000607800EB4001201D00EBC10040783B4990
:101730004870607800EB4001201D10F831003749F7
:101740000870084600F09EFB3548FFF717F9E0B136
:101750002078617801EB4101401A012815DD60789D
:1017600000EB4000401C211D01EBC00040782B49DC
:101770004870607800EB4000401C211D11F83000DB
:1017800026490870084600F07DFB2648FFF7F6F86A
:1017900060B12078617801EB4101401A022817DD21
:1017A000607800EB4000801C211D00E010E001EBA0
:1017B000C000407819494870607800EB4000801CF8
:1017C000211D11F8300015490870084600F05AFB39
:1017D000A0782178884204D02078A0702046FFF7B6
:1017E00003FEE0786178884204D06178E170204699
:1017F000FFF7FAFD00BF41E704000020F8010020D8
:101800005020002038840208920100204084020801
:101810006084020868840208488402086409002081
:1018200050840208588402087047000030B585B023
:101830000446072035490870002135480EF0A6F807
:1018400000203449C870F0214FF4A0730246CDE95E
:101850000010014630480BF0D7FF3048C3214FF449
:10186000A0730022CDE9001011462B480BF0CCFFED
:1018700005202A4900220192CDE902210490252069
:101880006423C8220321009023480BF045FD052066
:10189000224900220192CDE90221049025207823DB
:1018A000C822C52100901C480BF036FD1220FDF720
:1018B000B9FF054600200121D2233522CDE90010D1
:1018C000294617480AF074F91320FDF7ABFF0546C7
:1018D00000200121D22340F20112CDE90010294657
:1018E0000F480AF065F99A20FDF79CFF0546002095
:1018F00001210623A022CDE90010294608480AF05C
:10190000C5FA204600F050F805B030BD04000020B4
:101910002C200020C402002068140020292929005E
:10192000180200202DE9F04180460D463B26002498
:101930002CE004EB44001849085CA84224D104EBD5
:101940004400084490F90200002808DA04EB44013E
:10195000114A11444878FDF765FFBDE8F08104EBBA
:1019600044010D4A11444878FDF75CFF074604EB3B
:1019700044000949084490F902303A4607A1094851
:10198000FAF798FC0748E8E7601C84B2B442D0DB61
:101990009920FDF747FFE0E7266802082573202518
:1019A0006400000088030020F0B58DB005460026D5
:1019B0002148AE214FF4A0731722CDE90010002179
:1019C0001E480BF021FF002422E035F8140000B976
:1019D0001DE015F814102846FFF7A4FF074635F858
:1019E00014203B4616A103A8FAF764FC00200090DF
:1019F000019006EB460000EB061000F11E030522E5
:101A000003A911480AF042FA701CC6B200BF641C58
:101A1000082CDADB6EB99B20FDF704FF0446022098
:101A200001215A23A022CDE90010214606480AF0E0
:101A30002DFA0DB0F0BD00002929290068140020FE
:101A400025643A25730000001802002010B50446F2
:101A500080222146014809F015FB10BDF801002045
:101A600070B504462A480078072801D0FF2070BDD1
:101A70002848407E10B90020264988702548407EBD
:101A800048B32448807830BB01202249887022481E
:101A9000FEF774FF10B1214801F020FD2048FEF749
:101AA0006DFF70B11F4890F8A5091F4A02EBC000F6
:101AB0001C4A92F8A429811805230022194809F02C
:101AC00047F8002003E0002124F81010401C2028D3
