:020000040800F2
:10C00000384C002075C200082DDD000809DD00084D
:10C0100081C2000883C2000885C200080000000039
:10C0200000000000000000000000000087C20008BF
:10C0300089C20008000000008BC2000831DD000842
:10C040008FC200088FC200088FC200088FC200088C
:10C050008FC200088FC2000875DC00088FC200087C
:10C060008FC200088FC200088FC200088FC200086C
:10C070008FC200088FC200088FC200088FC200085C
:10C080008FC200088FC200088FC200088FC200084C
:10C090008FC2000809DC00088FC20008DDDC000840
:10C0A0008FC200088FC200088FC200088FC200082C
:10C0B0008FC200088FC200088FC200088FC200081C
:10C0C0008FC200088FC200088FC200088FC200080C
:10C0D0008FC200088FC200088FC200088FC20008FC
:10C0E000C1DC00088FC200088FC200088FC20008A0
:10C0F0008FC200088FC200088FC200088FC20008DC
:10C100008FC200088FC200088FC200088FC20008CB
:10C110008FC200088FC200088FC200088FC20008BB
:10C120008FC200088FC200088FC200088FC20008AB
:10C1300000F002F800F08EF80AA090E8000C8244AB
:10C140008344AAF10107DA4501D100F083F8AFF288
:10C15000090EBAE80F0013F0010F18BFFB1A43F0E5
:10C160000103184700760200207602000A444FF0CF
:10C17000000C10F8013B13F0070408BF10F8014B46
:10C180001D1108BF10F8015B641E05D010F8016B8B
:10C19000641E01F8016BF9D113F0080F1EBF10F8EF
:10C1A000014BAD1C0C1B09D16D1E58BF01F801CB12
:10C1B000FAD505E014F8016B01F8016B6D1EF9D595
:10C1C0009142D6D3704700000023002400250026AA
:10C1D000103A28BF78C1FBD8520728BF30C148BFEA
:10C1E0000B607047662914F0E280692900F0F28044
:10C1F000642900F0EF80752900F0EC806F2900F0D1
:10C200008381782900F0A8810368DB0928BF41F009
:10C210008001632900F07187732900F07687E32994
:10C2200000F08187002070471FB514F0B6F800F0C9
:10C23000B7FF04000020002113F036FE401C6060B0
:10C240000020002113F01AFEE06000F0A7FC1FBDE3
:10C2500010B510BD01F0C2F81146FFF7E5FF13F06D
:10C2600075FA01F0E0F803B4FFF7F2FF03BC00F049
:10C27000A7FC00000948804709480047FEE7FEE7A1
:10C28000FEE7FEE7FEE7FEE7FEE7FEE7FEE7FEE786
:10C2900004480549054A064B704700003DDD00088B
:10C2A00031C1000838380020384C0020383C0020CC
:10C2B000383C00200FB41CB5074B06AA7B446946E6
:10C2C0000090059800F0EFFE0020694600F0FEFEA9
:10C2D0001CBC5DF814FB00000D0E00000FB41CB573
:10C2E0000C0007AA009001D02044401E074B7B445D
:10C2F00069460190069800F0D6FE002C03D06946EE
:10C30000002000F0E3FE1CBC5DF814FBE50D00000E
:10C3100070B5044685690068C10601D5302600E085
:10C320002026C00707D070BDD4E9012130469047D0
:10C33000206A401C20626D1EF6D570BD70B50446A3
:10C3400085690078C00707D170BDD4E9012120209C
:10C350009047206A401C20626D1EF6D570BD0968AA
:10C360004A0501D540B27047C905FCD500B27047F7
:10C3700009684A0501D5C0B27047C905FCD580B22D
:10C38000704770B50C460546012A05D0287880060E
:10C3900000D5EA69002302E0012305E05B1C93421B
:10C3A00002D2E05C0028F9D1A869E618C01AA86199
:10C3B000286A184428622846FFF7AAFF04E0D5E956
:10C3C000012114F8010B9047B442F8D32846FFF737
:10C3D000B5FF70BD2DE9F0410646002410687529AF
:10C3E000314616A510D0FFF7BAFF002802DA404206
:10C3F00013A507E031688A0701D512A502E04907B5
:10C4000004D511A5012401E0FFF7B2FF00210A22A3
:10C4100006F1240709E0B0FBF2FCB0FBF2F302FBEB
:10C420001C00303078541846491C0028F3D12346AC
:10C430002A463046BDE8F04100F0C8BB00000000CD
:10C440002D0000002B000000200000002DE9FF5F00
:10C4500015468A460446DFF8AC80F8440027D8E940
:10C4600000103E46CDE9001010E03AF816106A467A
:10C4700002A800F064FE411C07D02178890603D58C
:10C48000E269391891420DD80744761C207880065D
:10C4900002D5E069B84205DDAE42E6DB3AF81600A7
:10C4A0000028E2D1A069C01BA0612046FFF730FF41
:10C4B000D8E90010CDE90010002017E03AF8181074
:10C4C0006A4602A800F03BFEB0F1FF3F81460BD068
:10C4D00000250DF1080B05E0D4E901211BF805004A
:10C4E00090476D1C4D45F7D308F10100B0428046DE
:10C4F000E4DB206A384420622046FFF71FFFBDE8D6
:10C50000FF9F00004E53020070B50446214610689C
:10C51000FFF72EFF002104F1240505E000F00702DB
:10C520003032C0086A54491C0028F7D12068002323
:10C5300007A2050707D5800600D421B1E0690123D1
:10C5400004A2401EE0612046BDE8704000F03EBB02
:10C55000000000003000000070B504460D46214682
:10C560001068FFF705FF2188090502D50F4A7A44B4
:10C5700002E00E4A7A440E32002104F1240305E061
:10C5800000F00F060009965D5E54491C0028F7D1A3
:10C5900020780023000704D5702D02D009B10223B2
:10C5A00011322046BDE8704000F010BB425202003C
:10C5B0002DE9F05F894604464FF0000ADFF874B1B8
:10C5C000FB44C0F820A02046E1688847002874D0CA
:10C5D000252806D0D4E901219047206A401C20621A
:10C5E000F1E700265F462046E16888472028054697
:10C5F00007DB312D05D2781910F8200C08B106435D
:10C60000F1E7B00701D526F00406C4F81CA0002706
:10C61000C4F818A02A2D09D0284613F08FF838B393
:10C6200004EB8708303DC8F8185019E059F8041B8E
:10C63000204604EB87029161E1688847012F054697
:10C6400018D1E069002820DA26F020061DE0D8F88D
:10C65000180000EB800005EB40003038C8F81800E7
:10C660002046E1688847054613F068F80028EED1B7
:10C67000012F0AD02E2D08D12046E16888477F1C63
:10C680000546022F46F02006C4DBA069002803DA25
:10C69000404246F00106A061F00701D026F01006E6
:10C6A0006C2D0BD0682D09D04C2D39D06A2D35D08A
:10C6B000742D35D07A2D33D016E038E0E1682F465E
:10C6C00020468847B842054609D16C2F26D04FF442
:10C6D0008060E168064320468847054604E06C2FE9
:10C6E0001AD04FF4807006430DB3A5F1410019280C
:10C6F00002D8203546F400664A4629462046266080
:10C700004E46FFF76FFD80B101280BD0F61D26F0D5
:10C71000070000F1080956E74020E4E78020D8E749
:10C720000020D6E706F104094DE7284652E7206AC3
:10C73000BDE8F09F1852020010B5002000F01FFD68
:10C74000FFF786FDBDE81040012000F039BA401E19
:10C75000CAB210F8011F8A4202D00029F9D1002084
:10C76000704740EA010310B59B070FD1042A0DD38F
:10C7700010C808C9121F9C42F8D020BA19BA8842C2
:10C7800001D9012010BD4FF0FF3010BD1AB1D30701
:10C7900003D0521C07E0002010BD10F8013B11F837
:10C7A000014B1B1B07D110F8013B11F8014B1B1B60
:10C7B00001D1921EF1D1184610BD40EA0103024694
:10C7C00030B59B0710D14FF0013400E008C208C912
:10C7D0001D1B9D4315EAC41FF8D013F0FF0102F89A
:10C7E000011B0DD01B0AF8E711F8013B002B02F8E2
:10C7F000013B05D011F8013B002B02F8013BF3D1BE
:10C8000030BD10B5431C02E010F8011B71B1810767
:10C81000FAD14FF0013202C88C1A8C4314EAC211CB
:10C82000F9D0C01A0A0603D0C01E10BDC01A10BD30
:10C830000A0401D0801E10BD0902FCD0401E10BDAC
:10C84000032A40F2308010F0030C00F0158011F83C
:10C85000013BBCF1020F624498BF11F801CB00F814
:10C86000013B38BF11F8013BA2F1040298BF00F868
:10C8700001CB38BF00F8013B11F0030300F06780E3
:10C88000083AC0F0088051F8043B083A51F804CB4C
:10C89000A0E80810F5E7121D5CBF51F8043B40F812
:10C8A000043BAFF30080D20724BF11F8013B11F81D
:10C8B00001CB48BF11F8012B24BF00F8013B00F861
:10C8C00001CB48BF00F8012B7047431A28BF9A429A
:10C8D0007FF6B6AF032A1044114440F2268010F0D0
:10C8E000030F1EBF11F8013D521E00F8013D10F06C
:10C8F000030F7FF4F6AF11F0030300F06D80083AE8
:10C90000C0F00B8051F8043D083A51F804CD40F8CE
:10C91000043D40F804CDFFF7F3BF121D5CBF51F892
:10C92000043D40F8043DAFF30080D20724BF11F866
:10C93000013D11F801CD48BF11F8012C24BF00F8CA
:10C94000013D00F801CD48BF00F8012C704710B53B
:10C95000203AC0F00B80B1E81850203AA0E81850F7
:10C96000B1E81850A0E81850BFF4F5AF5FEA027CB8
:10C9700024BFB1E81850A0E8185044BF18C918C027
:10C98000BDE810405FEA827C24BF51F8043B40F8C8
:10C99000043B08BF7047D20728BF31F8023B48BFAD
:10C9A00011F8012B28BF20F8023B48BF00F8012BEB
:10C9B0007047431A28BF9A427FF6C9AF104410F05F
:10C9C000030F11441EBF11F8013D521E00F8013D36
:10C9D00010F0030F7FF4F6AF103AC0F00A8010B5E4
:10C9E00031E91850103A20E91850BFF4F9AFBDE80A
:10C9F0001040530724BF31E9081020E9081044BF54
:10CA000051F8043D40F8043D12F0030F08BF704791
:10CA1000D20728BF31F8023D48BF11F8012C28BFCA
:10CA200020F8023D48BF00F8012C70474FF000028B
:10CA30000429C0F0128010F0030C00F01B80CCF130
:10CA4000040CBCF1020F18BF00F8012BA8BF20F89E
:10CA5000022BA1EB0C0100F00DB85FEAC17C24BFF2
:10CA600000F8012B00F8012B48BF00F8012B70479C
:10CA70004FF0000200B5134694469646203922BF77
:10CA8000A0E80C50A0E80C50B1F12001BFF4F7AFC2
:10CA9000090728BFA0E80C5048BF0CC05DF804EBA4
:10CAA000890028BF40F8042B08BF704748BF20F812
:10CAB000022B11F0804F18BF00F8012B704710B502
:10CAC000044610F0030F08BF11F0030F40F015806B
:10CAD0004FF0013E121FC0F20E8051F8043BA3EB51
:10CAE0000E0C2CEA030C1CEACE1C08BF40F8043BD9
:10CAF000F0D0A1F1040102F10402521E08DB11F88A
:10CB0000013B002B00F8013BF7D11146FFF78EFFE8
:10CB1000204610BD4FF0013C50F8042B51F8043B67
:10CB20009A4221D1A2EB0C03934313EACC1317D101
:10CB300050F8042B51F8043B9A4215D1A2EB0C0398
:10CB4000934313EACC130BD150F8042B51F8043B58
:10CB50009A4209D1A2EB0C03934313EACC13DBD026
:10CB60004FF00000704700BFD01A01BAB1FA81F14E
:10CB700001F0180122FA01F0CB40C1F12001DBB233
:10CB8000C0B2C01A2CFA01F3D11A914311EAC311B1
:10CB9000E6D17047704770477047000070B5064C8B
:10CBA0007C44064D7D4403E0206820448047241DDA
:10CBB000AC42F9D170BD00000C6D0200586D02004E
:10CBC00001491820ABBEFEE7260002002DE9F04720
:10CBD0000D4699469246044600F1240801688806ED
:10CBE00004D5E06921F01001216000E00120A84295
:10CBF00001DD471B00E00027A1697A1902EB09005B
:10CC0000081AA0612078C00602D42046FFF780FBF6
:10CC1000002608E0D4E901211AF806009047206AAE
:10CC2000401C761C20624E45F4DB2078C0060AD5F5
:10CC30002046FFF76DFB06E0D4E901213020904744
:10CC4000206A401C2062381EA7F10107F4DC07E0CF
:10CC5000D4E9012118F805009047206A401C2062A1
:10CC6000281EA5F10105F3DC2046FFF767FB2078BD
:10CC7000000602D50220BDE8F0870120FBE77047DF
:10CC80002DE9FF4F0C461E464FF0FF378BB0D2E91F
:10CC90000001DDF860800A908A46C1F30A5505B9A3
:10CCA0003D46002108464FF00000BAF1000F00F4A5
:10CCB000400005DA00EB80004FF4400101EA50002B
:10CCC0004FEA9059B9F1010F00DDB9460A9850EAD0
:10CCD0004A000ED044F61050A5F2FF3545432F14FC
:10CCE000B8F1000F1ED07542291E1EDDC9F10002E9
:10CCF0001CE0B8F1010F4FF0000001D0302103E03B
:10CD0000F24305E02154401CB042FBDB30460022D8
:10CD1000002121540B99C1F80880C1E900200FB00F
:10CD2000BDE8F08FBD1B6D1CDEE74A4600DA6942A4
:10CD300006A800F0BFFA06AB93E8070003AB83E850
:10CD4000070050460A9900F097FB8DE80700A0F510
:10CD500000501F3800900398002D0ADD42F21F0199
:10CD60004A460844002303A90390684600F000FEE9
:10CD700009E0A0F500504A461F38002303A903909C
:10CD8000684600F00AFE8DE807000004000C03D09E
:10CD90004FF0FF30410800E01046B8F1000F03D01B
:10CDA0000022009215461EE0751E05D400F0FCF925
:10CDB000303262556D1EF9D5B3460122084302D0C8
:10CDC00000227F1C04E02078302801D100227F1E41
:10CDD000002A099784D01DE0112D07DA00F0E4F94C
:10CDE000303262556D1C50EA0102F5D1084302D081
:10CDF0000098C8B10EE00021681E05E0235C625C6B
:10CE000063542254401E491C8142F7DBAB46A81BE9
:10CE1000401E0990002004F80B000B98099AC0F8F6
:10CE20000880C0E9002B7AE711264FF0000857E789
:10CE30002DE9F04F88460446D21D22F0070191B03B
:10CE4000D1E90001CDE90A0112F048FC02460B9835
:10CE5000C00F01D02D2007E02068810701D52B20CD
:10CE600002E0202101EAC000032A099001D0072A2C
:10CE700005DB03464146204600F0DCF90BE1207853
:10CE8000800601D5E06900E00620B8F1650F814613
:10CE900006D0B8F1660F18D0B8F1670F70D131E045
:10CEA0000020B9F1110F009001DB112301E009F11D
:10CEB00001030AAA01A90CA8FFF7E2FEDDE90C7044
:10CEC000002609F10105834647E001204B4600900A
:10CED0004FF000470AAA01A90CA8FFF7D1FEDDE92F
:10CEE0000DB00C995D46002610B909F101000D182E
:10CEF000B9EB050003D4C0F1FF3609F10105A5EB3C
:10CF000009002BE0B9F1010F01DA4FF0010900200F
:10CF1000B9F1110F0090484601DD112300E00346EE
:10CF20000AAA01A90CA8FFF7ABFEDDE90C704D467B
:10CF300000268346207800070AD4AB4500DA5D4618
:10CF400001A8012D04DD411911F8011C302907D079
:10CF50004F4502DA17F1040F04DA012082460FE090
:10CF60006D1EEEE7002F02DCED1B3E4403E0781C53
:10CF7000A84200DD7D1CB81B00F1010A4FF00047FC
:10CF80002078000703D4AA4501DB4FF0FF3A0021C7
:10CF9000B7F1004F0DF143088DF8431024D0022063
:10CFA0002B23002F01DA7F422D230A21021EA0F13C
:10CFB000010000DC5FB197FBF1FC97FBF1F201FB94
:10CFC0001C7C17460CF1300C08F801CDEEE7A8F1F7
:10CFD000010003702188090501D5452100E0652184
:10CFE000A0F1010800F8011C09980FA9A1EB08079E
:10CFF000FF1D00B10120411901EBEA70A16938441D
:10D00000081A401EA0612078C00602D42046FFF70F
:10D010007FF9099828B1D4E901219047206A401C82
:10D0200020622078C00622D52046FFF771F91EE065
:10D03000002E04DBB34502DD01A8805D00E0302056
:10D04000D4E901219047206A401C2062761CAAF195
:10D0500001005FEA000A0AD100F0A2F8C068016886
:10D06000405CD4E901219047206A401C2062281EC0
:10D07000A5F10105DCDC07E0D4E9012118F8010B7A
:10D080009047206A401C2062381EA7F10107F3DC9C
:10D090002046FFF753F9032011B041E601694A1C0D
:10D0A00002610878704700B58FB0CDE901310021E9
:10D0B000059105497944CDE9031011466846FFF70B
:10D0C00077FA0FB000BD0000E5FFFFFF0A6802F825
:10D0D000010B0A607047D1E900239A4202D2531C27
:10D0E0000B601070704710B5436913B1AFF3008047
:10D0F00001E0FFF746F9012010BD127800F124018C
:10D100000A7000224A700122EDE711684FF0FF32E9
:10D11000E9E710B5436913B1AFF3008001E0FFF711
:10D1200095F9012010BD128800F1240182840022AB
:10D13000C2840122EDE711684FF0FF32E9E770B5D4
:10D1400016460C46054600F023F8036893F80101E3
:10D15000012806D0FF2C0FD8185D68B101202C7073
:10D1600070BDD3F807013246214603F2071303448A
:10D170002846BDE8704018474FF0FF3070BD10B52D
:10D1800000F010F9BDE8104000F006B9704700004B
:10D1900010B500F005F8001D10BD00BF0D2D0100F9
:10D1A00000487047F837002030B5B0F10A024FEA66
:10D1B000900E71F100034EEA817EB0EB0E0061EB40
:10D1C00091014FEA101E4EEA017E10EB0E0041EB7A
:10D1D00011114FEA102E4EEA016E10EB0E0041EBDA
:10D1E00011214FEA104E4EEA014E10EB0E0041EBBA
:10D1F0001141401841F100014FEAD00040EA41706E
:10D200004FEAD10110EB80054FEA810444EA9074A3
:10D2100044EB01046D1944EB0404521BA3414FF08D
:10D22000000348BF0A3200D530BD401C41F1000167
:10D2300030BD00002DE9F0411F4604460326016879
:10D24000072A01F4006004DB08B116A505E016A565
:10D2500003E008B115A500E015A521F0100020603D
:10D26000A069C01EA0610FB1401EA0612046FFF75B
:10D270004FF84FB1D4E9012138469047206A401C4D
:10D280002062C01C206206E0206AFAE7D4E901218E
:10D2900015F8010B9047761EF8D22046FFF74EF89E
:10D2A000BDE8F0814E414E006E616E00494E460071
:10D2B000696E66002DE9F047814616468AB035480A
:10D2C00078440DC88DE80D0032487844801C03ACCA
:10D2D0000DC884E80D0041F69B300844372190FBCF
:10D2E000F1F290FBF1F5A5F1800501FB12041B3C66
:10D2F00002D56442012000E00020DFF898A08046BB
:10D300000027FA44AAF1BE0A0EE0E0070AD032462E
:10D31000684607EB470101230AEB810100F03DFB62
:10D320008DE8070064107F1C002CEED1194F7F445C
:10D33000AE3F19E0E80715D007EB04100DF1180A0D
:10D3400090E80E008AE80E00C068F04201D19819FA
:10D3500008903246012306A903A800F01EFB03AB88
:10D3600083E807006D10641C002DE3D14FF001032A
:10D3700032466946B8F1000F03A802D000F0F8FA6F
:10D3800001E000F00AFBC9E90001C9F808200AB071
:10D39000BDE8F087A8450200002801D0FFF710BCC7
:10D3A0007047000010B5002102A000F045F80120F0
:10D3B00010BD0000534947414252543A2041626E29
:10D3C0006F726D616C207465726D696E6174696FE6
:10D3D0006E00000000487047D83700207546FFF700
:10D3E000F9FFAE4605006946534620F00700854622
:10D3F00018B020B5FEF74CFFBDE820404FF0000606
:10D400004FF000074FF000084FF0000B21F007012C
:10D41000AC46ACE8C009ACE8C009ACE8C009ACE86F
:10D42000C0098D46704710B50446AFF30080204612
:10D43000BDE81040FEF717BF70B505460C460A2040
:10D4400000E06D1C00F011F835B128780028F8D103
:10D4500002E0641C00F009F814B120780028F8D12B
:10D46000BDE870400A20AFF3008008B569468DF82A
:10D4700000000320ABBE08BD5FEA400C08BF91F07E
:10D48000000F4FEA8C234FEAC12243EA51514FEA81
:10D490001C5018BF00F5F0404FEA300018BF41F0B3
:10D4A00000415FEA6C5C00F02980BCF1FF3F08BFDF
:10D4B00040F080407047130C06BF12044FF0100C70
:10D4C0004FF0000C130E04BF12020CF1080C130FE6
:10D4D00004BF12010CF1040C930F04BF92000CF175
:10D4E000020CD30F04BF52000CF1010C11464FF097
:10D4F0000002A0F11F00A0EB0C00704711F0004FDC
:10D5000008BF704731F000413FF4D5AF0B0C06BFA8
:10D5100009044FF0100C4FF0000C0B0E04BF090271
:10D520000CF1080C0B0F04BF09010CF1040C8B0F5C
:10D5300004BF89000CF1020CCB0F04BF49000CF1B1
:10D54000010CCCF12003A0EB0C0022FA03F302FA49
:10D550000CF241EA030100F10100704720F07F4C1A
:10D5600080EA030023F07F47ACEB070303F57C530D
:10D5700000F0004003F1FF032DE980494FEA154B0D
:10D5800009B44FEA144325EA0B4E24EA03480FF28C
:10D59000042606EB132749083E785FEA320203FBB4
:10D5A0000667C7F5000707FB06F64FEA54374FEA50
:10D5B000D64606F1020607FB066CCCF1005C4FEA8A
:10D5C0001C472CEA074C07FB06F40CFB06F504EBA2
:10D5D00015464FEA961634BF00204FF000404FEA40
:10D5E000D13706FB07FC4FEA1C4C0CFB0BF7D21B98
:10D5F00003FB0CF761EB07010CFB0EF7B0EB0740E8
:10D6000072EB17420CFB08F734BFA2EB0742B2EBF8
:10D61000074261EB17414FEA0C444FEA910706FBC2
:10D6200007FC4FEA1C4C0CFB0BF7B0EBC74072EB4E
:10D63000573203FB0CF734BFA2EBC742B2EBC74231
:10D6400061EB57310CFB0EF7B0EBC70072EB577272
:10D650000CFB08F734BFA2EBC702B2EBC70261EBC9
:10D660005771039F4FEA816141EA921104EBCC04A8
:10D670004FEAD1374FEA826206FB07FC42EA90127A
:10D680004FEA80604FEA1C4C0CFB0BF7D21B03FBEC
:10D690000CF761EB07010CFB0EF7B0EB074072EBE8
:10D6A00017420CFB08F734BFA2EB0742B2EB07426C
:10D6B00061EB17414FEA8C554FEA910704EB9C242C
:10D6C00006FB07FC4FEA1C4C0CFB0BF7B0EBC7400A
:10D6D00072EB573203FB0CF734BFA2EBC742B2EB3D
:10D6E000C74261EB57310CFB0EF7B0EBC70072EB92
:10D6F00057720CFB08F734BFA2EBC702B2EBC702AC
:10D7000061EB577115EB4C254FEA816141EA9211AB
:10D710004FEA82624FEAD13742EA901206FB07FCD9
:10D7200044F100044FEA80604FEA1C4C0CFB0BF7FD
:10D73000D21B03FB0CF761EB07010CFB0EF7B0EB00
:10D74000074072EB17420CFB08F734BFA2EB07420D
:10D75000B2EB074261EB174115EB1C154FEA813123
:10D7600041EA92414FEA823242EA90424FEA8030E7
:10D770004FEA0C7644F1000448EA03434EEA0B48B2
:10D780004FF0000EB2EB080C71EB030724BF6246AA
:10D7900039464EEB0E0E4FF0000B00185241494136
:10D7A0004BEB0B0BB2EB080C71EB03077BF1000B9F
:10D7B00024BF624639464EEB0E0E4FF0000B0018A8
:10D7C000524149414BEB0B0BB2EB080C71EB0307D9
:10D7D0007BF1000B24BF624639464EEB0E0E51EA38
:10D7E000020718BF46F0010616EB0E7655F100024F
:10D7F00054F1000103D5BDE88901BDE80088BDE80A
:10D800008901BDE80048B619524141EB0101A3F17D
:10D810000103704780807F7E7D7C7B7A7978777684
:10D8200076757473727171706F6E6E6D6C6C6B6AFD
:10D830006A6968686766666564646363626161609B
:10D84000605F5F5E5E5D5D5C5C5B5B5A5A59595818
:10D850005857575656555555545453535252525182
:10D86000515050504F4F4F4E4E4D4D4D4C4C4C4BD8
:10D870004B4B4A4A4A49494948484847474747461F
:10D88000464645454544444444434343434242425B
:10D8900042414141002B9C4630D477002BD01CB52F
:10D8A0004FEA370703B44FF010004FF01001BAF100
:10D8B000000F06D0BCF1000FDCBF40F0080040F0C4
:10D8C00008014FF000000FBCBDE810400BF1010B48
:10D8D000BBF1010F08BF5FEA170722BF12F1010277
:10D8E00011F101014FF0004143F1000300F000404D
:10D8F00043EA00007047F9D35708D0E746EA0646E6
:10D9000013F1400F4FEA16461FDD13F1200FDFBF62
:10D9100016430A46002120335B42BED0C3F12007E4
:10D9200046EA064602FA07F74FEA164646EA0706AF
:10D93000C3F1200722FA03F201FA07F721FA03F1F3
:10D940004FF0000342EA0702A7E746EA020646EA6A
:10D9500006464FEA164646EA0106BCBF46EA0646B8
:10D96000360C4FF000034FF000024FF0000194E737
:10D970002DE9804C9A46934670B491E8380007C868
:10D9800031EA400C48BF34EA430C03D5FFF7E6FD0B
:10D99000FFF780FFF0BCBDE8008C2DE9804C9A4673
:10D9A000934670B491E8380007C810F0804F08BF64
:10D9B00013F0804F03D100F005F8FFF76BFFF0BCC8
:10D9C000BDE8008C20F07F4780EA030023F07F4C05
:10D9D00007EB0C03A3F57C5300F00040A3F1FE031A
:10D9E00092F0000F00F0B38095F0000F00F0778008
:10D9F0002DE901494FEA11404FEA144621EA004857
:10DA000000FB06FC24EA064708FB06F607FB08F8BD
:10DA100000FB07F718EB06484CEB164C4FEA124B8D
:10DA200018EB07484FEA15464CEB174022EA0B4E1D
:10DA30000BFB06FC25EA06470EFB06F607FB0EFE6F
:10DA40000BFB07F71EEB064E4CEB164C4FF0000697
:10DA50001EEB074E4CEB174B18EB0B0840F1000088
:10DA600018EB0E0B58EB000840F100008F1A4FF036
:10DA700000013CBFC943661B14BFB5EB040C002179
:10DA80003CBFC943F61B4FEA17444EEA8E0E27EA05
:10DA900004454FEA1C4704FB07622CEA074C05FBD0
:10DAA00007F70CFB05F604FB0CFC16EB074642EBF4
:10DAB000174216EB0C4642EB1C421BEB060658EBDA
:10DAC0000202414146EA9E0601D5BDE80189B61928
:10DAD000524141EB0101A3F10103BDE801894FEA85
:10DAE00014454FEA114724EA054621EA074C05FB95
:10DAF00007F406FB07F70CFB06F105FB0CFC11EB2A
:10DB0000074144EB17444FEA124711EB0C4144EB39
:10DB10001C4422EA074C05FB07F206FB07F70CFB47
:10DB200006F605FB0CFC16EB074642EB174216EB1C
:10DB30000C4642EB1C456A1854F1000148BF70477F
:10DB4000B619524141EB0101A3F10103704795F071
:10DB5000000F37D04FEA11424FEA144721EA02463C
:10DB600024EA074C02FB07F106FB07F70CFB06F45F
:10DB700002FB0CFC14EB074441EB17414FEA15473D
:10DB800014EB0C4441EB1C4125EA074C02FB07F562
:10DB900006FB07F70CFB06F602FB0CFC16EB074630
:10DBA00045EB174516EB0C4645EB1C42121951F19B
:10DBB000000148BF7047B619524141EB0101A3F182
:10DBC000010370474FEA14454FEA114724EA05461E
:10DBD00021EA074C05FB07F106FB07F70CFB06F2F1
:10DBE0004FF0000605FB0CFC12EB074241EB17411E
:10DBF00012EB0C4251EB1C4148BF7047921841EBAD
:10DC00000101A3F10103704770B5174D4CF2810675
:10DC10003146284601F0DCFB144C01280CD1224689
:10DC20000021284601F0A0F9A4F128000BF092FA97
:10DC30003146284601F0D0FC0D4E2846314601F011
:10DC4000C7FB01280ED122460121284601F08CF99C
:10DC5000064828380BF07EFA31462846BDE8704069
:10DC600001F0BABC70BD000000640040C014002088
:10DC70008400010010B5012001F0E0FB00280ED067
:10DC8000012001F075FD01210A4801F015F80A4C48
:10DC900030B10120607009480BF02EFCA06010BD6F
:10DCA0000020607005480BF027FCA168401AE06076
:10DCB00010BD000000080140702000200402002078
:10DCC00010B54FF48064204601F0B8FB002804D062
:10DCD0002046BDE8104001F04BBD10BD10B520201E
:10DCE00001F0ACFB002809D0202001F041FD044CDC
:10DCF0000120207003480BF0FFFB606110BD0000A5
:10DD00007020002004020020BFF34F8F05480168F7
:10DD1000054A01F4E06111430160BFF34F8F00BF7A
:10DD2000FDE700000CED00E00400FA05704700007C
:10DD300001480BF0E3BB0000040200200C4801681E
:10DD400041F4700101600B48016841F0010101607C
:10DD500000214160C1620168074A114001604FF42F
:10DD60001F018160016821F48021016001F0D6BBB0
:10DD700088ED00E000100240FFFFF6FE074910B5F5
:10DD8000884209D140F21944204601F0B9FB2046EF
:10DD9000BDE8104001F0DEBC10BD00000064004092
:10DDA00070B50D46044601F083FE98B105EB850081
:10DDB00004EB8002906820F00100906000209060E9
:10DDC000D060106150616068AA000F219140084343
:10DDD000606070BDFEE700001CB501210220CDE9A6
:10DDE000000104481E22BA21C37903480CF052F9FD
:10DDF0001CBD0000A8200020240200200948016961
:10DE0000094A0B06094901D542604160084B1B884D
:10DE1000B3F5007F04D9036D1B0601D5426441644C
:10DE2000704700000020024023016745AB89EFCD19
:10DE3000E0F7FF1F0105084890F8A82901EB4231DF
:10DE400090F8A92901EB822190F8A52990F8A4095E
:10DE500001EBC2010844704798140020F0B5DDE9D9
:10DE6000055431B32B26B0FBF6F6552706FB070009
:10DE700000EB400040064FEA106CC1F1FF0010FBC0
:10DE800002F0000A11FB0CF74FF0FF0EAEEB172764
:10DE900057433F0ACCF1FF0C1CFB01F1AEEB112103
:10DEA0005143090A052E1AD2DFE806F0070A0E12BE
:10DEB000150022702A701A70F0BD1A70297001E0E6
:10DEC0001F702A702070F0BD18702A702170F0BD8C
:10DED00018702F7001E0197028702270F0BD1A7050
:10DEE00028702770F0BD00000A4910B540180CD00A
:10DEF000B0F5806F0CD140F21644204601F000FBD3
:10DF00002046BDE8104001F025BC40F21544F4E77E
:10DF100010BD000000ACFFBF016841F001010160CD
:10DF200070470723B0FBF3F203FB120210B5B0FBFE
:10DF3000F3F002EB420404EBC202062404EB82027B
:10DF40000A80362303EB4010488028328A801C3038
:10DF5000C88010BD000540EA4130054940EA8220F2
:10DF600091F8A52991F8A41940EAC2000843704726
:10DF700098140020016841F04001016070470000E2
:10DF800030B50A8882621C4A1C4B90420DD0B0F119
:10DF9000804F0AD01A4CA04207D01A4CA04204D09D
:10DFA000194CA04201D098420BD1046824F07004AF
:10DFB000046004684D882C43046004688D882C43F9
:10DFC00004608C68C462114CA0420CD0104CA0427A
:10DFD0000DD0046824F44074046004688D892C43D7
:10DFE0000460904201D0984201D1897B016341696C
:10DFF00041F00101416130BD002C0140003401407D
:10E000000004004000080040000C004000100040E8
:10E0100000140040816821F00101816070474FF4D5
:10E0200078414FF4FC6201EA102102EA50121143D8
:10E03000C0F3C400084370474840064A0021C307A4
:10E0400002D082EA500000E04008491CC9B2082909
:10E05000F5D370472083B8ED00EB9110006801F014
:10E060001F0201219140084000D0012070470000AC
:10E0700030B505461C481D4C87B06219037A92F8EA
:10E080004F0004F10901425653B100EE102A18481E
:10E09000B8EEC00A0BF05EFABDEEC00A10EE102A10
:10E0A00014A103A8FEF706F994F84E0000240328F3
:10E0B00006D903A8FEF7A5FB03A9084400F8014C04
:10E0C000284600F085F80346284600F05BF8024633
:10E0D00001200321CDE90010029403A907480CF0A8
:10E0E00033F807B030BD00001008002058080020A9
:10E0F0000402002025303264C2B000002402002057
:10E10000064A02EB9011096800F01F0201209040BE
:10E11000014201D0012070470020704700200240DA
:10E120002DE9F74F0E465FEA000800D136BB002408
:10E1300025464FF0FF3B4FF400491BE008EB05106C
:10E140004768D0F80CA04F4518D2CA4516D20078BF
:10E15000029900F02DFD102810D801218140B9420C
:10E1600004DD50440444241D4C4502DB5846BDE800
:10E17000FE8F6D1CB542E1D34C4501D3FEF7DCFAAE
:10E180002046F4E7114991F84E1006291CD2DFE829
:10E1900001F01B03050C1115A020704700EB800057
:10E1A000502101EB401080B2704700EB800000016D
:10E1B00050307047012801D9401CC0B200EBC001AB
:10E1C000C1EB8010323070470020704758080020A3
:10E1D000124991F84E1006291DD2DFE801F01C0308
:10E1E00003051005C8207047012181436FF0180016
:10E1F00011FB00F0C82101EB400080B27047401EC7
:10E20000022801D3012000E000206FF0310110FB53
:10E2100001F0C83070470020704700005808002007
:10E2200001617047024601F00043002089B2B3F15A
:10E23000004F04D052690A4200D001207047926911
:10E24000F9E700001B4A10B5811A1415904229D035
:10E250000DDCB0F1804F14D0174940181CD0A042FB
:10E260001DD0B0F5006F23D140F2034409E0A14274
:10E270001BD0B1F58E3F0CD0B1F5923F18D140F2D2
:10E280000D34204601F03CF92046BDE8104001F075
:10E2900061BA40F20B34F4E740F20144F1E740F296
:10E2A0000244EEE740F20444EBE740F20544E8E7BD
:10E2B00010BD00000010004000FCFFBF016841F0ED
:10E2C0000101016070478069C0F3021070472DE9B9
:10E2D000F74F029811F0F3FC00258046441E35E00C
:10E2E000062C00D1052400272DE00026601C40F3F9
:10E2F0004009A4EB060BB9F1FF3F03D0A8EB0700E0
:10E30000401E00E03846824602465946029800F018
:10E31000B1FBA0B90198B5EBC00F10DA009805F079
:10E32000070100EBE500C1F1070100785246C84043
:10E3300000F001035946029800F05EFC6D1C761C4B
:10E34000022ED6DB7F1C4745CFDBA41E012CC7DA8B
:10E350000198B5EBC00F01D0FEF7EEF9BDE8FE8FD6
:10E360002DE9F05F984617468A4681460025DDF87C
:10E3700028B00EE000240AEB050607E0324609EB60
:10E3800004010123584600F037FC641CBC42F5DB55
:10E390006D1C4545EEDBBDE8F09F0000034A1168A7
:10E3A00021F0070101431160704700000020024086
:10E3B00010B50A480DF0A4FF00280DD00748407E94
:10E3C000002809D00648C1684FF47A704143BDE87F
:10E3D000104003480EF024BA10BD00007020002049
:10E3E0004C200020016821F001010160704700000D
:10E3F0002DE9F0411746072916D8394A52F820006E
:10E4000041EAC00210460021431240F237546343F0
:10E41000491C83EA40000A29F6DB40EA822445F2DF
:10E4200012404440E01301D0FEF786F95FF000058A
:10E4300044FA05F000F001032A460821384600F0AE
:10E44000DBFB6D1C052DF3DDC4F3801307220821CF
:10E45000384600F0D1FB0822C4F3C01311463846F9
:10E4600000F0CAFBC4F3002308220721384600F05D
:10E47000C3FB092544FA05F000F00103C5F10E01C4
:10E480000822384600F0B8FB6D1C0F2DF2DB384631
:10E4900011F015FC0646002544FA05F000F00103D2
:10E4A000711B08223846491E00F0A6FB6D1C082D82
:10E4B000F2DB082544FA05F000F001037219082187
:10E4C00038460F3A00F098FB6D1C0F2DF2DBA6F1D9
:10E4D00008023846BDE8F0410123082100F08CBB5A
:10E4E000F029020870B505461D481E4C4FF47026F1
:10E4F0000088B0F5007F02D91B48854215D230460E
:10E5000000F0D8FE00280FD1206940F00200206101
:10E510006561206940F040002061304600F0CAFE8D
:10E52000216921F00201216170BD304600F0CDFE6D
:10E530000028F9D1206D40F0020020656565E06992
:10E54000800700D56561206D40F0400020653046B1
:10E5500000F0BBFE216D21F00201216570BD0000BD
:10E56000E0F7FF1F00200240FFFF070841617047EE
:10E570000129016803D021F480610160704741F4F2
:10E580008061FAE708494FF4FC6202EA5012086021
:10E590004FF4784101EA10211143C0F3C400014354
:10E5A0000148001D01807047C8010020F0B5827A43
:10E5B000012191402F4A136843F0010313602D4B52
:10E5C0001C331C688C431C602A4DC6892A4C0C35B0
:10E5D000B6B92E688E432E60C68847883604C7EACF
:10E5E0000606478904EBC707C7F840668688078890
:10E5F0003604C7EA0606478904EBC707C7F844662E
:10E60000C689012E16D12E680E432E6005884688D5
:10E610002D04C6EA0505468904EBC606C6F8405631
:10E620008588C6882D04C6EA0505468904EBC6041C
:10E63000C4F844560F4C8589241D002D25680DD043
:10E640000D4325600B4C05891434002D256807D037
:10E650000D432560007C012804D006E08D43F0E7DF
:10E660008D43F6E7186808431860106820F0010031
:10E670001060F0BD00660040006000400E48C179A7
:10E680008079C0EB001001EB80010C4803784278E0
:10E69000C3EB031302EB8303094A8B4209D8C37807
:10E6A0008078C0EB001003EB8000884201D9002085
:10E6B00000E0012050707047A8200020A402002034
:10E6C000040000202DE9F04788B0824611F0F7FAE7
:10E6D0000446002528463EE0814600261C21684667
:10E6E000FEF7C6F9002728E042463946504600F0BA
:10E6F000C1F9484509D1761C052E03D01CDD05F172
:10E70000010519E005F1030516E022466946304689
:10E7100000F0A6FEB9F1000F07D12146684601F0CE
:10E72000A1F800EB800005EBC00542463946504693
:10E7300000F0A0F9814601267F1CA742D4DB2346C6
:10E740006A463146484601F0EFF900EB800005EBE0
:10E75000C00508F101008046A0424FF00000BBDB7D
:10E760003EE0814600261C216846FEF781F900271D
:10E7700028E03A464146504600F07CF9484509D128
:10E78000761C052E03D01CDD05F1010519E005F10D
:10E79000030516E022466946304600F061FEB9F1F5
:10E7A000000F07D12146684601F05CF800EB8000BD
:10E7B00005EBC0053A464146504600F05BF98146FC
:10E7C00001267F1CA742D4DB23466A4631464846D1
:10E7D00001F0AAF900EB800005EBC00508F101008B
:10E7E0008046A0424FF00000BBDB8046671E24E05D
:10E7F00000261EE042463146504600F03BF9814675
:10E800004246711C504600F035F9484510D108F1D8
:10E8100001023146504600F02DF9484508D108F173
:10E820000102711C504600F025F9484500D1ED1C4D
:10E83000761CBE42DEDB08F10108B845D8DB4FF09C
:10E84000000847460DE0002608E03A4631465046AB
:10E8500000F010F908B108F10108761CA642F4DBBB
:10E860007F1CA742EFDB08EB880064438100604215
:10E8700000EB800011EB400000D540422044401ED8
:10E8800090FBF4F0401E092806D800EB80000549F3
:10E8900005EB4000884201D9FDF74EFF08B0BDE806
:10E8A000F0870000B8322700016841F40071016070
:10E8B00070470000F0B5234B0646002518680F4648
:10E8C0002C46C0F3022007281AD01868C0F3022093
:10E8D000062817D01868C0F3022005280DD0186844
:10E8E000C0F30220042810D01868C0F302200328C7
:10E8F0000ED04FF4A06000F0EBFD02252C4608E09E
:10E90000042406E00125032403E00325012400E09C
:10E910000425C5F104008740C4F104010F20C8405C
:10E920001040384306F1E021000181F8000406F0B0
:10E930001F01012088407109890001F1E021C1F81F
:10E940000001F0BD0CED00E00B480178032902D076
:10E950000A49097939B10A48C17A01290AD0017BEB
:10E9600008480DF057BF4178074809B18179F7E7AA
:10E970004179F5E70021F3E7040000204408002076
:10E98000100800204C200020A40200202DE9F047B0
:10E9900090B00F4682464FF6FF7400252AE07E1B9A
:10E9A000402E00D940260AEBCA0005EB0042334650
:10E9B0006946134802F5CC020DF034FA0021E9460D
:10E9C0004AF2010C13E000BF19F801205FF00100CA
:10E9D00004F00103640802F00108984501D084EABC
:10E9E0000C04401C5208C0B20828F1D9491CB1429D
:10E9F000EAD34035BD42D2D310B02046BDE8F087FF
:10EA000034200020F0B505461748184C0E46008803
:10EA10004FF47027B0F5007F02D91548854211D216
:10EA2000384600F047FC00280BD1206940F0010077
:10EA300020612E60384600F03DFC216921F0010183
:10EA40002161F0BD384600F040FC0028F9D1206D6E
:10EA500040F0010020652E60384600F036FC216D44
:10EA600021F001012165F0BDE0F7FF1F0020024009
:10EA7000FFFF070810B50378A3F115049C2C07D8F5
:10EA8000002905DB994203DA002A01DB9A4201DB07
:10EA9000FDF752FE02FB031100EBE10001F007015C
:10EAA0004078C84000F0010010BD00002DE9F041A1
:10EAB000044616460D46022000F004F9354BB0FB23
:10EAC000F3F17F2900D37F21626822F07F020A439D
:10EAD0006260314A954210D8B0FBF3F1491C7F299E
:10EAE00000D37F2121626900B0FBF1F0042800D23D
:10EAF0000420E169C0F30B0029E0DFF8A0C005EBBA
:10EB0000C5034FF47A7705EB450203EB0513654522
:10EB100021D84FF496756943B1FBF7F1491C216286
:10EB200046B1B0FBF3F0E16941F48041E1610105D8
:10EB300006D007E0B0FBF2F0E16921F48041F5E78F
:10EB400040F00100E16941F40041E161E169014304
:10EB5000E161BDE8F081C1EB0111C900B1FBF7F142
:10EB6000491C216286B1B0FBF3F0E16941F48041B8
:10EB7000E161E16941F40041E161E1690143E16181
:10EB80000120C4F89000E4E7B0FBF2F0E16921F461
:10EB90008041EDE740420F00A0860100801A060088
:10EBA0000069C0B27047016841F48071016070472C
:10EBB00010B54A1E272A1BD81122C91D91FBF2F15C
:10EBC000092815D2DFE800F0140507140A141412FE
:10EBD0000D00084807E007480C3004E005481830ED
:10EBE00001E00448243050F8210010BD002010BD81
:10EBF000FDF7A2FD002A020870B50478A4F11505FE
:10EC00009C2D07D8002905DBA14203DA002A01DB8D
:10EC1000A24201DBFDF790FD02FB041101F00704A5
:10EC2000012202EBE101002B435C02FA04F201D065
:10EC3000134300E09343435470BD8068084000D004
:10EC4000012070470029016803D021F400610160B0
:10EC5000704741F40061FAE7016170470907090E46
:10EC6000002804DB00F1E02080F80014704700F079
:10EC70000F0000F1E02080F8141D704770B51029D6
:10EC800002D830FA01F401D0FDF756FD491E12D426
:10EC90001D6820FA01F405F0070604F00104C6F12E
:10ECA000070602EBE505B4402E7834432C701C684F
:10ECB000641C1C60EAE770BD8068084000D0012039
:10ECC0007047000070B539A588B02ECD8DE82E00B4
:10ECD00037A20446D2E90012CDE9041234A2002082
:10ECE000D2E90012CDE90612344A5168C1F3810518
:10ECF000334995B34B00012D02D0022D30D101E0F4
:10ED000019462DE0556805F48035B5F5803F11D0E2
:10ED10002C4B51685568C1F383412D0101D541F059
:10ED2000100155686D0001D541F020010F290ED268
:10ED3000891C14E0D56A15F0804F00D0224B55682D
:10ED400005F40035B5F5003FE3D10B46E1E7A1F14D
:10ED50000F052F2D02D8491C01E001E03F21594346
:10ED60005368C3F303131DF8035021FA05F35568E4
:10ED700004AEC5F302255268755D23FA05F5C2F3AA
:10ED8000C22206AEB25C23FA02F244B1012C08D0D2
:10ED9000022C08D0032C00D1104608B070BD0846E4
:10EDA000FBE71846F9E72846F7E7000000000000F7
:10EDB00000000000010203040607080900100240D9
:10EDC00000127A0000093D00006CDC0230B40478C7
:10EDD000002908DBA14206DA002A04DBA24202DA9B
:10EDE00030BCFFF709BF30BC704700002DE9FF4F72
:10EDF0009BB090460D461046042A65D2012D63DB78
:10EE0000282D61DC00EBC00101EB4810554901449D
:10EE10004E575449A43908444457284600F060FA34
:10EE2000C11700EB5170C7104146284600F00CF99D
:10EE30000B9097FBF6F006FB1070301A099097FBC9
:10EE4000F6F0001B0A90601E10AF1A901D283BD8E8
:10EE500021463846FDF7EAFD01213819894600F8B8
:10EE6000011C002017E000250CE0785D494600F009
:10EE700009F96A1C7855A24203DA791949784840A1
:10EE800078556D1CA542F0DB0221484600F0FAF8E7
:10EE9000814608F101008046A042E4DB0020DDF855
:10EEA0006CB058E009998A4501DB012100E000219E
:10EEB0000A9801EB00090B991B98451810A8CDE999
:10EEC0000C501A981D2801D9FDF736FC214628461A
:10EED000FDF7ACFD00201CE01BF808002978621E3D
:10EEE00048400E90691C2846FDF7EFFC00212819C8
:10EEF0000F4600F8011C08E00D980E99C05D00F067
:10EF0000C1F8E95D4840E8557F1CA742F4DB08F1F1
:10EF1000010080464845DFDB002150460AE00A9A9E
:10EF2000914201D1099A801A1E9A1BF80130491C9E
:10EF3000135430444945F2DB0B990020514405E05D
:10EF40000C9A135C1E9A401C53543144A042F7DBC8
:10EF5000CB440AF101008246B042A3DB1FB0BDE8FA
:10EF6000F08F00004C29020810B500EB0113D3F814
:10EF7000B04114F004041472D3F8B04134D0E40862
:10EF8000C2F80440D3F8B04104F002045472D3F83C
:10EF9000B441240AD474D3F8B44104F00F04947239
:10EFA000D3F8B841D472D3F8B841240A1473D3F813
:10EFB000B841240C5473D3F8B841240E9473D3F899
:10EFC000BC41D473D3F8BC41240A1474D3F8BC41B7
:10EFD000240C5474D3F8BC311B0E937439B10169FD
:10EFE00041F02001016110BD640D1460CAE7C168E1
:10EFF00041F02001C16010BD08490020CA68D20755
:10F0000001D001207047CA68D20601D5032070479D
:10F01000C9684907FBD50220704700000020024064
:10F0200008490020CA6CD20701D001207047CA6C81
:10F03000D20601D503207047C96C4907FBD50220D1
:10F04000704700000020024070B505460C460429B8
:10F0500001D3FDF771FB00F043F904EBC401084A4A
:10F0600001EB4411064B0A44A43319445257495743
:10F0700012FB01F1C21700EB5270C1EBE00070BD52
:10F08000A828020830B5034600200722C4091D2520
:10F0900014FB05F484EA400021FA02F404F00104B0
:10F0A00014FB03F44440E0B2521EEFD530BD00B56E
:10F0B00085B004AA03A9CDE9001202AB4B22D221EC
:10F0C000FEF7CCFE9DF808009DF80C10000440EA05
:10F0D00001209DF8101005B0084300BD0849097FC4
:10F0E000022900D30021AB2801D306A07047064AAD
:10F0F00001EB410102EB8101896851F82000704762
:10F10000100800203F0000001409020810B54FF459
:10F1100000434FF0FF3299422CD2012808D0022838
:10F120000FD0042816D0082816D007281CD019E0C4
:10F1300001EB8100022101EB4000032190FBF1F083
:10F140000EE001EB410000EBC100401C00EBD07071
:10F15000401005E0C80003E001EB810000EBC100B6
:10F16000002805DAFDF7E8FA0029FBD1182010BDC8
:10F170009842FCDB104610BD42690A434261704769
:10F1800030B50246002093685B0108D49068000106
:10F1900001D5012003E09068C00041D5022002EBB8
:10F1A0000012D2F8803103F00103C2F880310B7AEB
:10F1B000ABB3D2F880414D681C434B7A43EAC50398
:10F1C0001C43C2F8804100BFD2F8843123F00F0302
:10F1D000C2F88431D2F884318C7A2343C2F8843166
:10F1E000CB7A8C7B0D7B43EA04634C7B240444EA9A
:10F1F00005242343C2F88831CB7B8C7C43EA04632B
:10F200004C7C097C240444EA01210B43C2F88C3174
:10F21000D2F8801141F00101C2F8801130BD01E047
:10F220000320FBE7D2F880314C7A23430C8843EA71
:10F230004453C2F88031C7E741B1002238B10128F8
:10F2400014D002281DD0032826D0FEE7FEE74A711D
:10F25000CA718A7140F2FF3048810A724A700220F6
:10F260008870CA700A714A720A7070470120C8819A
:10F270000A740A810A804A808A80CA808A814A8107
:10F28000704700200B18401CC0B2DA720828F9D36E
:10F290008A724A600A720AE000200B18401CC0B251
:10F2A000DA720828F9D38A724A600A72CA744A72FA
:10F2B0000A60704700B50346FFF79EFE5B1E0128FB
:10F2C00002D1002BF8D1042000BD00B50346FFF7A2
:10F2D000A7FE5B1E012802D1002BF8D1042000BD3F
:10F2E000014610B5401E272819D8802000EB0110D8
:10F2F0004843403002290DDB072291FBF2F26FF008
:10F300001803921C534337300A3303FB02000729CA
:10F3100000DB2438A0F1D001B1F5E64F01D9FDF7AB
:10F320000BFA10BD10B5046824F002040C4304600D
:10F330001A43826010BD0000F0B5144C002801DAB9
:10F34000E36900E06368420D120185B2C0F3015722
:10F350009540C0F30346032F05D0C2020AD503220D
:10F36000B240934307E023F07062636823F0706358
:10F37000636002E0AB4343F0706201B12A430028AE
:10F3800001DAE261F0BD6260F0BD00000000014002
:10F39000921C03D041F001010161704721F001018D
:10F3A000FAE70000024A1140014302480160704739
:10F3B00080FFFF1F08ED00E0034A516821F460510F
:10F3C000014351607047000000100240C160704767
:10F3D00030B505460124A1F540400B46813818D0D0
:10F3E000A3F58030843816D0A3F5C030CB3817D0C1
:10F3F00005EB13300068C3F3841104FA01F10840EF
:10F40000696903F01F029440214068B161B1012095
:10F4100030BD002100E00121284600F07AFBEFE733
:10F420002846FEF750FFEBE7002030BD8162002A3E
:10F4300003D1416941F00101416170470649096802
:10F44000064A0142126802EA000202D00AB1012013
:10F450007047002070470000140401400004014080
:10F4600070B5044608680D4600B914441822281DDA
:10F47000FDF79FFA2C6070BD10B58A07140F0F239B
:10F48000A340124AA040042906D291689943916092
:10F4900091680143916010BD082906D2D168994353
:10F4A000D160D1680143D16010BD0C2906D2116929
:10F4B0009943116111690143116110BD516999436B
:10F4C000516151690143516110BD000000000140CC
:10F4D0000249084302490860704700000000FA052D
:10F4E0000CED00E0054901EB90110A6800F01F03E4
:10F4F0000120984002430A6070470000001002405B
:10F50000054901EB90110A6800F01F0301209840A3
:10F5100002430A60704700000010024070B52B4C97
:10F520000020216841F480312160E2142168401CF0
:10F5300011F4003F01D19042F8D12068800300D43B
:10F54000FEE7E06940F08050E061214D286840F41A
:10F55000404028600220FEF721FF6068606060681C
:10F560006060606840F480606060606820F44030F3
:10F570006060606840F44030606060681549084031
:10F580006060606840F450106060206840F08070F7
:10F59000206020688001FCD5286840F48030286015
:10F5A0006868C003FCD5286840F4003028606868AB
:10F5B0008003FCD5606820F003006060606840F064
:10F5C0000200606060680007FCD570BD001002405A
:10F5D00000700040FFFFC3B7C1F38413012200EBAA
:10F5E00011309A40026070472DE9F34F83B08B468B
:10F5F000039810F064FB07248046C51F0CE000232D
:10F60000224606210398FFF7F7FA00230622214637
:10F610000398FFF7F1FAA41CAC42F0DB6FF003068D
:10F620003446254603E0354601E0290000D569420D
:10F63000002C01DB204600E06042884202DD210010
:10F6400000D56142022901D0042915D10023E21C12
:10F65000E91C0398FFF7BAFB08EB05010023E21C45
:10F66000091F0398FFF7B2FB08EB04020023E91C13
:10F67000121F0398FFF7AAFB6D1C042DD5DD641C37
:10F68000042CD0DD6946584600F01EFA814600275A
:10F6900029E0002624E027B90EB3A9F10100864233
:10F6A0001DD0A9F10100874200D1C6B14FF0FF344F
:10F6B0004FEA0D0A4FF0FF3555EA040029D0002328
:10F6C0001AF806101AF807000A1941190398FFF7EB
:10F6D00093FA6D1C012DEFDD641C012CEADD761C14
:10F6E0004E45D8DB7F1C4F45D3DB5846BBF1070F97
:10F6F0002DDB0021C21241F625735A43491C82EAD0
:10F7000040000C29F6DB40EA0B36B01403D0FDF7BD
:10F7100013F80123D4E700245FF0000506F0010090
:10F7200008EB0507814603460B3F224639460398FE
:10F73000FFF762FA4B463A4621460398FFF75CFA18
:10F7400076106D1C032DE9DB641C062CE4DB05B090
:10F75000BDE8F08F054901EB90110A6800F01F0326
:10F760000120984082430A60704700000010024068
:10F770000149086070470000140401402DE9FE4F64
:10F780000C468246112101EB8A0808FB08F0C01DD7
:10F79000C11700EB5170012101EBE0012046FDF79C
:10F7A00045F984F800804346012200210620009498
:10F7B000FEF7D6FD01234246062100200094FEF705
:10F7C000CFFD092300211A4608460094FEF7C8FD24
:10F7D000A8F1080009230822002105460094FEF73D
:10F7E000BFFD08230922294600200094FEF7B8FD3A
:10F7F00001A9504600F068F9064600271BE00025E5
:10F80000A6F101090DF1040B12E017B97DB14D45C8
:10F810000DD04F4500D155B100941BF805101BF8D1
:10F82000070005231A46801E891EFEF799FD6D1CF0
:10F83000B542EADB7F1CB742E1DBBAF1070F0FDB11
:10F84000A8F10B0006230322002105460094FEF7D1
:10F8500087FD03230622294600200094FEF780FD41
:10F86000BDE8FE8F10B5426801EB4101914201DA1B
:10F87000FCF762FF002A16DD8168914213D1C1684E
:10F8800002EB420399420ED1016991420BD14169C9
:10F89000914208D10168B1EB820F06DB8369934284
:10F8A00003DB012302E0002308E000238069B0EBC2
:10F8B000820F03DB914201DB012000E000201844AD
:10F8C00010BD41627047000030B5724B724C41B3BD
:10F8D00001295ED002297DD003297CD1016A21F45F
:10F8E00080510162C16921F44071C161016A1568EA
:10F8F00041EA05310162016A21F400510162016AA5
:10F90000D58841EA05310162984201D0A04262D116
:10F91000416821F4804141604168528941EA821185
:10F9200077E0016A21F001010162816921F00301A0
:10F930008161016A156829430162016A21F00201AF
:10F940000162016AD58829430162984201D0A04230
:10F9500060D1016A21F004010162016A93881943B0
:10F960000162016A21F008010162016A13891943E9
:10F970000162416821F480714160416853891943F3
:10F980004160416821F400714160416892891143EE
:10F990003FE0016A21F010010162816921F44071A8
:10F9A0008161016A156841EA05110162016A21F06D
:10F9B00020010162016AD58841EA0511016298427D
:10F9C00001D0A04226D1016A21F040010162016A02
:10F9D000938801E01FE01DE041EA03110162016A22
:10F9E00021F080010162016A138941EA0311016279
:10F9F000416821F4806141604168538941EA830193
:10FA00004160416821F4006141604168928941EAA6
:10FA10008201416030BD016A21F480710162C169D7
:10FA200021F00301C161016A156841EA0521016203
:10FA3000016A21F400710162016AD58841EA052159
:10FA40000162984201D0A042E4D1016A21F48061B0
:10FA50000162016A938841EA03210162016A21F48B
:10FA600000610162016A138941EA03210162416870
:10FA700021F4805141604168538941EA031141609A
:10FA8000416821F4005141604168928941EA0211C4
:10FA9000BFE70000002C0140003401400129416C07
:10FAA00003D021F400414164704741F40041FAE77A
:10FAB0000246044B01209A4202D1042900D90020B9
:10FAC000704700000004024030B50346012814D0FE
:10FAD000072093FBF0F0801C00EB400202EBC30216
:10FAE0006FF0030404EB8004521D92FBF4F2540007
:10FAF000421E0A2505EB830304E0002030BD8B5431
:10FB00001B1B521E012AFADA06220A7030BDC1629E
:10FB100070470246002029B1012902D1106900F086
:10FB200003007047D068FAE770B51C4615460B46CF
:10FB300028B1224629461846FFF792FC00231819DF
:10FB400022462946FFF78CFC21462846BDE8704036
:10FB5000FFF788BE31B1012903D1816821F080010E
:10FB600081607047816841F08001F9E731B1012976
:10FB700003D1016821F0080101607047016841F07C
:10FB80000801F9E7016821F080010160704771B157
:10FB9000012913D002291AD0032907D1C16921F400
:10FBA0008061C161C16941EA0221C1617047816917
:10FBB00021F0040181618169114306E0816921F42A
:10FBC00080618161816941EA022181617047C16977
:10FBD00021F00401C161C1691143E6E771B1012956
:10FBE00013D002291AD0032907D1C16921F4E041B9
:10FBF000C161C16941EA0221C1617047816921F097
:10FC0000700181618169114306E0816921F4E0415D
:10FC10008161816941EA022181617047C16921F0F6
:10FC20007001C161C1691143E6E771B1012913D0C7
:10FC300002291AD0032907D1C16921F40061C161E9
:10FC4000C16941EA0221C1617047816921F008015F
:10FC500081618169114306E0816921F4006181615C
:10FC6000816941EA022181617047C16921F008017F
:10FC7000C161C1691143E6E739B1012907D0022901
:10FC800007D0032900D10264704742637047826342
:10FC90007047C2637047426822F070024260426857
:10FCA0000A434260704700000105084890F8A62901
:10FCB00001EB423190F8A72901EB822190F8A529A8
:10FCC00090F8A40901EBC201084470479814002081
:10FCD0000A490388B1F91C2093420ADC83889342C5
:10FCE00007DB4288B1F91E108A4202DCC0888842D4
:10FCF00001DA0020704701207047000070200020CA
:10FD0000F0B584464FF6FF7000224AF2010512E07A
:10FD10001CF802405FF0000300F00106400804F008
:10FD20000107B74200D068405B1C6408DBB2082BB7
:10FD3000F2D3521C92B28A42EAD3F0BD10B5FDF75D
:10FD4000FDFF4FF40050FFF737FB0F4809F08CFB25
:10FD500062B60D4809F04CFB0C480CF0FDFB0C485A
:10FD600009F07CF90B480BF0A1FD012109480BF0CB
:10FD700003FB09480CF06EF908480EF0ADFCBDE835
:10FD80001040074805F084BC040200204C200020ED
:10FD9000981400203420002070200020A82000208B
:10FDA0002429002000F0030303EB83031B018008D8
:10FDB0000B8000EBC000182101EBC00010807047E1
:10FDC00070B54FF6FF7205681346002425F0020552
:10FDD0000560056845F00105056000E05B1E4568AB
:10FDE000ED0701D1002BF9D14368DB0748D04B78F0
:10FDF0004FF0407505EA03630D784FF4702643EA2F
:10FE000085738D7806EA05452B43CD784FF4E006DF
:10FE100006EA05552B434D896D1EC5F309052B4395
:10FE2000C3610B79012B03682CD023F0800303609E
:10FE30004B79012B036828D023F0400303608B79B2
:10FE4000012B036824D023F020030360CB79012B1E
:10FE5000036820D023F0100303600B7A012B0368A2
:10FE60001CD023F008030360497A0129016818D0E7
:10FE700021F004010160016821F00101016014E03A
:10FE800000241AE043F08003D1E743F04003D5E7B4
:10FE900043F02003D9E743F01003DDE743F0080304
:10FEA000E1E741F00401E5E7521E4168C90702D0CD
:10FEB000002AF9D101E002B10124204670BD000002
:10FEC0002DE9FC41104C607A00281BD00F4D002614
:10FED0000127A8790C280DD224235A22EB210C48A3
:10FEE000CDE900670BF034F9607A00280AD0A879D0
:10FEF0000C2807D325235A22EB210548CDE90067BA
:10FF00000BF026F9BDE8FC8110080020A820002095
:10FF1000881400202DE9F04188B001240025CDE9A6
:10FF200000547723B422692129480AF055FFCDE90E
:10FF300000547723B422B92125480AF04DFF254803
:10FF4000254E0227807A4FF0640878B1327923A1D8
:10FF500003A8FCF7AFF90097B423502203A9214866
:10FF6000CDE901450AF0F0F872790EE072791BA133
:10FF700003A8FCF79FF90097B423502203A919485E
:10FF8000CDE901450AF0E0F8327914A103A8FCF7A5
:10FF900091F90097B423A02203A91248CDE90145A5
:10FFA0000AF0D2F8316803A891FBF8F208FB1212AC
:10FFB0000AA1FCF77FF90097B423F02203A90948AE
:10FFC000CDE901450AF0C0F808B0BDE8F0810000B5
:10FFD0008814002010080020A8200020253032645A
:10FFE00000000000240200201CB50B480B4A447A94
:10FFF00001209379022134B10C2B04D00C22B3FBE5
:020000040801F1
:10000000F2F402FB1433CDE900101E222C21044827
:100010000AF040F81CBD000010080020A8200020B5
:10002000240200200748016941F08001016106496E
:100030000988B1F5007F03D9016D41F080010165A8
:100040007047000000200240E0F7FF1F026802F442
:1000500041530A681A434B6813438A681A43CB68B2
:1000600013430A691A434B698969134319430160B1
:10007000C16921F40061C1617047000030B5A0F191
:1000800021015D2901D8C8B230BDB0280FD00023AE
:100090000E4C9F2285B2981800EBD070411034F8B6
:1000A0002100854206D104EB8100408830BD4FF02D
:1000B0005E0030BD02D901F1010301E0A1F10102AE
:1000C0009342E8DD4FF6FF7030BD00002A150308AB
:1000D0002DE9F05F904683468A46072A6AD808468B
:1000E0000FF0EDFD074600254FF003095EE0002408
:1000F00059E02A4621465846FEF7BCFC98BBB8F1A9
:10010000080F57D2DFE808F004090D121A22303721
:1001100084EA050040F3000601E045F30006761C82
:1001200034E094FBF9F109FB114004E0611991FB03
:10013000F9F209FB121040B3002627E094FBF9F016
:1001400005EBD57180EA6100C007F4E704FB05F018
:1001500090FBF9F209FB120100EBD07222F00102D0
:10016000801A0844E7E71DE004FB05F090FBF9F274
:1001700009FB120106E004FB05F191FBF9F309FB11
:10018000131160194140C807D5E701262A462146C8
:100190005046FEF76FFC80EA06032A462146504689
:1001A000FEF72AFD641CBC42A3DB6D1CBD429EDB36
:1001B000BDE8F09FFCF7C0FAF0B5184D2B688343FB
:1001C0002B602E1D336883433360331D1C688443CA
:1001D0001C601C1D27688743276011B1012907D1C6
:1001E00003E029680143296002E03168014331607E
:1001F00052B1012A0ED0022A05D1196801431960B3
:10020000216801432160F0BD19680143196021682C
:100210008143F7E719688143F1E7000000040140DA
:10022000F0B501F00F04CD0602D5042A18D014430E
:10023000002501225FF00F0702FA05F61E421AD0D0
:1002400006684FEA850C07FA0CFE26EA0E0604FA49
:100250000CFE4EEA060E282908D0482908D008E0EE
:10026000C26B44F003041A43C263E1E7436100E058
:100270000361C0F800E06D1CADB2082DDCD3082589
:1002800002FA05F61E4216D046684FEA850EAEF118
:10029000200E07FA0EFC26EA0C0604FA0EFC4CEAC5
:1002A000060C282902D0482902D002E0436100E070
:1002B0000361C0F804C06D1CADB2102DE0D3F0BDD9
:1002C0002DE9F0473D49064686B0132008703C48AA
:1002D00009F034FA00213B480CF09CFA0024F0208D
:1002E000CDE900044FF4A0732246214636480AF0B7
:1002F000F5FB364F4FF0280905253868CDE9009405
:10030000CDE902404B46C322294604952E480AF007
:10031000D1F900940723C72209212B4801940AF040
:1003200017FF3078032840D93868CDE90094B846E3
:10033000CDE902404F464FF48A79282317220495CD
:10034000494621480AF0B6F94FF48C7A0094072305
:100350001B2251461C4801940AF0FAFED8F800000E
:10036000CDE90074CDE90240282384224946049552
:1003700015480AF09FF90094082388225146124834
:1003800001940AF0E5FE727811A105A8521CFBF752
:1003900091FF012004210090CDE90101522340F298
:1003A000271205A90B4809F0CFFE304600F014F8DB
:1003B00006B03046BDE8F04700F07EB804000020EB
:1003C000D00200204C20002088140020C80100200A
:1003D00025640000240200202DE9F04188B0054684
:1003E0000024687800EB4000204405EBC000007951
:1003F00000283BD0687800EB4000204405EBC007A4
:100400002846397900F042F81A49804605200968E3
:10041000CDE903103B21184A00910026CDE9016285
:1004200000EB84120146FF2314480AF043F90A2026
:10043000009600EB8413019602461148D8F8041088
:1004400009F06AFD7B793A790EA105A8FBF732FF26
:100450001E2000EB841300960A2205A90848019685
:1004600009F0F6FE641CE4B2032CBAD308B0BDE870
:10047000F0810000C8010020AAAAAA008814002068
:100480002402002025642D2564000000084A002075
:1004900000EB400312F823308B4204D100EB400004
:1004A00002EB80007047401C2F28F1D301487047B1
:1004B000A8250208D027020830B58BB005460024D5
:1004C000687800EB4000204405EBC000007900286C
:1004D0001BD068780EA100EB4000204405EBC00063
:1004E000826803A8FBF7E6FE0020A0210090CDE97A
:1004F00001012D2000EB84130A2203A9074809F00B
:10050000AEFF641CE4B2032CDAD30BB030BD0000A4
:1005100043414E2052583A25750000002402002025
:1005200001465822014809F023B8000004020020C7
:1005300070B504465648007813287DD1554808F018
:10054000DBFF616D401AB0F5FA7F06D9514808F01B
:10055000D3FF60652046FFF7AFFF4F48417E11B1E2
:10056000817819B180E0002181707DE001218170E6
:100570004A48FFF7ADFB10B1494809F015FB474861
:100580000830FFF7A5FB45482830FFF7A1FB18B15D
:10059000607808B1401E607040483030FFF798FB2B
:1005A00058B120780321801CB0FBF1F0C1B2607813
:1005B000491E884201DA401C607038481030FFF74D
:1005C00087FB384DB0B160782178A0EB80021144F0
:1005D00000290FDD00EB400004EBC000407968709B
:1005E000607800EB400004EBC000007928702846DA
:1005F00000F032FB29481830FFF76AFBB0B1607891
:100600002178A0EB8002114401290FDD00EB4000AE
:1006100004EBC000407B6870607800EB400004EBA6
:10062000C000007B28701F4800F016FB1B482030DC
:10063000FFF74EFBC0B100E028E060782178A0EB26
:100640008002114402290FDD00EB400004EBC000E2
:10065000407D6870607800EB400004EBC000007DD6
:100660002870104800F0F8FAA1782078814203D071
:10067000A0702046FFF724FEE1786078814205D023
:10068000E0702046BDE87040FFF71ABE70BD000064
:1006900004000020040200207020002070250208C1
:1006A00092010020940900202DE9F0413249804652
:1006B00086B007200870002130480CF0ABF8002409
:1006C0002F484FF4A0763346C470F020CDE90004E3
:1006D000224621462B480AF001FA2B4DC320002266
:1006E00029683346CDE90001114626480AF0F6F99B
:1006F00028682527CDE90240CDE90074052664234A
:10070000C822032104961F4809F0D4FF2868CDE9C8
:100710000074CDE902407823C822C5210496194807
:1007200009F0C8FF1120FEF7D9FC0125CDE90054DE
:100730000146D2233522154809F0EEFB1220FEF7C0
:10074000CDFCCDE900540146D22340F201120F48FE
:1007500009F0E2FB9720FEF7C1FCCDE90054014609
:100760000623A022094809F073FD06B04046BDE803
:10077000F04100F03BB80000040000204C200020B5
:10078000D002002088140020C8010020240200208C
:1007900010B53B23114A002000EB4004145D8C424D
:1007A00016D100EB4000841894F90200002860780C
:1007B00003DABDE81040FEF791BCFEF78FFC02465D
:1007C00094F9023006A10848FBF774FD064810BDF5
:1007D000401C80B29842DFD39620EAE7AE090208B7
:1007E00025732025640000001403002070B5214902
:1007F0008CB006460968AE20CDE9000100254FF413
:10080000A073172229461C480AF068F95FF000041B
:1008100036F81400C8B1C1B23046FFF7B9FF03463D
:1008200036F8142015A102A8FBF744FD0020009023
:10083000019005EB450000EB0513052202A91148C4
:100840001E3309F005FD6D1CEDB2641C082CDFDBC6
:10085000002D0CD19820FEF741FC01460222012018
:10086000CDE900025A23A022064809F0F1FC0CB0A1
:1008700070BD0000C80100208814002025643A25BE
:10088000730000002402002001468022014808F085
:100890006FBE00000402002070B5044625480078B1
:1008A000072822D124480025417E11B18178F1B179
:1008B00000E085705FF0000504EB450034F815108A
:1008C000B0F8400088420DD05FF0000004EB400219
:1008D00034F81010401CA2F840102028F6DB204607
:1008E000FFF784FF6D1C202DE6DBFF2070BD01218A
:1008F00081701248FFF7ECF910B1114801F0DAFBF2
:100900000E480830FFF7E4F968B10E480E4A052397
:1009100090F8A41990F8A50902EBC0000144002248
:10092000084808F046FC002024F81050401C2028FD
:10093000FAD3DAE704000020702000209E090208A4
:10094000580800209814002000FC1F00F0B5324920
:10095000054685B00E200870002130480BF05AFF84
:100960002F4E6F204FF4A07731680022CDE90001AF
:100970003B4611462B480AF0B1F800248120CDE90E
:1009800000043B466F22214626480AF0A7F831684A
:10099000052001940294CDE903102820034600901D
:1009A000C32205211F4809F085FE00940723C722B2
:1009B00009211C4801940AF0CBFB3620FEF78EFB80
:1009C00001460120CDE900040C23A022164809F0BD
:1009D000A3FA1820FEF782FB01460094292308227F
:1009E0001148019409F098FA1920FEF777FB0146A7
:1009F00000944F2308220C48019409F08DFA2846F0
:100A000000F052F8284600F013F805B00748BDE89A
:100A1000F04008F09FBE0000040000204C200020A1
:100A2000C80100208814002024020020D0020020E9
:100A300030B5184D04460279287A87B078B100EEB7
:100A4000102AF6EE000A1448B8EE400A30EE200AEA
:100A500008F080FDBCEEC00A10EE100AC2B2287A7F
:100A600008B1462300E043230CA103A8FBF722FCB6
:100A7000E178502061B100210122CDE900210290EE
:100A80002923D22203A9074809F0B0FC07B030BDE2
:100A90000121F1E710080020040200202564C2B003
:100AA000256300002402002030B5184D0446427929
:100AB000287A87B078B100EE102AF6EE000A1448C2
:100AC000B8EE400A30EE200A08F0D4FCBCEEC00AB2
:100AD00010EE100AC2B2287A08B1462300E0432380
:100AE0000CA103A8FBF7E6FBE1785020012900D018
:100AF00000210122CDE9002102904F23D22203A937
:100B0000064809F073FC07B030BD00001008002053
:100B1000040200202564C2B02563000024020020E6
:100B2000F8B50446464800780E287CD14548002692
:100B3000417E11B1817811B116E0867014E0012573
:100B400085704148FFF7C4F810B1404809F02CF80F
:100B50003D480830FFF7BCF800B1E6703A48103065
:100B6000FFF7B6F800B1E570394D287818B32E704C
:100B7000E07868B9607820281DD21320FFF794F838
:100B80000146607803224C30C3B2324808F011FBB2
:100B9000E07801280FD1A0780A280CD21320FFF7A3
:100BA00083F80146A078FF23401CC0B200900322C6
:100BB000284808F00BFB687818B36E70E07868B9C5
:100BC000607803281DD91320FFF76EF8014660787E
:100BD00003224A30C3B21F4808F0EBFAE07801283C
:100BE0000FD1A07802280CD91320FFF75DF8014639
:100BF000A078FF23401EC0B200900322154808F0E1
:100C0000E5FA2178E078814206D020702046FFF78F
:100C10004BFF2046FFF70CFFA1786079814205D099
:100C2000A070204600E009E0FFF73EFF61782079E0
:100C3000814203D060702046FFF7FAFEFF20F8BD26
:100C40000400002070200020F00D02089201002016
:100C5000D0020020981400202DE9F041644980461C
:100C600086B011200870002162480BF0D3FD0024EB
:100C7000F020CDE900044FF4A073224621465E48DF
:100C800009F02CFF5D4808F065FD5D4E282705251D
:100C90003068CDE90074CDE902403B46C3222946C5
:100CA0000495554809F006FD00940723C722092141
:100CB000514801940AF04CFA3068CDE90074CDE94E
:100CC00002404623C3223C2104954B4809F0F2FC24
:100CD0000094CF2343224BA14C48019409F01CF906
:100CE0003068CDE90074CDE902404623C3228C214F
:100CF0000495414809F0DEFC0094CF23932244A1DF
:100D00004248019409F008F93068CDE90074CDE952
:100D100002405423C322DC210495374809F0CAFC61
:100D20000094CF23E4223CA13848019409F0F4F860
:100D300030684FF49B77CDE90140032000903B469B
:100D4000B62205212C48CDE9034509F0B3FC3068F3
:100D50000495CDE902407220009001943B460222A6
:100D60000521254809F0A6FC009408230A222CA19D
:100D70002648019409F0D0F80125CDE90054082354
:100D80004FF488722AA1214809F0C6F8009425235F
:100D90000A2228A11D48019409F0BEF800942523D9
:100DA000702225A11948019409F0B6F8CDE9005444
:100DB0004123A02222A1154809F0AEF8CDE9005444
:100DC0005D23A02223A1114809F0A6F8404600F0B7
:100DD000B1F8404600F042F8404600F0C3F8404603
:100DE00000F0FAF906B04046BDE8F04100F0CEB898
:100DF000040000204C20002088140020D002002095
:100E0000C801002052656164000000002402002037
:100E1000536176650000000044656661756C74007E
:100E2000506172616D7320666F756E643A000000E8
:100E300078310000233A00005241573A0000000088
:100E40006D696E5F6C69717569645F6C6576656C00
:100E500000000000656E61626C6564000EB58188FB
:100E6000826800F0D5F801464FF499730022012002
:100E70008DE80D005D23A022014809F0AEFA0EBDF9
:100E80002402002000B587B002214175002180F8BE
:100E90001018FF2105910291039104910091019195
:100EA0000A490378407891F8A42991F8A51902EB32
:100EB0004332800200EBC1001118FF2300220348D7
:100EC00001F5E00108F0CCF907B000BD981400204E
:100ED000417D00290CD101214175002101758181DD
:100EE000A0F80618A0F80C1880F80E18A0F804183E
:100EF000704700001CB5032141750024A0F8244868
:100F0000A0F81C4880F81A4880F81B4880F8184858
:100F100080F819481020FEF7E1F801460220CDE9DB
:100F20000040CF239322024808F0F6FF1CBD0000CA
:100F30002402002000B585B0828908A103A8FBF730
:100F4000B9F9002028210090CDE901010823B92238
:100F500003A9034809F07AFA05B000BD2564000032
:100F6000240200200EB5818800F054F94FF49973E3
:100F7000002201218DE80E0041684123A022024891
:100F800009F02BFA0EBD00002402002010B586B037
:100F9000044682680AA103A8FBF78CF9A1786420B3
:100FA000012900D000210022CDE900210290232355
:100FB000B42203A9034809F049FA06B010BD0000A5
:100FC00025640000240200207CB5007D4FF49A7156
:100FD00010FB01F06421B0FBF1F084B24FF6FF701A
:100FE0000125CDE900502346B7220621074809F024
:100FF00075FD0020CDE90050C4F59A7083B2A41DA0
:10100000A1B2B722014809F069FD7CBD8814002017
:101010003EB5144600F0FEF805000CD0287F0E28DF
:1010200032D00BDC01281FD00B2822D00C2822D074
:101030000D280BD125E0224646A16DE00F281DD0DA
:10104000102827D0112822D0122826D000EE104ACE
:10105000414CB8EE400A217A31B3DFED400A032853
:1010600020D0022821D026E00CB13DA03EBD3EA0FC
:101070003EBD3F4812E03E4848300FE03C48203833
:101080000CE03B48A03009E03948B83006E0384869
:10109000E83003E03648D03000E0364800EBC400CA
:1010A00040683EBD20EE200A05E0B0EE401A9FEDFC
:1010B000320A01EE200AD5ED050A95ED061A10EE6A
:1010C000900A00EE201AB0F17E5F0CDA11EE100AE1
:1010D0000FF0F2F841EC100B28A153EC102B6846EE
:1010E000FBF7E8F807E0BDEEC10A26A1684610EE5E
:1010F000102AFBF7DFF8287F0B2810D2DFE800F07A
:10110000260F06062314111A201D1700207A6A469E
:1011100008B11DA100E01EA11F48FBF7CBF81E4837
:101120003EBD6A461DA1F7E76A461EA1F4E76A467E
:101130001EA1F1E76A461FA1EEE76A461FA1EBE791
:101140006A4620A1E8E76A4620A1E5E76A4621A1B0
:10115000E2E7000025750000100800206666E63F03
:10116000547275650000000046616C7365000000F4
:10117000600E0208700F020800000042252E316642
:1011800000000000256400002573C2B04600000086
:101190002573C2B043000000740900202573205756
:1011A0000000000025732056000000002573206811
:1011B000000000002573206D730000002573206D72
:1011C0000000000025732073000000002573252512
:1011D000000000002573000010B586B00446828828
:1011E0000AA103A8FBF766F8A178282061B10021C5
:1011F0000022CDE90021029025232D2203A90448D5
:1012000009F024F906B010BD0121F1E725640000C2
:1012100024020020074A002002EB40131B888B4267
:1012200002D102EB40107047401CAF28F4D30020DD
:1012300070470000900F020800B585B0C28909A16F
:1012400003A8FBF737F84622002101208DE80700AC
:1012500008234FF4887203A9034809F0F7F805B092
:1012600000BD0000782564002402002010B504466B
:10127000014640F62C02034808F07AF90120E0818B
:1012800010BD0000040200202DE9F0410446FE4894
:1012900086B0007811287DD194F83000012604EB47
:1012A000C0004FF47A78816BA160808EA080F748EF
:1012B0000025417E11B1817811B140E085703EE09A
:1012C0008670F348FEF704FD10B1F248FEF7F8FF10
:1012D000EF480830FEF7FCFC10B12046FFF7F8FDA0
:1012E000EB481830FEF7F4FC10B12046FFF702FE81
:1012F000E7482030FEF7ECFC28B194F8280810B934
:101300002046FFF7BFFDE2482830FEF7E1FC00B1C0
:10131000A570DF483030FEF7DBFC00B1A670DC487A
:101320001030FEF7D5FC50B1E08900EB80014FF69C
:10133000FF7000EA4100E081404500D9E681D64FC8
:10134000387840B33D70A07810B101280AD02EE063
:10135000A18994F83000491E884228DA401C84F89C
:10136000300024E094F83000E28904EBC000816B87
:101370001144816394F8300004EBC000818E204654
:10138000FFF748FFC16894F8300004EBC000826B9F
:10139000914201E077E10AE009D2818E2046FFF711
:1013A00039FF94F83010C06804EBC1018863787885
:1013B00090B37D70A07810B1012807D02CE094F88C
:1013C000300048B3401E84F8300025E094F8300027
:1013D000E18904EBC000826B8A4202D9511A816311
:1013E00000E0856394F8300004EBC000818E204655
:1013F000FFF710FF816894F8300004EBC000826BA7
:10140000914209D9818E2046FFF704FF94F83010ED
:10141000806804EBC1018863E18CE089814203D0DC
:10142000E0842046FFF708FFA18CA089814203D009
:10143000A0842046FFF77EFDA18BA088814209D0C1
:10144000A0832046FFF7C8FE2046FFF78BFD20460D
:10145000FFF704FD216AA068814206D02062204681
:10146000FFF794FD2046FFF7F9FCA17EA0788142AA
:1014700006D0A0762046FFF789FD2046FFF7ACFE98
:1014800094F82D10607D814201D084F82D0094F8ED
:101490002C10207D814204D084F82C002046FFF7D8
:1014A00093FD607D7D4F012848D17D4808F024F8E8
:1014B000D4F80818401A642894F80E0801D830B9F6
:1014C0002BE020B9B4F80C08401CA4F80C087548AF
:1014D00080F80E58724808F00FF8C4F80808FF208A
:1014E0000290039004900590B4F80408FF23C1B261
:1014F000000ACDE9000197F8A409217897F8A529F9
:1015000000EB41306178890201EBC2010144032202
:10151000624801F5E00107F0A3FEB4F804080A21CF
:10152000B0FBF1F12175404503D2B4F80C08322824
:1015300004D9A4F80C58657525751EE0607D022855
:101540001BD194F81008C0B1657584F81058544840
:1015500007F0D2FFC4F8140884F828681520FDF7B6
:10156000BDFD0146482002220096CDE90120CF238F
:1015700040F207124C4808F030FF94F8280858B1A0
:10158000474807F0B9FFD4F81418401A40F6C411C0
:10159000884201D984F82858607D032873D194F8D3
:1015A000180868BB84F818683D4807F0A5FFC4F820
:1015B0002008B4F8240804EBC001886BC3B2C0F360
:1015C0000722C0F3074C000ECDE9020CCDE904233D
:1015D000888EFF23C1B2000ACDE9000197F8A40963
:1015E000217897F8A52900EB41306178890201EB59
:1015F000C20101440122294801F5E00107F030FE53
:1016000094F8190888B9264807F076FFD4F820180E
:10161000401A642815D994F8190830B9B4F81C0890
:10162000401CA4F81C0884F81858B4F82408642155
:10163000401C80B2A4F824084843A189B0FBF1F013
:101640002075A089B4F82418401E814213DB84F869
:101650001A6897F8A409217897F8A52900EB41307A
:101660006178890201EBC201014402220B4801F5B5
:10167000E00107F091FD94F81B08002820D0657563
:101680002575102012E01BE00400002070200020CF
:10169000080E0208C0110020D0020020981400207B
:1016A000040200209409002024020020FDF716FD0A
:1016B00001460095CF2393220348019508F02CFCA6
:1016C00006B0BDE8F081000024020020F0B52C49EE
:1016D000064685B01220087000212A480BF09AF8BF
:1016E000294D6F204FF4A07729680022CDE9000131
:1016F0003B461146254809F0F1F900248120CDE947
:1017000000043B466F222146204809F0E7F929688A
:10171000052001940294CDE903102820034600908F
:10172000C3220521194808F0C5FF00940723C722EA
:1017300009211648019409F00BFD1E20FDF7CEFC8F
:1017400001460094112310221148019408F0E4FB93
:101750001F20FDF7C3FC01460094502310220C48C3
:10176000019408F0D9FB304600F016F8304600F03E
:1017700037F805B00748BDE8F04007F0EBBF0000C0
:10178000040000204C200020C80100208814002004
:1017900024020020D002002010B5044688B0222088
:1017A000FDF79CFC0346A27A0AA103A8FAF782FD82
:1017B000E17A0420012900D000210122CDE9002195
:1017C00002905023FA2203A9044808F0F7FD08B05C
:1017D00010BD0000256425730000000024020020D5
:1017E000F0B50446407A89B0602807D93820FDF763
:1017F00075FC014603A8FAF75DFD29E0172837D9E3
:101800001826B0FBF6F106FB1100B0B12120FDF760
:1018100065FC0746607AB0FBF6F106FB1105202057
:10182000FDF75CFC0346607ACDE90057B0FBF6F2A9
:1018300013A103A8FAF73EFD0AE02020FDF74EFCB5
:101840000346607AB0FBF6F210A103A8FAF732FD66
:10185000E17A822091B100210122CDE9002102909C
:101860001023FA2203A90B4808F0C0FD09B0F0BD0F
:101870002120FDF733FC0346627AE5E70121EBE71F
:1018800025642573202564257300000025642573D5
:10189000000000002402002010B50446014610227A
:1018A000024807F065FE0020207210BD04020020EF
:1018B000F0B50446584887B0007812287ED15748C2
:1018C0000027417E11B1817811B116E0877014E0D4
:1018D000012585705248FEF7FBF900B1E7725048C8
:1018E0000830FEF7F5F900B1E5724D481030FEF70B
:1018F000EFF910B14B4808F057F94B4EFF253078FF
:1019000078B33770E07AA0B9607A642829D21320BE
:10191000FEF7CAF90146607A0295401CC0B2CDE9D3
:10192000035005950095FF2303224048019507F0D9
:1019300097FCE07A012814D1A07A3C2811D2132018
:10194000FEF7B2F90146A07A0295401CC0B2CDE97B
:10195000045003950095FF2303223448019507F0B6
:101960007FFC707858B37770E07AE0B9607A01282C
:1019700034D961284FF0130006D2FEF795F90146DD
:10198000607A401EC0B203E0FEF78EF90146602087
:101990000295CDE9035005950095FF2303222348C6
:1019A000019507F05DFCE07A012817D1A07A0228A2
:1019B00014D91320FEF778F9014601E029E00DE083
:1019C000A07A0295401EC0B2CDE90450039500955F
:1019D000FF2303221548019507F042FC607A217B22
:1019E000884203D020732046FFF7FAFEA07A617B7D
:1019F000884203D060732046FFF7CEFEA17BE07AD9
:101A0000814206D0A0732046FFF7C6FE2046FFF7AE
:101A1000E7FE07B0FF20F0BD04000020702000208A
:101A2000E80C020892010020D00200209814002047
:101A30002DE9F041754980468CB00B2008700024D8
:101A4000F020CDE900044FF4A0763346224621462B
:101A50006F4809F043F86F4DBE20002229683346D5
:101A6000CDE9000111466A4809F038F828682827AE
:101A7000CDE902400526CDE900743B46C32231463C
:101A80000496634808F016FE00940723C722092134
:101A90005F48019409F05CFB2868CDE90074CDE94A
:101AA00002402823C32240F213110496584808F03C
:101AB00001FE00940823C72240F2171154480194F4
:101AC00009F046FB01256FF010066920FDF706FBC3
