:020000040800F2
:10800000F00E00209D81000869A2000805A200086A
:108010000000000000000000000000000000000060
:10802000000000000000000000000000C381000804
:108030000000000000000000C581000891A50008B4
:10804000C9810008C9810008C9810008C9810008E8
:10805000C9810008C9810008C9810008BD9E0008C7
:1080600061AC00084D9C0008C9810008C981000866
:10807000C9810008C981000801A7000855A70008A8
:1080800095A7000809A80008C9810008E5A600080E
:10809000C9810008C9810008C9810008C981000898
:1080A000C9810008C981000805A40008C981000829
:1080B000C9810008C9810008E59B000800F002F8AA
:1080C00000F040F80CA030C8083824182D18A2463B
:1080D000671EAB4654465D46AC4201D100F032F813
:1080E0007E460F3E0FCCB6460126334200D0FB1A27
:1080F000A246AB46334318470CD500002CD50000F0
:10810000103A02D378C878C1FAD8520701D330C8E0
:1081100030C101D504680C607047000000230024C2
:1081200000250026103A01D378C1FBD8520700D3AE
:1081300030C100D50B6070471FB500F033F91FBD8B
:1081400010B510BD01F0E4F81146FFF7F5FF0CF093
:108150000FFA01F0FCF803B4FFF7F2FF03BC01F0E3
:1081600031F9000070B505460C46164602E00FCC0A
:108170000FC5103E102EFAD2082E02D303CC03C531
:10818000083E042E07D301CC01C5361F03E0217839
:108190002970641C6D1C761EF9D270BD0E4880F3E8
:1081A00008880E480168090E0D4A914205D10D4814
:1081B0000D4901600D480E49016007480047FEE780
:1081C000FEE7FEE7FEE7FEE7FEE7000009480A4992
:1081D0000A4A0B4B70470000BD80000804000000F5
:1081E0001F000000181002400100000000000140C4
:1081F00000000000F0080020F00E0020F00A00202F
:10820000F00A002001E004C0091F0429FBD28B07FB
:1082100001D50280801CC90700D002707047002978
:108220000BD0C30702D00270401C491E022904D3A0
:10823000830702D50280801C891EE3E70022EEE757
:108240000022DFE7002203098B422CD3030A8B4272
:1082500011D300239C464EE003460B433CD400223E
:1082600043088B4231D303098B421CD3030A8B4250
:1082700001D394463FE0C3098B4201D3CB01C01A1E
:10828000524183098B4201D38B01C01A52414309E9
:108290008B4201D34B01C01A524103098B4201D3D7
:1082A0000B01C01A5241C3088B4201D3CB00C01A44
:1082B000524183088B4201D38B00C01A52414308BC
:1082C0008B4201D34B00C01A5241411A00D20146E1
:1082D0005241104670475DE0CA0F00D0494203107A
:1082E00000D34042534000229C4603098B422DD3C9
:1082F000030A8B4212D3FC22890112BA030A8B4271
:108300000CD3890192118B4208D3890192118B42BF
:1083100004D389013AD0921100E08909C3098B4244
:1083200001D3CB01C01A524183098B4201D38B0187
:10833000C01A524143098B4201D34B01C01A52412A
:1083400003098B4201D30B01C01A5241C3088B426F
:1083500001D3CB00C01A524183088B4201D38B005A
:10836000C01A5241D9D243088B4201D34B00C01AE4
:108370005241411A00D20146634652415B101046F9
:1083800001D34042002B00D54942704763465B1041
:1083900000D3404201B50020C046C04602BD704730
:1083A0007047704770B5064C7C44064D7D4403E031
:1083B000206800198047241DAC42F9D170BD00002F
:1083C00078D20000F4D200000246C80FC0078143F3
:1083D0004B0030B54B405B009B0D20D01923DB06D2
:1083E000C91801231B05994220DB0324A407042597
:1083F0001346AB400BD3002B04D1EB0613409B007C
:10840000E34204D401246407002312195941FF23D5
:108410001B0599420BD2C9000143500F09E0CB0262
:1084200004D501430803024305D0054830BDFF21B0
:10843000C905084330BD084607210905884330BDFA
:108440000000C07FF0B50C46871A9C410D46861A85
:108450009D4103D2C01BA141D21963410D0D1F0DD7
:10846000C94EEC1BAE435CD07F057F0D0026002F6C
:1084700051D02D05AC46A943DD020123ED0A1B05B1
:108480001D4320231B1B24D41746E7403818714195
:108490002F46E740CC199D402818314661410C0D0C
:1084A00027D161449A4013D50023401C5941520002
:1084B0000ED14008400001224B005205D34207D3A1
:1084C00005204007C14201D5B04900E0B04930461F
:1084D000F0BD6B00002A00D001229A181F23203C17
:1084E0001B1B01D5002302E0E540281871410C0D4B
:1084F000D7D0012424050919C407CD07400849082D
:10850000E40F28436144002CD5D00024401C614175
:108510009A40D0D1CDE76A05520DD9D1C90FC9070C
:10852000D5E79C4D4E00002801D0012400E0002436
:1085300034195F00002A01D0012600E00026BE1990
:10854000954FAC420CD8AE420AD8B44206D00125B1
:108550006D05EC42BCD010461946F0BD9942FCD0E6
:1085600000203946F0BDF0B51FB40C460F46811A05
:108570009F412546861A9D4106D20125ED076F4091
:10858000401ABC4152187B41210D1E0D8D1BAC467B
:108590007D4D8D437ED075056D0D7CD00D05AE46AD
:1085A000AC431B031B0B794D52429D412023664671
:1085B0009B1B14D31746F7403818002600907441CF
:1085C00060462F460741E41900989D4028186641EF
:1085D00016D4714671189A4025D5012320E09318CE
:1085E0002A466A415200002B00D0521C1E23203E16
:1085F0009B1B002B61DD3541EE1728186641E8D53D
:10860000001876415B1C9A4000D3401C4B05F318C0
:108610001524E34010D3002B52D071467118D30FAC
:10862000C01802D3491C05B0F0BD0123DB079A42F4
:10863000F9D140084000F6E701225205B21801D1F5
:10864000002853D00123CC0ADB029943891E002A5B
:1086500008D1020C03D0020C0004103902E00246DB
:10866000002020390023550B05D112020823550B99
:1086700001D152010D23550C01D112011B1DD50C46
:1086800001D192009B1C150D01D152005B1C2025CD
:10869000EE1A01E02CE022E00546F5401543984033
:1086A000CA1AE10769181305C918002ABBDA0320A2
:1086B00040070818C10FC9070FE071466118B2E7FB
:1086C000F10740080843711071444A000CD001239F
:1086D0005B059A42A7D2C90FC9070020A3E7490545
:1086E000490D26D1002001E00028F4D100219AE7AD
:1086F000284D6600002801D0012100E000217118FA
:108700005F00002A01D0012600E00026BE19224F9A
:10871000A94210D8AE420ED8B14208D001256D054D
:10872000E94206D01946A802414010467BE79C4228
:1087300001D0214677E70020394674E710B50C4692
:108740005C4005D50124E4076340FFF70CFF10BD32
:10875000FFF778FE10BD30B40C465C4004D5012410
:10876000E407634030BC6DE630BCFCE670B5012424
:10877000E40761400D465D4002D4FFF763FE70BD23
:108780006340FFF7F0FE70BDFF0700000000F0FF40
:108790000000F07F0000E0FF0000F87FF0B5F94D29
:1087A0000C091E092C402E402F468BB0A7437DD0CC
:1087B000B543FCD0002E7AD0002CFCD00D465D4095
:1087C000ED0F2543AC1BFF25AD0464190894C502C9
:1087D000440DC9022143500DDC0204430120C007AF
:1087E00001430443D2020191200C110C00958C46E8
:1087F000010423468B430A9161460904E24D8A43F2
:108800000991010A7D4449198039097805464D438B
:1088100001266D18F605751B6943C90C640B891C8C
:108820004C436418B5012C1B250C2E04B4434C4357
:108830004D43210C691889090591009DE90701D074
:108840000121C90704912C4601996708CD072F43E0
:108850004C08059DE10B4D432D0C2946664675439A
:1088600002950D4645432E46029D7D1BB441009561
:108870000D465D4301942C0C2F040D465543AE4626
:108880002D0C3D43029503947546049C2D04641BF6
:10889000049406D2029C039D641C00267541039536
:1088A000029401AC70CC009F7D1B01E03EE162E1CF
:1088B000B44109040095079101940599A408614306
:1088C000090C0C464443650BE7040C4666467443AA
:1088D000A646640B3C43039502947446049DE4044D
:1088E0002C1B049406D2029C039D641C0026754137
:1088F0000395029401AC70CC009F7D1BB4410194A0
:108900000C465C430095650FE7000C465443A646B1
:10891000640F3C43039502947446049DE4002C1BB1
:10892000049406D2029C039D641C002675410395A5
:10893000029401AC70CC009F7D1BB441AE09AF0620
:10894000049DC900AD092F43049DA406AD060495FE
:10895000079D344369180791059DE10B4D432D0C8C
:1089600029466646754302950D4645432E46029DAF
:108970007D1BB44100950D465D4301942C0C2F04E2
:108980000D465543AE462D0C3D4302950394754666
:10899000049C2D04641B049406D2029C039D641C59
:1089A000002675410395029401AC70CC009F7D1B9D
:1089B000B44101948C050694079C890A61180095BE
:1089C0000791019C0599A4086143090C0D46454394
:1089D000680BEF040D46644665436C0B3C43049FF3
:1089E000ED047D1BAC4602D20025641C6841009E4C
:1089F000019D371B85410846584301950C46460F9B
:108A0000C5005443600F28436546E4002C1B02D286
:108A10000025401C6E41019D3F1AB5412846BD0905
:108A2000800628438446A009BF064E020699A40684
:108A300076180743079D002068410A99079019435B
:108A40000020099B00906046FF1913434041E20F4C
:108A500064003A43A4460446D71A8C41A04203D985
:108A60000120009020463A46C70F941840416246C4
:108A7000D20F2243644664000494009CBE46640006
:108A8000D71AA446044602978C417746002F01D19D
:108A9000A04204D96046401C8446029A2046C40F76
:108AA000A64694184041049A0546D20F22436446D4
:108AB0006400D31A8D417146002901D1A84202D920
:108AC00028461A46641C10430122002800D0164391
:108AD00061020020079B891904465C410223002C97
:108AE00002DB491813466441089DCE0A2D145D1916
:108AF0004B056705E10A2C050D1908993E43C90786
:108B00006940002B08D0934006D30022761C5141C7
:108B1000002B01D1760876001C4A002D43DB15425C
:108B200041D0AA433FD030460BB0F0BD06180D46E9
:108B30004D41174C7642AC411AD395181C465C4106
:108B4000134A6D42A24113D3012252054C00D44274
:108B50000AD15C00D4420BD04B4002D592021143A3
:108B6000E2E749004908DFE75940C90FC90718E0A3
:108B700000200849D8E7054801420DD10342F7D04B
:108B8000F2E700000000FF073CCD00000000F07F8E
:108B90000000E0FF0000F87F114859400143C01277
:108BA00041400020C0E70123089A9B069A4205DC59
:108BB000032252078918C90FC907B5E705225207D2
:108BC0008918074A1143D2125140ADE770B51546D6
:108BD0001C4602460B4628462146FFF7DFFD70BDC6
:108BE000FFFFFF7F30B50346CA02400D1043164D0C
:108BF000164C0A1502D02043002A06DBAA1A002AC6
:108C000012DDD040FF2A0BDC30BD5205520D01D1E0
:108C100040004008AA1A07D4D0404042FF2A01DD94
:108C2000002030BD0028FCDD4A00002B01D00120CF
:108C300000E00020101801225205D042F0D8C817D9
:108C4000C043604030BD00001E04000000000080F2
:108C50000346CA02400D10B510430A1504D0012482
:108C6000E4072043002A05DB0A4CA21A04D4D040B2
:108C7000FF2A00DD002010BD4A00002B01D001209A
:108C800000E00020101801225205D042F2D8C81787
:108C9000C04310BD1E0400001F22030C02D10F228E
:108CA000000402D0030E03D004E000200146704708
:108CB0000002083A030F01D10001121F830F01D1F6
:108CC0008000921E002801DB4000521E1205511840
:108CD0004205C012411810467047C10FC90700D0A5
:108CE0004042012292071143D6E701218907D3E7C9
:108CF000F0B58B4C0F09254689B0BD437BD01D09CB
:108D00002646AE43FAD00E465E402740F60F3E435D
:108D1000254071D024012142FBD0FF24AD19A404C9
:108D20002D1B039501252D05DB02DB0AC9022B4310
:108D3000C90A29431E010901040F130F050121432C
:108D40001701880B820391432D098C46A90B1E4302
:108D50008A039543B30B9A0396433F09BA0B9403D6
:108D6000A74302962E467E430497B6464E19D7195E
:108D70000C460196544305977E43371B7646BF1B2E
:108D80003601B646BE0B361900967646BC04371936
:108D9000009C01D3641C00946400002F01D00126C4
:108DA0003443029E049F754366467E4304967600D4
:108DB00034196E0034190094029C019E1C196643FC
:108DC000751BAE46069465464519059C05956C4392
:108DD000594375460891691A0191049E0146514311
:108DE000A41B0491611A009C0791E10605D061095A
:108DF0000122114302E072E06EE06109089D002744
:108E00002C0A2D066918049D7C412A0A2D06691832
:108E1000019D6241AC0DAD026D185441079A910D50
:108E2000920255196141029A644658435443069B85
:108E3000059A5A43121A131B9A0E9B015B187A412A
:108E4000010B0005C3185141220A200644195A415A
:108E50009A4200D2491C01204002814203D31523CB
:108E60000226F64302E014230326F6432020C51A07
:108E7000A9401746AF40DA400A4320460399D8403C
:108E80000914731819055118039A3843D207514031
:108E9000AC4009D00122944006D30022401C51412D
:108EA000002C01D1400840001E4A934212D30122F7
:108EB00003989206904207DB0520400709181A48DC
:108EC0000143C012414004E0032040070818C10FCD
:108ED000C907002009B0F0BD0020F107FAE7051826
:108EE0000C464C4111486D42A04115D394181A46C6
:108EF0005A410E48644290410ED301204A00400579
:108F0000824209D35A00824206D35940C90F084A07
:108F1000C90700201143DDE700200649DAE7000019
:108F20000000FF07FE070000FFFFFF7F0000E0FFDB
:108F30000000F07F0000F87F0121C90501234118DE
:108F400042001B06D3185B0E0AD0C1100722D206BE
:108F5000891840075242D14201D552008918704702
:108F6000090208D50146002A03D0C10FC907002015
:108F7000704710467047420202D0002002497047F5
:108F8000072109050143F4E70000F87FF0B5FF254C
:108F90002D04C609C209FF2704462E400137CB091C
:108FA0003E4348402A402B400746002A6BD0002B06
:108FB00069D0AA4267D0AB4265D0002800DA3246B9
:108FC0000125ED0529432C4309022002090AD21A82
:108FD0004B0C7F24E31A434C000A7C44E35C7D2461
:108FE0002404121914145B00A218884201D3521CE5
:108FF00000E0400049420C465C4324115C43DB0125
:109000006415E318040A5C43C502200D0C46444372
:109010006419250A5D432303EC0C0D4665430003E8
:109020000019EB184C42A34201D35B18401CD40535
:109030002018002B07D05B00C91804D3401C00295E
:1090400001D1400840003F2189048A4209D3002A07
:1090500008DC1106090F04D0032149074018C00F8E
:10906000C007F0BD01224100120689187F22520676
:109070009142F6D205214907C84201D59010F0BDB2
:10908000FF20C005F0BD002F00DA32461648AA4284
:1090900007D2AB4205D21902090E17D0F80FC0074C
:1090A000F0BDFF2563002D06AB42F9D84900A94267
:1090B000F6D8AB4201D1A942F2D0A94201D1002198
:1090C00001E061004908D0050843F0BD1102090E16
:1090D000FBD0FF200243D005F0BD0A4601461046F2
:1090E00054E70000E6C500000000C07F10B501464F
:1090F0009E240002CA15A307002A02D01843002AA2
:1091000004DBA21A002A0CDDD04010BD1206120E9C
:1091100001D140004008A21A03D4D04040420028A8
:10912000F3DDFF2248001206904201D9002010BD55
:10913000C817C043584010BD0102C21504D0012316
:10914000DB071943002A0ADB9E239A1A02D4084639
:10915000D0407047FF2241001206914201D9002001
:109160007047C017C04370471F22030C02D10F2263
:1091700000041CD0030E01D10002083A030F01D1F4
:109180000001121F830F01D18000921E002801DB15
:109190004000521ED2055118021251181922904057
:1091A00004D3491C002801D14908490008467047EA
:1091B000C10FC90700D04042012292071143D3E7F3
:1091C00001218907D0E70000F8B5224C4E00069D2A
:1091D000A6420AD8A64201D1002806D15E00A642C6
:1091E00003D8A6420AD1002A08D00D24240425421F
:1091F0002CD02946002000F061F8F8BD0C461C4335
:109200000CD4994202D0EFF30080F8BD904202D016
:10921000EFF30080F8BDEFF30080F8BD09242407C8
:10922000E5008B4206D0EFF30080A043591A06D226
:10923000284304E0101A05D3EFF30080A04380F325
:109240000088F8BDEFF30080A043F1E7009500F03F
:109250004DF8F8BD0000E0FF10B5FF231B064400E9
:109260009C421DD84C009C421AD80346124A0B431C
:1092700007D4401A02D3EFF3008010BDEFF3008053
:1092800010BD081A06D2EFF3008001219043C907F0
:10929000084302E0EFF30080904380F3008810BDA4
:1092A0000D231B041A4204D01146002000F006F8DA
:1092B00010BD00F025F810BD00000090C80212D5C6
:1092C0004803400F002804D0C803C0430121884050
:1092D0007047EFF3008000010009032109070843EC
:1092E00080F30088704700207047000010B5002010
:1092F0000249029A00F033F810BD00000000F87F28
:1093000010B5024800F02BF810BD00000000C07F2F
:10931000754600F053F8AE46050069465346C0084E
:10932000C000854618B020B5FEF750FF60BC00278E
:109330004908B6460026C0C5C0C5C0C5C0C5C0C521
:10934000C0C5C0C5C0C5403D49008D46704710B579
:109350000446C046C0462046FEF7FDFE10BD10B5CF
:109360000C461107090F092904D00A290AD0082937
:109370000CD104E011460820FFF7A0FF06E05106DB
:1093800006D501E0510601D50120C007214610BDD8
:10939000D10607D501010909CC084907000E0006CE
:1093A000044309E0410F20024907000A0143200E4F
:1093B00000061D22D14101430846E7E700487047F7
:1093C0009008002001491820ABBEFEE726000200ED
:1093D000704710B50B460021846A1C43846200BFAD
:1093E0000C4614432146416110BD002904D0826817
:1093F00001231A43826003E0826802231A438260D9
:109400007047002904D0C26801231A43C26003E0F8
:10941000C26852085200C2607047C26802239A4371
:10942000C260C2680A43C2607047000010B50446BB
:109430000548844207D10121401500F09DFF00211D
:10944000601500F099FF10BD0024014030B50146C1
:109450000020002200238C680125ED072C438C603E
:1094600000BF8C68E30FDB07521C0F242403A242C9
:1094700001D0002BF5D18C68E40FE407002C01D15A
:10948000086C00E0002030BD30B50246002000230B
:10949000012424060C40002C05D0946801252D06DB
:1094A000AC43234600E013681C460C40002C01D05E
:1094B000012000E0002030BD10B50022C268084B3A
:1094C0001A400C7964030B6823438C682343CC68EF
:1094D00023430C6923434C6923431A43C26010BDE4
:1094E00003D2FFFF8168042211438160704700218D
:1094F000016001718160C1600161416170470000DC
:10950000002807D0074989680122D2051143054A7E
:10951000916006E0034989680122D2059143014A1E
:109520009160704700270140002807D007498968EB
:10953000012212061143054A916006E00349896839
:10954000012212069143014A9160704700270140B1
:10955000002807D007498968012292051143054A6E
:10956000916006E003498968012292059143014A0E
:109570009160704700270140002904D0012907D0DD
:10958000022911D10AE0826880231A4382600CE02C
:1095900082680123DB031A43826006E082680123AC
:1095A000DB051A43826000E000BF00BF7047000087
:1095B00010B501235B02CA1A994242D010DC20295F
:1095C00030D006DC012924D0042925D0082948D12F
:1095D00025E0402929D0CA1FF93A002A41D12DE0BF
:1095E0003F246402131BA24236D009DCFF3AFF3A43
:1095F000023A002A28D001239B02D21A31D126E058
:109600000122D2039A1A13D001231B04D21A28D1A3
:1096100011E0154A826025E00822C26022E0102293
:10962000C2601FE0082202611CE01022026119E002
:109630000822426016E01022426013E004224260D9
:1096400010E0042242600DE0042242600AE00022A1
:1096500082610422426005E00022826104224260AD
:1096600000E000BF00BF10BD0101010010B50446BD
:109670000121480600F060FE00210120400600F0B4
:109680005BFE10BD70B504460D460026606928409B
:1096900000286FD0FF210131681A8D4264D010DCA0
:1096A000082D3DD006DC012D28D0022D2CD0042D14
:1096B0007BD12FE0102D39D0202D3DD0402D74D1FD
:1096C00040E07F221202811A904268D00DDCFF3800
:1096D000013800284FD0FF38FF380238002850D01A
:1096E00001218902401A60D151E00120C003081A0B
:1096F0002ED001210904401A57D12FE0A0682E492D
:1097000001F0B2FB064652E0E068032101F0ACFB39
:1097100006464CE0E068082101F0A6FB064646E05C
:10972000E068102101F0A0FB064640E0206903211B
:1097300001F09AFB06463AE02069082101F094FB0B
:10974000064634E02069102101F08EFB06462EE02B
:109750006068082101F088FB064628E06068102157
:1097600001F082FB064622E0A069012101F07CFBAA
:1097700006461CE01CE0A069022101F075FB0646CC
:1097800015E0A069042101F06FFB06460FE0A06917
:10979000702101F069FB064609E006E0FFE760681A
:1097A000042101F061FB064601E0002600BF00E055
:1097B0000026304670BD00000101010030B50246B0
:1097C0000020002314680225AC43146014680125AE
:1097D0002C43146000E05B1C5468E407E40F002C89
:1097E00002D13C4CA342F6D15468E407E40F002CAC
:1097F00001D100206DE08C79012C04D11468802502
:109800002C43146003E014688025AC431460CC79C9
:10981000012C04D1146840252C43146003E0146823
:109820004025AC4314600C7A012C04D11468202527
:109830002C43146003E014682025AC4314604C7A78
:10984000012C04D1146810252C43146003E0146823
:109850001025AC4314608C7A012C04D114680825BF
:109860002C43146003E014680825AC431460CC7AE0
:10987000012C04D1146804252C43146003E01468FF
:109880000425AC4314608C78A407CD782D062C43B6
:109890000D792D042C434D792D052C430D886D1E1B
:1098A0002C43D4611468640864001460002300E051
:1098B0005B1C5468E407E40F002C02D0054CA34263
:1098C000F6D15468E407E40F002C01D0002000E03A
:1098D000012030BDFFFFFF0010B50C010346FF3330
:1098E000B1331B59042423401372137A002B07D180
:1098F0000C010346FF33B1331B595B0D136006E0C7
:109900000C010346FF33B1331B59DB0853600C01D4
:109910000346FF33B1331B590224234053720C0119
:109920000346FF33B133E3185B681B071B0F9372C9
:109930000C010346FF33B133E3185B681B041B0EB5
:10994000D3740C010346FF33B133E3189B68D37221
:109950000C010346FF33B133E3189B681B041C0E54
:1099600014730C010346FF33B133E3189B681B02E9
:109970001C0E54730C010346FF33B133E3189B688C
:109980001B0E93730C010346FF33B133E318DB68FE
:10999000D3730C010346FF33B133E318DB681B04B8
:1099A0001C0E14740C010346FF33B133E318DB685B
:1099B0001B021C0E54740C010346FF33B133E31831
:1099C000DB681B0E9374002904D1C3682024234351
:1099D000C36003E0036920242343036110BD002119
:1099E0008171C171017241728172C1728170C170E5
:1099F000032101710221417101210180704730B5BD
:109A00000246002093680124A4062340A34200D10B
:109A100010E093680124E4062340A34201D1012011
:109A200008E09368012424072340A34201D10220C7
:109A300000E0042004287BD004011346FF33813367
:109A40001B59DC07E40F05011346FF3381335C51DA
:109A50000B7A002B0FD10B885B054C7A2343050151
:109A60001446FF3481346459234305011446FF34FE
:109A70008134635110E04B68DB000C7A23434C7A4D
:109A8000234305011446FF348134645923430501FF
:109A90001446FF34813463518B7A1B071B0F8B7282
:109AA00004011346FF338133E3185B681C0924016A
:109AB00005011346FF338133EB185C600401134644
:109AC000FF338133E3185B688C7A23430501144626
:109AD000FF3481342C1963608B7B1B064C7B240480
:109AE00023430C7B24022343CC7A234305011446F1
:109AF000FF3481342C19A3608B7C1B064C7C24041E
:109B000023430C7C24022343CC7B234305011446CE
:109B1000FF3481342C19E36004011346FF33813391
:109B20001B590124234305011446FF34813463513A
:109B300030BD000010B502460023002904D00129E1
:109B400007D002290FD109E09068204C204003463D
:109B50000BE090681E4C2040034606E090681D4CC8
:109B60002040034601E0002300BF00BF1A4C181B31
:109B7000A3421BD008DC002B14D01848181800286A
:109B800012D002281CD115E0FF38FF380238002817
:109B900012D0134C001900280AD001246404001BC1
:109BA0000ED10BE002230DE000230BE0002309E0BF
:109BB000002307E0012305E0012303E0012301E086
:109BC000002300BF00BFD8B210BD00000300000496
:109BD000000300080000031000010008FFFFFFFB66
:109BE0000003FFF710B502211548FFF74BFD0128D0
:109BF0000FD1012113480170C21FFD3A0021104806
:109C0000FFF76AFE104803F057FE02210C48FFF7E9
:109C1000CFFC10210A48FFF735FD01280ED10121A4
:109C200008480170C21FFD3A0548FFF755FE064877
:109C300003F042FE10210248FFF7BAFC10BD0000FD
:109C400000640040780800205807002010B502206A
:109C500000F0EEF8002867D0022000F069F83348E1
:109C6000808E001D81B23148818600200FE02F498F
:109C700040390A6FC1004118491D4B002B49BC39BE
:109C8000C95A5218294940390A67411CC8B20428E8
:109C9000EDDB012109030920C00600F099FA002834
:109CA00042D100BF3EE021494039CA6DC100411890
:109CB000491C4B001D49BC39C95A52181B4940392F
:109CC000CA650A6EC1004118891C4B001749BC398E
:109CD000C95A5218154940390A664A6EC1004118DE
:109CE000C91C4B001149BC39C95A52180F49403997
:109CF0004A668A6EC1004118091D4B000B49BC39E8
:109D0000C95A5218094940398A66CA6EC1004118B9
:109D10004B000649BC39C95A521804494039CA6631
:109D2000411CC8B20428BEDB10BD00008C0200201C
:109D3000014948607047000000000240002904D03B
:109D4000026801231A43026003E00268014B1A40D3
:109D500002607047FEFF00000168334A1140016055
:109D60000021016041608160C1603049884208D1B2
:109D70002E49083949680F2211432C4A083A51608C
:109D800051E02A491431884208D1284908394968E4
:109D9000F0221143254A083A516044E02349283112
:109DA000884209D12149083949680F22120211431A
:109DB0001E4A083A516036E01C493C31884209D1BC
:109DC0001A49083949680F2212031143174A083A01
:109DD000516028E015495031884209D113490839AA
:109DE00049680F2212041143104A083A51601AE0E0
:109DF0000E496431884209D10C49083949680F225B
:109E000012051143094A083A51600CE007497831BC
:109E1000884208D10549083949680F2212061143C2
:109E2000024A083A51607047FEFF000008000240F5
:109E300001460020044A12680A40002A01D001208D
:109E400000E000207047000000000240002A03D01C
:109E500003680B43036002E003688B4303607047B1
:109E600010B5002202680D4B1A400C6A8B68234320
:109E70000C6923434C6923438C692343CC692343F6
:109E80004C6A23438C6A23431A430260CB684360C5
:109E90000B6883604B68C36010BD00000F80FFFF3C
:109EA0000021016041608160C160016141618161A7
:109EB000C1610162416281627047000010B50120FA
:109EC000400300F007F801200149C87110BD0000EF
:109ED000640500200149486170470000000401400A
:109EE000002120498279002A35D00A461268036889
:109EF0009A430B461A600A46526803689A430B4617
:109F00005A60027951180A6803681A430A60154AB0
:109F1000926803689A43134B9A601A46D2680368A2
:109F20009A43104BDA604279102A0CD11A46926893
:109F300003681A430B4B9A601A46D26803681A43A7
:109F4000084BDA600DE00749427951180A68036846
:109F50001A430A6005E0027951180A6803689A43B7
:109F60000A6070470004014030B5044604250B2008
:109F7000000400F0AFF80546042D17D10C48006925
:109F8000022108430A4908610846446100694021EA
:109F90000843074908610B20000400F09BF80546C0
:109FA000034800690221884301490861284630BD01
:109FB0000020024004200D49C968C907C90F0029C3
:109FC00001D0012010E00949C96810221140002980
:109FD00001D0022008E00549C96804221140002987
:109FE00001D0032000E00420704700000020024060
:109FF0000348006980210843014908617047000057
:10A0000000200240002806D00649096810221143AA
:10A01000044A116005E00349096810229143014A8E
:10A02000116070470020024078B506460C460425B2
:10A03000002000900B20000400F04CF80546042D91
:10A0400024D1134800690121084311490861348073
:10A050000B20000400F03EF80546042D10D1B01C82
:10A060000090200C009908800B20000400F032F8CA
:10A07000054607480069400840000549086105E0B9
:10A08000034800694008400001490861284678BD3E
:10A090000020024001460020044A106840084000A9
:10A0A00002460A431046014A1060704700200240F1
:10A0B0000548006980210840002804D0034802496F
:10A0C000486003484860704700200240230167450C
:10A0D000AB89EFCD10B503460424FFF76BFF0446B0
:10A0E00003E0FFF767FF04465B1E012C01D1002B44
:10A0F000F7D1002B00D10524204610BDF0B50A464B
:10A1000000210023002400BF3DE001258D402B46A7
:10A1100015681D402C469C4234D11579012D02D082
:10A120001579022D16D185684F000326BE40B54330
:10A13000856055794E00B5408668354385608588D1
:10A1400001268E40B5438580858896798E40B6B2CB
:10A150003543858005684F000326BE40B543056042
:10A1600015794E00B540066835430560C5684F0057
:10A170000326BE40B543C560D5794E00B540C668DC
:10A180003543C560491C1029BFD3F0BDF0B500238D
:10A1900000244D07EE0E1546B5402B46CD10AE00FF
:10A1A00005462035AD594E07F70E0F26BE40B54384
:10A1B000CE10B60007462037BD51CD10AE003D464B
:10A1C000AD591D432C46CD10AD003E467451F0BD37
:10A1D00002460020138A0B40002B01D0012000E032
:10A1E0000020704701857047816170470449016014
:10A1F000002101710121417100218171C1717047FC
:10A20000FFFF000000BFBFF34F8F04480449C86040
:10A21000BFF34F8F00BF00BFFEE700000400FA0548
:10A2200000ED00E00148024908607047CCCC000016
:10A23000003000400148024908607047AAAA0000A7
:10A240000030004001494860704700000030004085
:10A2500001498860704700000030004001490860F3
:10A2600070470000003000407047000000218278F5
:10A27000002A27D0184A03231B02D21803789B1008
:10A280009B00D15802789207D30EFF229A400B46CA
:10A290009343194642789207120E03789B07DB0E10
:10A2A0009A4011430C4A03231B02D21803789B10D7
:10A2B0009B00D1500278D306DB0E01229A40064B58
:10A2C0001A6007E00278D306DB0E01229A40024BA7
:10A2D00080331A607047000000E100E00549096919
:10A2E00004229143034A1161012801D130BF00E0EB
:10A2F00020BF704700ED00E0002905D0054A5269F3
:10A300000243044B5A6104E0024A52698243014B02
:10A310005A61704700100240002905D0054AD269F1
:10A320000243044BDA6104E0024AD2698243014BE2
:10A33000DA61704700100240002905D0054A126911
:10A340000243044B1A6104E0024A12698243014B42
:10A350001A61704700100240002905D0054A926931
:10A360000243044B9A6104E0024A92698243014B22
:10A370009A61704700100240002905D0054AD26852
:10A380000243044BDA6004E0024AD2688243014B84
:10A39000DA6070470010024010B502460021002329
:10A3A00000205111002902D10C4C23680BE0012937
:10A3B00002D10A4C236A06E0022902D1074C636AE3
:10A3C00001E0064C636BD106C90E01248C401C4091
:10A3D000002C01D0012000E0002010BD0010024040
:10A3E000002806D00649496A01221143044A5162F5
:10A3F00005E00349496A49084900014A516270472A
:10A400000010024010B56021054800F023F8002834
:10A4100004D0034800F03AF8044600BF10BD000025
:10A4200000380040002904D0028840231A430280EB
:10A4300003E00288014B1A4002807047BFFF000012
:10A440000246002013890B40002B01D0012000E0C0
:10A4500000207047F0B502460020002400230025AC
:10A460000F073F0F0126BE40B4B20B1101269E40DC
:10A47000B3B296881E40354616892640002E03D07A
:10A48000002D01D0012000E00020F0BD01468889A8
:10A490007047000010B500220288C1239B011A40BA
:10A4A0000B88CC892343CC8823430C8923434C89D4
:10A4B00023438C8923431A4302808288084B1A4025
:10A4C0008B881A4382800B8A03820288054B1A40CC
:10A4D0004B881A430280838B034C2340838310BD37
:10A4E000FFF00000FBFF0000FFF700000146002224
:10A4F0000A460C32107870478288034B1A408280DB
:10A5000082880A4382807047FFEF000000220246E3
:10A510000C3211707047002101804180072109022F
:10A5200081800021C180018141818181C181072118
:10A530000182704730B500228B071C0F0F23A34008
:10A540001A460B4B8C10A4001B599343084C8D10DA
:10A55000AD00635123468C10A4001B598C07250FB6
:10A560000446AC402343024C8D10AD00635130BD16
:10A570000800014001460020044A1068800880005D
:10A5800002460A431046014A10607047000001402D
:10A5900000B5024803F0A3FA00BD0000AC010020A2
:10A5A000F8B50025002400260027274840680C2124
:10A5B00008400546002D06D0042D08D0082D0AD0ED
:10A5C0000C2D2ED129E02148214908602DE0214899
:10A5D0001F49086029E01C4840680F218904084091
:10A5E0000446194840680321C90308400646A00CE8
:10A5F000841C002E04D118486043154908600BE004
:10A600001148C06A0007000F471C39461148FDF782
:10A6100019FE60430E49086007E010480C490860C5
:10A6200003E00A480A49086000BF00BF06484068C6
:10A63000F021084000090A490D5C05480068E8401F
:10A6400003490860F8BD00000010024000127A00C3
:10A65000000100200024F40000093D00006CDC0231
:10A660000401002010B51B48006801210843194966
:10A67000086008464068184908401649486008467E
:10A68000006816490840134908600846006801211F
:10A69000890488430F490860084640687F21C90340
:10A6A00088430C4948600846C06A00090001C86236
:10A6B0000846006BFF215431884306490863084669
:10A6C000406B07490840034948630020886000F058
:10A6D0005FFB10BD001002400CB8FF80FFFFF6FECC
:10A6E000FEFFFEFF10B50221044800F0E4F8002848
:10A6F00003D00221014800F0BBF810BD002000404B
:10A7000010B51021114800F0D6F800281DD01021F6
:10A710000E4800F0ADF80121C9020920C006FFF77C
:10A7200057FD002801D0012000E000200849C8732F
:10A730000846C17B08F036FE0548807BFF2804DA16
:10A740000348807B401C0249887310BD002C0140E7
:10A75000E002002010B50821C80600F0ACF800287F
:10A7600012D00821C80600F083F808210748FFF737
:10A770002FFD002805D106480088401C04490880A8
:10A7800002E000200249088010BD000000040048DB
:10A790003C03002010B50421184800F08CF8002874
:10A7A00012D00421154800F063F820211448FFF767
:10A7B0000FFD002805D113488089401C114988816C
:10A7C00002E000200F49888108210C4800F073F84E
:10A7D000002812D00821094800F04AF82021084832
:10A7E000FFF7F6FC002805D10648C089401C054942
:10A7F000C88102E000200349C88110BD0004004068
:10A80000000400482403002010B50121074800F08F
:10A8100052F8002808D00121044800F029F801204E
:10A82000034908700349087010BD00000010004083
:10A8300015010020AC010020002904D002888023EB
:10A840001A43028003E00288014B1A4002807047DD
:10A850007FFF0000002904D0828801231A438280F0
:10A8600003E08288014B1A4082807047FEFF00009F
:10A87000CA43028270470000002904D002880123E5
:10A880001A43028003E00288014B1A40028070479D
:10A89000FEFF0000002907D04422125A0123DB03E7
:10A8A0001A4344231A5205E04422125A53045B0C03
:10A8B00044221352704730B5024600200023002482
:10A8C000158A0D402B4695890D402C46002B03D050
:10A8D000002C01D0012000E0002030BD70B50546FD
:10A8E0000C46208800280AD12389A288618828463E
:10A8F00000F0C0F9E188284600F03EF925E0208804
:10A9000004280AD12389A2886188284600F0CEF95C
:10A91000E188284600F03AF917E0208808280AD193
:10A920002389A2886188284600F0E6F9E188284654
:10A9300000F038F909E02389A2886188284600F0F0
:10A94000FFF9E188284600F037F970BD0021018049
:10A950004180012181800021C18001817047002A4E
:10A9600003D083890B43838102E083898B438381F6
:10A970007047000070B5002400220023058C1C4E97
:10A9800035400584028C8388048B194D6F3D2C4023
:10A99000B51E2C400D882C43751E2A408D892A43F4
:10A9A0004D882A43134DA84208D0134DA84205D024
:10A9B000124DA84202D0124DA84212D10C4DED1FEB
:10A9C0002A40CD892A430A4DED1E2A408D882A430C
:10A9D000074DFF3D2B400B4D2B400D8A2B434D8ADD
:10A9E0002B43838004838D684563028470BD00001F
:10A9F000FEFF0000002C01400040014000440140E7
:10AA000000480140FFFD00000A460021018B034B76
:10AA100019400B461343194601837047F7FF0000A6
:10AA200070B5002400220023058C214E354005849A
:10AA3000028C8388048B1F4D2C401F4D2C400D78B9
:10AA40002D062D0C2C431A4D103D2A408D892D05C5
:10AA50002D0C2A434D882D052D0C2A43174DA84255
:10AA600002D0174DA8421CD1164D2B400D8AAD04C3
:10AA70002D0C2B43114DA84213D10D4D703D2A4092
:10AA8000CD892D052D0C2A43094D303D2A408D8856
:10AA90002D052D0C2A430C4D2B404D8AAD042D0C59
:10AAA0002B43838004838D688563028470BD00001E
:10AAB000EFFF0000FF8F0000FFFC0000002C0140B2
:10AAC00000400140FFFB0000FFF7000070B50024CC
:10AAD00000220023058C1C4E35400584028C83889F
:10AAE000848B194D90352C40174DFD352C400D8829
:10AAF0002C43164D2A400D7B2D062D0C2A438D78B4
:10AB00002D062D0C2A43124DA84217D1114D2A4073
:10AB10008D7B2D062D0C2A430F4D2A400D792D06D5
:10AB20002D0C2A430D4D2B400D4D2B400D8A2D052C
:10AB30002D0C2B434D8A2D052D0C2B4383808483B4
:10AB40008D68C563028470BDFFFE0000FFFD00003C
:10AB5000002C0140FFF70000FFFB0000FFEF0000AA
:10AB6000FFDF0000002101804180818081608181C0
:10AB7000C181018241827047028B034B1A400283DC
:10AB8000028B0A4302837047F3FF0000028B044BE1
:10AB90001A400283028B0B061B0C1A430283704778
:10ABA000FFF30000828B034B1A408283828B0A439F
:10ABB00082837047F3FF0000828B044B1A4082832C
:10ABC000828B0B061B0C1A4382837047FFF3000035
:10ABD00000220288154B984206D001239B07984219
:10ABE00002D0134B984203D1124B1A404B881A43A0
:10ABF000114B984203D0114B1A400B891A43028023
:10AC00004B68C3620B880385084B984208D00C4BF5
:10AC1000984205D00B4B984202D00B4B984201D181
:10AC20008B7A03860123838270470000002C014049
:10AC3000000400408FFF000000100040FFFC0000F7
:10AC40000040014000440140004801400021C94348
:10AC500041600021018001814180817270470000C4
:10AC60000348806803210843014988607047000059
:10AC700000400240F0B50C4600210025068C0A4F2A
:10AC80003E400684018B058C074EF23E31401E0586
:10AC9000360C16433143044E093E35400126264307
:10ACA000354301830584F0BDFEFF0000F8B50C4676
:10ACB0000021002500260096068C0D4F3E4006849C
:10ACC000018B058C2605360C00960A4E31401E0776
:10ACD000360C31431606360C3143054E903E354056
:10ACE0001027009E3E43354301830584F8BD0000D4
:10ACF000EFFF0000FF0C0000F8B50C460021002516
:10AD000000260096068C0C4F3E400684818B058CF5
:10AD10002606360C0096084E0D3631401E05360CC0
:10AD200016433143054E3540FF270137009E3E4311
:10AD3000354381830584F8BDFFFE0000FFF5000068
:10AD4000F8B50C460021002500260096068C0D4F14
:10AD50003E400684818B058C2607360C00960A4EF1
:10AD600031401606360C31431E07360C3143074E70
:10AD7000354001273F03009E3E43354381830584D0
:10AD8000F8BD0000FFEF0000FF0C0000FF5F0000B7
:10AD90000CB5002001900090112031490860314825
:10ADA0004068304948600846406848600846006886
:10ADB0000121090408432B49086000BF29480068A5
:10ADC00001214904084000900198401C019000981E
:10ADD000002804D10521090301988842EED12148B9
:10ADE0000068012149040840002802D00120009099
:10ADF00001E000200090009801280DD1194840681A
:10AE00007F21C903884317494860084640681321D9
:10AE100009040843134948601248006801210906E3
:10AE200008431049086000BF0E4800680121490628
:10AE300008400028F8D00B48406880088000094985
:10AE4000486008464068022108430649486000BF40
:10AE5000044840680C2108400828F9D10CBD0000C6
:10AE600000200240001002400246002013460B4022
:10AE7000002B01D0012000E000207047C206D20E56
:10AE800001219140014A11607047000000E100E09B
:10AE9000C206D20E01219140014A116070470000A4
:10AEA00080E100E010B5002819DA1A4A03071B0FE9
:10AEB000083B9B089B00D2588307DC0EFF23A3406E
:10AEC0009A438B071B0E8407E40EA3401A43114BD1
:10AED0000407240F083CA408A4001A5118E00E4AE5
:10AEE00003231B02D21883089B00D2588307DC0E71
:10AEF000FF23A3409A438B071B0E8407E40EA34055
:10AF00001A43054B032424021B198408A4001A5178
:10AF100010BD00001CED00E000E100E010B50028CD
:10AF200019DA1A4A03071B0F083B9B089B00D258EB
:10AF30008307DC0EFF23A3409A438B071B0E840775
:10AF4000E40EA3401A43114B0407240F083CA40845
:10AF5000A4001A5118E00E4A03231B02D2188308DA
:10AF60009B00D2588307DC0EFF23A3409A438B0734
:10AF70001B0E8407E40EA3401A43054B032424024E
:10AF80001B198408A4001A5110BD00001CED00E03C
:10AF900000E100E010B5002819DA1A4A03071B0F78
:10AFA000083B9B089B00D2588307DC0EFF23A3407D
:10AFB0009A438B071B0E8407E40EA3401A43114BE0
:10AFC0000407240F083CA408A4001A5118E00E4AF4
:10AFD00003231B02D21883089B00D2588307DC0E80
:10AFE000FF23A3409A438B071B0E8407E40EA34064
:10AFF0001A43054B032424021B198408A4001A5188
:10B0000010BD00001CED00E000E100E010B50120E3
:10B01000FFF7E6F900BF4120FFF7BEF90028FAD09C
:10B020000648FFF71BF90420FFF70CF90448FFF767
:10B030000FF9FFF7FFF8FFF7F5F810BD55550000C1
:10B04000FF0F00001CB50446002000900190012174
:10B050008804FFF751F96846FFF7C8F840200090D0
:10B060000121684601710321417169460C48FFF7CF
:10B0700045F840210A48FFF7B5F86846FFF7B6F8EB
:10B080000120C00200900021684601710121C171B8
:10B090000321417169460248FFF730F81CBD0000EA
:10B0A00000040048002181700171704710B504460A
:10B0B000A078002804D00021204600F06DF80DE0B3
:10B0C00007488079002804D00121204600F064F868
:10B0D00004E003480178204600F05EF810BD00004F
:10B0E0007C08002010B504460121C9020148FFF781
:10B0F0006FF810BD0004004810B504461B480078E6
:10B10000C007C00F00280CD1184809F027F9002803
:10B1100007D0174802F0E0FC164908601348C04603
:10B12000C046134802F0D8FC12490968401AC828E2
:10B130001BD30F4802F0D0FC0E49086040210E4896
:10B14000FFF746F8012810D1C1020B48FFF740F87D
:10B15000002808D12079401C207120791E2804DDA8
:10B160000120A07001E00020207110BD54010020DA
:10B17000AC010020580100200004004870B50546CD
:10B1800040210448FFF724F80446012C00DD012487
:10B19000204670BD0004004870B505460C46EC70B2
:10B1A000002C04D140210448FFF71CF803E04021A3
:10B1B0000148FFF719F870BD0004004810B50446B7
:10B1C00004222146054802F08EFC01202070002058
:10B1D0006070A0702071204610BD0000AC010020FE
:10B1E00070B506460C46154629462046FEF71CFF5C
:10B1F00070BD10B504460120FEF704FF0120FEF7E4
:10B2000049FF10BD70B505460C46FEF751FF2046BC
:10B21000FEF7AAFEFEF7ECFE0B200004FEF75AFF35
:10B2200070BD024608687047704700001CB50446B0
:10B230000020009001900121C804FFF75DF86846E6
:10B24000FEF7D4FF012080030090012168460171C0
:10B250000321417169460D48FEF750FF0121890322
:10B260000A48FEF7BFFF6846FEF7C0FF0120C00393
:10B2700000900021684601710121C17103214171D3
:10B2800069460248FEF73AFF1CBD0000000800486E
:10B2900000218170C17001714171704710B5044681
:10B2A0000121C9030148FEF793FF10BD00080048C3
:10B2B00001218171704700218171704770B504468A
:10B2C0000D4637480078C007C00F00280CD134481D
:10B2D00009F044F8002807D0324802F0FDFB32495B
:10B2E00008602F48C046C0462E4802F0F5FB2E49A4
:10B2F0000968401A7D21C90088422FD3294802F0ED
:10B30000EBFB29490860012189032848FEF760FF0B
:10B31000012811D1C1032548FEF75AFF002808D1A2
:10B320002079401C20712079052817DD0120A070AC
:10B3300014E00020207111E00121C9031B48FEF731
:10B3400047FF002808D16079401C607160790528AA
:10B3500004DD0120E07001E000202071A0790028C8
:10B3600018D0A078002815D1E078002812D1205EEE
:10B37000A84204DC012189030C48FEF735FF0020B8
:10B38000205EC01EA8420ADB012189030748FEF7A0
:10B3900029FF04E0012189030448FEF723FF70BD63
:10B3A0006C010020AC010020700100200008004862
:10B3B00070B50546012189030448FEF709FF0446DC
:10B3C000012C00DD0124204670BD0000000800486B
:10B3D00010B5044604222146054802F084FB3820BB
:10B3E00020800020A070E07020716071204610BDA8
:10B3F000AC01002010B50446002020700121090393
:10B400000920C006FEF7F0FE1148FEF70FF80021F4
:10B410000F48FDF7EAFF0920FFF73AFD0E20FFF77E
:10B4200037FD1320FFF734FD06200A49086101208B
:10B43000FEF754FF00210848017007200549086104
:10B44000064806F049FD064807F040FE10BD000022
:10B450000024014000E000E0CC020020CC010020EC
:10B46000E00200200021017070470000F0B585B0B7
:10B47000044623484078002801D005B0F0BD21489B
:10B48000007800283AD000201E490870E078FDF7C7
:10B4900097FE01901A488038C16A019809F084FA31
:10B4A0000746FDF749FD0022174B03910290FDF777
:10B4B00075F90546FCF788FF6060114A803A6168BB
:10B4C000906909F0C9FA0CD2207A142802DA207A9D
:10B4D000401C2072207A042810D101202070607056
:10B4E0000CE0207A002807D0207A401E2072207AB3
:10B4F000012803D1A07001E00020207000BFBCE74C
:10B50000CC020020AC0100200000594010B50446D8
:10B5100004222146044802F0E6FA0020207020723E
:10B520006070A070204610BDAC0100200622825E33
:10B5300004491E23CB5E9A4201DDC98BC180C188BC
:10B54000018170474C0200200021417570470021A5
:10B55000017041708170C170017141718175C17557
:10B5600001767047002141768176C176012101750F
:10B570007047000030B501461948C07A002803D151
:10B580001748407B002801D0012030BD087F0028EB
:10B5900023D114481E22825E0620085E3230824289
:10B5A0001BDD08240C5F0F4B1E255D5F6B00EB1845
:10B5B000E218D3179B0F9B189B10581F08228A5E16
:10B5C000824201DA02B20A814A7F521C4A774A7FDC
:10B5D0001E2A01DD01220A7700BF087FD5E700009F
:10B5E000B80100204C02002070B504460A49886A60
:10B5F000FDF7A2FC0546094A094B09F031F908D2CA
:10B60000607E401C6076607E0A2804DD0020207584
:10B6100001E00020607670BDF0040020FA7E6ABC74
:10B620007493683F10B504460F48C07A002803D1D0
:10B630000D48407B002801D0012010BD204600F0BD
:10B6400057F8002801D00120F7E708481E21415E85
:10B650000620205E3230814203DD0020207501206B
:10B66000EBE70020E9E70000B80100204C020020D1
:10B670004179491C41710849C97A002903D1064919
:10B68000497B002900D070474179032901DB012162
:10B69000417000BFF7E70000B801002070B586B028
:10B6A00004460E494878FDF720FB054600220C4B66
:10B6B000FDF71EFB00220B4B01910090FDF76EF889
:10B6C000094A0A4B03910290FDF745F80591049051
:10B6D000FCF77AFEE06006B070BD0000E0020020DA
:10B6E00000001C400064D94016EB0A6C8434393FDA
:10B6F00070B504461548C07A002803D11348407B32
:10B70000002801D0012070BD207D00281BD01049E9
:10B71000886AFDF711FC05460E4A0F4B09F0A0F8A8
:10B720000FD2A07E401CA076A07E0A280BDD0B481D
:10B730001E21415E0620205E0A30814203DD012089
:10B74000E1E70020A0760020DDE70000B80100203E
:10B75000F00400207B14AE47E17A743F4C020020D5
:10B7600000B50246C720C04310810748C08BD08077
:10B77000002050759075D07510761046FFF7F2FED8
:10B7800000201077507700BD4C02002070B50446B1
:10B790000D462948C07A002803D12748407B00285D
:10B7A00001D0002070BD607D002803D0607D401E68
:10B7B000607512E01020205E0E21C94388420ADA2B
:10B7C000A07D401CA075A07D032806DB2046FFF766
:10B7D0004FFF0120E6E70020A07518481E21415EBA
:10B7E0000820205E81420ADAE07D401CE075E07DA1
:10B7F000032806DB2046FFF73BFF0120D2E70020AD
:10B80000E075012D15D1207D002812D00C4AE16889
:10B81000906A09F09FF80AD2E07E401CE076E07E54
:10B82000032806DD2046FFF723FF0220BAE70020A9
:10B83000E0760020B6E70000B80100204C020020AE
:10B84000F004002038B5044622480078C007C00F35
:10B8500000280CD11F4808F081FD002807D01E48A1
:10B8600002F03AF91D4908601A48C046C0461A4815
:10B8700002F032F919490968401A7D21C90088424D
:10B8800026D3154802F028F9144908600A200090D0
:10B8900013481E21415E03467F3B0246343A8038FE
:10B8A00006F08CFC20822046FFF7F8FE0C481E2193
:10B8B000415E1220205E814208DD207E401C207601
:10B8C000207E022804DD0120207101E00020207686
:10B8D00038BD000020010020AC0100202401002020
:10B8E0004C020020502141757047000010B50446FD
:10B8F00004222146084802F0F6F80020208107487B
:10B90000C08BE08000206075A075E07520764B202C
:10B9100000016082204610BDAC0100204C020020D6
:10B920007FB506460D461446052D01D1C1488487D2
:10B93000072D05D1BF4820308474A03806F0FEFBE7
:10B94000082D0ED12046FDF7D0F90022BA4B019107
:10B950000090FCF723FF03910290FCF735FDB549F9
:10B960004863092D0ED12046FDF7BFF90022B24BE6
:10B9700001910090FCF712FF03910290FCF724FD67
:10B98000AC4988630C2D08D1200E30702002000EC7
:10B9900070702004000EB070F4700D2D08D1200ED0
:10B9A00030712002000E70712004000EB071F4712D
:10B9B0000E2D08D1200E30722002000E707220046D
:10B9C000000EB072F4720F2D0AD1142C01D35A2C30
:10B9D00003D950219948C18202E021B29748C1821F
:10B9E000102D0AD1142C01D35A2C03D9502193487D
:10B9F000418302E021B291484183112D0AD1142CD8
:10BA000001D35A2C03D950218C48018302E021B282
:10BA10008A480183142D03D12146894801F042FC54
:10BA2000022D03D1A1B2874801F0E8F91A2D07D100
:10BA300019204001844200D2044620B28249488243
:10BA4000122D07D181494C7008464078072801DD46
:10BA5000002048704C2D0AD120B27D49088008464C
:10BA60000021415E412902DD4120794908804D2DA8
:10BA700008D1002C03D100207649087002E0012093
:10BA8000744908704E2D08D1012C03D10120714951
:10BA9000487002E000206F4948704F2D07D16E4971
:10BAA0004C750846407D022801DD00204875502D68
:10BAB00008D1012C03D101206149487102E0002026
:10BAC0005F494871512D0DD121B25C48018420217C
:10BAD000415E032903DB2021415E642902DD14213C
:10BAE00056480184522D0DD121B25448418422215F
:10BAF000415E032903DB2221415E642902DD1E2110
:10BB00004E484184532D0DD121B24C4881842421CB
:10BB1000415E032903DB2421415E642902DD1421F7
:10BB200046488184542D07D144480475007D0A2875
:10BB300002DB002141480175552D07D13F4844756E
:10BB4000407D0A2802DB09213C4841753B48017DC4
:10BB5000407D814204DD002138480175092141758D
:10BB6000562D0ED13D49CC700846C078502801DDD5
:10BB70005020C8703948C0781E2802DA1E20374984
:10BB8000C870572D0AD1142C01D35A2C03D95A212D
:10BB90002A48818302E021B228488183582D0DD1A3
:10BBA00021B22648C1842621415E032903DB2621D8
:10BBB000415E642902DD1E212048C1840B2D0DD178
:10BBC00021B21E4881852C21415E032903DB2C21F3
:10BBD000415E642902DD0321184881855C2D07D16F
:10BBE00017498C7108468079032801DB0020887191
:10BBF0005D2D02D1E1B2114801865E2D0CD1E1B27A
:10BC00000E484186408E022803D00C48408E0428FE
:10BC100002DD002109484186622D04D121460548F4
:10BC2000803806F04DF90E48854202D10148803037
:10BC300044807FBD4C020020000059409406002043
:10BC4000640500203C030020040300205807002066
:10BC5000640100204C0100209405002070050020A4
:10BC60003102000070B505460C46052C02D16C4827
:10BC7000808F70BD072C03D169482030807CF8E7A5
:10BC8000082C08D16649486B664908F08DFE0646C7
:10BC9000FDF752FAEDE7092C08D16149886B61493B
:10BCA00008F082FE0646FDF747FAE2E70C2C0AD1BF
:10BCB00028780006697809044018A9780902401814
:10BCC000E9784018D5E70D2C0AD128790006697962
:10BCD00009044018A97909024018E9794018C8E711
:10BCE0000E2C0AD1287A0006697A09044018A97A2C
:10BCF00009024018E97A4018BBE70F2C03D14A49E2
:10BD00001620085EB5E7102C03D147491A20085EBB
:10BD1000AFE7112C03D144491820085EA9E7142C81
:10BD200002D142480078A4E7022C02D14048C078F2
:10BD30009FE71A2C03D13F491220085E99E7122C85
:10BD400002D13D48407894E74C2C03D13B49002078
:10BD5000085E8EE74D2C02D13948007889E74E2CD9
:10BD600002D13748407884E74F2C02D13548407DD6
:10BD70007FE7502C02D12D4840797AE7512C03D12E
:10BD800029492020085E74E7522C03D1264922203D
:10BD9000085E6EE7532C03D123492420085E68E730
:10BDA000542C02D12048007D63E7552C02D11E4857
:10BDB000407D5EE7562C02D12348C07859E7572CC6
:10BDC00003D119491C20085E53E7582C03D11649AA
:10BDD0002620085E4DE70B2C03D113492C20085E6A
:10BDE00047E75C2C02D11148807942E75D2C02D1F3
:10BDF0000D48008E3DE75E2C02D10B48408E38E79F
:10BE0000622C03D106488030407832E70F488442E4
:10BE100003D10348803040882BE70020C04328E747
:10BE20004C0200200000C842940600206405002057
:10BE30003C03002004030020580700206401002078
:10BE40004C01002094050020700500203102000004
:10BE500070B50446204600F045FC204600F058FC32
:10BE60007F48828F0521204600F012FC7C4820305C
:10BE7000827C0721204600F00BFC7949486B794908
:10BE800008F092FD0646FDF757F905462A460821B7
:10BE9000204600F0FDFB7249886B724908F084FD72
:10BEA0000646FDF749F905462A460921204600F0D5
:10BEB000EFFB20780006617809044018A178090298
:10BEC0004018E17842180C21204600F0E1FB20796F
:10BED0000006617909044018A17909024018E17946
:10BEE00042180D21204600F0D3FB207A0006617A2B
:10BEF00009044018A17A09024018E17A42180E217B
:10BF0000204600F0C5FB58481622825E0F212046CD
:10BF100000F0BEFB54481A22825E1021204600F039
:10BF2000B7FB51481822825E1121204600F0B0FB79
:10BF30004E4802781421204600F0AAFB4C48C278F3
:10BF40000221204600F0A4FB4A481222825E1A21F8
:10BF5000204600F09DFB484842781221204600F020
:10BF600097FB46480022825E4C21204600F090FB61
:10BF7000434802784D21204600F08AFB4048427831
:10BF80004E21204600F084FB3E48427D4F21204652
:10BF900000F07EFB354842795021204600F078FBC6
:10BFA00031482022825E5121204600F071FB2E484C
:10BFB0002222825E5221204600F06AFB2A48242277
:10BFC000825E5321204600F063FB2748027D542106
:10BFD000204600F05DFB2448427D5521204600F0BC
:10BFE00057FB2948C2785621204600F051FB1E48D5
:10BFF0001C22825E5721204600F04AFB1A48262266
:10C00000825E5821204600F043FB17482C22825EB6
:10C010000B21204600F03CFB144882795C2120462D
:10C0200000F036FB1048028E5D21204600F030FB08
:10C030000D48428E5E21204600F02AFB08488030E1
:10C0400042786221204600F023FB05488030428878
:10C050000E49204600F01CFB204600F03DFB70BD61
:10C060004C0200200000C842940600206405002015
:10C070003C03002004030020580700206401002036
:10C080004C010020940500207005002031020000C2
:10C09000FEB507460521384600F0D6FA0446601C76
:10C0A000002803D1FA49FB48818701E0F9488487D9
:10C0B0000721384600F0C8FA04460C2C06D0182C8C
:10C0C00004D00C21F3482030817402E0F148203084
:10C0D0008474F048803806F031F80821384600F0C2
:10C0E000B3FA0446601C00280CD1EA482030807C5A
:10C0F0000C2803D1E849E748416311E0E749E548E6
:10C1000041630DE02046FCF7F0FD05460022E44BBC
:10C11000FCF744FB01910090FCF756F9DD494863B8
:10C120000921384600F090FA0446601C00280DD121
:10C13000D8482030807C0C2804D18321C905D548FB
:10C14000816311E0D749D34881630DE02046FCF7B5
:10C15000CCFD05460022D24BFCF720FB019100905C
:10C16000FCF732F9CB4988630C21384600F06CFAB1
:10C170000446601C002804D138707870B870F870DC
:10C1800008E0200E38702002000E78702004000EA7
:10C19000B870FC700D21384600F056FA0446601C59
:10C1A000002804D138717871B871F87108E0200E58
:10C1B00038712002000E78712004000EB871FC71F5
:10C1C0000E21384600F040FA0446601C002804D1D5
:10C1D00038727872B872F87208E0200E3872200255
:10C1E000000E78722004000EB872FC720F213846DF
:10C1F00000F02AFA0446142C01D35A2C03D95021FA
:10C20000A948C18202E021B2A748C1821021384664
:10C2100000F01AFA0446142C01D35A2C03D95021E9
:10C22000A148418302E021B29F4841831121384651
:10C2300000F00AFA0446142C01D35A2C03D95021D9
:10C240009948018302E021B297480183572138467B
:10C2500000F0FAF90446142C01D35A2C03D95A21C0
:10C260009148818302E021B28F48818314213846AE
:10C2700000F0EAF9044621468C4801F013F8022147
:10C28000384600F0E1F90446601C00280ED0092C65
:10C2900003D00C2C01D0122C04D1A1B2844800F0A0
:10C2A000ADFD03E00C21824800F0A8FD1A213846BC
:10C2B00000F0CAF90446601C002803D01920400190
:10C2C000844204D2192040017A49488202E020B217
:10C2D000784948821221384600F0B6F90446601CBD
:10C2E000002802D17449487001E073494C707248CB
:10C2F0004078072802DD00206F4948704C213846FD
:10C3000000F0A2F90446601C002803D138206B49D4
:10C3100008800AE020B26949088008460021415E91
:10C32000412902DD4120654908804D21384600F051
:10C330008BF90446002C02D16149087002E001200B
:10C340005F4908704E21384600F07EF90446012C02
:10C3500002D15B49487002E00020594948704F21E2
:10C36000384600F071F90446601C002802D1554996
:10C37000487507E053494C750846407D022801DDA9
:10C38000002048755021384600F05EF90446012C23
:10C3900002D14649487102E00020444948715121C8
:10C3A000384600F051F90446601C002803D11421DE
:10C3B0003D48018402E021B23B4801843A482021F3
:10C3C000415E032903DB2021415E642902DD142143
:10C3D000354801845221384600F036F90446601C85
:10C3E000002803D11E213048418402E021B22E48AA
:10C3F00041842D482221415E032903DB2221415E35
:10C40000642902DD1E21284841845321384600F06A
:10C410001BF90446601C002803D1142122488184A2
:10C4200002E021B2204881841F482421415E032973
:10C4300003DB2421415E642902DD14211A48818432
:10C440005821384600F000F90446601C002803D14A
:10C4500014211548C18402E021B21348C184124856
:10C460002621415E032903DB2621415E642902DD8A
:10C4700014210D48C1845421384600F0E5F80446E3
:10C48000601C002820D10021074801751EE0000033
:10C49000470200004C020020000018410000A041AB
:10C4A000000059406666F6419406002064050020AD
:10C4B0003C030020040300205807002064010020F2
:10C4C0004C01002094050020594804755848007D0F
:10C4D0000A2802DB0021564801755521384600F034
:10C4E000B3F80446601C002803D10621504841756A
:10C4F00001E04F4844754E48407D0A2802DB062182
:10C500004B4841754A48017D407D814204DD002150
:10C5100047480175092141755621384600F094F8C5
:10C520000446601C002803D146204249C87001E03F
:10C530004049CC703F48C078502802DD50203D492A
:10C54000C8703C48C0781E2802DA1E203949C870DD
:10C550000B21384600F078F80446601C002803D10F
:10C5600003213348818502E021B23148818530487A
:10C570002C21415E032903DB2C21415E642902DD6D
:10C5800003212B4881855C21384600F05DF8044684
:10C59000601C002802D12849887101E026498C716D
:10C5A00025488079032802DB0020234988715D211A
:10C5B000384600F049F80446601C002803D12821C1
:10C5C0001B48018601E01A4804865E21384600F0C7
:10C5D0003BF80446601C002803D100211448418622
:10C5E00002E0E1B2124841861148408E022803D091
:10C5F0000F48408E042802DD00210D48418662214B
:10C60000384600F021F8044621460C4805F058FC55
:10C610000B49384600F018F80446601C002803D186
:10C6200000210848418001E006484480FEBD00002A
:10C63000940600207005002064050020CC01002035
:10C6400031020000CC020020F8B507460D460D4C23
:10C6500011E021460C48FEF7E4FD0646701C002858
:10C6600001D1401EF8BDAE4204D1211D0648FEF79F
:10C67000D8FDF7E7083405488442EAD30020C043D8
:10C68000F0E7000000E801089401002000F0010834
:10C6900070B504460D4616460C49E068884213D32F
:10C6A0000B49E06888420FD82A460A48E168FEF73D
:10C6B00097FDE068001DE06032460648E168FEF73D
:10C6C0008FFDE068001DE06070BD000000E801081B
:10C6D000F8EF01089401002010B50446FDF788FC2E
:10C6E00010BD000070B50546002407E0E002064AD0
:10C6F00081180648FEF786FD601CC4B2012CF5DBEC
:10C700000148E86070BD000000E8010894010020C5
:10C7100010B50446FDF7CCFC10BD000010B5044672
:10C7200004222146024801F0DEF9204610BD000037
:10C73000AC0100208189052901DD01210174C18935
:10C74000052901DD012141747047000010B58AB050
:10C750000446002008900990059006900790142147
:10C760006846FBF76DFD01218804FDF7C5FD012139
:10C770000220FDF7D1FD08A8FDF738FD1020089034
:10C78000012108A801710321417108A93448FDF76E
:10C79000B5FC10213248FDF725FD01220421304867
:10C7A000FDF7F4FC08A8FDF721FD202008900021EA
:10C7B00008A801710121C1710321417108A928480C
:10C7C000FDF79CFC05A8FEF741FA264968468182E0
:10C7D000FF20F5300690002168468183C18205A9BB
:10C7E0002148FEF7F5F96846FEF7BCF96021684676
:10C7F0000180012141802D20029000216846818125
:10C8000069461948FEF7B6F81748406B401F1649AD
:10C8100088630846406B9630C863012204211248A1
:10C82000FEF79DF8012208210F48FEF798F8002135
:10C830000D48FEF721F81020012181400B4A1160BC
:10C8400000BF08210848FEF7DFF801210648FDF780
:10C85000F3FF01214804FDF74FFD0AB010BD0000B1
:10C8600000040048BF1200000004004000E100E0A6
:10C8700000218181C181017441747047F0B587B096
:10C8800004460E461746002004900590E07C0028E0
:10C8900001D007B0F0BD3046FCF727FA0022414B2B
:10C8A00001910090FBF77AFF03910290FBF78CFD5A
:10C8B000054665602846FCF73FFB3B4A3B4B03912E
:10C8C000029007F09BFF1ED2A07C002817D000200A
:10C8D000A07404A8FDF78AFC10200490012168468A
:10C8E00001750321417504A93148FDF707FC1021AA
:10C8F0002F48FDF777FC00212E48FDF7BDFF0020F3
:10C900006060A0604BE0A07C002828D10120A074CA
:10C9100004A8FDF76BFC1020049002216846017505
:10C92000002181750321417504A92148FDF7E6FB2B
:10C93000012204211E48FDF729FC1E48808A01219E
:10C9400008431C49888201211A48FDF795FF1948C0
:10C950002030008801210843164920310880012F2A
:10C9600004D11549C86B154907F0F4FF144928464E
:10C9700008F072F800D2124DA5602846FCF7DCFAE8
:10C9800002460B460191009000200E49FBF706FF7E
:10C9900003910290FCF75CF980B20649C86200BFBF
:10C9A00077E70000000059407B14AE47E17AC43FAE
:10C9B0000004004800040040EC0400200000B442E1
:10C9C000000020410088C34010B5044620210248E1
:10C9D000FDF7FEFB10BD00000004004810B5044642
:10C9E00030480078C007C00F00280CD12D4807F050
:10C9F000B5FC002807D02C4801F06EF82B490860E0
:10CA00002848C046C046E07C002800D110BD26481A
:10CA100001F062F825490968401A642840D3224889
:10CA200001F05AF821490860607D002803D11021E7
:10CA30001F48FDF7D9FB607D0A2808DA20211C4831
:10CA4000FDF7C6FB002802D1207D401C2075607DCB
:10CA50000A280CD110211648FDF7C4FB207D0228BE
:10CA600003DD012020740020E07400202075607D2B
:10CA70001E2812DD20210E48FDF7AAFB002802D156
:10CA8000207D401C2075607D232806DD207D022846
:10CA900001DD012060740020E074607D401C607541
:10CAA00000BFB3E728010020AC0100202C010020CA
:10CAB0000004004810B504462046FFF78FFF2046CB
:10CAC000FFF738FE10BD000010B5502900DD5021E1
:10CAD0000A2900DA0A21018002880A235A43094BF5
:10CAE0005A631A46536B05220A2462439A1A054B6D
:10CAF0009A631A46536B052262439A18014BDA6314
:10CB000010BD0000000400401CB504460020009049
:10CB100001900120E0740020607520756846FDF7E3
:10CB200065FB1020009001216846017103214171CD
:10CB300069460648FDF7E2FA10210448FDF752FB6A
:10CB400000210348FDF798FE1CBD000000040048CA
:10CB50000004004010B5044604222146064800F0B7
:10CB6000C2FF2D2020800020A0746060A060E074CF
:10CB700020756075204610BDAC0100200188142985
:10CB800001DD012181707047FEB504460D46244841
:10CB90000078C007C00F00280CD1214807F0DEFB49
:10CBA000002807D01F4800F097FF1F4908601C4865
:10CBB000C046C0461B4800F08FFF1B490968401A59
:10CBC00032282CD3174800F087FF17490860294600
:10CBD000284607F0E9FE01906421E068FBF732FB8C
:10CBE000217948430090FCF7EBFA07460199FCF7DE
:10CBF000CDF90646FCF7A0FAA06001218907A068DC
:10CC00004863A068322804D90846406B3238C863AC
:10CC100005E001208007406B01218907C863FEBD44
:10CC200030010020AC010020340100207CB5044616
:10CC30000D46002000900190642D00DD64252571D3
:10CC40002079002824DD012060716846FDF7CEFAC6
:10CC50000120C0030090022168460171002181710A
:10CC60000321417169460920C006FDF747FA0222F7
:10CC70000F210920C006FDF789FA01218807FDF779
:10CC8000FBFD15480088012108431349088022E074
:10CC9000002060716846FDF7A9FA0120C0030090EA
:10CCA0000121684601710321417169460920C006CE
:10CCB000FDF724FA0121C9030920C006FDF792FA05
:10CCC00005480088400840000349088000210120F1
:10CCD0008007FDF7D1FD7CBD2000004010B58AB073
:10CCE00004460020089009900590069007901421B2
:10CCF0006846FBF7A5FA01214804FDF7FDFA01217A
:10CD00008804FDF7F9FA01210846FDF705FB08A89C
:10CD1000FDF76CFA0120C0030890012108A80171F9
:10CD20000321417108A90920C006FDF7E7F9012197
:10CD3000C9030920C006FDF755FA08A8FDF756FA01
:10CD400008200890002108A801710121C171032168
:10CD5000417108A91F48FDF7D1F905A8FDF776FF35
:10CD60002F21684681821C480690002168468183F5
:10CD7000C18205A901208007FDF72AFF6846FDF75B
:10CD8000F1FE60216846018001214180002002906F
:10CD9000002168468181694601208007FDF7EAFD90
:10CDA00001220821C806FDF7DAFD002101208007D5
:10CDB000FDF762FD0F2001218140084A116000BF8C
:10CDC0000821C806FDF720FE01218807FDF734FD84
:10CDD0000AB010BD00040048204E000000E100E051
:10CDE000002101808170704710B504460821024877
:10CDF000FDF7EEF910BD000000040048C170704757
:10CE000070B504460D4629462046FFF7BDFE204674
:10CE1000FFF7B4FE70BD000010B5044604222146A1
:10CE2000074800F060FE0C20E070E07805494843B8
:10CE3000E1784843E060002060712071204610BD19
:10CE4000AC010020204E000070B504460D4611498B
:10CE5000606988420BD310496069884207D82A4626
:10CE60000E486169FEF7BCF96069001D6061290E1A
:10CE7000204600F00FF92802010E204600F00AF9C2
:10CE80002804010E204600F005F9E9B2204600F022
:10CE900001F970BD00F00108FCFF010894010020B9
:10CEA000FFB589B007461D46129E0A9802040B98EA
:10CEB000000210184119384600F078F90446002C99
:10CEC00002D113980DB0F0BD2146384600F096F817
:10CED00006900698022801DA1398F3E721463846AF
:10CEE00000F090F9B04229D9002E25D01398059072
:10CEF000002D01D138680590012D01D17868059089
:10CF0000022D01D1B8680590032D01D1F868059074
:10CF1000211D384600F076F921460490384600F08D
:10CF200071F9039004980196009000213846039B04
:10CF3000059A00F02BF9C5E71398C3E70020059088
:10CF40002AE02146384600F05DF908902146083174
:10CF5000384600F057F907900898864217D307988B
:10CF6000864214D221460C31384600F04BF9211D7F
:10CF70000490384600F046F903900498019600901A
:10CF80003846079B039A089900F000F99AE708349D
:10CF90000598801C80B205900698801E05998842ED
:10CFA000CFDC211D384600F02DF98BE7F8B504469B
:10CFB0000D4616461F460E496069884217D30D4933
:10CFC0006069884213D80322D2430B486169FEF797
:10CFD00007F96069001D606128063304C018C21992
:10CFE00005486169FEF7FCF86069001D6061F8BDE5
:10CFF00000F00108F8FF010894010020F3B581B0AA
:10D000000E460027354615E02946019800F0FAF84B
:10D010000446601C002808D0A01C002805D0E01C95
:10D02000002802D0201D002801D13846FEBD781C02
:10D0300087B22D1D02488542E6D33846F6E7000048
:10D040000000020810B5029C016082604360C46069
:10D0500010BD10B50446FCF7CBFF10BD70B50546FA
:10D06000002407E0E002064A81180648FEF7CAF8E5
:10D07000601CC4B2022CF5DB0148686170BD000081
:10D0800000F001089401002010B50446FDF710F8E7
:10D0900010BD000030B5012210E0047CE307DB0F77
:10D0A000046964080461CC07E40F9C4203D0054D79
:10D0B00004696C4004614910531CDAB2082AECDDA3
:10D0C00030BD000001A0000070B50646304600F0FB
:10D0D00035F8184D29E02946304600F093F804460B
:10D0E000601C002800D170BDE01C00280AD1291D59
:10D0F000304600F087F83169884201D10120F2E71B
:10D100000020F0E7210E3046FFF7C4FF2002010E99
:10D110003046FFF7BFFF2004010E3046FFF7BAFF8D
:10D12000E1B23046FFF7B6FF2D1D03488542D2D34A
:10D130000020D8E700F00108000002080149016161
:10D1400070470000FFFF000010B504460C496069FD
:10D15000884214D30B496069884210D80222D24316
:10D1600009486169FEF73CF86069001D6061064886
:10D1700022696169FEF734F86069001D606110BDC5
:10D1800000F00108F8FF010894010020F8B50C46F2
:10D1900015461E46069F7A1B079B1B1B5A431046CB
:10D1A000311BFBF759F84019F8BD0000F8B50746E8
:10D1B0000E46124C1CE02146384600F023F8054686
:10D1C000681C002805D0E81C002802D0281D002873
:10D1D00001D10020F8BDA81C002808D1211D384627
:10D1E00000F010F8B04202D120460830F2E7241DCA
:10D1F00003488442DFD30020ECE7000000F0010880
:10D200000000020870B505460C4621460148FEF7AD
:10D2100008F870BD9401002010B504460422214690
:10D22000024800F060FC204610BD0000AC01002068
:10D2300010B586B004460020049005900121C80472
:10D24000FDF75AF804A8FCF7D1FF01204003049031
:10D25000002168460175C1750321417504A9104874
:10D26000FCF74CFF0D210220FDF764F9012040037B
:10D2700002900021684601731021417301218173DE
:10D2800002A8FCF72DFE07216846017100214171BB
:10D290000121817101A8FCF7E9FF06B010BD000073
:10D2A0000008004800220270012901D10122027009
:10D2B000022901D102220270032901D10322027046
:10D2C0007047000010B5044634480078C007C00F0E
:10D2D00000280CD1314807F041F8002807D0304829
:10D2E00000F0FAFB2F4908602C48C046C046207861
:10D2F000002802D1A070208110BD294800F0ECFB6D
:10D3000028490968401A322837D3254800F0E4FB41
:10D3100024490860012149032348FCF759FF0128EB
:10D3200010D12089502802DA2089401C20812089D0
:10D330003D2801DB0120A07020893D281DD101205E
:10D34000E0701AE0A07800280DD02089002802D0D3
:10D350002089401E2081208901280ED10020A07044
:10D360000120207109E020890A2804DB20893C285B
:10D3700001DC0120607000202081207803280BD080
:10D380002078012801D0002060702078022803D086
:10D390000020A070E070207100BFADE75C010020AC
:10D3A000AC010020600100200008004870B505466F
:10D3B000012149030448FCF70BFF0446012C00DD62
:10D3C0000124204670BD00000008004810B5044646
:10D3D00004222146074800F086FB002020702081AF
:10D3E000A070E07020716071E07103202070204611
:10D3F00010BD0000AC01002010B504461C480078A8
:10D40000C007C00F00280CD1194806F0A7FF00285C
:10D4100007D0184800F060FB174908601448C04660
:10D42000C046144800F058FB13490968401A3228D6
:10D430001DD3104800F050FB0F49086020780028E9
:10D440000BD0A088502802DAA088401CA080A088B9
:10D450003D280CD10120607009E0A088002802D08E
:10D46000A088401EA080A088012800D1A07010BD17
:10D470007C010020AC0100208001002010B5044692
:10D4800004222146044800F02EFB0020A0802070DA
:10D490006070A070204610BDAC01002070B504463D
:10D4A0000D461149606888420BD310496068884274
:10D4B00007D82A460E486168FDF792FE6068001D95
:10D4C0006060290E204600F0B5F82802010E2046C3
:10D4D00000F0B0F82804010E204600F0ABF8E9B2E5
:10D4E000204600F0A7F870BD00C80108FCCF010875
:10D4F00094010020FFB581B017460299019800F011
:10D5000015F90546002D01D105B0F0BD2946019859
:10D5100000F04EF80446019800F020F84000A042C8
:10D5200001D00020F0E7002611E02946019800F024
:10D5300025F900B271007852291D019800F01EF9FA
:10D5400001B27200049881520835701C86B2E10F56
:10D5500009194910B142E8DC0120D5E770B506464B
:10D56000114C1CE02146304600F008F90546681CC5
:10D57000002802D0E81C002801D1002070BDA81CA2
:10D5800000280BD1211D304600F0F8F8FF2805D106
:10D5900021460831304600F0F1F8EFE7241D03483A
:10D5A0008442DFD30020E9E700C8010800D0010869
:10D5B000F3B581B00E460027344612E021460198AB
:10D5C00000F0DCF80546681C002805D0A81C0028DF
:10D5D00002D0E81C002801D13846FEBD781C87B275
:10D5E000241D02488442E9D33846F6E700D00108FA
:10D5F00010B50446FCF7FCFC10BD000070B50546F4
:10D60000002407E0E002064A81180648FDF7FAFD0B
:10D61000601CC4B2012CF5DB0148686070BD0000DD
:10D6200000C801089401002010B50446FCF740FD35
:10D6300010BD000030B5012210E00478E307DB0FD5
:10D64000046864080460CC07E40F9C4203D0054DD5
:10D6500004686C4004604910531CDAB2082AECDDFF
:10D6600030BD000001A0000070B50646304600F055
:10D6700035F8184D29E02946304600F07FF8044679
:10D68000601C002800D170BDE01C00280AD1291DB3
:10D69000304600F073F83168884201D10120F2E78A
:10D6A0000020F0E7210E3046FFF7C4FF2002010EF4
:10D6B0003046FFF7BFFF2004010E3046FFF7BAFFE8
:10D6C000E1B23046FFF7B6FF2D1D03488542D2D3A5
:10D6D0000020D8E700C8010800D001080149016016
:10D6E00070470000FFFF000010B504460C49606859
:10D6F000884214D30B496068884210D80222D24372
:10D7000009486168FDF76CFD6068001D60600648AF
:10D7100022686168FDF764FD6068001D606010BDEF
:10D7200000C80108F8CF010894010020F8B50746A9
:10D730000E46104C19E02146384600F01FF8054609
:10D74000681C002802D0E81C002801D10020F8BD88
:10D75000A81C002808D1211D384600F00FF8B0425F
:10D7600002D120460830F2E7241D03488442E2D368
:10D770000020ECE700C8010800D0010870B505469C
:10D780000C4621460148FDF74CFD70BD9401002078
:10D790007047000010B586B0044600200490059044
:10D7A00001900290039001218804FCF7A5FD01215E
:10D7B0004806FCF7B1FD01210846FCF7CDFD04A8A1
:10D7C000FCF714FD03200002049002216846017555
:10D7D0000021C1750321417504A93348FCF78EFC73
:10D7E000042208213048FCF7D1FC042209212E48EC
:10D7F000FCF7CCFC2D48FBF739FF2C4800680121D1
:10D8000008432A49086000BF28484068C007C00F85
:10D810000028F9D025480068022188432349086080
:10D8200001A8FCF7DCF8002168468171082181809D
:10D830000021C1710E210172072141720121C173C2
:10D84000002141730121C17201A91848FBF7B6FFFD
:10D8500016480068400840001449086000BF13489B
:10D860004068C007C00F0028F9D1114908600120A5
:10D870000F4940390860C861084600684008400008
:10D8800008600A48406902210843084948610021AC
:10D890001E20FDF77FFB1E2001218140054A1160FB
:10D8A00000BF06B010BD0000000400480064004046
:10D8B0004066004000E100E070B50446002518E035
:10D8C0001820684321463031085C00280FD101221E
:10D8D000182068430A5418216943224630328918B7
:10D8E000081D142221461C31FAF73CFC70BD681C4F
:10D8F000C5B20A2DE4DB00BFF8E70000FFB583B036
:10D9000004460D46164600200290E5600021617431
:10D91000042121740821A174E674069921750C99DB
:10D9200061750D99A1750E99E1750F992176109980
:10D9300061761199A176214608310E48FCF75FF80F
:10D94000029000270020019009E00A480299FCF7A4
:10D95000F1F801907F1C0848874200D902E0019845
:10D960000128F2D100BF03480299FBF705FE07B07A
:10D97000F0BD000000640040FF0F00002221017094
:10D98000002141700022FF2121310A54704700001C
:10D990003EB50546FCF704FE7D21C9002E4800680F
:10D9A000FAF750FC0446601E2C49884200D90CE06E
:10D9B000601E2B4948610321081FFDF773FA002000
:10D9C000274988610720086100BF0021481EFDF734
:10D9D00069FA01212020FCF79FFC01212148FCF776
:10D9E0004BFF7D21C9001C480068FAF72BFC401E44
:10D9F0001C492031088100200090019002900121F3
:10DA00001020FCF789FC6846FDF720F912490968E7
:10DA100048087D21C900FAF715FC401E81B268460E
:10DA200001801148019000216846018141806946CA
:10DA30000E48FDF7CDF801210C48FCF71DFF01222F
:10DA400011460A48FCF78BFF112001218140084A4A
:10DA5000116000BF3EBD000000010020FFFFFF007D
:10DA600000E000E000140040282300000010004007
:10DA700000E100E038B504460320FCF77BFD002000
:10DA800000900BE0074900984018007801225207E7
:10DA90000099891808700098401C00900098C028D0
:10DAA000F0D338BD008000080A4AD162928A01236F
:10DAB0001A43084B9A821A46128809231A43054BC7
:10DAC0001A8000BF034A1288D207D20F002AF9D168
:10DAD00070470000001400400146486870474168E4
