:020000040800F2
:10800000180F00209D81000875A2000811A2000829
:108010000000000000000000000000000000000060
:10802000000000000000000000000000C381000804
:108030000000000000000000C58100089DA50008A8
:10804000C9810008C9810008C9810008C9810008E8
:10805000C9810008C9810008C9810008BD9E0008C7
:108060006DAC00084D9C0008C9810008C98100085A
:10807000C9810008C98100080DA7000861A7000890
:10808000A1A7000815A80008C9810008F1A60008EA
:10809000C9810008C9810008C9810008C981000898
:1080A000C9810008C981000811A40008C98100081D
:1080B000C9810008C9810008E59B000800F002F8AA
:1080C00000F040F80CA030C8083824182D18A2463B
:1080D000671EAB4654465D46AC4201D100F032F813
:1080E0007E460F3E0FCCB6460126334200D0FB1A27
:1080F000A246AB463343184768CE000088CE000046
:10810000103A02D378C878C1FAD8520701D330C8E0
:1081100030C101D504680C607047000000230024C2
:1081200000250026103A01D378C1FBD8520700D3AE
:1081300030C100D50B6070471FB500F033F91FBD8B
:1081400010B510BD01F0E4F81146FFF7F5FF0BF094
:10815000DBFC01F0FCF803B4FFF7F2FF03BC01F015
:1081600031F9000070B505460C46164602E00FCC0A
:108170000FC5103E102EFAD2082E02D303CC03C531
:10818000083E042E07D301CC01C5361F03E0217839
:108190002970641C6D1C761EF9D270BD0E4880F3E8
:1081A00008880E480168090E0D4A914205D10D4814
:1081B0000D4901600D480E49016007480047FEE780
:1081C000FEE7FEE7FEE7FEE7FEE7000009480A4992
:1081D0000A4A0B4B70470000BD80000804000000F5
:1081E0001F000000181002400100000000000140C4
:1081F0000000000018090020180F0020180B0020B4
:10820000180B002001E004C0091F0429FBD28B07D2
:1082100001D50280801CC90700D002707047002978
:108220000BD0C30702D00270401C491E022904D3A0
:10823000830702D50280801C891EE3E70022EEE757
:108240000022DFE7002203098B422CD3030A8B4272
:1082500011D300239C464EE003460B433CD400223E
:1082600043088B4231D303098B421CD3030A8B4250
:1082700001D394463FE0C3098B4201D3CB01C01A1E
:10828000524183098B4201D38B01C01A52414309E9
:108290008B4201D34B01C01A524103098B4201D3D7
:1082A0000B01C01A5241C3088B4201D3CB00C01A44
:1082B000524183088B4201D38B00C01A52414308BC
:1082C0008B4201D34B00C01A5241411A00D20146E1
:1082D0005241104670475DE0CA0F00D0494203107A
:1082E00000D34042534000229C4603098B422DD3C9
:1082F000030A8B4212D3FC22890112BA030A8B4271
:108300000CD3890192118B4208D3890192118B42BF
:1083100004D389013AD0921100E08909C3098B4244
:1083200001D3CB01C01A524183098B4201D38B0187
:10833000C01A524143098B4201D34B01C01A52412A
:1083400003098B4201D30B01C01A5241C3088B426F
:1083500001D3CB00C01A524183088B4201D38B005A
:10836000C01A5241D9D243088B4201D34B00C01AE4
:108370005241411A00D20146634652415B101046F9
:1083800001D34042002B00D54942704763465B1041
:1083900000D3404201B50020C046C04602BD704730
:1083A0007047704770B5064C7C44064D7D4403E031
:1083B000206800198047241DAC42F9D170BD00002F
:1083C000D4CB000030CC00000246C80FC007814368
:1083D0004B0030B54B405B009B0D20D01923DB06D2
:1083E000C91801231B05994220DB0324A407042597
:1083F0001346AB400BD3002B04D1EB0613409B007C
:10840000E34204D401246407002312195941FF23D5
:108410001B0599420BD2C9000143500F09E0CB0262
:1084200004D501430803024305D0054830BDFF21B0
:10843000C905084330BD084607210905884330BDFA
:108440000000C07FF0B50C46871A9C410D46861A85
:108450009D4103D2C01BA141D21963410D0D1F0DD7
:10846000C94EEC1BAE435CD07F057F0D0026002F6C
:1084700051D02D05AC46A943DD020123ED0A1B05B1
:108480001D4320231B1B24D41746E7403818714195
:108490002F46E740CC199D402818314661410C0D0C
:1084A00027D161449A4013D50023401C5941520002
:1084B0000ED14008400001224B005205D34207D3A1
:1084C00005204007C14201D5B04900E0B04930461F
:1084D000F0BD6B00002A00D001229A181F23203C17
:1084E0001B1B01D5002302E0E540281871410C0D4B
:1084F000D7D0012424050919C407CD07400849082D
:10850000E40F28436144002CD5D00024401C614175
:108510009A40D0D1CDE76A05520DD9D1C90FC9070C
:10852000D5E79C4D4E00002801D0012400E0002436
:1085300034195F00002A01D0012600E00026BE1990
:10854000954FAC420CD8AE420AD8B44206D00125B1
:108550006D05EC42BCD010461946F0BD9942FCD0E6
:1085600000203946F0BDF0B51FB40C460F46811A05
:108570009F412546861A9D4106D20125ED076F4091
:10858000401ABC4152187B41210D1E0D8D1BAC467B
:108590007D4D8D437ED075056D0D7CD00D05AE46AD
:1085A000AC431B031B0B794D52429D412023664671
:1085B0009B1B14D31746F7403818002600907441CF
:1085C00060462F460741E41900989D4028186641EF
:1085D00016D4714671189A4025D5012320E09318CE
:1085E0002A466A415200002B00D0521C1E23203E16
:1085F0009B1B002B61DD3541EE1728186641E8D53D
:10860000001876415B1C9A4000D3401C4B05F318C0
:108610001524E34010D3002B52D071467118D30FAC
:10862000C01802D3491C05B0F0BD0123DB079A42F4
:10863000F9D140084000F6E701225205B21801D1F5
:10864000002853D00123CC0ADB029943891E002A5B
:1086500008D1020C03D0020C0004103902E00246DB
:10866000002020390023550B05D112020823550B99
:1086700001D152010D23550C01D112011B1DD50C46
:1086800001D192009B1C150D01D152005B1C2025CD
:10869000EE1A01E02CE022E00546F5401543984033
:1086A000CA1AE10769181305C918002ABBDA0320A2
:1086B00040070818C10FC9070FE071466118B2E7FB
:1086C000F10740080843711071444A000CD001239F
:1086D0005B059A42A7D2C90FC9070020A3E7490545
:1086E000490D26D1002001E00028F4D100219AE7AD
:1086F000284D6600002801D0012100E000217118FA
:108700005F00002A01D0012600E00026BE19224F9A
:10871000A94210D8AE420ED8B14208D001256D054D
:10872000E94206D01946A802414010467BE79C4228
:1087300001D0214677E70020394674E710B50C4692
:108740005C4005D50124E4076340FFF70CFF10BD32
:10875000FFF778FE10BD30B40C465C4004D5012410
:10876000E407634030BC6DE630BCFCE670B5012424
:10877000E40761400D465D4002D4FFF763FE70BD23
:108780006340FFF7F0FE70BDFF0700000000F0FF40
:108790000000F07F0000E0FF0000F87FF0B5F94D29
:1087A0000C091E092C402E402F468BB0A7437DD0CC
:1087B000B543FCD0002E7AD0002CFCD00D465D4095
:1087C000ED0F2543AC1BFF25AD0464190894C502C9
:1087D000440DC9022143500DDC0204430120C007AF
:1087E00001430443D2020191200C110C00958C46E8
:1087F000010423468B430A9161460904E24D8A43F2
:108800000991010A7D4449198039097805464D438B
:1088100001266D18F605751B6943C90C640B891C8C
:108820004C436418B5012C1B250C2E04B4434C4357
:108830004D43210C691889090591009DE90701D074
:108840000121C90704912C4601996708CD072F43E0
:108850004C08059DE10B4D432D0C2946664675439A
:1088600002950D4645432E46029D7D1BB441009561
:108870000D465D4301942C0C2F040D465543AE4626
:108880002D0C3D43029503947546049C2D04641BF6
:10889000049406D2029C039D641C00267541039536
:1088A000029401AC70CC009F7D1B01E03EE162E1CF
:1088B000B44109040095079101940599A408614306
:1088C000090C0C464443650BE7040C4666467443AA
:1088D000A646640B3C43039502947446049DE4044D
:1088E0002C1B049406D2029C039D641C0026754137
:1088F0000395029401AC70CC009F7D1BB4410194A0
:108900000C465C430095650FE7000C465443A646B1
:10891000640F3C43039502947446049DE4002C1BB1
:10892000049406D2029C039D641C002675410395A5
:10893000029401AC70CC009F7D1BB441AE09AF0620
:10894000049DC900AD092F43049DA406AD060495FE
:10895000079D344369180791059DE10B4D432D0C8C
:1089600029466646754302950D4645432E46029DAF
:108970007D1BB44100950D465D4301942C0C2F04E2
:108980000D465543AE462D0C3D4302950394754666
:10899000049C2D04641B049406D2029C039D641C59
:1089A000002675410395029401AC70CC009F7D1B9D
:1089B000B44101948C050694079C890A61180095BE
:1089C0000791019C0599A4086143090C0D46454394
:1089D000680BEF040D46644665436C0B3C43049FF3
:1089E000ED047D1BAC4602D20025641C6841009E4C
:1089F000019D371B85410846584301950C46460F9B
:108A0000C5005443600F28436546E4002C1B02D286
:108A10000025401C6E41019D3F1AB5412846BD0905
:108A2000800628438446A009BF064E020699A40684
:108A300076180743079D002068410A99079019435B
:108A40000020099B00906046FF1913434041E20F4C
:108A500064003A43A4460446D71A8C41A04203D985
:108A60000120009020463A46C70F941840416246C4
:108A7000D20F2243644664000494009CBE46640006
:108A8000D71AA446044602978C417746002F01D19D
:108A9000A04204D96046401C8446029A2046C40F76
:108AA000A64694184041049A0546D20F22436446D4
:108AB0006400D31A8D417146002901D1A84202D920
:108AC00028461A46641C10430122002800D0164391
:108AD00061020020079B891904465C410223002C97
:108AE00002DB491813466441089DCE0A2D145D1916
:108AF0004B056705E10A2C050D1908993E43C90786
:108B00006940002B08D0934006D30022761C5141C7
:108B1000002B01D1760876001C4A002D43DB15425C
:108B200041D0AA433FD030460BB0F0BD06180D46E9
:108B30004D41174C7642AC411AD395181C465C4106
:108B4000134A6D42A24113D3012252054C00D44274
:108B50000AD15C00D4420BD04B4002D592021143A3
:108B6000E2E749004908DFE75940C90FC90718E0A3
:108B700000200849D8E7054801420DD10342F7D04B
:108B8000F2E700000000FF0798C600000000F07F39
:108B90000000E0FF0000F87F114859400143C01277
:108BA00041400020C0E70123089A9B069A4205DC59
:108BB000032252078918C90FC907B5E705225207D2
:108BC0008918074A1143D2125140ADE770B51546D6
:108BD0001C4602460B4628462146FFF7DFFD70BDC6
:108BE000FFFFFF7F30B50346CA02400D1043164D0C
:108BF000164C0A1502D02043002A06DBAA1A002AC6
:108C000012DDD040FF2A0BDC30BD5205520D01D1E0
:108C100040004008AA1A07D4D0404042FF2A01DD94
:108C2000002030BD0028FCDD4A00002B01D00120CF
:108C300000E00020101801225205D042F0D8C817D9
:108C4000C043604030BD00001E04000000000080F2
:108C50000346CA02400D10B510430A1504D0012482
:108C6000E4072043002A05DB0A4CA21A04D4D040B2
:108C7000FF2A00DD002010BD4A00002B01D001209A
:108C800000E00020101801225205D042F2D8C81787
:108C9000C04310BD1E0400001F22030C02D10F228E
:108CA000000402D0030E03D004E000200146704708
:108CB0000002083A030F01D10001121F830F01D1F6
:108CC0008000921E002801DB4000521E1205511840
:108CD0004205C012411810467047C10FC90700D0A5
:108CE0004042012292071143D6E701218907D3E7C9
:108CF000F0B58B4C0F09254689B0BD437BD01D09CB
:108D00002646AE43FAD00E465E402740F60F3E435D
:108D1000254071D024012142FBD0FF24AD19A404C9
:108D20002D1B039501252D05DB02DB0AC9022B4310
:108D3000C90A29431E010901040F130F050121432C
:108D40001701880B820391432D098C46A90B1E4302
:108D50008A039543B30B9A0396433F09BA0B9403D6
:108D6000A74302962E467E430497B6464E19D7195E
:108D70000C460196544305977E43371B7646BF1B2E
:108D80003601B646BE0B361900967646BC04371936
:108D9000009C01D3641C00946400002F01D00126C4
:108DA0003443029E049F754366467E4304967600D4
:108DB00034196E0034190094029C019E1C196643FC
:108DC000751BAE46069465464519059C05956C4392
:108DD000594375460891691A0191049E0146514311
:108DE000A41B0491611A009C0791E10605D061095A
:108DF0000122114302E072E06EE06109089D002744
:108E00002C0A2D066918049D7C412A0A2D06691832
:108E1000019D6241AC0DAD026D185441079A910D50
:108E2000920255196141029A644658435443069B85
:108E3000059A5A43121A131B9A0E9B015B187A412A
:108E4000010B0005C3185141220A200644195A415A
:108E50009A4200D2491C01204002814203D31523CB
:108E60000226F64302E014230326F6432020C51A07
:108E7000A9401746AF40DA400A4320460399D8403C
:108E80000914731819055118039A3843D207514031
:108E9000AC4009D00122944006D30022401C51412D
:108EA000002C01D1400840001E4A934212D30122F7
:108EB00003989206904207DB0520400709181A48DC
:108EC0000143C012414004E0032040070818C10FCD
:108ED000C907002009B0F0BD0020F107FAE7051826
:108EE0000C464C4111486D42A04115D394181A46C6
:108EF0005A410E48644290410ED301204A00400579
:108F0000824209D35A00824206D35940C90F084A07
:108F1000C90700201143DDE700200649DAE7000019
:108F20000000FF07FE070000FFFFFF7F0000E0FFDB
:108F30000000F07F0000F87F0121C90501234118DE
:108F400042001B06D3185B0E0AD0C1100722D206BE
:108F5000891840075242D14201D552008918704702
:108F6000090208D50146002A03D0C10FC907002015
:108F7000704710467047420202D0002002497047F5
:108F8000072109050143F4E70000F87FF0B5FF254C
:108F90002D04C609C209FF2704462E400137CB091C
:108FA0003E4348402A402B400746002A6BD0002B06
:108FB00069D0AA4267D0AB4265D0002800DA3246B9
:108FC0000125ED0529432C4309022002090AD21A82
:108FD0004B0C7F24E31A434C000A7C44E35C7D2461
:108FE0002404121914145B00A218884201D3521CE5
:108FF00000E0400049420C465C4324115C43DB0125
:109000006415E318040A5C43C502200D0C46444372
:109010006419250A5D432303EC0C0D4665430003E8
:109020000019EB184C42A34201D35B18401CD40535
:109030002018002B07D05B00C91804D3401C00295E
:1090400001D1400840003F2189048A4209D3002A07
:1090500008DC1106090F04D0032149074018C00F8E
:10906000C007F0BD01224100120689187F22520676
:109070009142F6D205214907C84201D59010F0BDB2
:10908000FF20C005F0BD002F00DA32461648AA4284
:1090900007D2AB4205D21902090E17D0F80FC0074C
:1090A000F0BDFF2563002D06AB42F9D84900A94267
:1090B000F6D8AB4201D1A942F2D0A94201D1002198
:1090C00001E061004908D0050843F0BD1102090E16
:1090D000FBD0FF200243D005F0BD0A4601461046F2
:1090E00054E7000042BF00000000C07F10B50146F9
:1090F0009E240002CA15A307002A02D01843002AA2
:1091000004DBA21A002A0CDDD04010BD1206120E9C
:1091100001D140004008A21A03D4D04040420028A8
:10912000F3DDFF2248001206904201D9002010BD55
:10913000C817C043584010BD0102C21504D0012316
:10914000DB071943002A0ADB9E239A1A02D4084639
:10915000D0407047FF2241001206914201D9002001
:109160007047C017C04370471F22030C02D10F2263
:1091700000041CD0030E01D10002083A030F01D1F4
:109180000001121F830F01D18000921E002801DB15
:109190004000521ED2055118021251181922904057
:1091A00004D3491C002801D14908490008467047EA
:1091B000C10FC90700D04042012292071143D3E7F3
:1091C00001218907D0E70000F8B5224C4E00069D2A
:1091D000A6420AD8A64201D1002806D15E00A642C6
:1091E00003D8A6420AD1002A08D00D24240425421F
:1091F0002CD02946002000F061F8F8BD0C461C4335
:109200000CD4994202D0EFF30080F8BD904202D016
:10921000EFF30080F8BDEFF30080F8BD09242407C8
:10922000E5008B4206D0EFF30080A043591A06D226
:10923000284304E0101A05D3EFF30080A04380F325
:109240000088F8BDEFF30080A043F1E7009500F03F
:109250004DF8F8BD0000E0FF10B5FF231B064400E9
:109260009C421DD84C009C421AD80346124A0B431C
:1092700007D4401A02D3EFF3008010BDEFF3008053
:1092800010BD081A06D2EFF3008001219043C907F0
:10929000084302E0EFF30080904380F3008810BDA4
:1092A0000D231B041A4204D01146002000F006F8DA
:1092B00010BD00F025F810BD00000090C80212D5C6
:1092C0004803400F002804D0C803C0430121884050
:1092D0007047EFF3008000010009032109070843EC
:1092E00080F30088704700207047000010B5002010
:1092F0000249029A00F033F810BD00000000F87F28
:1093000010B5024800F02BF810BD00000000C07F2F
:10931000754600F053F8AE46050069465346C0084E
:10932000C000854618B020B5FEF750FF60BC00278E
:109330004908B6460026C0C5C0C5C0C5C0C5C0C521
:10934000C0C5C0C5C0C5403D49008D46704710B579
:109350000446C046C0462046FEF7FDFE10BD10B5CF
:109360000C461107090F092904D00A290AD0082937
:109370000CD104E011460820FFF7A0FF06E05106DB
:1093800006D501E0510601D50120C007214610BDD8
:10939000D10607D501010909CC084907000E0006CE
:1093A000044309E0410F20024907000A0143200E4F
:1093B00000061D22D14101430846E7E700487047F7
:1093C000B408002001491820ABBEFEE726000200C9
:1093D000704710B50B460021846A1C43846200BFAD
:1093E0000C4614432146416110BD002904D0826817
:1093F00001231A43826003E0826802231A438260D9
:109400007047002904D0C26801231A43C26003E0F8
:10941000C26852085200C2607047C26802239A4371
:10942000C260C2680A43C2607047000010B50446BB
:109430000548844207D10121401500F0A3FF002117
:10944000601500F09FFF10BD0024014030B50146BB
:109450000020002200238C680125ED072C438C603E
:1094600000BF8C68E30FDB07521C0F242403A242C9
:1094700001D0002BF5D18C68E40FE407002C01D15A
:10948000086C00E0002030BD30B50246002000230B
:10949000012424060C40002C05D0946801252D06DB
:1094A000AC43234600E013681C460C40002C01D05E
:1094B000012000E0002030BD10B50022C268084B3A
:1094C0001A400C7964030B6823438C682343CC68EF
:1094D00023430C6923434C6923431A43C26010BDE4
:1094E00003D2FFFF8168042211438160704700218D
:1094F000016001718160C1600161416170470000DC
:10950000002807D0074989680122D2051143054A7E
:10951000916006E0034989680122D2059143014A1E
:109520009160704700270140002807D007498968EB
:10953000012212061143054A916006E00349896839
:10954000012212069143014A9160704700270140B1
:10955000002807D007498968012292051143054A6E
:10956000916006E003498968012292059143014A0E
:109570009160704700270140002904D0012907D0DD
:10958000022911D10AE0826880231A4382600CE02C
:1095900082680123DB031A43826006E082680123AC
:1095A000DB051A43826000E000BF00BF7047000087
:1095B00010B501235B02CA1A994242D010DC20295F
:1095C00030D006DC012924D0042925D0082948D12F
:1095D00025E0402929D0CA1FF93A002A41D12DE0BF
:1095E0003F246402131BA24236D009DCFF3AFF3A43
:1095F000023A002A28D001239B02D21A31D126E058
:109600000122D2039A1A13D001231B04D21A28D1A3
:1096100011E0154A826025E00822C26022E0102293
:10962000C2601FE0082202611CE01022026119E002
:109630000822426016E01022426013E004224260D9
:1096400010E0042242600DE0042242600AE00022A1
:1096500082610422426005E00022826104224260AD
:1096600000E000BF00BF10BD0101010010B50446BD
:109670000121480600F066FE00210120400600F0AE
:1096800061FE10BD70B504460D4600266069284095
:1096900000286FD0FF210131681A8D4264D010DCA0
:1096A000082D3DD006DC012D28D0022D2CD0042D14
:1096B0007BD12FE0102D39D0202D3DD0402D74D1FD
:1096C00040E07F221202811A904268D00DDCFF3800
:1096D000013800284FD0FF38FF380238002850D01A
:1096E00001218902401A60D151E00120C003081A0B
:1096F0002ED001210904401A57D12FE0A0682E492D
:1097000001F002FC064652E0E068032101F0FCFB98
:1097100006464CE0E068082101F0F6FB064646E00C
:10972000E068102101F0F0FB064640E020690321CB
:1097300001F0EAFB06463AE02069082101F0E4FB6B
:10974000064634E02069102101F0DEFB06462EE0DB
:109750006068082101F0D8FB064628E06068102107
:1097600001F0D2FB064622E0A069012101F0CCFB0A
:1097700006461CE01CE0A069022101F0C5FB06467C
:1097800015E0A069042101F0BFFB06460FE0A069C7
:10979000702101F0B9FB064609E006E0FFE76068CA
:1097A000042101F0B1FB064601E0002600BF00E005
:1097B0000026304670BD00000101010030B50246B0
:1097C0000020002314680225AC43146014680125AE
:1097D0002C43146000E05B1C5468E407E40F002C89
:1097E00002D13C4CA342F6D15468E407E40F002CAC
:1097F00001D100206DE08C79012C04D11468802502
:109800002C43146003E014688025AC431460CC79C9
:10981000012C04D1146840252C43146003E0146823
:109820004025AC4314600C7A012C04D11468202527
:109830002C43146003E014682025AC4314604C7A78
:10984000012C04D1146810252C43146003E0146823
:109850001025AC4314608C7A012C04D114680825BF
:109860002C43146003E014680825AC431460CC7AE0
:10987000012C04D1146804252C43146003E01468FF
:109880000425AC4314608C78A407CD782D062C43B6
:109890000D792D042C434D792D052C430D886D1E1B
:1098A0002C43D4611468640864001460002300E051
:1098B0005B1C5468E407E40F002C02D0054CA34263
:1098C000F6D15468E407E40F002C01D0002000E03A
:1098D000012030BDFFFFFF0010B50C010346FF3330
:1098E000B1331B59042423401372137A002B07D180
:1098F0000C010346FF33B1331B595B0D136006E0C7
:109900000C010346FF33B1331B59DB0853600C01D4
:109910000346FF33B1331B590224234053720C0119
:109920000346FF33B133E3185B681B071B0F9372C9
:109930000C010346FF33B133E3185B681B041B0EB5
:10994000D3740C010346FF33B133E3189B68D37221
:109950000C010346FF33B133E3189B681B041C0E54
:1099600014730C010346FF33B133E3189B681B02E9
:109970001C0E54730C010346FF33B133E3189B688C
:109980001B0E93730C010346FF33B133E318DB68FE
:10999000D3730C010346FF33B133E318DB681B04B8
:1099A0001C0E14740C010346FF33B133E318DB685B
:1099B0001B021C0E54740C010346FF33B133E31831
:1099C000DB681B0E9374002904D1C3682024234351
:1099D000C36003E0036920242343036110BD002119
:1099E0008171C171017241728172C1728170C170E5
:1099F000032101710221417101210180704730B5BD
:109A00000246002093680124A4062340A34200D10B
:109A100010E093680124E4062340A34201D1012011
:109A200008E09368012424072340A34201D10220C7
:109A300000E0042004287BD004011346FF33813367
:109A40001B59DC07E40F05011346FF3381335C51DA
:109A50000B7A002B0FD10B885B054C7A2343050151
:109A60001446FF3481346459234305011446FF34FE
:109A70008134635110E04B68DB000C7A23434C7A4D
:109A8000234305011446FF348134645923430501FF
:109A90001446FF34813463518B7A1B071B0F8B7282
:109AA00004011346FF338133E3185B681C0924016A
:109AB00005011346FF338133EB185C600401134644
:109AC000FF338133E3185B688C7A23430501144626
:109AD000FF3481342C1963608B7B1B064C7B240480
:109AE00023430C7B24022343CC7A234305011446F1
:109AF000FF3481342C19A3608B7C1B064C7C24041E
:109B000023430C7C24022343CC7B234305011446CE
:109B1000FF3481342C19E36004011346FF33813391
:109B20001B590124234305011446FF34813463513A
:109B300030BD000010B502460023002904D00129E1
:109B400007D002290FD109E09068204C204003463D
:109B50000BE090681E4C2040034606E090681D4CC8
:109B60002040034601E0002300BF00BF1A4C181B31
:109B7000A3421BD008DC002B14D01848181800286A
:109B800012D002281CD115E0FF38FF380238002817
:109B900012D0134C001900280AD001246404001BC1
:109BA0000ED10BE002230DE000230BE0002309E0BF
:109BB000002307E0012305E0012303E0012301E086
:109BC000002300BF00BFD8B210BD00000300000496
:109BD000000300080000031000010008FFFFFFFB66
:109BE0000003FFF710B502211548FFF74BFD0128D0
:109BF0000FD1012113480170C21FFD3A0021104806
:109C0000FFF76AFE104803F0F3F902210C48FFF752
:109C1000CFFC10210A48FFF735FD01280ED10121A4
:109C200008480170C21FFD3A0548FFF755FE064877
:109C300003F0DEF910210248FFF7BAFC10BD000066
:109C400000640040840800206407002010B5022052
:109C500000F0EEF8002867D0022000F069F83348E1
:109C6000808E001D81B23148818600200FE02F498F
:109C700040390A6FC1004118491D4B002B49BC39BE
:109C8000C95A5218294940390A67411CC8B20428E8
:109C9000EDDB012109030920C00600F099FA002834
:109CA00042D100BF3EE021494039CA6DC100411890
:109CB000491C4B001D49BC39C95A52181B4940392F
:109CC000CA650A6EC1004118891C4B001749BC398E
:109CD000C95A5218154940390A664A6EC1004118DE
:109CE000C91C4B001149BC39C95A52180F49403997
:109CF0004A668A6EC1004118091D4B000B49BC39E8
:109D0000C95A5218094940398A66CA6EC1004118B9
:109D10004B000649BC39C95A521804494039CA6631
:109D2000411CC8B20428BEDB10BD00007802002030
:109D3000014948607047000000000240002904D03B
:109D4000026801231A43026003E00268014B1A40D3
:109D500002607047FEFF00000168334A1140016055
:109D60000021016041608160C1603049884208D1B2
:109D70002E49083949680F2211432C4A083A51608C
:109D800051E02A491431884208D1284908394968E4
:109D9000F0221143254A083A516044E02349283112
:109DA000884209D12149083949680F22120211431A
:109DB0001E4A083A516036E01C493C31884209D1BC
:109DC0001A49083949680F2212031143174A083A01
:109DD000516028E015495031884209D113490839AA
:109DE00049680F2212041143104A083A51601AE0E0
:109DF0000E496431884209D10C49083949680F225B
:109E000012051143094A083A51600CE007497831BC
:109E1000884208D10549083949680F2212061143C2
:109E2000024A083A51607047FEFF000008000240F5
:109E300001460020044A12680A40002A01D001208D
:109E400000E000207047000000000240002A03D01C
:109E500003680B43036002E003688B4303607047B1
:109E600010B5002202680D4B1A400C6A8B68234320
:109E70000C6923434C6923438C692343CC692343F6
:109E80004C6A23438C6A23431A430260CB684360C5
:109E90000B6883604B68C36010BD00000F80FFFF3C
:109EA0000021016041608160C160016141618161A7
:109EB000C1610162416281627047000010B50120FA
:109EC000400300F007F801200149C87110BD0000EF
:109ED000600500200149486170470000000401400E
:109EE000002120498279002A35D00A461268036889
:109EF0009A430B461A600A46526803689A430B4617
:109F00005A60027951180A6803681A430A60154AB0
:109F1000926803689A43134B9A601A46D2680368A2
:109F20009A43104BDA604279102A0CD11A46926893
:109F300003681A430B4B9A601A46D26803681A43A7
:109F4000084BDA600DE00749427951180A68036846
:109F50001A430A6005E0027951180A6803689A43B7
:109F60000A6070470004014030B5044604250B2008
:109F7000000400F0AFF80546042D17D10C48006925
:109F8000022108430A4908610846446100694021EA
:109F90000843074908610B20000400F09BF80546C0
:109FA000034800690221884301490861284630BD01
:109FB0000020024004200D49C968C907C90F0029C3
:109FC00001D0012010E00949C96810221140002980
:109FD00001D0022008E00549C96804221140002987
:109FE00001D0032000E00420704700000020024060
:109FF0000348006980210843014908617047000057
:10A0000000200240002806D00649096810221143AA
:10A01000044A116005E00349096810229143014A8E
:10A02000116070470020024078B506460C460425B2
:10A03000002000900B20000400F04CF80546042D91
:10A0400024D1134800690121084311490861348073
:10A050000B20000400F03EF80546042D10D1B01C82
:10A060000090200C009908800B20000400F032F8CA
:10A07000054607480069400840000549086105E0B9
:10A08000034800694008400001490861284678BD3E
:10A090000020024001460020044A106840084000A9
:10A0A00002460A431046014A1060704700200240F1
:10A0B0000548006980210840002804D0034802496F
:10A0C000486003484860704700200240230167450C
:10A0D000AB89EFCD10B503460424FFF76BFF0446B0
:10A0E00003E0FFF767FF04465B1E012C01D1002B44
:10A0F000F7D1002B00D10524204610BDF0B50A464B
:10A1000000210023002400BF3DE001258D402B46A7
:10A1100015681D402C469C4234D11579012D02D082
:10A120001579022D16D185684F000326BE40B54330
:10A13000856055794E00B5408668354385608588D1
:10A1400001268E40B5438580858896798E40B6B2CB
:10A150003543858005684F000326BE40B543056042
:10A1600015794E00B540066835430560C5684F0057
:10A170000326BE40B543C560D5794E00B540C668DC
:10A180003543C560491C1029BFD3F0BDF0B500238D
:10A1900000244D07EE0E1546B5402B46CD10AE00FF
:10A1A00005462035AD594E07F70E0F26BE40B54384
:10A1B000CE10B60007462037BD51CD10AE003D464B
:10A1C000AD591D432C46CD10AD003E467451F0BD37
:10A1D00002460020138A0B40002B01D0012000E032
:10A1E0000020704701857047816170470449016014
:10A1F000002101710121417100218171C1717047FC
:10A20000FFFF0000002A01D0816100E00185704756
:10A2100000BFBFF34F8F04480449C860BFF34F8F9E
:10A2200000BF00BFFEE700000400FA0500ED00E0FB
:10A230000148024908607047CCCC00000030004063
:10A240000148024908607047AAAA00000030004097
:10A2500001494860704700000030004001498860B3
:10A26000704700000030004001490860704700005E
:10A27000003000407047000000218278002A27D07B
:10A28000184A03231B02D21803789B109B00D15855
:10A2900002789207D30EFF229A400B469343194649
:10A2A00042789207120E03789B07DB0E9A40114307
:10A2B0000C4A03231B02D21803789B109B00D15039
:10A2C0000278D306DB0E01229A40064B1A6007E0A3
:10A2D0000278D306DB0E01229A40024B80331A60CB
:10A2E0007047000000E100E005490969042291433C
:10A2F000034A1161012801D130BF00E020BF70473F
:10A3000000ED00E0002905D0054A52690243044BE4
:10A310005A6104E0024A52698243014B5A61704714
:10A3200000100240002905D0054AD2690243044BBF
:10A33000DA6104E0024AD2698243014BDA61704774
:10A3400000100240002905D0054A12690243044B5F
:10A350001A6104E0024A12698243014B1A61704794
:10A3600000100240002905D0054A92690243044BBF
:10A370009A6104E0024A92698243014B9A617047F4
:10A3800000100240002905D0054AD2680243044B60
:10A39000DA6004E0024AD2688243014BDA60704717
:10A3A0000010024010B50246002100230020511188
:10A3B000002902D10C4C23680BE0012902D10A4C80
:10A3C000236A06E0022902D1074C636A01E0064CC9
:10A3D000636BD106C90E01248C401C40002C01D0B7
:10A3E000012000E0002010BD00100240002806D02F
:10A3F0000649496A01221143044A516205E00349B2
:10A40000496A49084900014A5162704700100240F8
:10A4100010B56021054800F023F8002804D0034857
:10A4200000F03AF8044600BF10BD000000380040BC
:10A43000002904D0028840231A43028003E00288E6
:10A44000014B1A4002807047BFFF00000246002007
:10A4500013890B40002B01D0012000E00020704741
:10A46000F0B5024600200024002300250F073F0F0F
:10A470000126BE40B4B20B1101269E40B3B29688AD
:10A480001E40354616892640002E03D0002D01D0EF
:10A49000012000E00020F0BD0146888970470000DF
:10A4A00010B500220288C1239B011A400B88CC8979
:10A4B0002343CC8823430C8923434C8923438C8931
:10A4C00023431A4302808288084B1A408B881A4320
:10A4D00082800B8A03820288054B1A404B881A43FC
:10A4E0000280838B034C2340838310BDFFF0000068
:10A4F000FBFF0000FFF70000014600220A460C3275
:10A50000107870478288034B1A40828082880A4301
:10A5100082807047FFEF0000002202460C3211706B
:10A5200070470021018041800721090281800021BC
:10A53000C180018141818181C181072101827047F0
:10A5400030B500228B071C0F0F23A3401A460B4B7C
:10A550008C10A4001B599343084C8D10AD0063511F
:10A5600023468C10A4001B598C07250F0446AC40D1
:10A570002343024C8D10AD00635130BD08000140F3
:10A5800001460020044A10688008800002460A4301
:10A590001046014A106070470000014000B50248B3
:10A5A00002F03DFE00BD000098010020F8B5002536
:10A5B000002400260027274840680C210840054653
:10A5C000002D06D0042D08D0082D0AD00C2D2ED138
:10A5D00029E02148214908602DE021481F490860F1
:10A5E00029E01C4840680F218904084004461948A6
:10A5F00040680321C90308400646A00C841C002EB5
:10A6000004D118486043154908600BE01148C06A3E
:10A610000007000F471C39461148FDF713FE604341
:10A620000E49086007E010480C49086003E00A483A
:10A630000A49086000BF00BF06484068F021084092
:10A6400000090A490D5C05480068E84003490860B4
:10A65000F8BD00000010024000127A000001002046
:10A660000024F40000093D00006CDC02EC4001080D
:10A6700010B51B48006801210843194908600846C5
:10A68000406818490840164948600846006816495D
:10A69000084013490860084600680121890488437E
:10A6A0000F490860084640687F21C90388430C4968
:10A6B00048600846C06A00090001C8620846006B8D
:10A6C000FF2154318843064908630846406B074917
:10A6D0000840034948630020886000F069FB10BD12
:10A6E000001002400CB8FF80FFFFF6FEFEFFFEFFE9
:10A6F00010B50221044800F0E4F8002803D002213C
:10A70000014800F0BBF810BD0020004010B510213A
:10A71000114800F0D6F800281DD010210E4800F096
:10A72000ADF80121C9020920C006FFF751FD00283C
:10A7300001D0012000E000200849C8730846C17B11
:10A7400008F03CF90548807BFF2804DA0348807B49
:10A75000401C0249887310BD002C0140CC0200202F
:10A7600010B50821C80600F0ACF8002812D0082166
:10A77000C80600F083F808210748FFF729FD0028E4
:10A7800005D106480088401C0449088002E00020EA
:10A790000249088010BD0000000400483403002076
:10A7A00010B50421184800F08CF8002812D00421BC
:10A7B000154800F063F820211448FFF709FD002830
:10A7C00005D11348008B401C1149088302E000208A
:10A7D0000F49088308210C4800F073F8002812D0B4
:10A7E0000821094800F04AF820210848FFF7F0FC4A
:10A7F000002805D10648408B401C0549488302E0EB
:10A8000000200349488310BD0004004000040048B4
:10A810001003002010B50121074800F052F800286D
:10A8200008D00121044800F029F8012003490870EC
:10A830000349087010BD0000001000400501002011
:10A8400098010020002904D0028880231A43028046
:10A8500003E00288014B1A40028070477FFF00002E
:10A86000002904D0828801231A43828003E0828871
:10A87000014B1A4082807047FEFF0000CA430282EB
:10A8800070470000002904D0028801231A43028087
:10A8900003E00288014B1A4002807047FEFF00006F
:10A8A000002907D04422125A0123DB031A43442310
:10A8B0001A5205E04422125A53045B0C44221352EC
:10A8C000704730B50246002000230024158A0D4051
:10A8D0002B4695890D402C46002B03D0002C01D02F
:10A8E000012000E0002030BD70B505460C462088F0
:10A8F00000280AD12389A2886188284600F0CAF975
:10A90000E188284600F03EF925E0208804280AD195
:10A910002389A2886188284600F0D8F9E188284672
:10A9200000F03AF917E0208808280AD12389A28884
:10A930006188284600F0F0F9E188284600F038F9EF
:10A9400009E02389A2886188284600F009FAE18895
:10A95000284600F037F970BD0021018041800121B7
:10A9600081800021C18001817047002A03D0838942
:10A970000B43838102E083898B438381704700000E
:10A9800070B5002400220023058C1C4E3540058440
:10A99000028C8388048B194D6F3D2C40B51E2C40D2
:10A9A0000D882C43751E2A408D892A434D882A43E1
:10A9B000134DA84208D0134DA84205D0124DA8420D
:10A9C00002D0124DA84212D10C4DED1F2A40CD8964
:10A9D0002A430A4DED1E2A408D882A43074DFF3D2C
:10A9E0002B400B4D2B400D8A2B434D8A2B438380EC
:10A9F00004838D684563028470BD0000FEFF000083
:10AA0000002C01400040014000440140004801404A
:10AA1000FFFD00000A460021018B034B19400B4645
:10AA20001343194601837047F7FF000070B50024F7
:10AA300000220023058C214E35400584028C83883A
:10AA4000048B1F4D2C401F4D2C400D782D062D0CD6
:10AA50002C431A4D103D2A408D892D052D0C2A437B
:10AA60004D882D052D0C2A43174DA84202D0174DB5
:10AA7000A8421CD1164D2B400D8AAD042D0C2B4342
:10AA8000114DA84213D10D4D703D2A40CD892D05A1
:10AA90002D0C2A43094D303D2A408D882D052D0C63
:10AAA0002A430C4D2B404D8AAD042D0C2B43838043
:10AAB00004838D688563028470BD0000EFFF000091
:10AAC000FF8F0000FFFC0000002C0140004001400F
:10AAD000FFFB0000FFF7000070B5002400220023F8
:10AAE000058C1C4E35400584028C8388848B194D5F
:10AAF00090352C40174DFD352C400D882C43164DBC
:10AB00002A400D7B2D062D0C2A438D782D062D0C09
:10AB10002A43124DA84217D1114D2A408D7B2D0694
:10AB20002D0C2A430F4D2A400D792D062D0C2A435A
:10AB30000D4D2B400D4D2B400D8A2D052D0C2B431B
:10AB40004D8A2D052D0C2B43838084838D68C5632E
:10AB5000028470BDFFFE0000FFFD0000002C0140DC
:10AB6000FFF70000FFFB0000FFEF0000FFDF000029
:10AB7000002101804180818081608181C1810182C9
:10AB800041827047028B034B1A400283028B0A43B7
:10AB900002837047F3FF0000028B044B1A400283CC
:10ABA000028B0B061B0C1A4302837047FFF3000055
:10ABB000828B034B1A408283828B0A4382837047C5
:10ABC000F3FF0000828B044B1A408283828B0B06BA
:10ABD0001B0C1A4382837047FFF300000022028897
:10ABE000154B984206D001239B07984202D0134B85
:10ABF000984203D1124B1A404B881A43114B98428A
:10AC000003D0114B1A400B891A4302804B68C36270
:10AC10000B880385084B984208D00C4B984205D00E
:10AC20000B4B984202D00B4B984201D18B7A038692
:10AC30000123838270470000002C01400004004083
:10AC40008FFF000000100040FFFC000000400140AA
:10AC500000440140004801400021C94341600021F7
:10AC60000180018141808172704700000348806843
:10AC700003210843014988607047000000400240FA
:10AC800010B504462146024806F002FC10BD000043
:10AC9000B8010020F0B50C4600210025068C0A4FB3
:10ACA0003E400684018B058C074EF23E31401E0566
:10ACB000360C16433143044E093E354001262643E7
:10ACC000354301830584F0BDFEFF0000F8B50C4656
:10ACD0000021002500260096068C0D4F3E4006847C
:10ACE000018B058C2605360C00960A4E31401E0756
:10ACF000360C31431606360C3143054E903E354036
:10AD00001027009E3E43354301830584F8BD0000B3
:10AD1000EFFF0000FF0C0000F8B50C4600210025F5
:10AD200000260096068C0C4F3E400684818B058CD5
:10AD30002606360C0096084E0D3631401E05360CA0
:10AD400016433143054E3540FF270137009E3E43F1
:10AD5000354381830584F8BDFFFE0000FFF5000048
:10AD6000F8B50C460021002500260096068C0D4FF4
:10AD70003E400684818B058C2607360C00960A4ED1
:10AD800031401606360C31431E07360C3143074E50
:10AD9000354001273F03009E3E43354381830584B0
:10ADA000F8BD0000FFEF0000FF0C0000FF5F000097
:10ADB0000CB5002001900090112031490860314805
:10ADC0004068304948600846406848600846006866
:10ADD0000121090408432B49086000BF2948006885
:10ADE00001214904084000900198401C01900098FE
:10ADF000002804D10521090301988842EED1214899
:10AE00000068012149040840002802D00120009078
:10AE100001E000200090009801280DD119484068F9
:10AE20007F21C903884317494860084640681321B9
:10AE300009040843134948601248006801210906C3
:10AE400008431049086000BF0E4800680121490608
:10AE500008400028F8D00B48406880088000094965
:10AE6000486008464068022108430649486000BF20
:10AE7000044840680C2108400828F9D10CBD0000A6
:10AE8000002002400010024070B50446206A0028ED
:10AE900002D0206A804770BD207D030008F05CFD71
:10AEA0000504070A0D111A006068057814E060684F
:10AEB000058811E0606805680EE000256068455F60
:10AEC0000AE060680078002801D0012000E000203E
:10AED000054601E0002500BF00BFE08A012801D03F
:10AEE000E08A4543208B002802D01820205E4519B7
:10AEF0002846D0E7022801D0042800D900200149C3
:10AF0000C8867047840600200246002013460B4086
:10AF1000002B01D0012000E00020704770B50446EE
:10AF20000E46701C002801D1A5681EE03546208B16
:10AF3000002802D01820205E2D1AE08A012804D0B3
:10AF4000E18A2846FDF77EF90546E068401C0028A6
:10AF500003D0E068A84200DDA5682069401C0028F5
:10AF600003D02069A84200DAA568E069002803D070
:10AF70002846E169884770BD207D030008F0ECFC9D
:10AF80000504070A0D11190061680D7011E0616870
:10AF90000D800EE0606805600BE028B261680880F3
:10AFA00007E0002D01D0012000E00020616808705A
:10AFB00000BF00BF00BFDEE7C206D20E01219140F4
:10AFC000014A11607047000000E100E0C206D20EA5
:10AFD00001219140014A11607047000080E100E0CA
:10AFE00010B5002819DA1A4A03071B0F083B9B0803
:10AFF0009B00D2588307DC0EFF23A3409A438B07A4
:10B000001B0E8407E40EA3401A43114B0407240FC0
:10B01000083CA408A4001A5118E00E4A03231B029E
:10B02000D21883089B00D2588307DC0EFF23A3406D
:10B030009A438B071B0E8407E40EA3401A43054B6B
:10B04000032424021B198408A4001A5110BD000017
:10B050001CED00E000E100E010B5002819DA1A4A02
:10B0600003071B0F083B9B089B00D2588307DC0E8D
:10B07000FF23A3409A438B071B0E8407E40EA340D3
:10B080001A43114B0407240F083CA408A4001A51CA
:10B0900018E00E4A03231B02D21883089B00D258E3
:10B0A0008307DC0EFF23A3409A438B071B0E840704
:10B0B000E40EA3401A43054B032424021B19840801
:10B0C000A4001A5110BD00001CED00E000E100E0FA
:10B0D00010B5002819DA1A4A03071B0F083B9B0812
:10B0E0009B00D2588307DC0EFF23A3409A438B07B3
:10B0F0001B0E8407E40EA3401A43114B0407240FD0
:10B10000083CA408A4001A5118E00E4A03231B02AD
:10B11000D21883089B00D2588307DC0EFF23A3407C
:10B120009A438B071B0E8407E40EA3401A43054B7A
:10B13000032424021B198408A4001A5110BD000026
:10B140001CED00E000E100E00549C8758A7DC97D7D
:10B150008A4204DD002202498A750922CA757047B5
:10B1600084060020054988758A7DC97D8A4204DDF0
:10B17000002202498A750922CA7570478406002098
:10B1800010B504462146024801F040FC10BD000005
:10B190006005002010B50446092C03D00C2C01D00A
:10B1A000122C03D1A1B2024801F0CEFA10BD00006A
:10B1B000340300200748007800060649497809044E
:10B1C000401804498978090240180249C978401892
:10B1D0007047000054070020074800790006064920
:10B1E000497909044018044989790902401802493B
:10B1F000C979401870470000540700200748007ABA
:10B2000000060649497A090440180449897A090266
:10B2100040180249C97A40187047000054070020BE
:10B22000010E054A11700102090E51700104090E48
:10B230009170D0707047000054070020010E054A3D
:10B2400011710102090E51710104090E9171D07141
:10B250007047000054070020010E054A11720102D8
:10B26000090E51720104090E9172D07270470000EC
:10B270005407002010B50120FFF7B8F800BF4120A7
:10B28000FFF790F80028FAD00648FEF7EDFF0420FB
:10B29000FEF7DEFF0448FEF7E1FFFEF7D1FFFEF701
:10B2A000C7FF10BD55550000FF0F00001CB5044638
:10B2B00000200090019001218804FFF723F86846E0
:10B2C000FEF794FF402000900121684601710321A0
:10B2D000417169460C48FEF711FF40210A48FEF70C
:10B2E00081FF6846FEF782FF0120C0020090002126
:10B2F000684601710121C17103214171694602480B
:10B30000FEF7FCFE1CBD0000000400480021C170D7
:10B31000C171704700B50246D078002804D00021E2
:10B32000104600F071F80DE007488079002804D03D
:10B330000121104600F068F804E003480178104647
:10B3400000F062F800BD00008808002010B5044637
:10B350000121C9020148FEF73BFF10BD000400486F
:10B3600010B504461E4801F057FF1E490968401AEF
:10B37000642819D31A4801F04FFF1A490860207950
:10B38000002811D00121C9021748FEF721FF00282B
:10B3900008D1E079401CE071E079782804DD0120D3
:10B3A000E07001E00020E0712079002801D0012048
:10B3B00000E00020024640210B48FEF723FFA07961
:10B3C00000280BD06079002804D140210648FEF700
:10B3D00009FF03E040210448FEF706FF10BD00000E
:10B3E000980100204C0100200004004870B505467B
:10B3F00040210448FEF7ECFE0446012C00DD012448
:10B40000204670BD000400480171704710B5044625
:10B4100008222146034801F006FF012020706070D9
:10B42000204610BD9801002070B506460C46154612
:10B4300029462046FEF7F8FD70BD10B504460120F0
:10B44000FEF7E0FD0120FEF725FE10BD70B50546B4
:10B450000C46FEF72DFE2046FEF786FDFEF7C8FDE2
:10B460000B200004FEF736FE70BD024608687047E8
:10B47000704700001CB50446002000900190012197
:10B48000C804FEF73FFF6846FEF7B0FE01208003C8
:10B4900000900121684601710321417169460D4800
:10B4A000FEF72CFE012189030A48FEF79BFE684641
:10B4B000FEF79CFE0120C003009000216846017148
:10B4C0000121C1710321417169460248FEF716FE50
:10B4D0001CBD00000008004800210171417141724B
:10B4E0008172704710B504460121C9030148FEF777
:10B4F0006FFE10BD000800480121C1727047002195
:10B50000C172704770B504460D463C480078C007CC
:10B51000C00F00280CD1394808F02CFA002807D0B9
:10B52000374801F079FE374908603448C046C046C4
:10B53000334801F071FE33490968401A7D21C90082
:10B5400088422FD32E4801F067FE2E490860012162
:10B5500089032D48FEF73CFE012811D1C1032A487A
:10B56000FEF736FE002808D1607A401C6072607ACF
:10B57000052817DD0120207114E00020607211E021
:10B580000121C9032048FEF723FE002808D1A07A34
:10B59000401CA072A07A052804DD0120607101E042
:10B5A000002060721948007900281ED020790028F8
:10B5B0001BD16079002818D1205EA84206DC012149
:10B5C00089031148FEF70EFE002020720020205E45
:10B5D0000221615E401AA8420EDB012189030A485C
:10B5E000FEF702FE0120207206E0012189030648D1
:10B5F000FEF7F8FD0020207270BD00005801002009
:10B60000980100205C01002000080048440100204F
:10B6100070B50546012189030448FEF7D9FD0446AB
:10B62000012C00DD0124204670BD00000008004808
:10B6300010B504460C222146074801F0F4FD4620CF
:10B6400020800A2060800020207160716072A072EA
:10B650002072204610BD00009801002010B504465D
:10B6600000202070012109030920C006FEF7BCFD5F
:10B670001148FDF7DBFE00210F48FDF7B6FE09205B
:10B68000FFF7A4FC0E20FFF7A1FC1320FFF79EFCA0
:10B6900006200A4908610120FEF726FE002108481D
:10B6A0000170072005490861064805F0FDFE0648BF
:10B6B00007F01CF810BD00000024014000E000E08D
:10B6C000B8020020B8010020CC0200200021017047
:10B6D00070470000F0B585B0044623484078002844
:10B6E00001D005B0F0BD2148007800283AD00020F4
:10B6F0001E490870E078FDF763FD01901A48803814
:10B70000C16A019808F006FC0746FDF715FC002207
:10B71000174B03910290FDF741F80546FCF754FEE4
:10B720006060114A803A6168906908F04BFC0CD265
:10B73000207A142802DA207A401C2072207A042809
:10B7400010D10120207060700CE0207A002807D012
:10B75000207A401E2072207A012803D1A07001E0D7
:10B760000020207000BFBCE7B80200209801002034
:10B770000000594010B504460C222146044801F04F
:10B7800052FD0020207020726070A070204610BD15
:10B79000980100200622825E04491E23CB5E9A4255
:10B7A00001DDC98BC180C18801817047380200204A
:10B7B0000021417570470021017041708170C17096
:10B7C000017141718175C175017670470021417623
:10B7D0008176C176012101757047000030B50146C0
:10B7E0001948C07A002803D11748407B002801D0AF
:10B7F000012030BD087F002823D114481E22825E1C
:10B800000620085E323082421BDD08240C5F0F4B9D
:10B810001E255D5F6B00EB18E218D3179B0F9B187A
:10B820009B10581F08228A5E824201DA02B20A8106
:10B830004A7F521C4A774A7F1E2A01DD01220A777D
:10B8400000BF087FD5E70000A401002038020020D7
:10B8500070B504460A49886AFDF76EFB0546094A39
:10B86000094B08F0B3FA08D2607E401C6076607E17
:10B870000A2804DD0020207501E00020607670BDFC
:10B88000E8040020FA7E6ABC7493683F10B5044651
:10B890000F48C07A002803D10D48407B002801D012
:10B8A000012010BD204600F057F8002801D00120EB
:10B8B000F7E708481E21415E0620205E32308142B3
:10B8C00003DD002020750120EBE70020E9E7000000
:10B8D000A4010020380200204179491C4171084927
:10B8E000C97A002903D10649497B002900D0704755
:10B8F0004179032901DB0121417000BFF7E7000016
:10B90000A401002070B586B004460E498878FDF782
:10B91000ECF9054600220C4BFDF7EAF900220B4B2F
:10B9200001910090FCF73AFF094A0A4B03910290FB
:10B93000FCF711FF05910490FCF746FDE06006B0AE
:10B9400070BD0000CC02002000001C400064D94003
:10B9500016EB0A6C8434393F70B504461548C07A3A
:10B96000002803D11348407B002801D0012070BD7E
:10B97000207D00281BD01049886AFDF7DDFA0546B6
:10B980000E4A0F4B08F022FA0FD2A07E401CA07680
:10B99000A07E0A280BDD0B481E21415E0620205E9A
:10B9A0000A30814203DD0120E1E70020A07600207B
:10B9B000DDE70000A4010020E80400207B14AE476E
:10B9C000E17A743F3802002000B50246C720C04328
:10B9D00010810748C08BD080002050759075D075BD
:10B9E00010761046FFF7F2FE00201077507700BD6A
:10B9F0003802002070B504460D462948C07A002858
:10BA000003D12748407B002801D0002070BD607D15
:10BA1000002803D0607D401E607512E01020205E7B
:10BA20000E21C94388420ADAA07D401CA075A07D82
:10BA3000032806DB2046FFF74FFF0120E6E7002042
:10BA4000A07518481E21415E0820205E81420ADA56
:10BA5000E07D401CE075E07D032806DB2046FFF713
:10BA60003BFF0120D2E70020E075012D15D1207D9C
:10BA7000002812D00C4AE168906A08F021FA0AD234
:10BA8000E07E401CE076E07E032806DD2046FFF7DE
:10BA900023FF0220BAE70020E0760020B6E700008E
:10BAA000A401002038020020E804002038B5044634
:10BAB00033480078C007C00F00280CD1304807F089
:10BAC00059FF002807D02F4801F0A6FB2E49086037
:10BAD0002B48C046C0462D480078C007C00F00283C
:10BAE0000CD12A4807F046FF002807D0254801F06E
:10BAF00093FB274908602548C046C046214801F00D
:10BB00008BFB21490968401A7D21C900884221D355
:10BB10001C4801F081FB1C4908600A2000901D4868
:10BB20001E21415E03467F3B0246343A803805F0D1
:10BB300043FE20822046FFF7E5FE16481E21415EA7
:10BB40001220205E814203DD207E401C207601E031
:10BB5000002020760B4801F05FFB0D490968401A70
:10BB60000D4988420AD3074801F056FB084908608E
:10BB70006079002802DD6079401E607138BD0000E8
:10BB8000140100209801002018010020100100205D
:10BB90001C0100203802002040771B005021417515
:10BBA0007047000010B5044620222146084801F0E5
:10BBB0003AFB002020810748C08BE08000206075A0
:10BBC000A075E07520764B2000016082204610BDF4
:10BBD0009801002038020020F8B507460D461646A9
:10BBE00000240EE02420604308490858A84207D1E9
:10BBF00024216143054A88183146FFF78FF9F8BDC3
:10BC0000641C1F2CEED300BFF9E70000444A010872
:10BC100070B506460D4600240DE024206043084917
:10BC20000858A84206D124216143054A8818FFF725
:10BC30002BF970BD641C1F2CEFD30020C043F8E724
:10BC4000444A010870B50546284600F085F82846A4
:10BC500000F098F800240FE024216143094A881875
:10BC6000FFF712F9064624206043064A115832466F
:10BC7000284600F047F8641C1F2CEDD3284600F03E
:10BC800065F870BD444A010870B5054600240FE010
:10BC900024206043084A1158284600F00FF8064651
:10BCA00024216143044A88183146FFF737F9641CA0
:10BCB0001F2CEDD370BD0000444A0108F8B50746BB
:10BCC0000D460D4C11E021460C48FFF7CEFB064611
:10BCD000701C002801D1401EF8BDAE4204D1211DC8
:10BCE0000648FFF7C2FBF7E7083405488442EAD369
:10BCF0000020C043F0E7000000E8010880010020B8
:10BD000000F0010870B504460D4616460C49E0687F
:10BD1000884213D30B49E06888420FD82A460A4864
:10BD2000E168FFF781FBE068001DE06032460648ED
:10BD3000E168FFF779FBE068001DE06070BD00007E
:10BD400000E80108F8EF01088001002010B5044662
:10BD5000FEF74EF910BD000070B50546002407E05F
:10BD6000E002064A81180648FFF770FB601CC4B267
:10BD7000012CF5DB0148E86070BD000000E8010817
:10BD80008001002010B50446FEF792F910BD0000B6
:10BD900010B5044610222146024801F044FA20461C
:10BDA00010BD000098010020018B052901DD012153
:10BDB0008177418B052901DD0121C17770470000A2
:10BDC00010B58AB0044600200890099005900690AE
:10BDD000079014216846FCF733FA01218804FEF726
:10BDE00091FA01210220FEF79DFA08A8FEF7FEF95C
:10BDF00010200890012108A801710321417108A9B0
:10BE00003448FEF77BF910213248FEF7EBF90122A6
:10BE100004213048FEF7BAF908A8FEF7E7F9202018
:10BE20000890002108A801710121C171032141710D
:10BE300008A92848FEF762F905A8FEF70DFF264974
:10BE400068468182FF20F530069000216846818394
:10BE5000C18205A92148FEF7C1FE6846FEF788FEAB
:10BE6000602168460180012141802D20029000213F
:10BE70006846818169461948FEF782FD1748406B84
:10BE8000401F164988630846406B9630C8630122FC
:10BE900004211248FEF769FD012208210F48FEF730
:10BEA00064FD00210D48FEF7EDFC102001218140CA
:10BEB0000B4A116000BF08210848FEF7ABFD0121C5
:10BEC0000648FEF7BFFC01214804FEF71BFA0AB042
:10BED00010BD000000040048BF1200000004004034
:10BEE00000E100E00021018341838177C177704741
:10BEF000F0B58DB004460E461746207F002803D0CB
:10BF0000E66027740DB0F0BD00200A900B90212050
:10BF1000005D002800D0F5E73046FCF7E6FE002281
:10BF2000594B07910690FCF739FC09910890FCF7F2
:10BF30004BFA054665602846FCF7FEFF534A544B12
:10BF40000991089007F010FF20D22020005D002802
:10BF500018D00021202001550AA8FEF747F910202B
:10BF60000A90012108A80173032141730AA94948D5
:10BF7000FEF7C4F810214748FEF734F9002146487F
:10BF8000FEF780FC0020606060617AE02020005DA8
:10BF9000002829D10121202001550AA8FEF726F901
:10BFA00010200A90022108A8017300218173032147
:10BFB00041730AA93748FEF7A1F801220421354848
:10BFC000FEF7E4F83448808A012108433249888228
:10BFD00001213148FEF756FC2F482030008801210E
:10BFE00008432D4920310880012F25D12B49C86BEA
:10BFF0002B4907F065FF1FD22849C86BFCF79CFF4F
:10C00000059104902846FCF797FF264A264B01919C
:10C010000090FCF76DFE03910290059B049AFCF7DB
:10C0200067FE0022214B07910690FCF7B7FB0991B0
:10C030000890FCF7C9F905461D49284607F0C2FFDC
:10C0400000D21B4D2846FCF777FF0022194B0991BF
:10C05000089007F089FE01D23F252D06656128462C
:10C06000FCF76AFF02460B46079106900020124932
:10C07000FCF794FB09910890FCF7EAFD80B20649B1
:10C08000C86200BF3EE70000000059407B14AE4785
:10C09000E17AC43F0004004800040040E4040020AA
:10C0A0000000B442713D0AD7A370ED3F00405940F3
:10C0B000000020410000E03F0088C340F0B585B09B
:10C0C00004460020029003902120005D002801D04A
:10C0D00005B0F0BD2089FCF708FE054600227B4B29
:10C0E000FCF75CFB01910090FCF76EF90746207F9E
:10C0F000617F884275D0207F6077207F002805D13E
:10C10000227C2046E168FFF7F3FE6AE02089608127
:10C110003846FCF711FF05466D4A6E4B07F024FECA
:10C1200019D202A8FEF762F8102002900121684699
:10C1300001730321417302A96748FDF7DFFF102156
:10C140006548FEF74FF800216448FEF79BFB00218D
:10C150002020015545E002A8FEF748F81020029083
:10C16000022168460173002181730321417302A9F2
:10C170005948FDF7C3FF012204215748FEF706F88E
:10C180002020005D002811D15448808A01210843F5
:10C190005249888201215148FEF774FB4F482030F4
:10C1A0000088012108434D49203108804C49384618
:10C1B00007F008FF00D24A4F67613846FCF7BCFE23
:10C1C00005462A460B4600204649FCF7E7FA01914E
:10C1D0000090FCF73DFD80B24049C862012120205B
:10C1E0000155207F00286ED02089618988426AD05D
:10C1F000208960813846FCF79FFE0546344A354B5E
:10C2000007F0B2FD19D202A8FDF7F0FF102002904E
:10C210000121684601730321417302A92E48FDF7ED
:10C220006DFF10212C48FDF7DDFF00212B48FEF7A4
:10C2300029FB00212020015545E002A8FDF7D6FF8B
:10C2400010200290022168460173002181730321AE
:10C25000417302A92048FDF751FF012204211E4825
:10C26000FDF794FF2020005D002811D11B48808A33
:10C27000012108431949888201211848FEF702FB71
:10C2800016482030008801210843144920310880D5
:10C290001349384607F096FE00D2114F67613846C1
:10C2A000FCF74AFE05462A460B4600200D49FCF7DE
:10C2B00075FA01910090FCF7CBFC80B20749C86287
:10C2C00001212020015500BF02E700000000594075
:10C2D0009A9999999999A93F00040048000400404F
:10C2E000000020410088C34010B5044620210248C8
:10C2F000FDF76EFF10BD00000004004810B50446B5
:10C300003A480078C007C00F00280CD1374807F022
:10C3100031FB002807D0364800F07EFF3549086021
:10C320003248C046C0462120005D002800D110BD23
:10C330002F4800F071FF2F490968401A642853D331
:10C340002B4800F069FF2B4908602320005D00287E
:10C3500003D110212848FDF747FF2320005D0A285C
:10C360000BDA20212448FDF733FF002805D12220D5
:10C37000005D401CC1B2222001552320005D0A2827
:10C380000FD110211C48FDF72DFF2220005D02284F
:10C3900004DD0120A0770021212001550021222069
:10C3A00001552320005D1E2818DD20211248FDF7CD
:10C3B0000FFF002805D12220005D401CC1B22220C1
:10C3C00001552320005D232808DD2220005D02287E
:10C3D00001DD0120E0770021212001552320005DAF
:10C3E000401CC1B22320015500BFA0E7200100205E
:10C3F00098010020240100200004004810B50446E4
:10C400002046FFF77BFF2046FFF7CEFC2046FFF7D4
:10C4100055FE10BD502900DD50210A2900DA0A21FD
:10C42000018002880A235A43054B5A631A46526B0D
:10C43000323A9A631A46526B3232DA63704700001E
:10C44000000400401CB5044600200090019001212A
:10C450002120015500212320015522200155684645
:10C46000FDF7C4FE102000900121684601710321F0
:10C47000417169460548FDF741FE10210348FDF76B
:10C48000B1FE00210248FEF7FDF91CBD0004004882
:10C490000004004010B5044624222146094800F05B
:10C4A000C2FE2D2020800021202001550020606048
:10C4B000606121200155222001552320015520468D
:10C4C00010BD0000980100200188142901DD012120
:10C4D00081707047FEB504460D4624480078C007B9
:10C4E000C00F00280CD1214807F044FA002807D0DB
:10C4F0001F4800F091FE1F4908601C48C046C04616
:10C500001B4800F089FE1B490968401A32282CD3C9
:10C51000174800F081FE174908602946284607F0B1
:10C52000F9FC01906421E068FBF78CFE2179484317
:10C530000090FCF745FE07460199FCF727FD0646EB
:10C54000FCF7FAFDA06001218907A0684863A06894
:10C55000322804D90846406B3238C86305E0012010
:10C560008007406B01218907C863FEBD28010020B8
:10C57000980100202C0100207CB504460D460020C7
:10C5800000900190642D00DD64252571207900283C
:10C5900024DD0120E0716846FDF728FE0120C0037C
:10C5A00000900221684601710021817103214171CF
:10C5B00069460920C006FDF7A1FD02220F210920CE
:10C5C000C006FDF7E3FD01218807FEF75BF915487A
:10C5D0000088012108431349088022E00020E0710F
:10C5E0006846FDF703FE0120C00300900121684664
:10C5F00001710321417169460920C006FDF77EFDE6
:10C600000121C9030920C006FDF7ECFD054800889B
:10C610004008400003490880002101208007FEF700
:10C6200031F97CBD2000004010B58AB004460020DE
:10C630000890099005900690079014216846FBF732
:10C64000FFFD01214804FDF75DFE01218804FDF78F
:10C6500059FE01210846FDF765FE08A8FDF7C6FD55
:10C660000120C0030890012108A801710321417134
:10C6700008A90920C006FDF741FD0121C9030920D1
:10C68000C006FDF7AFFD08A8FDF7B0FD0820089033
:10C69000002108A801710121C1710321417108A97C
:10C6A0001F48FDF72BFD05A8FEF7D6FA2F21684697
:10C6B00081821C480690002168468183C18205A9B9
:10C6C00001208007FEF78AFA6846FEF751FA6021DA
:10C6D00068460180012141800020029000216846C7
:10C6E0008181694601208007FEF74AF9012208216D
:10C6F000C806FEF73AF9002101208007FEF7C2F8CC
:10C700000F2001218140084A116000BF0821C8069E
:10C71000FEF780F901218807FEF794F80AB010BDF2
:10C7200000040048204E000000E100E000210180EC
:10C730008170704710B5044608210248FDF748FD96
:10C7400010BD000000040048C170704770B5044679
:10C750000D4629462046FFF7BDFE2046FFF7B4FEF2
:10C7600070BD000010B5044610222146074800F0B5
:10C770005AFD0C20E070E07805494843E1784843D1
:10C78000E0600020E0712071204610BD980100207B
:10C79000204E0000FFB589B007461D46129E0A983C
:10C7A00002040B98000210184119384600F0B2F844
:10C7B0000446002C02D113980DB0F0BD2146384636
:10C7C00000F06EF806900698022801DA1398F3E755
:10C7D0002146384600F0CAF8B04229D9002E25D0AB
:10C7E00013980590002D01D138680590012D01D1D5
:10C7F00078680590022D01D1B8680590032D01D10C
:10C80000F8680590211D384600F0B0F821460490E4
:10C81000384600F0ABF80390049801960090002190
:10C820003846039B059A00F066F8C5E71398C3E7FE
:10C83000002005902AE02146384600F097F808903D
:10C8400021460831384600F091F807900898864252
:10C8500017D30798864214D221460C31384600F08F
:10C8600085F8211D0490384600F080F80390049864
:10C87000019600903846079B039A089900F03BF810
:10C880009AE708340598801C80B205900698801EAF
:10C8900005998842CFDC211D384600F067F88BE708
:10C8A000F3B581B00E460027354615E029460198BC
:10C8B00000F05CF80446601C002808D0A01C00288A
:10C8C00005D0E01C002802D0201D002801D13846E8
:10C8D000FEBD781C87B22D1D02488542E6D338463E
:10C8E000F6E70000444A010810B5029C016082602E
:10C8F0004360C46010BDF8B50C4615461E46069F41
:10C900007A1B079B1B1B5A431046311BFBF7A4FCE9
:10C910004019F8BDF8B507460E46124C1CE02146FA
:10C92000384600F023F80546681C002805D0E81CAE
:10C93000002802D0281D002801D10020F8BDA81C25
:10C94000002808D1211D384600F010F8B04202D16D
:10C9500020460830F2E7241D03488442DFD300203C
:10C96000ECE70000FC400108444A010870B50546A8
:10C970000C4621460148FEF778FD70BD800100207D
:10C9800010B5044614222146024800F04CFC204613
:10C9900010BD00009801002010B586B004460020AC
:10C9A000049005900121C804FDF7ACFC04A8FDF734
:10C9B0001DFC012040030490002168460175C175EB
:10C9C0000321417504A91048FDF798FB0D210220B1
:10C9D000FDF7B6FD01204003029000216846017377
:10C9E000102141730121817302A8FDF779FA072113
:10C9F00068460171002141710121817101A8FDF793
:10CA00003BFC06B010BD0000000800480022027088
:10CA1000012901D101220270022901D102220270F2
:10CA2000032901D1032202707047000010B50446AB
:10CA300034480078C007C00F00280CD1314806F0F8
:10CA400099FF002807D0304800F0E6FB2F49086026
:10CA50002C48C046C0462078002802D1A070208112
:10CA600010BD294800F0D8FB28490968401A32282F
:10CA700037D3254800F0D0FB244908600121490341
:10CA80002348FDF7A5FB012810D12089502802DAA0
:10CA90002089401C208120893D2801DB0120A070D5
:10CAA00020893D281DD10120E0701AE0A0780028DF
:10CAB0000DD02089002802D02089401E20812089A5
:10CAC00001280ED10020A0700120207109E02089EA
:10CAD0000A2804DB20893C2801DC0120607000204A
:10CAE0002081207803280BD02078012801D0002055
:10CAF00060702078022803D00020A070E0702071C0
:10CB000000BFADE750010020980100205401002033
:10CB10000008004870B50546012149030448FDF7A7
:10CB200057FB0446012C00DD0124204670BD0000A7
:10CB30000008004810B504460A222146074800F0C4
:10CB400072FB002020702081A070E0702071607165
:10CB5000E07103202070204610BD000098010020E5
:10CB6000016849084900344A9279D207D20F11432B
:10CB70000160042201689143304A127F920004232D
:10CB80001A40114301600222016891432C4A9279B4
:10CB9000520002231A4011430160082201689143A8
:10CBA000284A9279D20008231A40114301601022CA
:10CBB00001689143244AD279120110231A4011438B
:10CBC00001602022016891431E4A527952012023BC
:10CBD0001A40114301604022016891431A4A927938
:10CBE000920140231A40114301604168090A090279
:10CBF000114A527811434160818889B20F4A1289E3
:10CC00001204120C120411434160FF221202416807
:10CC100091430B4A52791202FF231B021A4011431F
:10CC200041600A49097E01720949497981720849BE
:10CC30008979417270470000CC0200201003002067
:10CC400034030020440100206A050020A4060020CF
:10CC50002405002070B504462046FFF781FF00251B
:10CC6000607D617A884203D1A07DA17A884200D09C
:10CC70001D252168E068884203D1616820698842E7
:10CC800000D02F25002D04D01D2D03D02F2D16D11F
:10CC90000BE070BDFF2307227F210A4800F0EEFE63
:10CCA000617A6175A17AA17509E0012211460548F2
:10CCB00001F062F9616820682161E06000BF00BF97
:10CCC00000BFE6E79501002010B504461C48007837
:10CCD000C007C00F00280CD1194806F04BFE0028F1
:10CCE00007D0184800F098FA174908601448C04661
:10CCF000C046144800F090FA13490968401A3228D7
:10CD00001DD3104800F088FA0F49086020780028E9
:10CD10000BD0A088502802DAA088401CA080A088F0
:10CD20003D280CD10120607009E0A088002802D0C5
:10CD3000A088401EA080A088012800D1A07010BD4E
:10CD400068010020980100206C01002010B5044605
:10CD500006222146044800F066FA0020A0802070D8
:10CD60006070A070204610BD98010020FFB581B012
:10CD700017460299019800F077F80546002D01D179
:10CD800005B0F0BD2946019800F04EF80446019820
:10CD900000F020F84000A04201D00020F0E700267B
:10CDA00011E02946019800F087F800B2710078522E
:10CDB000291D019800F080F801B272000498815298
:10CDC0000835701C86B2E10F09194910B142E8DC40
:10CDD0000120D5E770B50646114C1CE021463046CF
:10CDE00000F06AF80546681C002802D0E81C0028FC
:10CDF00001D1002070BDA81C00280BD1211D304698
:10CE000000F05AF8FF2805D121460831304600F0DD
:10CE100053F8EFE7241D03488442DFD30020E9E7FD
:10CE200000C8010800D00108F3B581B00E46002704
:10CE3000344612E02146019800F03EF80546681C91
:10CE4000002805D0A81C002802D0E81C002801D129
:10CE50003846FEBD781C87B2241D02488442E9D3BF
:10CE60003846F6E700D00108F8B507460E46104CE4
:10CE700019E02146384600F01FF80546681C0028D6
:10CE800002D0E81C002801D10020F8BDA81C002811
:10CE900008D1211D384600F00FF8B04202D12046DB
:10CEA0000830F2E7241D03488442E2D30020ECE777
:10CEB00000C8010800D0010870B505460C4621469F
:10CEC0000148FEF7D2FA70BD8001002010B586B08F
:10CED00004460020049005900190029003900121E7
:10CEE0008804FDF70FFA01214806FDF71BFA01211E
:10CEF0000846FDF737FA04A8FDF778F90320000289
:10CF000004900221684601750021C1750321417515
:10CF100004A93348FDF7F2F8042208213048FDF750
:10CF200035F9042209212E48FDF730F92D48FCF788
:10CF30009DFB2C480068012108432A49086000BF76
:10CF400028484068C007C00F0028F9D0254800686D
:10CF5000022188432349086001A8FCF740FD002115
:10CF600068468171082181800021C1710E21017202
:10CF7000072141720121C173002141730121C17256
:10CF800001A91848FCF71AFC164800684008400040
:10CF90001449086000BF13484068C007C00F00284C
:10CFA000F9D11149086001200F4940390860C86172
:10CFB000084600684008400008600A4840690221AD
:10CFC00008430849486100211E20FEF781F81E2011
:10CFD00001218140054A116000BF06B010BD00006C
:10CFE00000040048006400404066004000E100E0AA
:10CFF00070B50446002518E01820684321463031FA
:10D00000085C00280FD10122182068430A54182117
:10D010006943224630328918081D142221461C31EA
:10D02000FBF7A0F870BD681CC5B20A2DE4DB00BF99
:10D03000F8E70000FFB583B004460D461646002011
:10D040000290E56000216174042121740821A1741B
:10D05000E674069921750C9961750D99A1750E9963
:10D06000E1750F992176109961761199A176214683
:10D0700008310E48FCF7C3FC029000270020019005
:10D0800009E00A480299FCF755FD01907F1C084809
:10D09000874200D902E001980128F2D100BF03487D
:10D0A0000299FCF769FA07B0F0BD00000064004087
:10D0B000FF0F000010B50446FF2225322146034829
:10D0C00000F0B1F822202070204610BD9801002009
:10D0D0003EB50546FDF76AFA7D21C9002E48006875
:10D0E000FBF7B0F80446601E2C49884200D90CE0DA
:10D0F000601E2B4948610321081FFDF771FF0020C6
:10D10000274988610720086100BF0021481EFDF7FC
:10D1100067FF01212020FDF705F901212148FDF7D6
:10D12000B1FB7D21C9001C480068FBF78BF8401E4D
:10D130001C492031088100200090019002900121BB
:10D140001020FDF7EFF86846FDF786FD12490968E3
:10D1500048087D21C900FBF775F8401E81B268467A
:10D160000180114801900021684601814180694693
:10D170000E48FDF733FD01210C48FDF783FB01222A
:10D1800011460A48FDF7F1FB112001218140084AB0
:10D19000116000BF3EBD000000010020FFFFFF0046
:10D1A00000E000E0001400402823000000100040D0
:10D1B00000E100E038B504460320FDF7E1F9002066
:10D1C00000900BE0074900984018007801225207B0
:10D1D0000099891808700098401C00900098C02899
:10D1E000F0D338BD008000080A4AD162928A012338
:10D1F0001A43084B9A821A46128809231A43054B90
:10D200001A8000BF034A1288D207D20F002AF9D130
:10D2100070470000001400400146486870474168AC
:10D22000491C4160704770B506460C4615462946B4
:10D230002046FBF703F870BD00214160816001705A
:10D2400070470146887B80014A7B120180180A7B67
:10D2500092008018CA7A8018C0B270470146887C54
:10D2600080014A7C120180180A7C92008018CA7BD7
:10D270008018C0B27047002101708170417000BFFA
:10D2800004E00023C21C53544A1CD1B20829F8DB25
:10D290007047000010B504460F48FEF723FE0F4804
:10D2A000FEF734F80E4805F07DFB0E48FFF73EFA16
:10D2B0000D4806F0CFFA0D48FEF70EF90C48FEF7C0
:10D2C0007AFA0C4804F0DEF90B4802F06DF82046BB
:10D2D000FFF7D1FF10BD0000100300204401002023
:10D2E000CC02002034030020440300206A05002003
:10D2F000F0020020B801002088080020014688487C
:10D300008078C001874A927F52018018854AD27F77
:10D3100012018018844AD279D2008018824A127A87
:10D3200092008018804A527A52008018C8707F4854
:10D33000C078C0017E4A127C920180187D4A127822
:10D34000520180187B4A527812018018794AD278AB
:10D35000D2008018774A9278920082187648C07975
:10D3600040001218744880791018087173480079C9
:10D37000C001724A5279920182186F484078400188
:10D3800012186D488078000112186B48C078C000F0
:10D390001218694800798000121867482038807F89
:10D3A00040001018487166488078C001644A52787D
:10D3B00092018018624A1278520180188871C87AE6
:10D3C000002801D0002070475948007C002801D077
:10D3D00028200870887C002811D1594840780028FE
:10D3E00001D00120087056488078002801D0012023
:10D3F000087053480078002801D0022008704D487A
:10D400008078002801D00D2008704A484078002814
:10D4100001D01D2008704748C078002801D0102096
:10D42000087044480079002801D024200870C87B87
:10D43000002817D13C48407A002801D00A20087003
:10D440003948C079002801D01B2008703648007A7E
:10D45000002801D01C20087037484079002801D0EE
:10D460001A200870087B00280BD12E48807F0028E6
:10D4700001D0112008702B48C07F002801D0162051
:10D480000870887B002805D125488078002801D0C5
:10D4900009200870087C002837D1274840780028E8
:10D4A00001D00420087024488078002801D004208E
:10D4B00008702148C078002801D0032008701E4859
:10D4C0000079002801D0032008701B482038807F95
:10D4D000002801D0052008701748C079002801D025
:10D4E0000F20087014488079002801D00C200870A3
:10D4F00011482038C07F002801D0032048700E4812
:10D500000078002801D004204870487C002805D10C
:10D510000648C078002801D00E200870087852E72D
:10D520003403002010030020CC020020440100201E
:10D5300088080020F0020020780200206A05002000
:10D54000440300200021C172017341738173C173D0
:10D5500001744174817401704170817000BF04E0F6
:10D560000023C21C53544A1CD1B20829F8DB70476F
:10D5700002464A20C043814201DA00207047B329A5
:10D5800001DDFE20FAE708464B30C0B2F6E702465E
:10D5900008464B3870470000F0B587B006460C4689
:10D5A00015461748407900011649097E0843C0B264
:10D5B0001549097E154A9278144B5B7802930392C1
:10D5C000049105901248C078001FC0B20F49097835
:10D5D00000910190600305277F05C019AF02C019B3
:10D5E0000C4F3F78FF00C0190A4F7F78C1190648D9
:10D5F000C37D827D0748FFF71DFD07B0F0BD000029
:10D60000F0020020A406002084050020A4010020D0
:10D610004401002064070020F0B587B00C46154691
:10D620001749C86BFBF788FDC6B2FF231548008D6C
:10D63000C0B21449098D0912124AD28CD2B2059394
:10D640000292039104900F48C08C00120096019042
:10D6500060030B273F05C019AF02C0190A4F3F787E
:10D66000FF00C019084F7F78C1190648008EC3B269
:10D670000448008E02120448FFF7DCFC07B0F0BD3E
:10D68000E40400203802002064070020F0B589B0CF
:10D690000C46154622494868224906F03BFC0746DD
:10D6A000FBF74AFD86B21E4948691E4906F032FC66
:10D6B0000746FBF741FD80B208901B48FFF72AFAA6
:10D6C0000701C0371948FDF7A3FF80003F1818482D
:10D6D000FDF78CFE3818C0B2164907900979089AF0
:10D6E000D2B2089B1B120293039204910590F0B2F0
:10D6F00031120091019060030327BF05C019AF02EA
:10D70000C0190D4F3F78FF00C0190B4F7F78C1192A
:10D710000A48837802780848FFF78CFC09B0F0BD0E
:10D72000100300200000C842600500206A050020A8
:10D73000440100203403002064070020CC020020B4
:10D74000F7B588B00C4615461A482421415E089862
:10D75000FFF70EFF064617482221415E0898FFF7A3
:10D7600007FF079013480C21415E0898FFF700FF60
:10D770000690FF2003900490029605900799069862
:10D780000191009060030D273F05C019AF02C01939
:10D79000094F3F78FF00C019074F7F78C11905482E
:10D7A000837FC08B0004020E0348FFF743FC0BB0DD
:10D7B000F0BD00003802002064070020F0B587B0FB
:10D7C00006460C4615461748007C1649098A090486
:10D7D000090E144A127A134B1B891B041B0E029369
:10D7E0000392049105900F48007A0E4909890904B3
:10D7F000090E00910190600307277F05C019AF0251
:10D80000C019094F3F78FF00C019074F7F78C11931
:10D8100004488379C0880004020E0348FFF70AFC1D
:10D8200007B0F0BDF002002064070020F0B587B01B
:10D8300006460C461546164880791549C9880912CE
:10D84000134A1279124B9B881B1202930392049184
:10D8500005900F4880780E4949880912009101907F
:10D8600060030F273F05C019AF02C019094F3F7869
:10D87000FF00C019074F7F78C11905480838037A9F
:10D88000008902120348FFF7D5FB07B0F0BD000086
:10D890008002002064070020F0B587B006460C46E1
:10D8A00015461548807B1449C9890912124A127B12
:10D8B000114B9B891B1202930392049105900E4811
:10D8C000807A0D494989091200910190600301276E
:10D8D0003F06C019AF02C019084F3F78FF00C019BA
:10D8E000064F7F78C1190448037A00890212034861
:10D8F000FFF7A0FB07B0F0BD800200206407002006
:10D90000F0B587B006460C461546FF2002900390FE
:10D910000490059000900190600311273F05C01905
:10D92000AF02C019074F3F78FF00C019054F7F783D
:10D93000C1190548037C008A02120248FFF77AFBEE
:10D9400007B0F0BD640700208002002070B586B0EB
:10D9500006460C4615461A2006211122FF23029383
:10D960000392049105900C2000910190600309221C
:10D9700052058018AA028018064A1278D200801830
:10D98000044A52788118022322220248FFF752FBF0
:10D9900006B070BD64070020F0B587B006460C469F
:10D9A00015461348007A1249C979114A9279104BE9
:10D9B0005B7902930392049105900D4800790C491C
:10D9C000C97800910190600309277F05C019AF0253
:10D9D000C019084F3F78FF00C019064F7F78C11962
:10D9E0000348837802780348FFF724FB07B0F0BDB3
:10D9F000A401002064070020F0B587B00D4616464C
:10DA00000024002005E082001A4989580C19411CA5
:10DA1000C8B20A28F7DB17481438007C15491439B6
:10DA2000098A0904090E134A143A12691202120EE5
:10DA3000104B143B1B691B0E02930392049105903B
:10DA4000E0B22104090E0091019068030727BF0589
:10DA5000C019B702C019084F3F78FF00C019064F20
:10DA60007F78C1192002030E220E0348FFF7E2FA65
:10DA700007B0F0BD0807002064070020FFB58BB099
:10DA80001F460C9840031D21090541180D9880027E
:10DA900008185F490978C90040185D49497840185D
:10DAA0000A905C4988695C4906F034FA0790FBF7F4
:10DAB00043FB05465749C869574906F02BFA0790BA
:10DAC000FBF73AFB06465349886A534906F022FAA7
:10DAD0000790FBF731FB09905049C8684E4906F0A2
