:020000040800F2
:108000004142202020202020FFFFFFFFFFFFFFFF35
:10801000FFFFFFFFFFFFFFFFFFFFFFFFFFFFFFFF70
:10802000FFFFFFFFFFFFFFFFFFFFFFFFFFFFFFFF60
:10803000FFFFFFFFFFFFFFFFFFFFFFFFFFFFFFFF50
:10804000FFFFFFFFFFFFFFFFFFFFFFFFFFFFFFFF40
:10805000FFFFFFFFFFFFFFFFFFFFFFFFFFFFFFFF30
:10806000FFFFFFFFFFFFFFFFFFFFFFFFFFFFFFFF20
:10807000FFFFFFFFFFFFFFFFFFFFFFFFFFFFFFFF10
:10808000FFFFFFFFFFFFFFFFFFFFFFFFFFFFFFFF00
:10809000FFFFFFFFFFFFFFFFFFFFFFFFFFFFFFFFF0
:1080A000FFFFFFFFFFFFFFFFFFFFFFFFFFFFFFFFE0
:1080B000FFFFFFFFFFFFFFFFFFFFFFFFFFFFFFFFD0
:1080C000FFFFFFFFFFFFFFFFFFFFFFFFFFFFFFFFC0
:1080D000FFFFFFFFFFFFFFFFFFFFFFFFFFFFFFFFB0
:1080E000FFFFFFFFFFFFFFFFFFFFFFFFFFFFFFFFA0
:1080F000FFFFFFFFFFFFFFFFFFFFFFFFFFFFFFFF90
:020000040802F0
:10000000985E002081020208F9230208E922020812
:10001000DD230208850E0208D52F0208000000002B
:10002000000000000000000000000000FD270208A2
:10003000051C020800000000A92402085528020837
:100040009B0202089B0202089B0202089B02020814
:100050009B0202089B0202089B0202089B02020804
:100060009B0202089B0202089B0202089B020208F4
:100070009B0202089B0202089B0202089B020208E4
:100080009B0202089B0202089B0202081110020850
:10009000A10E02089B020208010F02089B0202083F
:1000A0009B0202089B0202089B0202089B020208B4
:1000B0009B0202089B0202089B0202089B020208A4
:1000C0009B0202089B0202089B0202089B02020894
:1000D0009B0202089B0202089B020208392D0208BB
:1000E0001D1C02089B0202089B0202089B020208D8
:1000F0009B0202089B0202089B0202089B02020864
:100100009B0202089B0202089B0202089B02020853
:100110009B0202089B0202089B0202089B02020843
:10012000551902089B0202089B0202089B02020862
:100130009B0202080000000000000000B511020848
:100140009B02020845100208A51002089B02020843
:100150009B0202089B0202089B0202089B02020803
:100160009B0202089B0202089B0202089B020208F3
:100170009B0202089B020208000000000000000031
:100180009B02020800F002F800F06AF80AA090E86A
:10019000000C82448344AAF10107DA4501D100F042
:1001A0005FF8AFF2090EBAE80F0013F0010F18BFA5
:1001B000FB1A43F001031847C8AA0100E8AA01008E
:1001C0000A444FF0000C10F8013B13F0070408BF7D
:1001D00010F8014B1D1108BF10F8015B641E05D01B
:1001E00010F8016B641E01F8016BF9D113F0080FD0
:1001F0001EBF10F8014BAD1C0C1B09D16D1E58BF62
:1002000001F801CBFAD505E014F8016B01F8016B98
:100210006D1EF9D59142D6D370470000002300240B
:1002200000250026103A28BF78C1FBD8520728BF06
:1002300030C148BF0B607047642900F0BF8075294A
:1002400000F0BC80782900F0F580732900F063830A
:10025000002070471FB500F0BBFA1FBD10B510BDE0
:1002600000F05DFB1146FFF7F5FF16F051FB00F0C3
:100270007BFB03B4FFF7F2FF03BC00F083FB00003D
:100280000948804709480047FEE7FEE7FEE7FEE72A
:10029000FEE7FEE7FEE7FEE7FEE7FEE70448054966
:1002A000054A064B704700005529020885010208DF
:1002B000984C0020985E0020984E0020984E002018
:1002C0000FB41CB5074B06AA7B44694600900598FD
:1002D00000F0EFFA0020694600F0FEFA1CBC5DF861
:1002E00014FB00000D0600000FB41CB50C0007AA9B
:1002F000009001D02044401E074B7B44694601908A
:10030000069800F0D6FA002C03D06946002000F0D1
:10031000E3FA1CBC5DF814FBE505000070B504466B
:1003200085690068C10601D5302600E02026C00797
:1003300007D070BDD4E9012130469047206A401CA7
:1003400020626D1EF6D570BD70B5044685690078D3
:10035000C00707D170BDD4E9012120209047206A51
:10036000401C20626D1EF6D570BD70B50C4605466A
:10037000012A05D02878800600D5EA69002302E02A
:10038000012305E05B1C934202D2E05C0028F9D116
:10039000A869E618C01AA861286A18442862284685
:1003A000FFF7BCFF04E0D5E9012114F8010B9047E9
:1003B000B442F8D32846FFF7C7FF70BD2DE9F041DE
:1003C0000646002410687529314616A510D0AFF3F3
:1003D0000080002802DA404213A507E031688A074E
:1003E00001D512A502E0490704D511A5012401E0B9
:1003F000AFF3008000210A2206F1240709E0B0FBD8
:10040000F2FCB0FBF2F302FB1C00303078541846CB
:10041000491C0028F3D123462A463046BDE8F04166
:1004200000F0E8B9000000002D0000002B000000E3
:100430002000000070B504460D4621461068AFF359
:1004400000802188090502D50F4A7A4402E00E4A4D
:100450007A440E32002104F1240305E000F00F0677
:100460000009965D5E54491C0028F7D120780023CE
:10047000000704D5702D02D009B1022311322046A5
:10048000BDE8704000F0B6B9648101002DE9F05F6D
:10049000894604464FF0000ADFF824B1FB44C0F857
:1004A00020A02046E168884700287DD0252806D076
:1004B000D4E901219047206A401C2062F1E7002521
:1004C0005F462046E16888472028064607DB312E34
:1004D00005D2B81910F8200C08B10543F1E7A807B8
:1004E00001D525F00405C4F81CA00027C4F818A005
:1004F0002A2E09D0304615F043FD38B304EB8708A7
:10050000303EC8F8186019E059F8041B204604EB87
:1005100087029161E1688847012F064618D1E0699A
:10052000002820DA25F020051DE0D8F8180000EB9F
:10053000800006EB40003038C8F818002046E1681B
:100540008847064615F01CFD0028EED1012F0AD081
:100550002E2E08D12046E16888477F1C0646022FD0
:1005600045F02005C4DBA069002803DA404245F0CD
:100570000105A061E80701D025F01005A6B1A6F19C
:100580004100192802D8203645F400654A46314614
:10059000204625604D46FFF74FFE60B1012807D089
:1005A000ED1D25F0070000E007E000F1080978E7FD
:1005B00005F1040975E730467AE7206ABDE8F09F47
:1005C0003A81010010B5431C02E010F8011B71B123
:1005D0008107FAD14FF0013202C88C1A8C4314EA19
:1005E000C211F9D0C01A0A0603D0C01E10BDC01A2D
:1005F00010BD0A0401D0801E10BD0902FCD0401EAF
:1006000010BD421E12F8013F002BFBD111F8013B37
:10061000002B02F8013BF9D17047032A40F23080E9
:1006200010F0030C00F0158011F8013BBCF1020F33
:10063000624498BF11F801CB00F8013B38BF11F8B4
:10064000013BA2F1040298BF00F801CB38BF00F8CB
:10065000013B11F0030300F02980083AC0F0088044
:1006600051F8043B083A51F804CBA0E80810F5E72C
:10067000121D5CBF51F8043B40F8043BAFF300800F
:10068000D20724BF11F8013B11F801CB48BF11F884
:10069000012B24BF00F8013B00F801CB48BF00F854
:1006A000012B704701B5FFF7B8FF01BD10B5203A27
:1006B000C0F00B80B1E81850203AA0E81850B1E81B
:1006C0001850A0E81850BFF4F5AF5FEA027C24BFD1
:1006D000B1E81850A0E8185044BF18C918C0BDE8C8
:1006E00010405FEA827C24BF51F8043B40F8043B91
:1006F00008BF7047D20728BF31F8023B48BF11F846
:10070000012B28BF20F8023B48BF00F8012B70479F
:1007100001F0FF03114601B543EA032242EA024217
:1007200000F00BF801BD02F0FF0343EA032242EAA6
:10073000024200F002B84FF000020429C0F012801B
:1007400010F0030C00F01B80CCF1040CBCF1020F84
:1007500018BF00F8012BA8BF20F8022BA1EB0C0159
:1007600000F00DB85FEAC17C24BF00F8012B00F84F
:10077000012B48BF00F8012B70474FF0000200B575
:10078000134694469646203922BFA0E80C50A0E8B4
:100790000C50B1F12001BFF4F7AF090728BFA0E862
:1007A0000C5048BF0CC05DF804EB890028BF40F82E
:1007B000042B08BF704748BF20F8022B11F0804F70
:1007C00018BF00F8012B7047704770477047000052
:1007D00070B5064C7C44064D7D4403E020682044FF
:1007E0008047241DAC42F9D170BD0000C8A40100AF
:1007F00020A501002DE9F0470D4699469246044692
:1008000000F124080168880604D5E06921F0100190
:10081000216000E00120A84201DD471B00E0002725
:10082000A1697A1902EB0900081AA0612078C006B4
:1008300002D42046FFF772FD002608E0D4E901212A
:100840001AF806009047206A401C761C20624E452C
:10085000F4DB2078C0060AD52046FFF75FFD06E0EE
:10086000D4E9012130209047206A401C2062381EC4
:10087000A7F10107F4DC07E0D4E9012118F805002D
:100880009047206A401C2062281EA5F10105F3DC78
:100890002046FFF759FD2078000602D50220BDE86A
:1008A000F0870120FBE7000001694A1C026108781B
:1008B000704700B58FB0CDE90131002105910549A0
:1008C0007944CDE9031011466846FFF7DFFD0FB00C
:1008D00000BD0000E5FFFFFF0A6802F8010B0A6097
:1008E0007047D1E900239A4202D2531C0B6010706A
:1008F000704710B5436913B1AFF3008001E0FFF713
:1009000034FD012010BD127800F124010A7000228C
:100910004A700122EDE711684FF0FF32E9E77546B2
:1009200000F02CF8AE4605006946534620F007005B
:10093000854618B020B5FFF7B1FCBDE820404FF068
:1009400000064FF000074FF000084FF0000B21F0B9
:100950000701AC46ACE8C009ACE8C009ACE8C00986
:10096000ACE8C0098D46704710B50446AFF300806F
:100970002046BDE81040FFF77CBC000000487047EF
:10098000344C002001491820ABBEFEE726000200CF
:10099000704721B1826842F00102826003E0826800
:1009A00022F00102826070470021084A1168084A5B
:1009B0001140D0E900231A4383681A43C3681A43DD
:1009C0001143044AC2F80413704700000423014095
:1009D000E030FCFF002001400021016041608160A7
:1009E000C160704721B1826842F48072826003E086
:1009F000826822F480728260704721B1826842F47A
:100A00000072826003E0826822F4007282607047A4
:100A100030B50246002000235068104C20400D796C
:100A20000C6844EA05242043506090680C4C204038
:100A3000D1E903542C438D682C434D7944EA450495
:100A400020439060D06A20F470000C7D641EE4B2F4
:100A5000234340EA0350D06230BD0000FFFEFFFC9C
:100A6000FDF7FFC0F0B504460D4600200021092D1A
:100A700011DDE068A5F10A0606EB4607072606FA2F
:100A800007F18843A5F10A0606EB460603FA06F1CC
:100A90000843E0600CE0206905EB4507072606FAED
:100AA00007F1884305EB450603FA06F10843206188
:100AB000072A0FDA606B561E06EB86071F2606FA1A
:100AC00007F18843561E06EB860605FA06F1084331
:100AD000606322E00D2A0FDA206BD61F06EB860733
:100AE0001F2606FA07F18843D61F06EB860605FA8D
:100AF00006F10843206310E0E06AA2F10D0606EB60
:100B000086071F2606FA07F18843A2F10D0606EBB9
:100B1000860605FA06F10843E062F0BD816841F0FF
:100B200080418160704700210160017141718160E5
:100B3000C1600161012101757047000038B10849A9
:100B4000096841F40001074AC2F8041306E00449A9
:100B5000096821F40001034AC2F804137047000039
:100B6000042301400020014038B10849096841F4DC
:100B70008001074AC2F8041306E00449096821F419
:100B80008001034AC2F804137047000004230140A7
:100B90000020014010B592B026A2D2E901311068C0
:100BA000D268CDE90F3111920E9026A3D3E900202F
:100BB000D3E902130BAC0BC40A9226A30FCB06ACED
:100BC0000FC42848072301220EA90090022015F027
:100BD00095FB044604B12BE0234801211022002399
:100BE000CDE90232CDE90023CDE9041014230AAA8D
:100BF00002211C48008815F011FB044604B117E0DF
:100C00001A4801211022CDE90212CDE9041000207A
:100C10000C21142306AACDE90010022111480088F6
:100C200015F0FCFA044604B102E0002012B010BD39
:100C30004720FBE7669A0C200008969EE2119EB1C1
:100C4000E0F273D9669A0C200008969EE2119EB1DC
:100C5000E1F273D9669A0C200008969EE2119EB1CB
:100C6000E2F273D9A8170020AA170020AC170020C1
:100C700070B504460E4615460A480088401C84425A
:100C800004D13146284615F065FF0AE00648008881
:100C9000801C844205D12878012802D1034981F8BB
:100CA000EE0070BDAC170020AA1700209847002066
:100CB00010B5064AB2F80C11D2F8040101F0A5F9FA
:100CC000012800D110BD0020FCE70000984700205B
:100CD00010B50B4AB2F80811D2F8FC0001F09EF9E9
:100CE000052108480EF088F9054AB2F80811D2F833
:100CF000FC0001F095F9052102480EF07DF910BDC8
:100D000098470020C01B0020F0B587B007460E466C
:100D10000025FF20069023A103C9CDE90301234A42
:100D2000B2F80A11D2F8000101F078F90F2005237A
:100D300001AA03A900901E4802F05AFF9DF8040082
:100D400002281BD19DF807009DF8081040EA0124F5
:100D5000002C13DDB44200DD344600250CE00F20EA
:100D6000012305AA06A90090114802F041FF9DF851
:100D700014007855681CC5B2A542F0DB0B4AB2F8E6
:100D80000A11D2F8000101F04BF90020009003E0B5
:100D900000BF0098401C009000980228F8DB28460D
:100DA00007B0F0BD0B0000000000000098470020D5
:100DB000144900202DE9F043C5B006468846144684
:100DC0001D464FF00009002728A103C94491439014
:100DD00028A103C94291419002F00AFD1FB102F01F
:100DE000CBFE02F0F7F9254AB2F80A11D2F8000159
:100DF00001F014F90F20052341AA43A900902048CF
:100E000002F0F6FE0FB102F0D3FD9DF804010228B6
:100E10001CD19DF805016119884214DB002C07DD07
:100E20000F20234601AA31460090154802F0E0FE4B
:100E3000002D0DDD0F202B4601AA414600901048E1
:100E400002F0D6FE04E06FF0010901E04FF0FF3937
:100E50000A4AB2F80A11D2F8000101F0E1F802F0F2
:100E600055FC484645B0BDE8F08300000A0000008C
:100E700000000000AA0000000000000098470020C9
:100E80001449002005480068D0F86002401C03495E
:100E90000968C1F8600200BFFEE700008804002076
:100EA00010B51D2113480EF06BF80221124800F016
:100EB000ABFA60B1114A00210F4800F01FFC0F4847
:100EC00020380DF08AFE02210B4800F0A9F910210C
:100ED000094800F099FA60B1084A0121064800F07B
:100EE0000DFC064820380DF078FE1021024800F075
:100EF00097F910BDC01B002000640040002E0020A8
:100F000010B51F213D480EF03BF84FF400413C481E
:100F100000F07AFA012851D1C103394800F080F974
:100F20004FF48071364800F06FFA01280AD10102AF
:100F3000334800F075F93348B0F89409401C314942
:100F4000A1F894094FF400712D4800F05DFA0128D2
:100F50000BD141022A4800F063F92A48B0F89609FB
:100F6000401C81B22748A0F896194FF480612448AC
:100F700000F04AFA01280BD18102214800F050F913
:100F80002048B0F89809401C81B21E48A0F8981972
:100F90004FF400611A4800F037FA01282DD1C10240
:100FA000174800F03DF9164800F0BEFA1549A1F8BF
:100FB0009A091549124800F017F91EE04FF48031E4
:100FC0000F4800F021FA012807D101040C4800F075
:100FD00027F90E490A4800F007F94FF40031084894
:100FE00000F012FA012808D14104054800F018F970
:100FF00006490A31024800F0F7F810BDC01B002076
:1010000000640040E02D00207000F0300800003146
:1010100010B51C2108480DF0B3FF0121074800F06E
:10102000F3F9012806D10121044800F0F9F8012064
:101030000349087210BD0000C01B0020006400407E
:10104000E02D002010B5482113480DF099FF022132
:10105000124800F0D9F960B1114A00210F4800F0A0
:101060004DFB0F481C380EF07DF902210B4800F0B3
:10107000D7F81021094800F0C7F960B1084A0121EA
:10108000064800F03BFB06481C380EF06BF91021B7
:10109000024800F0C5F810BDC01B002000680040E9
:1010A0005424002010B549213D480DF069FF4FF44C
:1010B00000413C4800F0A8F9012851D1C10339484A
:1010C00000F0AEF84FF48071364800F09DF9012829
:1010D0000AD10102334800F0A3F83348B0F8900970
:1010E000401C3149A1F890094FF400712D4800F0DF
:1010F0008BF901280BD141022A4800F091F82A48C7
:10110000B0F89209401C81B22748A0F892194FF418
:101110008061244800F078F901280BD18102214830
:1011200000F07EF82048B0F89409401C81B21E48B7
:10113000A0F894194FF400611A4800F065F90128ED
:101140002DD1C102174800F06BF8164800F0ECF9F9
:101150001549A1F896091549124800F045F81EE016
:101160004FF480310F4800F04FF9012807D10104F6
:101170000C4800F055F80E490A4800F035F84FF4D5
:101180000031084800F040F9012808D14104054821
:1011900000F046F806490A31024800F025F810BD73
:1011A000C01B002000680040382400207000F03090
:1011B0000800003110B5462108480DF0E1FE01217C
:1011C000074800F021F9012806D10121044800F068
:1011D00027F801200349487110BD0000C01B002002
:1011E000006800403824002000220C4B994202D1B4
:1011F0000023836111E0C1F3130201F000730BB10E
:10120000C2600AE001F080630BB1026105E001F009
:1012100000630BB1826000E0426070477000F03004
:10122000B1F5007F3AD00FDC202928D006DC012957
:101230001CD004291DD0082940D11DE0402921D00F
:10124000B1F5807F3AD126E0B1F5004F31D006DC10
:10125000B1F5806F25D0B1F5006F2FD124E0B1F545
:10126000803F12D0B1F5003F28D111E0154A8260CD
:1012700025E00822C26022E01022C2601FE008229E
:1012800002611CE01022026119E00822426016E0AF
:101290001022426013E00422426010E00422426007
:1012A0000DE0042242600AE00022826104224260D2
:1012B00005E0002282610422426000E000BF00BF1E
:1012C000704700000101010010B504460B4884423C
:1012D00009D10121480601F013F900214FF00070F7
:1012E00001F00EF908E00121880601F009F900215A
:1012F0004FF0806001F004F910BD00000064004070
:1013000010B50021837A012202FA03F13D4A1268E6
:1013100042F001023B4B1A603A4A1C3212688A437F
:10132000384B1C331A60027BCAB9364A0C32126839
:101330008A43344B0C331A604288C38842EA034321
:10134000304A4032847A42F834300288838842EA54
:1013500003432C4A4032847A02EBC4025360027B7E
:10136000012A19D1274A0C3212680A43254B0C3343
:101370001A604288038842EA0343224A4032847A50
:1013800042F83430C288838842EA03431D4A40321F
:10139000847A02EBC4025360C27A3AB9194A121D28
:1013A00012688A43174B1B1D1A6006E0154A121D6E
:1013B00012680A43134B1B1D1A60028932B9114A85
:1013C000143212688A430F4B14331A600289012ABF
:1013D00006D10C4A143212680A430A4B14331A60BD
:1013E000427B012A06D1074A1C3212680A43054B88
:1013F0001C331A60034A126822F00102014B1A6082
:1014000010BD00000066004070B504460D46002681
:1014100060692840002871D0B5F5807F5CD010DC71
:10142000082D35D006DC012D20D0022D24D0042D2E
:1014300072D127E0102D31D0202D35D0402D6BD129
:1014400038E0B5F5004F60D009DCB5F5007F49D034
:10145000B5F5806F4CD0B5F5006F5DD14FE0B5F5B7
:10146000803F2DD0B5F5003F56D12FE0A0682D4923
:1014700002F004F9064651E0E068032102F0FEF8AC
:1014800006464BE0E068082102F0F8F8064645E021
:10149000E068102102F0F2F806463FE020690321DF
:1014A00002F0ECF8064639E02069082102F0E6F87F
:1014B000064633E02069102102F0E0F806462DE0F0
:1014C0006068082102F0DAF8064627E0606810211B
:1014D00002F0D4F8064621E0A069012102F0CEF81E
:1014E00006461BE0A069022102F0C8F8064615E096
:1014F000A069042102F0C2F806460FE00FE0A069DF
:10150000702102F0BBF8064608E06068042102F092
:10151000B5F8064602E0FFE7002600BF00E000261F
:10152000304670BD01010100014600208A6902F0C9
:10153000700070471AB143690B43436102E043698D
:101540008B434361704730B5024600200023146886
:1015500024F002041460146844F00104146000E0F4
:101560005B1C546804F001041CB94FF6FF74A342DD
:10157000F6D1546804F001040CB900206CE08C79B9
:10158000012C04D1146844F08004146003E0146852
:1015900024F080041460CC79012C04D1146844F048
:1015A0004004146003E0146824F0400414600C7AD2
:1015B000012C04D1146844F02004146003E0146882
:1015C00024F0200414604C7A012C04D1146844F0F7
:1015D0001004146003E0146824F0100414608C7A82
:1015E000012C04D1146844F00804146003E014686A
:1015F00024F008041460CC7A012C04D1146844F05F
:101600000404146003E0146824F0040414608C786B
:10161000A407CD7844EA05640D7944EA05444D7980
:1016200044EA05540D886D1E2C43D461146824F0DF
:1016300001041460002300E05B1C546804F0010402
:101640001CB14FF6FF74A342F6D1546804F00104B4
:101650000CB1002000E0012030BD10B502460B4661
:1016600000204FF6FF71BBB9146824F0020444F067
:101670000104146000E0491E546804F00304012CC6
:1016800001D00029F7D1546804F00304012C01D0E3
:10169000002032E0012030E0012B13D1146824F047
:1016A0000304146000E0491E546804F003040CB104
:1016B0000029F8D1546804F003040CB100201CE0A8
:1016C00001201AE0022B17D1146824F0010444F021
:1016D0000204146000E0491E546804F00304022C64
:1016E00001D00029F7D1546804F00304022C01D082
:1016F000002002E0012000E0002010BD10B500F540
:10170000D87303EB01131B6803F004031372137AFD
:1017100053B900F5D87303EB01131B6840F2FF7453
:1017200004EA5353136009E000F5D87303EB011387
:101730001B686FF0604404EAD303536000F5D8736C
:1017400003EB01131B6803F00203537200F5D87317
:1017500003EB01135B6803F00F03937200F5D8737A
:1017600003EB01135B681B0AD37400F5D87303EB1A
:1017700001139B68D37200F5D87303EB01139B68C8
:101780001C0A147300F5D87303EB01139B681C0C3F
:10179000547300F5D87303EB01139B681B0E93730E
:1017A00000F5D87303EB0113DB68D37300F5D8732E
:1017B00003EB0113DB681C0A147400F5D87303EB08
:1017C0000113DB681C0C547400F5D87303EB011390
:1017D000DB681B0E937421B9C36843F02003C36018
:1017E00003E0036943F02003036110BD0021817110
:1017F000C171017241728172C1728170C170032125
:1018000001710221417101210180704710B502462A
:101810000020936803F08063B3F1806F00D110E083
:10182000936803F00063B3F1006F01D1012008E079
:10183000936803F08053B3F1805F01D1022000E090
:101840000420042874D002F5C07303EB00131B6856
:1018500003F0010402F5C07303EB00131C600B7A64
:101860007BB94B7A0C8843EA445302F5C07404EB0D
:1018700000142468234302F5C07404EB00142360B1
:1018800010E00B7A4C6843EAC4034C7A234302F518
:10189000C07404EB00142468234302F5C07404EB05
:1018A000001423608B7A03F00F038B7202F5C07370
:1018B00003EB00135B6823F00F0402F5C07303EB26
:1018C00000135C6002F5C07303EB00135B688C7A55
:1018D000234302F5C07404EB001463608B7B1C0689
:1018E0004B7B44EA03440B7B44EA0323CC7A234337
:1018F00002F5C07404EB0014A3608B7C1C064B7CC7
:1019000044EA03440B7C44EA0323CC7B234302F5E3
:10191000C07404EB0014E36002F5C07303EB001322
:101920001B6843F0010402F5C07303EB00131C6055
:1019300010BD000029B1064A92680243044B9A6028
:1019400004E0034A92688243014B9A6070470000AA
:10195000002004E010B5412106480DF011FB0649B6
:10196000064800F0DFF818B10349044800F008F811
:1019700010BD0000C01B0020208000101064024039
:101980000246094B9A4201D2084801E00648103845
:1019900001F000531BB1064B0B40C36002E0044B47
:1019A0000B408360704700001064024000600240FA
:1019B0007D0F7D0F21B1026842F00102026003E059
:1019C000026822F00102026070470000016821F005
:1019D000010101600021016041608160C16001611D
:1019E000212141614A49884204D13D21484A103AA7
:1019F00091608CE046491831884205D14FF47461FA
:101A0000434A103A916082E041493031884205D121
:101A10004FF474113E4A103A916078E03C494831E5
:101A2000884205D14FF07461394A103A91606EE0F6
:101A300037496031884204D13649354A103AD1607D
:101A400065E033497831884204D13349304A103A4D
:101A5000D1605CE02E499031884204D12F492C4A54
:101A6000103AD16053E02A49A831884205D14FF09D
:101A70003D51274A103AD16049E02949884204D1B2
:101A80003D21274A083A116041E025491831884232
:101A900005D14FF47461224A083A116037E02049B9
:101AA0003031884205D14FF474111D4A083A116053
:101AB0002DE01B494831884205D14FF07461184A26
:101AC000083A116023E016496031884204D1114977
:101AD000134A121F11601AE011497831884204D16B
:101AE0000D490F4A121F116011E00D4990318842D3
:101AF00004D10A490A4A121F116008E00849A831B6
:101B0000884204D14FF03D51054A121F11607047C1
:101B1000106002403D000020400F002000003D20EA
:101B20001064024070B50246002000240025124EC9
:101B3000B24201D2114B01E00F4B103B104E0E4050
:101B400036B11E2606EAD124166806EA040502E02C
:101B5000566906F0800501F000560EB15C6800E0A1
:101B60001C68084E344004EA010616B10DB101208C
:101B700000E0002070BD00001064024000600240E0
:101B80003C0F3C0F7D0F7D0F10B500220268134BF8
:101B90001A40CC680B6823434C6923438C69234368
:101BA000CC6923430C6A23434C6A23438C6A234346
:101BB0004C6B23438C6B23431A430260426922F02F
:101BC0000702D1E90B3423431A4342610B69436096
:101BD0004B6883608B68C36010BD00003F801CF0C1
:101BE0000021016041608160C160016141618161EA
:101BF000C161016241628162C162016341638163CB
:101C00007047000004480068D0F86C02401C02498C
:101C10000968C1F86C0270478804002010B53121B2
:101C200003480DF0ADF9034812F02DF810BD000087
:101C3000C01B002098470020014908607047000041
:101C4000143C0140014600200022074B1B6803EAB8
:101C50000102054B14331B680B4013B10AB101207C
:101C600000E0002070470000003C014000212349B3
:101C70008279002A3AD00A46126803689A430B46D2
:101C80001A600A1D126803689A430B1D1A600279D4
:101C900011440A6803681A430A60184A0832126835
:101CA00003689A43154B08331A601A1D12680368BB
:101CB0009A43124B0C331A604279102A0ED11A1F24
:101CC000126803681A430D4B08331A601A1D126814
:101CD00003681A43094B0C331A600DE00749427937
:101CE00011440A6803681A430A6005E00279114446
:101CF0000A6803689A430A6070470000003C01408C
:101D00000021016001710C21417100218171704736
:101D100001490860704700000C3C024070B5044661
:101D20000A460026082502B909E0012A01D1160257
:101D300005E0022A01D1160201E04FF4407600F0DE
:101D4000B1F80546082D28D11548006820F44070E8
:101D50001349086008460068304308600846006878
:101D600020F0F80008600846006844F002010843CB
:101D70000B4908600846006840F48030086000F0B5
:101D800091F805460648006820F002000449086002
:101D90000846006820F0F8000860284670BD000082
:101DA000103C024008201049096801F48031B1F567
:101DB000803F01D1012015E00B49096801F01001B5
:101DC00009B105200EE00849096801F0EF0109B1E9
:101DD000062007E00449096801F0020109B1072063
:101DE00000E00820704700000C3C024003480068F7
:101DF00040F000400149086070470000103C02407C
:101E000030B10749096841F48071054A116005E065
:101E10000349096821F48071014A1160704700008C
:101E2000003C024030B502460C46082500F03AF866
:101E30000546082D19D10E48006820F440700C4961
:101E400008600846006840F40070086008460068B2
:101E500040F001000860146000F024F805460448D2
:101E6000006820F0010002490860284630BD0000EB
:101E7000103C0240014A107070470000003C0240D4
:101E80000548006800F0004028B1044802490C39B8
:101E90000860034808607047103C02402301674512
:101EA000AB89EFCD08B508200090FFF77BFF0090CD
:101EB00002E0FFF777FF00909DF800000128F8D0BE
:101EC0009DF8000008BD000002460120054BC3F844
:101ED000E8001846A0F8EC10052000E0401E00289D
:101EE000FCDC70479847002000200949C1F8E80051
:101EF000012081F8E400002081F8EE0081F8EF0075
:101F000081F8F00081F8F10081F8F20070470000DC
:101F10009847002070B504460E46154604480088D0
:101F2000401C844203D13146284614F013FE70BD94
:101F3000A4170020F0B50A4600210023002400BFAA
:101F40003DE0012505FA01F3156805EA03049C420A
:101F500034D105684F000326BE40B54305601579AE
:101F60004E00B5400668354305601579012D02D055
:101F70001579022D16D185684F000326BE40B54362
:101F8000856055794E00B540866835438560456863
:101F900001268E40B5434560456896798E40B6B2BD
:101FA00035434560C5684F000326BE40B543C56054
:101FB000D5794E00B540C6683543C560491C102927
:101FC000BFD3F0BDF0B5002300244D07ED0E02FA9B
:101FD00005F3CE1000F1200555F826504E07F70EF8
:101FE0000F26BE40B543CF1000F1200646F827501B
:101FF000CE1000F1200555F8265045EA0304CE1016
:1020000000F1200545F82640F0BD02460020136986
:102010000B400BB1012000E0002070474183704766
:10202000018370474FF6FF7101600021017141711A
:102030008171C171704742694A40426170470AB17B
:10204000018300E0418370472DE9F0410546A84631
:1020500008F1010698F80000042801D0BDE8F081DD
:102060003078052804D03E2805D0FF287AD10FE02B
:10207000FFF73AFF76E0B41C2078012806D1671CF0
:10208000B7F80110781DFFF71FFF00BF00BF69E020
:10209000B41C2088A0F6014030B10E2818D00F28BB
:1020A00040D011285CD11DE0304890F8DB000128B9
:1020B00006D1A71C39797888FA1DFEF7D9FD06E00C
:1020C000A71C397978887A1DFEF7D2FD00BF47E05A
:1020D000A71CBA78921ED1B2B7F803007A1DFFF799
:1020E00019FF3DE0214890F8DC00D0B9A01C1F4941
:1020F00091F8EF1041B11D4991F8F11021B9B0F8F4
:1021000003101B4A11800BE0184991F8F01039B107
:10211000164991F8F21019B9B0F80310154A118058
:1021200000BF1DE0114890F8DC00C0B90F4890F8DE
:10213000EF0040B10D4890F8F10020B901200B49A3
:1021400081F8F1000BE0094890F8F00038B1074839
:1021500090F8F20018B90120044981F8F20000BF9C
:1021600000BF00BF00BF00BF78E700009847002015
:10217000A4170020A617002010B50B4801F035FB6E
:102180000A4801F032FB00240BE0C4EBC40000EB72
:102190008000074A02EB8001034801F0BEFB601C8F
:1021A000C4B2052CF1DB10BDBC170020C417002001
:1021B0007849002038B50020009001F0FDFC2AE0AD
:1021C000184801F07EFA08BB6946164801F0B6FBD4
:1021D000802100980830FEF797FDC4B2002C10DD76
:1021E000009880F88840009800F06CF820B90E48FC
:1021F000009901F092FB0CE00A48009901F07CFB89
:1022000007E00848009901F077FB02E001F0D4FCF8
:1022100038BD01F0D1FCFEF74BFD0028D0D100BF46
:10222000F6E70000BC170020C4170020F8B5002016
:10223000009001F0DDFA1C4801F043FA06462CE05C
:102240006946194801F07AFB01F060FA00980830FD
:10225000FFF7FAFE01F0CCFA1448009901F05DFB9B
:10226000114801F02EFA0646009890F888001728C9
:1022700013DB0098457C002408E00098083004F146
:102280000C01415C0A480155601CC4B2AC42F4DB4D
:102290000749A1F1580011F0D9FC002ED0D0FFF76A
:1022A00089FF01F033FAF8BDC4170020BC170020E5
:1022B000F047002010B5024801F003FA10BD0000FD
:1022C000C4170020014601F108021078042801D04B
:1022D00001207047937891F88800C01E834201D096
:1022E0000220F6E70020F4E700BFEFF30880044681
:1022F0001448006814490968C1F8F0001148001F2B
:10230000006811490968C1F8F4000F49606909685B
:10231000C1F8D0000C4800688068401C0A49096870
:10232000886009490968D1F8CC2007490968483113
:1023300001EB82000168491C016001E001F0B4FA80
:10234000FCE700002CED00E0880400204CF6CC40B7
:102350000149086070470000003000404AF6AA209A
:1023600001490860704700000030004001494860A2
:10237000704700000030004001498860704700004D
:102380000030004001490860704700000030004004
:1023900000B58BB00DA30FCBCDE90923CDE9070123
:1023A0000021084614F073F9002003900490059072
:1023B000069007A80D2100221346CDE900210290C6
:1023C0001146104613F0A4FE0BB000BD0954696D10
:1023D0006265726C696E6520320000000548006815
:1023E000D0F85C02401C03490968C1F85C0200BFD8
:1023F000FEE700008804002006480068D0F8540278
:10240000401C04490968C1F8540201E001F04CFA8B
:10241000FCE700008804002070B5002100230F2293
:10242000C4781CB3174C246804F4E064C4F5E06479
:10243000C4F30721C1F10404E3B20A4144789C408B
:10244000E1B28478144021430C07210E0E4C05782C
:102450006155047804F01F050124AC4005786D1126
:10246000AD0005F1E025C5F8004109E0047804F06D
:102470001F050124AC40054D0678761145F826402D
:1024800070BD00000CED00E000E400E080E100E041
:10249000014908627047000000000E4201490860CF
:1024A00070470000A4000E4204480068D0F8700293
:1024B000401C02490968C1F8700270478804002076
:1024C00029B1064A12680243044B1A6004E0034A29
:1024D00012688243014B1A60704700003038024096
:1024E00029B1064A12680243044B1A6004E0034A09
:1024F00012688243014B1A60704700004038024066
:1025000029B1064A12680243044B1A6004E0034AE8
:1025100012688243014B1A60704700002038024065
:1025200029B1064A12680243044B1A6004E0034AC8
:1025300012688243014B1A60704700004438024021
:102540000E48006840F001000C49086000200B496B
:1025500008310860094800680949084007490860CF
:102560000848091D0860081F006820F48020091F22
:102570000860002001490C310860704700380240B3
:10258000FFFFF6FE10300024F0B5002100220024E9
:10259000022500260223324F3F6807F00C0121B1CB
:1025A000042905D0082937D105E02E4F076036E011
:1025B0002C4F076033E02A4F3F1F3F68C7F3805618
:1025C000274F3F1F3F6807F03F036EB1254FB7FB12
:1025D000F3F7DFF88CC0ACF1040CDCF800C0CCF3EE
:1025E000881C07FB0CF40CE01E4FB7FBF3F7DFF879
:1025F00070C0ACF1040CDCF800C0CCF3881C07FB05
:102600000CF4174F3F1F3F68C7F301477F1C7D0045
:10261000B4FBF5F7076002E0124F076000BF00BF90
:102620000F4F3F6807F0F00109090F4F7A5C076808
:10263000D74047600A4F3F6807F4E051890A0A4FC4
:102640007A5C4768D7408760054F3F6807F4604170
:10265000490B054F7A5C4768D740C760F0BD000062
:10266000083802400024F4001804002010B5014688
:102670000022002300204A11012A02D10A4C2368BB
:1026800008E0022A03D1084C7034236802E0064CAB
:102690007434236801F01F02012494401C400CB1E3
:1026A000012000E0002010BD00380240014600205B
:1026B000034A106820F0F0000843106070470000E3
:1026C000083802400021024A117011460870704714
:1026D000023802400149086070470000800E4742FE
:1026E00001460020034A106820F4E05008431060BF
:1026F000704700000838024001460020034A106875
:1027000020F4604040EAC100106070470838024081
:1027100001490866704700000000474270B5049CFC
:1027200041EA82150126C6EB530645EA06450543F4
:1027300045EA0465014E356070BD00000438024072
:1027400001460020034A106820F00300084310608F
:10275000704700000838024038B50020009000247F
:10276000002500BF3120FFF781FF05460098401C7F
:1027700000900098B0F5A06F01D0002DF2D031206C
:10278000FFF774FF08B1012400E00024204638BDA3
:1027900021B1028842F04002028004E002884FF634
:1027A000BF731A400280704710B50022028802F4FD
:1027B00041520B884C8823438C882343CC88234385
:1027C0000C8923434C8923438C892343CC8923439D
:1027D0001A430280838B4FF2FF74234083830B8A5A
:1027E000038210BD0021018041808180C180018170
:1027F00041818181C18107210182704704480068BD
:10280000D0F86802401C02490968C1F868027047A4
:102810008804002030B500228B071C0F0F2303FA19
:1028200004F20B4B8C1053F824309343084C8D105A
:1028300044F8253023468C1053F824308C07240F9D
:1028400000FA04F42343024C8D1044F8253030BDC7
:102850000838014010B50D484068B0F57A7F11D9AD
:102860000A48007870B901200849087000BFEFF3EA
:1028700008800749086008460068406905490968FA
:10288000C1F8F80001480CF0CFFB10BDC01B0020C0
:10289000000400208804002070B5002000220223DC
:1028A00000240221274D2D6805F00C0020B10428DA
:1028B00006D0082834D107E0234D244E356033E09C
:1028C000214D224E35602FE01E4D2D1F2D68C5F382
:1028D00080541C4D2D1F2D6805F03F0154B11A4D39
:1028E000B5FBF1F5174E361F3668C6F3881605FBA3
:1028F00006F209E0144DB5FBF1F5124E361F3668AD
:10290000C6F3881605FB06F20E4D2D1F2D68C5F384
:1029100001456D1C6B00B2FBF3F50C4E356003E016
:10292000094D0A4E356000BF00BF064D2D68C5F346
:102930000315074E705D054D2D68C540034E35608B
:1029400070BD0000083802400024F4000404002098
:102950000804002010B51248006840F0010010493A
:10296000086000200E49083108600D4800680D49D4
:1029700008400B4908600C48091D0860081F0068E2
:1029800020F48020091F0860002005490C310860F0
:1029900000F042FC4FF000600449086010BD0000E8
:1029A00000380240FFFFF6FE1030002408ED00E082
:1029B00021B1828842F00102828004E082884FF6D1
:1029C000FE731A4082807047CA430282704721B169
:1029D000028842F00102028004E002884FF6FE7392
:1029E0001A400280704731B1B0F8442042F40042EE
:1029F000A0F8442005E0B0F84420C2F30E02A0F88D
:102A0000442070471AB183890B43838102E0838994
:102A10008B4383817047000070B50024002200239F
:102A2000058C4FF6FE7635400584028C8388048B36
:102A30004FF68F752C40B51E2C400D882C43751E0B
:102A40002A408D892A434D882A43104DA84202D03E
:102A50000F4DA84213D14FF6F7752A40CD892A436E
:102A60004FF6FB752A408D882A434FF6FF652B40B1
:102A70004FF6FF552B400D8A2B434D8A2B43838005
:102A800004838D684563028470BD0000000001402E
:102A90000004014070B5002400220023058C4FF68D
:102AA000EF7635400584028C8388048B48F6FF75E9
:102AB0002C404FF6FF452C400D884FF6FF7606EA76
:102AC00005252C434FF6DF752A408D8906EA05154A
:102AD0002A434D8806EA05152A43154DA84202D01F
:102AE000144DA8421DD14FF67F752A40CD894FF66F
:102AF000FF7606EA05152A434FF6BF752A408D88F2
:102B000006EA05152A434FF6FF352B404FF2FF75B5
:102B10002B400D8A06EA85052B434D8A06EA85057A
:102B20002B43838004838D688563028470BD00001D
:102B3000000001400004014070B500240022002381
:102B4000058C4FF6FF6635400584028C8388848BA4
:102B50004FF68F752C404FF6FC752C400D882C439A
:102B60004FF6FF552A408D894FF6FF7606EA052578
:102B70002A434D8806EA05252A43154DA84202D06E
:102B8000144DA8421DD14FF2FF752A40CD894FF652
:102B9000FF7606EA05252A434FF6FF352A408D8841
:102BA00006EA05252A434EF6FF752B404DF6FF75C4
:102BB0002B400D8A06EA05152B434D8A06EA0515BA
:102BC0002B43838084838D68C563028470BD0000BD
:102BD000000001400004014070B5002200230024E1
:102BE000058C4EF6FF7635400584038C8488828BF5
:102BF00048F6FF752A404FF6FF452A400D884FF6EC
:102C0000FF7606EA05252A434DF6FF752B408D8990
:102C100006EA05352B434D8806EA05352B430A4D58
:102C2000A84202D0094DA84208D14BF6FF752C40AE
:102C30000D8A4FF6FF7606EA85152C438480828341
:102C40008D680564038470BD0000014000040140EC
:102C5000002101804180818081608181C181018268
:102C60004182704700220288184B98420ED0184BC0
:102C700098420BD0B0F1804F08D0164B984205D047
:102C8000154B984202D0154B984204D14FF68F73E2
:102C90001A404B881A43124B984207D0114B984266
:102CA00004D04FF6FF431A400B891A4302804B6849
:102CB000C3620B880385054B984202D0044B9842AF
:102CC00001D18B7A03860123838270470000014083
:102CD000000401400004004000080040000C0040D7
:102CE00000100040001400404FF0FF31416000210F
:102CF00001800181418081727047000070B50446F7
:102D000006480CF08DF92168401A451C6068A842FD
:102D100001D2012070BD0020FCE70000C01B002094
:102D200070B504460D46656002480CF079F92060E4
:102D300070BD0000C01B00201FB530212C480CF0D6
:102D40001FF940F225512B4800F075F888B140F288
:102D50002551284800F054F8264800F025F9C4B25F
:102D60002146254803F04EFF2146244811F033FC4C
:102D700000BF40F224411F4800F05DF850B11D48EB
:102D8000008800901B48001D008800901B4812F02E
:102D900073F900BF40F22661164800F04CF870B19C
:102DA00040F22661134800F02BF81448007818B15F
:102DB000124811F0EFF902E00F4803F079FE40F2FB
:102DC00027710C4800F037F828B1002240F2277133
:102DD000084800F05AF80748001D0088039005488D
:102DE00000880290DDE90201084401901FBD000047
:102DF000C01B0020004800409C38002058440020A0
:102E000010B50022002340F66A14A14200D100BF91
:102E10000A1201249440A3B2DC43048010BD21B106
:102E2000828942F40052828104E082894DF6FF7368
:102E30001A408281704770B50246002400230025A5
:102E4000002040F66A16B14200D100BFC1F342151E
:102E500001F01F03012606FA03F3012D02D1968922
:102E6000334006E0022D02D1168A334001E0968AF3
:102E700033400C12012606FA04F41688344013B1CC
:102E80000CB1012000E0002070BDF0B50346002425
:102E900000260025002040F66A17B94200D100BF85
:102EA0001846C1F3421401F01F06012707FA06F580
:102EB000012C01D10C3004E0022C01D1103000E0D3
:102EC00014301AB107682F43076002E00768AF4368
:102ED0000760F0BD2DE9FF4705460E460024A146D8
:102EE00000BFA046B08900B100BF2C8A24F4405432
:102EF000F08804432C82AC8941F20C608443B08892
:102F000031890843718908430443AC81AC8A24F4B5
:102F10004074B0890443AC826846FFF735FB204813
:102F2000854202D01F48854202D1DDF80C9001E0B5
:102F3000DDF80890A88900F4004040B109EBC90011
:102F400000EB091031684900B0FBF1F707E009EB2D
:102F5000C90000EB091031688900B0FBF1F764206B
:102F6000B7FBF0F004012009642101FB1078A88967
:102F700000F4004040B1322000EBC800B0FBF1F09B
:102F800000F00700044308E0322000EB0810642141
:102F9000B0FBF1F000F00F0004432C81BDE8FF8787
:102FA000001001400014014001468888C0F3080069
:102FB0007047C1F30802828070474FF416510160D8
:102FC00000218180C18001810C214181002181810A
:102FD0007047000005480068D0F86402401C0349AF
:102FE0000968C1F8640200BFFEE700008804002001
:102FF00000F07F01014A116070470000002C004082
:1030000010B51E48006840F080501C4908601B48FD
:103010001038006840F480201849103908600120F9
:10302000FFF736FA0120FFF739FA00BF144840686D
:1030300000F008000028F9D012480068D0F80C050C
:1030400010490968C1F810050E480068D0F8C8009A
:103050000C490968C1F8CC000A480068D0F814058A
:1030600008490968C1F81C0506480068D0F8180529
:1030700004490968C1F8200510BD0000403802402D
:10308000007000408804002010B54A4800680068BD
:103090004949884203D000204649096848604748AA
:1030A000407820B1464843490968486103E0002060
:1030B0004049096848614148007820B140483D498D
:1030C0000968086103E000203A49096808613B4843
:1030D000407810B93948407830B13848D0F8A40069
:1030E00034490968086403E000203249096808642B
:1030F0003448407820B132482E490968886103E09D
:1031000000202C49096888612F48407850B12C482C
:1031100028490968C8612948D0F8A80025490968E4
:10312000486406E000202349096848642149096889
:10313000C86100202DE02549095C01290ED1244AEF
:103140001C490968203141F8202020490A390A5CCD
:1031500018490968343121F8102019E01B49095C2D
:1031600002290FD11A4A521C12490968203141F82C
:10317000202016490A390A5C0E490968343121F8C1
:10318000102005E000220B490968203141F8202079
:10319000401C0528CFDB0848064909680860054837
:1031A0000068406802B241F2FC01044809F0B2FA3A
:1031B00010BD000088040020EFBEADDE604300209B
:1031C000EAEBFFC0D41E0020E21E0020581D0020A4
:1031D000E1FFC00008B50020009003E000BF0098A8
:1031E000401C00900098B0F5D27FF7DB08BD70B5A9
:1031F00004460D461646324629462046FDF752FA49
:1032000070BD70B504460D46164632462946204626
:10321000FDF77EFA70BD00000CB500200190009013
:103220002D48006840F480302B49086000BF2A48D0
:10323000006800F4003000900198401C0190009854
:1032400018B90198B0F5A06FF1D12348006800F4D7
:10325000003010B10120009001E0002000900098A3
:10326000012838D11C48083000681B490831086023
:103270000846006840F4004008600846006840F4D2
:10328000A05008601548091F0860081F006840F03A
:103290008070091F086000BF0F48006800F00070D0
:1032A0000028F9D040F207700D4908600A4808303C
:1032B000006820F0030008490831086008460068EB
:1032C00040F00200086000BF03480830006800F0CA
:1032D0000C000828F8D10CBD003802401030410520
:1032E000003C024010B55A480BF09AFE5949096853
:1032F000401A642807D95848007820B154480BF088
:103300008FFE54490860554890F89F0210B1534809
:103310000CF0FAF946205249A1F848005148486398
:1033200051494F4881635149C16351490164514931
:10333000416408464A49C1F8EC004B494848C0F886
:10334000F0104A49C0F8F4104949C0F8F81049494A
:10335000C0F8FC104349C0F80011C0F80411C0F8CF
:103360000811C0F80C11C0F810114249C0F814112E
:1033700041483B490865052081F8E6003F4840493F
:10338000086140493E4841614FF0834181613E49B7
:10339000C16101203A4908702C213C4881612D21EE
:1033A00041616421C16101210172417280F84810BC
:1033B000374901613749C1601721C171002141714D
:1033C000172180F82E10002180F82F10032180F89B
:1033D000301080F831105A21C0F83811C0F834117B
:1033E0000021C0F83C11032180F82811372180F812
:1033F0002911012180F868112749C0F830112749A7
:10340000C0F82C112B2180F82711012180F82511FB
:103410000021C0F8C811C0F8C411C0F8CC110121B6
:1034200080F8B811002180F8B911012180F8F81155
:103430001B49C0F8C0111B49C0F8BC11062180F817
:10344000B711002180F8B5110D2180F8BA1110BD17
:10345000C01B00204C040020AC480020EC200020C1
:10346000101C00200000A0410000B0410000B84145
:103470000000C0410000C841000020C100004041E0
:10348000A42300200000604100009041F01E0020B5
:10349000A470CA4233335341A470B8420000704153
:1034A000A470DE42000020412DE9F04188B00446BE
:1034B0000D4640F6FF774FF47848E6028DF80A5043
:1034C00000208DF80B0001208DF80C004FF6FF70E6
:1034D00000EA1640ADF80000B0B2ADF80200ADF859
:1034E0000470ADF806800120ADF808008DF80D00DD
:1034F0006846FDF705FF04A8FDF702FF08B0BDE828
:10350000F081000010B504460B480BF089FD0B4913
:103510000968401A0A490B4A127841F82200094802
:10352000047009480068C0F8CC4003480BF078FDEF
:103530000249086010BD0000C01B002040040020AC
:10354000D01B002044040020880400202DE9F04115
:1035500005460B461646294600226CE0087880286E
:1035600006DA0F781046541CA2B21F54491C62E0C0
:10357000087800F0E000C0283CD1487800F0C00096
:10358000802837D10C7848783F27D02C03D1812868
:1035900001D1A82725E0D02C08D1902806DBAF2840
:1035A00004DC00F1300C0CF0FF071AE0D02C08D13D
:1035B000B02806DBBF2804DC00F1300C0CF0FF075C
:1035C0000FE0D12C08D1802806DB8F2804DC00F125
:1035D000700C0CF0FF0704E0D12C02D1912800D12F
:1035E000B827944602F101081FFA88F203F80C701C
:1035F000891C20E00878E2280CD14878842809D179
:103600008878962806D1B9271046541CA2B21F54B8
:10361000C91C10E03F271046541CA2B21F54087862
:10362000E02801DA022005E00878F02801DA03201A
:1036300000E004200144087810B1701E90428DDC37
:10364000002098541046BDE8F081000010B50948EC
:103650000BF0E6FC08490968401A40F6B831884288
:1036600006D904480BF0DCFC03490860FFF70CFDA9
:1036700010BD0000C01B00208C040020024600206A
:1036800002EA01030BB1012000E000207047EFF3D4
:103690001080704780F3108870472DE9F041044690
:1036A0000025FFF7F4FF074672B6266801E06D1C9F
:1036B0003668A642FBD13846FFF7ECFF2846BDE846
:1036C000F08170B50446FFF7E2FF064672B6206847
:1036D000A04201D1012500E000253046FFF7DAFFC6
:1036E000284670BD0146802901DA0120704701F0AB
:1036F000E000C02801D10220F8E701F0F000E02846
:1037000001D10320F2E70420F0E70000074991F916
:103710000E0100F01F02012191404209920002F1C6
:10372000E022C2F8001100BF704700009847002057
:103730001CB56846FEF776FC4FF4407000900120FF
:103740008DF8040069461148FEF7F4FB6846FEF761
:1037500069FC40F60400009001208DF804006946E1
:103760000B48FEF7E7FB4FF400610948FEF758FCF1
:103770006846FEF757FC4FF40070009001208DF86A
:10378000040069460348FEF7D5FB1CBD000002405B
:10379000000402400008024000F01F020121914095
:1037A0004209920002F1E022C2F80011704700F0D5
:1037B0001F02012191404209920002F1E022C2F869
:1037C00000117047024609B9002070475018282898
:1037D00001DC0120F9E7FF2A05DD5018B0F59D6FE7
:1037E00001DC0120F1E70020EFE700604060704756
:1037F000064991F90E0100F01F0201219140044A8F
:10380000430942F8231000BF70470000984700208A
:1038100080E100E008B5FFF7EBFF09E069460848E2
:1038200000F08CF80748009900F077F8FEF7C2FC2A
:103830000448FFF732FF0228F0DBFFF767FF08BDFF
:10384000C4170020BC1700202DE9FC4106460F4696
:1038500014461D4664216846FFF762FA0CE0EBB29D
:10386000E2B239463046FDF7A5FA00B905E06846F0
:10387000FFF744FA00B100E0F1E700BFBDE8FC81CA
:1038800010B5002807DA0A07140E054A00F00F03E6
:103890001B1FD45403E00A07130E024A135410BD31
:1038A00018ED00E000E400E0BFF34F8F0648006829
:1038B00000F4E06005490843001D03490860BFF3B8
:1038C0004F8F00BFFEE700000CED00E00000FA059E
:1038D000BFF34F8F0648006800F4E06005490843D5
:1038E000001D03490860BFF34F8F00BFFEE70000D3
:1038F0000CED00E00000FA0570B505460C46FFF738
:10390000C6FE064672B62868206065602C60206896
:1039100044603046FFF7BEFE70BD70B505460C46EC
:10392000FFF7B5FE064672B62560686860606C6099
:10393000606804603046FFF7ADFE70BD70B50546A7
:103940000C46FFF7A4FE064672B628682060286879
:1039500000F009F8002021680860216848603046BE
:10396000FFF798FE70BD70B50446FFF790FE054660
:1039700072B6D4E900010860D4E900104860284616
:10398000FFF788FE70BD70B505460C46FFF77FFE59
:10399000064672B6686820606868FFF7E4FF00209A
:1039A00021680860216848603046FFF773FE70BDEB
:1039B0001CB51148B0F80C01009000208DF80400EF
:1039C00002208DF8050000208DF8060002208DF8F9
:1039D00007000949D1F804016946FEF7ABFA002057
:1039E0008DF804008DF807000349D1F804016946F9
:1039F000FEF7A0FA1CBD00009847002010B55548FE
:103A000000680068544988427ED152480068406985
:103A10005249884207D10120514948704D480068F9
:103A2000006CC1F8A4004B48006800694B4988420B
:103A300007D101204A49087046480068006CC1F867
:103A4000A4004448006880694449884202D10120AA
:103A5000444948703F480068C0694049884208D1DD
:103A60000120414948703B480068406C3C49C1F81E
:103A7000A80000204BE037490968203151F8201098
:103A80003A4A91421BD1012239490A543149096805
:103A9000343131F81010642911DC2E4909683431B1
:103AA00031F81010CAB232490F390A54294909684D
:103AB000343131F81010CAB22D490A390A54254957
:103AC0000968203151F82010284A521C91421DD11A
:103AD000022227490A541F490968343131F810106D
:103AE000642913DC1B490968343131F81010CAB25B
:103AF0001F490F390A5417490968343131F8101039
:103B0000CAB21B490A3900E01DE00A54401C0528CE
:103B1000B1DB104800684068401C0E4909684860E5
:103B20000C480068D0F8CC00102811D20949096867
:103B3000D1F8CC2007490968883101EB820001687F
:103B4000491C016004E040F224510A48FCF715FECC
:103B500010BD000088040020EFBEADDEEAEBFFC020
:103B600060430020D41E0020E21E0020E1FFC000C0
:103B7000581D0020004002401CB50E48B0F80C0152
:103B8000009001208DF8040002208DF8050000202F
:103B90008DF806008DF807000649D1F80401694642
:103BA000FEF7C8F9034AB2F80C11D2F80401FEF787
:103BB00037FA1CBD984700200248B0F80C010249B2
:103BC0000860704798470020143C014070B50446D7
:103BD0000D462B4600228021204600F079F928B1BD
:103BE000206E40F020002066032070BD0020FCE71E
:103BF0002DE9F84F04460F4690461D460A9EB248EE
:103C00000BF00EFA81464FF0000A00BF94F85C00FA
:103C1000012802D10220BDE8F88F012084F85C0061
:103C200000BF94F85D00012802D04FF0020A40E185
:103C30001FB1B8F1000F00D015B94FF0010A38E1FB
:103C4000052084F85D0000202066C4F84080A4F8B8
:103C50004650A4F84450A763E587A587A06AB0F54D
:103C6000005F10D19948006B00884DF6FF71084045
:103C70009649096B08809548006B008840F4005015
:103C80009249096B0880E068B0F5E06F08D98F4869
:103C9000006B008840F400608C49096B088007E0E5
:103CA0008A48006B008820F400608849096B08800E
:103CB0008648006B008800F04000402805D020684E
:103CC000008840F0400021680880E068B0F5E06FAF
:103CD0004ED945E0E08F00281FDD7C48006B00894D
:103CE00000F00200022818D1A06B00887749096B08
:103CF0008881A06B801CA063E08F401EE087E08F6E
:103D000058B9A06AB0F5005F07D17048006B008811
:103D100040F480506D49096B0880B4F846000028D3
:103D200012DD6A48006B008900F0010060B167484D
:103D3000006B8089216C0880206C801C2064B4F8A2
:103D40004600401EA4F84600701C48B15E480BF0C7
:103D500067F9A0EB0900B04202D34FF0030AA8E0D4
:103D6000E08F0028B6DCB4F846000028B2DC4BE057
:103D700043E0E08F00281EDD5448006B008900F00E
:103D80000200022817D1A16B481CA06308784F4994
:103D9000096B0873E08F401EE087E08F58B9A06A76
:103DA000B0F5005F07D14948006B008840F48050AF
:103DB0004649096B0880B4F84600002811DD4348E5
:103DC000006B008900F0010058B14048006B017B96
:103DD000226C501C20641170B4F84600401EA4F8F8
:103DE0004600701C48B138480BF01AF9A0EB0900E6
:103DF000B04202D34FF0030A5BE0E08F0028B8DC4A
:103E0000B4F846000028B4DCA06AB0F5005F35D1F4
:103E1000334601221146204600F05AF830B1206E98
:103E200040F0020020664FF0030A42E0E068B0F57F
:103E3000706F06D12548006B80890090BDF80000A6
:103E40001CE02248006B007B0090BDF80000206B56
:103E5000022813D1334601221146204600F038F8DB
:103E600030B1206E40F0020020664FF0030A20E0DF
:103E70001648006B007B0090BDF8000020680089A8
:103E8000C0F3001048B1206E40F0020020664FF6EB
:103E9000EF70216808814FF0010A31462046FFF794
:103EA00095FE08B120202066206E08B14FF0010A6F
:103EB00000BF012084F85D0000BF002084F85C0092
:103EC00000BF5046A7E60000C01B00209847002016
:103ED0002DE9F04104460E4617461D4626480BF0D4
:103EE0009FF8804640E0681CE8B335B122480BF0EB
:103EF00097F8A0EB0800A84236D32068808820F00D
:103F0000E000216888806068B0F5827F0DD1A068EC
:103F1000B0F5004F03D0A068B0F5806F05D12068E0
:103F2000008820F0400021680880A06AB0F5005F9A
:103F30000ED100BF206800884DF6FF71084021684F
:103F400008802068008840F400502168088000BF85
:103F5000012084F85D0000BF002084F85C0000BFF1
:103F60000320BDE8F081FFE70448006B0089304082
:103F7000B842B8D10020F4E7C01B002098470020C9
:103F800010B50120FEF7A6FB00BF6120FEF76EFB17
:103F90000028FAD045F25550FEF7F4F90420FEF758
:103FA000E5F940F6FF70FEF7E7F9FEF7D7F9FEF7FF
:103FB000CDF901210803FDF7BDFC10BD2DE9FC5F23
:103FC00004468A464FF000080020019081460025F3
:103FD00045E0665D3046FFF785FB0090202E02D15C
:103FE000D14500DAA846202E00D056BBD14528DDA9
:103FF0002046FCF7E7FA8346584603E0225C411C62
:104000006254401E4045F9DA0A2004F808000D21E8
:1040100008F101002154A84500DC6D1C08F10207DD
:1040200001974FF00009019F05E009F10109E05DEA
:10403000FFF758FB0744AF4202DAE05D0028F4D1F5
:1040400000BF0A2E01D00D2E04D1681C01904FF044
:10405000000901E009F101090098054400BF605D15
:104060000028B6D12046BDE8FC9F38B505460C4671
:1040700007E069462046FFF786FC28460099FFF7CF
:104080003BFC2046FFF71DFB0028F2D038BD0000A6
:1040900010B5044694F88000C01EA07094F88020EB
:1040A0002146024802F0CAFB10BD00009C380020E7
:1040B00010B5002200F8802F5A230478621C00F803
:1040C00080290355A52310F8804F0278521C00F870
:1040D00080290355002310F8804F0278521C00F805
:1040E0008029035510F8803F0278521C00F880297F
:1040F000C15410BD90F88020521C802A00DD70470A
:1041000010F8803F0278521C00F88029C15400BF8B
:10411000F5E710B590F88020921C802A00DD10BDD4
:10412000C1F3072310F8804F0278521C00F8802951
:10413000035510F8804F0278521C00F88029015571
:1041400000BFECE7002180F88010704710B58AB0FE
:10415000044601210846FEF7B3F901210220FEF7CB
:10416000AFF901210420FEF7ABF908A8FDF75AFFCB
:104170004FF4E070089001208DF8240002208DF8A3
:10418000250008A97048FDF7D5FE08A8FDF74AFFED
:104190004FF48060089001208DF8240002208DF8F3
:1041A000250008A96948FDF7C5FE01210846FEF76C
:1041B000B7F901210420FEF793F901210820FEF749
:1041C0008FF908A8FDF72EFF4FF4707008900220B9
:1041D0008DF824008DF8250008A95C48FDF7AAFE9B
:1041E000022206215948FDF7EDFE02220721574819
:1041F000FDF7E8FE022208215448FDF7E3FE022203
:1042000009215248FDF7DEFE08A8FDF70BFF01204B
:10421000089002208DF824008DF8250008A94C484C
:10422000FDF788FE022200214948FDF7CBFE05A8D4
:10423000FEF75AFD1D20ADF8140064200690002002
:10424000ADF81C00ADF8160005A94248FEF70AFDBE
:104250006846FEF7FDFC6020ADF800000120ADF8D7
:10426000020000200290ADF80C0069463948FEF7C4
:10427000D3FB69463748FEF70DFC69463548FEF723
:104280005BFC69463348FEF7A7FC05A8FEF72CFD4A
:104290001D20ADF81400642006900020ADF81C002D
:1042A000ADF8160005A92C48FEF7DCFC6846FEF7C1
:1042B000CFFC6020ADF800000120ADF80200002026
:1042C0000290ADF80C0069462348FEF7A5FB05A84F
:1042D000FEF70AFD1D20ADF81400642006900020B2
:1042E000ADF81C00ADF8160005A91C48FEF7BAFC95
:1042F0006846FEF7ADFC6020ADF800000120ADF887
:104300000200002002900220ADF80C00694613481C
:10431000FEF782FB69461148FEF7BCFB01210D4800
:10432000FEF755FB01210C48FEF751FB012109481E
:10433000FEF759FB01210848FEF755FB002105480F
:10434000FEF736FB0AB010BD000802400004024030
:104350000000024000080040000C00400000014046
:1043600030B50246052915DA002011E002F14A04B1
:10437000645C451C04FB05F3DC1703EB5474C4F3C5
:10438000C70502F14F0404EBC1042554431CD8B205
:104390000828EBDB30BD000070B502461A48405CCF
:1043A000022803D11948B0F92E0070BD1848C07812
:1043B00008B10A20F9E7164890F8C46090F8C300E5
:1043C000C0EB001006EB8004114890F8C66090F82E
:1043D000C500C0EB001006EB80050D4890F8C160E9
:1043E00090F8C000C0EB001006EB8003A34206DB90
:1043F000AB4204DA02F11E0030F91100D5E702F1F8
:10440000280030F91100D0E7441D0020301E0020A4
:10441000604300202DE9FF5F83468A460BF10F01C0
:1044200011F80A20394931F9120012F0DCFE8046F9
:104430000022374B12F050FDCDE90201514658469B
:10444000FFF7AAFF804612F0CEFECDE90001DDE9BC
:10445000022313F06FF804460D462E4951F82A0046
:1044600013F052F9064622462B4612F0E7FE0FD80B
:104470000BF10F0010F80A00072809DA0BF10F0002
:1044800010F80A00401CC1B20BF10F0000F80A102E
:104490000BF10F0111F80A201C49103931F91200F3
:1044A00012F0A1FE06460022194B12F015FDCDE9CF
:1044B000020151465846FFF76FFF064612F093FE81
:1044C000CDE90001DDE9022313F034F804460D467E
:1044D000104951F82A0013F017F9804622462B465E
:1044E00012F0E6FF0FD80BF10F0010F80A000028B9
:1044F00009DD0BF10F0010F80A00401EC1B20BF1EC
:104500000F0000F80A10BDE8FF9F0000DC1D00202E
:1045100000002440441C00202DE9FC5F82468B46AD
:104520001F4810F80B0002280AD11E49B1F92E10BD
:104530001C4AB2F93020881A13F07EFABDE8FC9FBD
:104540001948C07888B1BAF9A80012F04CFE80462C
:104550000022164B12F0C0FC06460022134B12F04C
:10456000DDFF044612F0D2FBE8E7BAF9840012F04E
:104570003AFE044600220D4B12F0AEFCCDE90001DC
:1045800059460748FFF708FF044612F02CFE06467E
:10459000DDE9002312F0CEFF804612F0B7FBCDE735
:1045A000441D0020301E00206043002000002440F5
:1045B0002DE9FF5F82464FF0000BC2E11AF80B00B5
:1045C000022804D101210AF1140000F80B100AF1AD
:1045D0007F0010F80B0088B10BF0FF015046FFF789
:1045E0009BFF0446FE4850F82B10204613F050FB6A
:1045F00004D800210AF17F0000F80B100AF17F00B7
:1046000010F80B00A0B90BF0FF01F648FFF7C4FE4D
:10461000054613F011FA0446F14850F82B102046D5
:1046200013F036FA04D801210AF17F0000F80B10CC
:104630001AF80B0003281EDA0AF17F0010F80B00AD
:10464000A0B9E848143010F80B0001280ED1E64854
:10465000407828B9E448007810B9E348C07828B118
:1046600001210AF1370000F80B1004E000210AF1E3
:10467000370000F80B101AF80B0003287ED10AF15E
:10468000140010F80B00012879D1D748407830B9D0
:10469000D5480078D449C978084300286FD00BF07A
:1046A000FF015046FFF778FE9AF8B810451A2846E1
:1046B00013F0C2F90446CA4850F82B10204613F0F4
:1046C000E7FA11D201210AF1E40000F80B10C74803
:1046D0000AF0A6FC0AF1BC0141F82B0000210AF106
:1046E000D00040F82B10B1E00BF0FF015046FFF76F
:1046F00053FE054613F0A0F90446B94850F82B10B4
:10470000204613F0C5F911D200210AF1E40000F8A7
:104710000B10B6480AF084FC0AF1BC0141F82B00EA
:1047200000210AF1D00040F82B108FE09AF8B80071
:1047300012F070FD064600224FF0804312F0CCFBD1
:10474000CDE902010BF0FF015046FFF725FE0646BA
:1047500012F049FDCDE90001DDE9022312F0EAFE85
:1047600004460D469E4951F82B0012F0CDFF8046BD
:1047700022462B4612F062FD43D201E086E060E063
:104780009A480AF04DFC0AF1BC0151F82B10411A6D
:104790000AF1D00050F82B00814257D993480AF013
:1047A0003FFC0AF1BC0141F82B000AF1E40010F8CB
:1047B0000B0008B9012100E000210AF1E40000F833
:1047C0000B1010F80B00B0B185483438016D8848E3
:1047D00013F09AFA0646874913F030F8054613F0AD
:1047E000EFF804460122214680480AF0F7FB47F221
:1047F0003051484300E014200AF1D00141F82B0069
:1048000024E07A480AF00CFC0AF1BC0151F82B10A4
:10481000411A0AF1D00050F82B00814216D900212C
:104820000AF1E40000F80B1070480AF0F9FB0AF1F5
:10483000BC0141F82B0014210AF1D00040F82B10E4
:1048400004E000210AF1E40000F80B100AF1E40092
:1048500010F80B0008B1012100E000210AF1370037
:1048600000F80B1010F80B0040B164210AF10500AC
:1048700000F80B10401D00F80B1007E000210AF1B2
:10488000050000F80B10401D00F80B101AF80B0083
:10489000012854D10AF1140010F80B00012832D17C
:1048A0000AF17F0010F80B0068BB4F48407828B928
:1048B0004D48007810B94C48C07820B34848343887
:1048C00090F8740018B14C4890F89400D8B90BF0E7
:1048D000FF015046FFF79EFD0AF17A0010F80B0029
:1048E00020B10AF1320010F80B0007E00AF14F0086
:1048F00000EBCB01403810F80B00085C0AF1050111
:1049000001F80B0004E000210AF1050000F80B108B
:104910000AF1140010F80B00022806D10AF1320047
:1049200010F80B102D3800F80B100AF1140010F8D5
:104930000B0020B900210AF1050000F80B100BF163
:10494000010BBBF1050FFFF639AE28480AF068FBF2
:104950002A490968401ABAF8781088427DD9234854
:104960000AF05EFB2549086000201FE00AF10A01F9
:104970000A5C491F095C8A4207DA0AF10A01095CEC
:10498000491CCAB20AF10A010A540AF10A010A5C76
:10499000491F095C8A4207DD0AF10A01095C491EC8
:1049A000CAB20AF10A010A54411CC8B20528DDDB6B
:1049B000114890F88E0038B19AF8B40020B1642103
:1049C0008AF80E108AF809100B4890F88E00C8B9C2
:1049D0009AF8B400B0B100218AF80E1010E000007F
:1049E000441C0020441D002060430020C01B002008
:1049F0000000F04100002041301E00206C04002027
:104A00008AF809103D4890F88F0038B19AF8B5003F
:104A100020B164218AF80D108AF80810374890F800
:104A20008F0038B99AF8B50020B100218AF80D102E
:104A30008AF8081000200EE03149095C19B93049A4
:104A4000491D095C29B100220AF105010A54491DDA
:104A50000A54411CC8B20528EEDB9AF80000012870
:104A600006D19AF80A20632126480AF0BEFA01E02E
:104A70009AF80A00244908609AF80100012806D132
:104A80009AF80B2063211F480AF0AFFA01E09AF868
:104A90000B001D49091D08609AF80200012806D183
:104AA0009AF80C20632117480AF09FFA01E09AF85F
:104AB0000C001549083108609AF80300012806D156
:104AC0009AF80D2063210F480AF08FFA01E09AF856
:104AD0000D000D490C3108609AF80400012806D138
:104AE0009AF80E20632107480AF07FFA01E09AF84D
:104AF0000E0006490860BDE8FF9F0000301E002040
:104B0000AC1C0020C01B002034080040340C0040C6
:104B100070B50446EC212046FBF72FFE002518E077
:104B2000162104F11E0020F8151014210A3020F877
:104B300015100A210A304155502118304155294697
:104B40002046FFF70DFC082104F144004155681C84
:104B5000C5B2052DE4DB012020704FF49670A4F857
:104B600078000A20A4F898000F219A2001531421FC
:104B70009C20015319219E2001531E21A020015386
:104B80002321A22001532821A420015305218A209A
:104B900001530A218C2001530F218E20015314212F
:104BA000902001531921922001531E21942001537A
:104BB0002321962001533220A4F8A800204670BD7E
:104BC0002DE9F04104460E4684F82460FE480AF0C0
:104BD00027FA2065082E6ED006DC012E0BD0022E9F
:104BE0006AD0032E69D121E1092E67D00F2E78D02B
:104BF000102EF7D17EE2002534E0F448405D00F04D
:104C0000010020B1F1481E3030F9150000E0FF200E
:104C1000C2B2681C04F124010A54EC48405D00F063
:104C2000010020B1E948283030F9150000E0FF20EC
:104C3000C2B2A81D04F124010A54E448405D30B119
:104C4000E34951F82500E34912F08AFD00E0E2480B
:104C5000074612F0D1FEC2B205F10B0004F12401A7
:104C60000A546D1C052DC8DBFF2134200155DB489B
:104C7000007808B1012100E0002135200155005DD8
:104C8000D649497809B1012100E0002140EA4101FB
:104C900035200155005DD249497809B1012100E074
:104CA000002140EA411135200155005DCD49497888
:104CB00029B1012104E009E114E05BE2A7E1002150
:104CC00040EA811135200155C1493439086DC14987
:104CD00012F046FD054612F08FFEC1B23620015596
:104CE0004AE2C7E1B94890F87A00802101EAC01190
:104CF00025200155005DB54991F8321001F07F0182
:104D0000084325210855B14890F87B00802101EA2D
:104D1000C01126200155005DAC4991F8331001F017
:104D20007F01084326210855A84890F87C0080217F
:104D300001EAC01127200155005DA44991F8341003
:104D400001F07F01084327210855A04890F87D0015
:104D5000802101EAC01128200155005D9B4991F88E
:104D6000351001F07F01084328210855974890F835
:104D70007E00802101EAC01129200155005D934980
:104D800091F8361001F07F01084329210855FF21D1
:104D90002A200155944890F86D122B200155924815
:104DA00090F86E122C2001558F4890F86F122D202C
:104DB00001558D4890F870122E2001558A4890F8C0
:104DC00071122F200155814800788049497840EAC6
:104DD0000110C1B2302001557C4880787B49C978E8
:104DE00040EA0110C1B231200155784801793220E2
:104DF00001557648407D00F003017448007D61F361
:104E00009F007249897D01F0030140EA01116F485A
:104E1000C07D00F0030041EA8011332001556B484A
:104E2000007E00F0030134200155A5E1FF2125207B
:104E300001556A4890F8C31026200155674890F83C
:104E4000C41027200155654890F8C5102820015549
:104E5000624890F8C61029200155FF212A200155EB
:104E60002B2001555D48B0F86200010A2C20015545
:104E70005A4890F862102D200155584890F86F104C
:104E80002E200155554890F86D102F20015554489B
:104E900000785449097840EA4100C1B231200155F7
:104EA0004F488179322001554E4881793320015590
:104EB0004C4800890112342001554A48017A3520B6
:104EC00001554748817A3620015555E14748C07859
:104ED00000EBC0014548001D00EBC10090F82A100E
:104EE000252001554148C07800EBC0013F48001D16
:104EF00000EBC10090F82B10262001553B48C078EC
:104F000000EBC0013948001D00EBC10090F82C10E7
:104F1000272001553548C07800EBC0013348001DFB
:104F200000EBC10090F82D10282001552B4890F877
:104F30008C1029200155294890F88D102A20015500
:104F4000264890F88E102B200155244890F88F1099
:104F50002C200155264801782D2001552448401C5D
:104F600001782E2001552248801C01782F20015500
:104F70001F48C01C0178302001551C48C07800EB48
:104F8000C0011A48001D00EBC100808EC0F307214C
:104F9000312001551548C07800EBC0011348001DB1
:104FA00000EBC10090F83410322001550F48C07852
:104FB00000EBC0010D48001D00EBC100008FC0F3E5
:104FC00007213320015515E0C01B0020441D00209F
:104FD000441C00200000204200007F43604300206A
:104FE000D41E0020E21E0020EC200020F01E002035
:104FF000C6FF03086448C07800EBC0016248001D8A
:1050000000EBC10090F8381034200155B4E021784D
:10501000252001556178262001555C48017827201C
:1050200001555A48401C0178282001555748801CDA
:105030000178292001555548C01C01782A200155C6
:1050400000212B2001552C2001552D2001552E200B
:1050500001552F200155A078012804D14C4A06CAD9
:10506000C4E90C1205E0FF22082104F13000FBF72F
:105070005AFB81E04748017C807D41EA0010C1B2C3
:10508000252001554348017F90F8220041EA001095
:10509000C1B2262001553F4890F8281090F82E0004
:1050A00041EA0010C1B2272001553A4890F8341067
:1050B00090F83A0041EA0010C1B228200155354865
:1050C00090F8401090F8460041EA0010C1B2292043
:1050D000015500200BE000EB40022E49103101EB9E
:1050E00042010B79811D04F124025354401C0A280B
:1050F000F1DB41E000200BE000EB400225491031DC
:1051000001EB42014B78411C04F124025354401C32
:105110000A28F1DB002008E01E4908310B5C00F191
:105120000B0104F124025354401C0428F4DB1948F9
:10513000017B407B41EA0010C1B233200155154884
:10514000817BC07B41EA0010C1B2342001550E4979
:10515000C97801EBC1020C49091D01EBC201886845
:105160000D4912F0C9FC054612F046FCC1B23520CB
:10517000015501E0BDE8F08100BF04F124010748BA
:105180000EF032FF00BFF5E7F01E0020C6FF030857
:1051900008800008E82300200000204198470020F4
:1051A00002465820B1F1006F04D32E4B994201D230
:1051B000002056E02B4B994204D32B4B994201D24D
:1051C00008204EE0284B994204D3284B994201D243
:1051D000102046E0254B994204D3254B994201D239
:1051E00018203EE0224B994204D3224B994201D22F
:1051F000202036E01F4B994204D31F4B994201D225
:1052000028202EE01C4B994204D31C4B994201D21A
:10521000302026E0194B994204D3194B994201D210
:1052200038201EE0164B994204D3164B994201D206
:10523000402016E0134B994204D3134B994201D2FC
:1052400048200EE0104B994204D3104B994201D2F2
:10525000502006E00D4B994203D3B1F1016F00D20B
:1052600058207047004000080080000800C0000877
:105270000000010800000208000004080000060801
:105280000000080800000A0800000C0800000E08D2
:1052900070B504463E4890F87E000E2816D13D4871
:1052A00009F0BEFE6169401A42F2107188420DD9C0
:1052B000384809F0B5FE606109212046FFF780FCFF
:1052C000334890F89A1002F0AFFC70BD304890F867
:1052D0007900012829D12070002060702D4809F044
:1052E0009FFE6061211D204600F0CAFA0120A070D7
:1052F0000020274981F87900084690F89A1002F0BA
:1053000093FC09212046FFF75BFC00250BE02148B8
:1053100009F086FE08B1012100E0002104F13C0003
:105320004155681CC5B2142DF1DB194890F879007D
:1053300002281DD1002020700120607016490870DD
:10534000144809F06DFE00F6B830144908601148A1
:1053500009F066FE606100200D4981F87900084679
:1053600090F89A1002F060FC09212046FFF728FC13
:105370000948007850B1074809F052FE074909680A
:10538000884203D9002004490870607000BF9CE780
:1053900060430020C01B00209C170020A0170020A5
:1053A00010B5044654212046FBF7E7F9204600F0EB
:1053B0000DFB204600F0AEFB10BD0000FEB504461C
:1053C000F84809F02DFEF8490968401AB0F57A7FCF
:1053D00004D9F44809F024FEF34908602046FFF799
:1053E00057FFF2480EF05EFCF04890F8350038B9EF
:1053F000002020706070A0700120E061A061FEBDFF
:10540000EA4890F83600002872D00020E74981F879
:105410003600084690F838701422383104F1240020
:10542000FBF744F92078012801D0072F7ED1052F02
:105430007DD006DC012F0BD0022F5AD0032F56D17E
:1054400091E0072F74D0092F73D0102FF7D168E1A6
:10545000002013E0411C04F12402515C09290CDDF9
:10546000411C515C212908DAD149095C29B1411C50
:10547000525CCF491E3121F81020401C0528E9DB81
:10548000002013E0811D04F12402515C09290CDD88
:10549000811D515C212908DAC549095C29B1811DAA
:1054A000525CC349283121F81020401C0528E9DB53
:1054B0003520005D00F00100BE4908703520005D18
:1054C000C0F3400048703520005DC0F34010BA4979
:1054D00048703520005DC0F38010B8494870352011
:1054E000005D00F0100010B1B5480AF00DF92BE195
:1054F000A0E1002012E0411C04F12402515CCA0921
:10550000AB497A310A54411C04F12402515C01F088
:105510007F02A74932310A54411CC8B20528EADB90
:105520003320005D00F00300A14903E00DE195E0A8
:10553000B6E0ECE008753320005DC0F381019C48C3
:1055400041753320005DC0F3011199488175332006
:10555000005D81099648C1753420005D00F00301AB
:1055600093480176F0E02620005D182804DA262012
:10557000015D904880F8C3102720005D3C2804DAC4
:105580002720015D8B4880F8C4102820005D182872
:1055900004DA2820015D874880F8C5102920005DC5
:1055A0003C2804DA2920015D824880F8C6102C20AE
:1055B000005DFF2803D12D20005DFF2808D02D209D
:1055C000015D2C20005D01EB00207A49A1F862000A
:1055D0002F20005D032806DA2F20005D00F0030075
:1055E000744981F86D003220005D332807DA3220DB
:1055F000005D032803DD3220005D6F49C880332041
:10560000005D512803DA3320005D6C49C8803520E5
:10561000015D3420005D01EB0020092811DD3520FB
:10562000015D3420005D01EB002040F2AB51884267
:1056300007DA3520015D3420005D01EB00205F4971
:1056400008813620005D012807DD3620005D0B282B
:1056500003DA3620005D5849488175E0534890F8D8
:10566000390001281BD0514890F83900022816D083
:105670004E4890F83900AA2804D10020514908600A
:10568000FEF726F9494890F83900A52807D149487E
:1056900006F00EF94C484B490860FEF719F953E043
:1056A0002520015D4348C0F8B8102620015D41481F
:1056B000C0F8B4102720005D3E49C1F8B000282092
:1056C000015D3C48C0F8BC102920015D394880F8D4
:1056D000C0102A20015D374880F8C1102B20015DE1
:1056E000344880F8C21090F8C21090F8C100314AD6
:1056F00092F8C020CDE9002002912E4890F8B830F1
:1057000090F8B42090F8B01006F0C4FF1CE02520FB
:10571000005D28B92620005D012801D100202070FD
:1057200012E000260DE0701C04F12401085CFF2843
:1057300006D0701C0B461A5CF1B224480BF098FBA3
:10574000761C0A2EEFDB00BF00BF2078002871D145
:10575000052F6FD1134809F063FC6169401A42F6C6
:10576000F821884266D9102210493931201DFAF7F4
:1057700054FF104890F87E000E285BD000202BE0EC
:10578000002600250AE0211D495D114A02EB0012A6
:10579000525D914200D00126691CCDB2082DF2DB8A
:1057A000C6B91BE0C01B00209817002098470020B6
:1057B000441D002060430020D41E0020E21E002073
:1057C000EC200020FC03002055AA1600E82300204E
:1057D00010800008411CC8B21028D1DB7EB900251A
:1057E0000BE005F10800211D085C21492944097AD4
:1057F000884200D00126681CC5B2082DF1DB012EBD
:1058000009D11C4809F00CFC6061002060701A4846
:1058100006F0B8F90DE0012020700020A07000BF54
:1058200005E0012204F13C010A54411CC8B21428CD
:10583000F7DB00BF002616E004F13C00805D88B174
:105840000C4809F0EDFB0D490968401A322809D9C6
:10585000207838B1002104F13C008155F1B2204696
:10586000FFF7AEF9761C142EE6DB00BFC7E500009B
:1058700000800008C01B0020604300209417002017
:105880002DE9F04FC9B082460F46FCF7F9FA00BF88
:105890004C48006800F480300028F9D14948D0F81D
:1058A0000090B9F1000F02D04846FCF731FA00260B
:1058B00037E04FF0010B4FF000080CE0424800EBDE
:1058C000061010F80800FF2801D04FF0000B08F177
:1058D000010000F0FF08B8F1100FEFDBBBF1010F82
:1058E0001DD1002414E03D5D601C385C05EB0025F3
:1058F000A01C385C05EB0045E01C385C05EB00653E
:10590000314901EB061108192946FCF78BFA241DD1
:10591000082CE8D3FCF76AFA49B0BDE8F08F701C98
:10592000C6B2102EC5DB002405E027482038205CD5
:1059300001A90855641CB4F5907FF6D3224920399B
:105940005046FFF72DFC02210090FCF7E7F900BF5D
:105950001C48006800F480300028F9D1202405E0BC
:1059600001A904F11000085C0855641CB4F5887F97
:10597000F6D3002405E0395D04F5887001AA1154BE
:10598000641C082CF7D3002415E001A8055D601CF9
:1059900001A9085C05EB0025A01C085C05EB00458F
:1059A000E01C085C05EB00650749203960182946B2
:1059B000FCF738FA241DB4F5907FE6D3FCF716FA0D
:1059C00000BFA9E70C3C0240208000082DE9F04709
