:020000040800F2
:10800000400F00209D8100082DA00008C99F000896
:108010000000000000000000000000000000000060
:10802000000000000000000000000000C381000804
:108030000000000000000000C581000889A20008BF
:10804000C9810008C9810008C9810008C9810008E8
:10805000C9810008C9810008C9810008C9810008D8
:1080600095A70008159C0008C9810008C98100086F
:10807000C9810008C9810008DDA3000811A4000817
:1080800051A40008C9810008C9810008C9810008FD
:10809000C9810008C9810008C9810008C981000898
:1080A000C9810008C98100083DA10008C9810008F4
:1080B000C9810008C9810008A59B000800F002F8EA
:1080C00000F040F80CA030C8083824182D18A2463B
:1080D000671EAB4654465D46AC4201D100F032F813
:1080E0007E460F3E0FCCB6460126334200D0FB1A27
:1080F000A246AB46334318474CB600006CB60000AE
:10810000103A02D378C878C1FAD8520701D330C8E0
:1081100030C101D504680C607047000000230024C2
:1081200000250026103A01D378C1FBD8520700D3AE
:1081300030C100D50B6070471FB500F013F91FBDAB
:1081400010B510BD01F0C4F81146FFF7F5FF0AF0B5
:10815000E9FB01F0DCF803B4FFF7F2FF03BC01F028
:1081600011F9000070B505460C46164602E00FCC2A
:108170000FC5103E102EFAD2082E02D303CC03C531
:10818000083E042E07D301CC01C5361F03E0217839
:108190002970641C6D1C761EF9D270BD0E4880F3E8
:1081A00008880E480168090E0D4A914205D10D4814
:1081B0000D4901600D480E49016007480047FEE780
:1081C000FEE7FEE7FEE7FEE7FEE7000009480A4992
:1081D0000A4A0B4B70470000BD80000804000000F5
:1081E0001F000000181002400100000000000140C4
:1081F0000000000040090020400F0020400B00203C
:10820000400B0020002203098B422CD3030A8B422F
:1082100011D300239C464EE003460B433CD400227E
:1082200043088B4231D303098B421CD3030A8B4290
:1082300001D394463FE0C3098B4201D3CB01C01A5E
:10824000524183098B4201D38B01C01A5241430929
:108250008B4201D34B01C01A524103098B4201D317
:108260000B01C01A5241C3088B4201D3CB00C01A84
:10827000524183088B4201D38B00C01A52414308FC
:108280008B4201D34B00C01A5241411A00D2014621
:108290005241104670475DE0CA0F00D049420310BA
:1082A00000D34042534000229C4603098B422DD309
:1082B000030A8B4212D3FC22890112BA030A8B42B1
:1082C0000CD3890192118B4208D3890192118B4200
:1082D00004D389013AD0921100E08909C3098B4285
:1082E00001D3CB01C01A524183098B4201D38B01C8
:1082F000C01A524143098B4201D34B01C01A52416B
:1083000003098B4201D30B01C01A5241C3088B42AF
:1083100001D3CB00C01A524183088B4201D38B009A
:10832000C01A5241D9D243088B4201D34B00C01A24
:108330005241411A00D20146634652415B10104639
:1083400001D34042002B00D54942704763465B1081
:1083500000D3404201B50020C046C04602BD704770
:108360007047704770B5064C7C44064D7D4403E071
:10837000206800198047241DAC42F9D170BD00006F
:10838000F8B3000074B400000246C80FC007814370
:108390004B0030B54B405B009B0D20D01923DB0612
:1083A000C91801231B05994220DB0324A4070425D7
:1083B0001346AB400BD3002B04D1EB0613409B00BC
:1083C000E34204D401246407002312195941FF2316
:1083D0001B0599420BD2C9000143500F09E0CB02A3
:1083E00004D501430803024305D0054830BDFF21F1
:1083F000C905084330BD084607210905884330BD3B
:108400000000C07FF0B50C46871A9C410D46861AC5
:108410009D4103D2C01BA141D21963410D0D1F0D17
:10842000C94EEC1BAE435CD07F057F0D0026002FAC
:1084300051D02D05AC46A943DD020123ED0A1B05F1
:108440001D4320231B1B24D41746E74038187141D5
:108450002F46E740CC199D402818314661410C0D4C
:1084600027D161449A4013D50023401C5941520042
:108470000ED14008400001224B005205D34207D3E1
:1084800005204007C14201D5B04900E0B04930465F
:10849000F0BD6B00002A00D001229A181F23203C57
:1084A0001B1B01D5002302E0E540281871410C0D8B
:1084B000D7D0012424050919C407CD07400849086D
:1084C000E40F28436144002CD5D00024401C6141B6
:1084D0009A40D0D1CDE76A05520DD9D1C90FC9074D
:1084E000D5E79C4D4E00002801D0012400E0002477
:1084F00034195F00002A01D0012600E00026BE19D1
:10850000954FAC420CD8AE420AD8B44206D00125F1
:108510006D05EC42BCD010461946F0BD9942FCD026
:1085200000203946F0BDF0B51FB40C460F46811A45
:108530009F412546861A9D4106D20125ED076F40D1
:10854000401ABC4152187B41210D1E0D8D1BAC46BB
:108550007D4D8D437ED075056D0D7CD00D05AE46ED
:10856000AC431B031B0B794D52429D4120236646B1
:108570009B1B14D31746F74038180026009074410F
:1085800060462F460741E41900989D40281866412F
:1085900016D4714671189A4025D5012320E093180E
:1085A0002A466A415200002B00D0521C1E23203E56
:1085B0009B1B002B61DD3541EE1728186641E8D57D
:1085C000001876415B1C9A4000D3401C4B05F31801
:1085D0001524E34010D3002B52D071467118D30FED
:1085E000C01802D3491C05B0F0BD0123DB079A4235
:1085F000F9D140084000F6E701225205B21801D136
:10860000002853D00123CC0ADB029943891E002A9B
:1086100008D1020C03D0020C0004103902E002461B
:10862000002020390023550B05D112020823550BD9
:1086300001D152010D23550C01D112011B1DD50C86
:1086400001D192009B1C150D01D152005B1C20250D
:10865000EE1A01E02CE022E00546F5401543984073
:10866000CA1AE10769181305C918002ABBDA0320E2
:1086700040070818C10FC9070FE071466118B2E73B
:10868000F10740080843711071444A000CD00123DF
:108690005B059A42A7D2C90FC9070020A3E7490585
:1086A000490D26D1002001E00028F4D100219AE7ED
:1086B000284D6600002801D0012100E0002171183A
:1086C0005F00002A01D0012600E00026BE19224FDB
:1086D000A94210D8AE420ED8B14208D001256D058E
:1086E000E94206D01946A802414010467BE79C4269
:1086F00001D0214677E70020394674E710B50C46D3
:108700005C4005D50124E4076340FFF70CFF10BD72
:10871000FFF778FE10BD30B40C465C4004D5012450
:10872000E407634030BC6DE630BCFCE670B5012464
:10873000E40761400D465D4002D4FFF763FE70BD63
:108740006340FFF7F0FE70BDFF0700000000F0FF80
:108750000000F07F0000E0FF0000F87FF0B5F94D69
:108760000C091E092C402E402F468BB0A7437DD00C
:10877000B543FCD0002E7AD0002CFCD00D465D40D5
:10878000ED0F2543AC1BFF25AD0464190894C50209
:10879000440DC9022143500DDC0204430120C007EF
:1087A00001430443D2020191200C110C00958C4628
:1087B000010423468B430A9161460904E24D8A4332
:1087C0000991010A7D4449198039097805464D43CC
:1087D00001266D18F605751B6943C90C640B891CCD
:1087E0004C436418B5012C1B250C2E04B4434C4398
:1087F0004D43210C691889090591009DE90701D0B5
:108800000121C90704912C4601996708CD072F4320
:108810004C08059DE10B4D432D0C294666467543DA
:1088200002950D4645432E46029D7D1BB4410095A1
:108830000D465D4301942C0C2F040D465543AE4666
:108840002D0C3D43029503947546049C2D04641B36
:10885000049406D2029C039D641C00267541039576
:10886000029401AC70CC009F7D1B01E03EE162E10F
:10887000B44109040095079101940599A408614346
:10888000090C0C464443650BE7040C4666467443EA
:10889000A646640B3C43039502947446049DE4048D
:1088A0002C1B049406D2029C039D641C0026754177
:1088B0000395029401AC70CC009F7D1BB4410194E0
:1088C0000C465C430095650FE7000C465443A646F2
:1088D000640F3C43039502947446049DE4002C1BF2
:1088E000049406D2029C039D641C002675410395E6
:1088F000029401AC70CC009F7D1BB441AE09AF0661
:10890000049DC900AD092F43049DA406AD0604953E
:10891000079D344369180791059DE10B4D432D0CCC
:1089200029466646754302950D4645432E46029DEF
:108930007D1BB44100950D465D4301942C0C2F0422
:108940000D465543AE462D0C3D43029503947546A6
:10895000049C2D04641B049406D2029C039D641C99
:10896000002675410395029401AC70CC009F7D1BDD
:10897000B44101948C050694079C890A61180095FE
:108980000791019C0599A4086143090C0D464543D4
:10899000680BEF040D46644665436C0B3C43049F33
:1089A000ED047D1BAC4602D20025641C6841009E8C
:1089B000019D371B85410846584301950C46460FDB
:1089C000C5005443600F28436546E4002C1B02D2C7
:1089D0000025401C6E41019D3F1AB5412846BD0946
:1089E000800628438446A009BF064E020699A406C5
:1089F00076180743079D002068410A99079019439C
:108A00000020099B00906046FF1913434041E20F8C
:108A100064003A43A4460446D71A8C41A04203D9C5
:108A20000120009020463A46C70F94184041624604
:108A3000D20F2243644664000494009CBE46640046
:108A4000D71AA446044602978C417746002F01D1DD
:108A5000A04204D96046401C8446029A2046C40FB6
:108A6000A64694184041049A0546D20F2243644614
:108A70006400D31A8D417146002901D1A84202D960
:108A800028461A46641C10430122002800D01643D1
:108A900061020020079B891904465C410223002CD7
:108AA00002DB491813466441089DCE0A2D145D1956
:108AB0004B056705E10A2C050D1908993E43C907C6
:108AC0006940002B08D0934006D30022761C514108
:108AD000002B01D1760876001C4A002D43DB15429D
:108AE00041D0AA433FD030460BB0F0BD06180D462A
:108AF0004D41174C7642AC411AD395181C465C4147
:108B0000134A6D42A24113D3012252054C00D442B4
:108B10000AD15C00D4420BD04B4002D592021143E3
:108B2000E2E749004908DFE75940C90FC90718E0E3
:108B300000200849D8E7054801420DD10342F7D08B
:108B4000F2E700000000FF07BCAE00000000F07F6D
:108B50000000E0FF0000F87F114859400143C012B7
:108B600041400020C0E70123089A9B069A4205DC99
:108B7000032252078918C90FC907B5E70522520712
:108B80008918074A1143D2125140ADE770B5154616
:108B90001C4602460B4628462146FFF7DFFD70BD06
:108BA000FFFFFF7F30B50346CA02400D1043164D4C
:108BB000164C0A1502D02043002A06DBAA1A002A06
:108BC00012DDD040FF2A0BDC30BD5205520D01D121
:108BD00040004008AA1A07D4D0404042FF2A01DDD5
:108BE000002030BD0028FCDD4A00002B01D0012010
:108BF00000E00020101801225205D042F0D8C8171A
:108C0000C043604030BD00001E0400000000008032
:108C10000346CA02400D10B510430A1504D00124C2
:108C2000E4072043002A05DB0A4CA21A04D4D040F2
:108C3000FF2A00DD002010BD4A00002B01D00120DA
:108C400000E00020101801225205D042F2D8C817C7
:108C5000C04310BD1E0400001F22030C02D10F22CE
:108C6000000402D0030E03D004E000200146704748
:108C70000002083A030F01D10001121F830F01D136
:108C80008000921E002801DB4000521E1205511880
:108C90004205C012411810467047C10FC90700D0E5
:108CA0004042012292071143D6E701218907D3E709
:108CB000F0B58B4C0F09254689B0BD437BD01D090B
:108CC0002646AE43FAD00E465E402740F60F3E439E
:108CD000254071D024012142FBD0FF24AD19A4040A
:108CE0002D1B039501252D05DB02DB0AC9022B4351
:108CF000C90A29431E010901040F130F050121436D
:108D00001701880B820391432D098C46A90B1E4342
:108D10008A039543B30B9A0396433F09BA0B940316
:108D2000A74302962E467E430497B6464E19D7199E
:108D30000C460196544305977E43371B7646BF1B6E
:108D40003601B646BE0B361900967646BC04371976
:108D5000009C01D3641C00946400002F01D0012604
:108D60003443029E049F754366467E430496760014
:108D700034196E0034190094029C019E1C1966433C
:108D8000751BAE46069465464519059C05956C43D2
:108D9000594375460891691A0191049E0146514351
:108DA000A41B0491611A009C0791E10605D061099A
:108DB0000122114302E072E06EE06109089D002784
:108DC0002C0A2D066918049D7C412A0A2D06691873
:108DD000019D6241AC0DAD026D185441079A910D91
:108DE000920255196141029A644658435443069BC6
:108DF000059A5A43121A131B9A0E9B015B187A416B
:108E0000010B0005C3185141220A200644195A419A
:108E10009A4200D2491C01204002814203D315230B
:108E20000226F64302E014230326F6432020C51A47
:108E3000A9401746AF40DA400A4320460399D8407C
:108E40000914731819055118039A3843D207514071
:108E5000AC4009D00122944006D30022401C51416D
:108E6000002C01D1400840001E4A934212D3012237
:108E700003989206904207DB0520400709181A481C
:108E80000143C012414004E0032040070818C10F0D
:108E9000C907002009B0F0BD0020F107FAE7051866
:108EA0000C464C4111486D42A04115D394181A4606
:108EB0005A410E48644290410ED301204A004005B9
:108EC000824209D35A00824206D35940C90F084A48
:108ED000C90700201143DDE700200649DAE700005A
:108EE0000000FF07FE070000FFFFFF7F0000E0FF1C
:108EF0000000F07F0000F87F0121C905012341181F
:108F000042001B06D3185B0E0AD0C1100722D206FE
:108F1000891840075242D14201D552008918704742
:108F2000090208D50146002A03D0C10FC907002055
:108F3000704710467047420202D000200249704735
:108F4000072109050143F4E70000F87FF0B5FF258C
:108F50002D04C609C209FF2704462E400137CB095C
:108F60003E4348402A402B400746002A6BD0002B46
:108F700069D0AA4267D0AB4265D0002800DA3246F9
:108F80000125ED0529432C4309022002090AD21AC2
:108F90004B0C7F24E31A434C000A7C44E35C7D24A1
:108FA0002404121914145B00A218884201D3521C25
:108FB00000E0400049420C465C4324115C43DB0165
:108FC0006415E318040A5C43C502200D0C464443B3
:108FD0006419250A5D432303EC0C0D466543000329
:108FE0000019EB184C42A34201D35B18401CD40576
:108FF0002018002B07D05B00C91804D3401C00299F
:1090000001D1400840003F2189048A4209D3002A47
:1090100008DC1106090F04D0032149074018C00FCE
:10902000C007F0BD01224100120689187F225206B6
:109030009142F6D205214907C84201D59010F0BDF2
:10904000FF20C005F0BD002F00DA32461648AA42C4
:1090500007D2AB4205D21902090E17D0F80FC0078C
:10906000F0BDFF2563002D06AB42F9D84900A942A7
:10907000F6D8AB4201D1A942F2D0A94201D10021D8
:1090800001E061004908D0050843F0BD1102090E56
:10909000FBD0FF200243D005F0BD0A460146104632
:1090A00054E7000066A700000000C07F10B501462D
:1090B0009E240002CA15A307002A02D01843002AE2
:1090C00004DBA21A002A0CDDD04010BD1206120EDD
:1090D00001D140004008A21A03D4D04040420028E9
:1090E000F3DDFF2248001206904201D9002010BD96
:1090F000C817C043584010BD0102C21504D0012357
:10910000DB071943002A0ADB9E239A1A02D4084679
:10911000D0407047FF2241001206914201D9002041
:109120007047C017C04370471F22030C02D10F22A3
:1091300000041CD0030E01D10002083A030F01D134
:109140000001121F830F01D18000921E002801DB55
:109150004000521ED2055118021251181922904097
:1091600004D3491C002801D149084900084670472A
:10917000C10FC90700D04042012292071143D3E733
:1091800001218907D0E70000F8B5224C4E00069D6A
:10919000A6420AD8A64201D1002806D15E00A64206
:1091A00003D8A6420AD1002A08D00D24240425425F
:1091B0002CD02946002000F061F8F8BD0C461C4375
:1091C0000CD4994202D0EFF30080F8BD904202D057
:1091D000EFF30080F8BDEFF30080F8BD0924240709
:1091E000E5008B4206D0EFF30080A043591A06D267
:1091F000284304E0101A05D3EFF30080A04380F366
:109200000088F8BDEFF30080A043F1E7009500F07F
:109210004DF8F8BD0000E0FF10B5FF231B06440029
:109220009C421DD84C009C421AD80346124A0B435C
:1092300007D4401A02D3EFF3008010BDEFF3008093
:1092400010BD081A06D2EFF3008001219043C90730
:10925000084302E0EFF30080904380F3008810BDE4
:109260000D231B041A4204D01146002000F006F81A
:1092700010BD00F025F810BD00000090C80212D506
:109280004803400F002804D0C803C0430121884090
:109290007047EFF30080000100090321090708432C
:1092A00080F30088704700207047000010B5002050
:1092B0000249029A00F033F810BD00000000F87F68
:1092C00010B5024800F02BF810BD00000000C07F70
:1092D000754600F053F8AE46050069465346C0088F
:1092E000C000854618B020B5FEF770FF60BC0027AF
:1092F0004908B6460026C0C5C0C5C0C5C0C5C0C562
:10930000C0C5C0C5C0C5403D49008D46704710B5B9
:109310000446C046C0462046FEF71DFF10BD10B5EE
:109320000C461107090F092904D00A290AD0082977
:109330000CD104E011460820FFF7A0FF06E051061B
:1093400006D501E0510601D50120C007214610BD18
:10935000D10607D501010909CC084907000E00060E
:10936000044309E0410F20024907000A0143200E8F
:1093700000061D22D14101430846E7E70048704737
:10938000DC08002001491820ABBEFEE726000200E1
:10939000704710B50B460021846A1C43846200BFED
:1093A0000C4614432146416110BD002904D0826857
:1093B00001231A43826003E0826802231A43826019
:1093C0007047002904D0C26801231A43C26003E039
:1093D000C26852085200C2607047C26802239A43B2
:1093E000C260C2680A43C2607047000010B50446FC
:1093F0000548844207D10121401500F059FE0021A3
:10940000601500F055FE10BD0024014030B5014646
:109410000020002200238C680125ED072C438C607E
:1094200000BF8C68E30FDB07521C0F242403A24209
:1094300001D0002BF5D18C68E40FE407002C01D19A
:10944000086C00E0002030BD30B50246002000234B
:10945000012424060C40002C05D0946801252D061B
:10946000AC43234600E013681C460C40002C01D09E
:10947000012000E0002030BD10B50022C268084B7A
:109480001A400C7964030B6823438C682343CC682F
:1094900023430C6923434C6923431A43C26010BD24
:1094A00003D2FFFF816804221143816070470021CD
:1094B000016001718160C16001614161704700001C
:1094C000002807D0074989680122D2051143054ABF
:1094D000916006E0034989680122D2059143014A5F
:1094E0009160704700270140002807D0074989682C
:1094F000012212061143054A916006E0034989687A
:10950000012212069143014A9160704700270140F1
:10951000002807D007498968012292051143054AAE
:10952000916006E003498968012292059143014A4E
:109530009160704700270140002904D0012907D01D
:10954000022911D10AE0826880231A4382600CE06C
:1095500082680123DB031A43826006E082680123EC
:10956000DB051A43826000E000BF00BF70470000C7
:1095700010B501235B02CA1A994242D010DC20299F
:1095800030D006DC012924D0042925D0082948D16F
:1095900025E0402929D0CA1FF93A002A41D12DE0FF
:1095A0003F246402131BA24236D009DCFF3AFF3A83
:1095B000023A002A28D001239B02D21A31D126E098
:1095C0000122D2039A1A13D001231B04D21A28D1E4
:1095D00011E0154A826025E00822C26022E01022D4
:1095E000C2601FE0082202611CE01022026119E043
:1095F0000822426016E01022426013E0042242601A
:1096000010E0042242600DE0042242600AE00022E1
:1096100082610422426005E00022826104224260ED
:1096200000E000BF00BF10BD0101010010B50446FD
:109630000121480600F01CFD00210120400600F039
:1096400017FD10BD70B504460D4600266069284020
:1096500000286FD0FF210131681A8D4264D010DCE0
:10966000082D3DD006DC012D28D0022D2CD0042D54
:109670007BD12FE0102D39D0202D3DD0402D74D13D
:1096800040E07F221202811A904268D00DDCFF3840
:10969000013800284FD0FF38FF380238002850D05A
:1096A00001218902401A60D151E00120C003081A4B
:1096B0002ED001210904401A57D12FE0A0682E496D
:1096C00001F06CF9064652E0E068032101F066F90A
:1096D00006464CE0E068082101F060F9064646E0E5
:1096E000E068102101F05AF9064640E020690321A4
:1096F00001F054F906463AE02069082101F04EF9DC
:10970000064634E02069102101F048F906462EE0B3
:109710006068082101F042F9064628E060681021DF
:1097200001F03CF9064622E0A069012101F036F97A
:1097300006461CE01CE0A069022101F02FF9064654
:1097400015E0A069042101F029F906460FE0A0699F
:10975000702101F023F9064609E006E0FFE76068A2
:10976000042101F01BF9064601E0002600BF00E0DD
:109770000026304670BD00000101010030B50246F0
:109780000020002314680225AC43146014680125EE
:109790002C43146000E05B1C5468E407E40F002CC9
:1097A00002D13C4CA342F6D15468E407E40F002CEC
:1097B00001D100206DE08C79012C04D11468802542
:1097C0002C43146003E014688025AC431460CC790A
:1097D000012C04D1146840252C43146003E0146864
:1097E0004025AC4314600C7A012C04D11468202568
:1097F0002C43146003E014682025AC4314604C7AB9
:10980000012C04D1146810252C43146003E0146863
:109810001025AC4314608C7A012C04D114680825FF
:109820002C43146003E014680825AC431460CC7A20
:10983000012C04D1146804252C43146003E014683F
:109840000425AC4314608C78A407CD782D062C43F6
:109850000D792D042C434D792D052C430D886D1E5B
:109860002C43D4611468640864001460002300E091
:109870005B1C5468E407E40F002C02D0054CA342A3
:10988000F6D15468E407E40F002C01D0002000E07A
:10989000012030BDFFFFFF0010B50C010346FF3370
:1098A000B1331B59042423401372137A002B07D1C0
:1098B0000C010346FF33B1331B595B0D136006E007
:1098C0000C010346FF33B1331B59DB0853600C0115
:1098D0000346FF33B1331B590224234053720C015A
:1098E0000346FF33B133E3185B681B071B0F93720A
:1098F0000C010346FF33B133E3185B681B041B0EF6
:10990000D3740C010346FF33B133E3189B68D37261
:109910000C010346FF33B133E3189B681B041C0E94
:1099200014730C010346FF33B133E3189B681B0229
:109930001C0E54730C010346FF33B133E3189B68CC
:109940001B0E93730C010346FF33B133E318DB683E
:10995000D3730C010346FF33B133E318DB681B04F8
:109960001C0E14740C010346FF33B133E318DB689B
:109970001B021C0E54740C010346FF33B133E31871
:10998000DB681B0E9374002904D1C3682024234391
:10999000C36003E0036920242343036110BD002159
:1099A0008171C171017241728172C1728170C17025
:1099B000032101710221417101210180704730B5FD
:1099C0000246002093680124A4062340A34200D14C
:1099D00010E093680124E4062340A34201D1012052
:1099E00008E09368012424072340A34201D1022008
:1099F00000E0042004287BD004011346FF338133A8
:109A00001B59DC07E40F05011346FF3381335C511A
:109A10000B7A002B0FD10B885B054C7A2343050191
:109A20001446FF3481346459234305011446FF343E
:109A30008134635110E04B68DB000C7A23434C7A8D
:109A4000234305011446FF3481346459234305013F
:109A50001446FF34813463518B7A1B071B0F8B72C2
:109A600004011346FF338133E3185B681C092401AA
:109A700005011346FF338133EB185C600401134684
:109A8000FF338133E3185B688C7A23430501144666
:109A9000FF3481342C1963608B7B1B064C7B2404C0
:109AA00023430C7B24022343CC7A23430501144631
:109AB000FF3481342C19A3608B7C1B064C7C24045E
:109AC00023430C7C24022343CC7B2343050114460F
:109AD000FF3481342C19E36004011346FF338133D2
:109AE0001B590124234305011446FF34813463517B
:109AF00030BD000010B502460023002904D0012922
:109B000007D002290FD109E09068204C204003467D
:109B10000BE090681E4C2040034606E090681D4C08
:109B20002040034601E0002300BF00BF1A4C181B71
:109B3000A3421BD008DC002B14D0184818180028AA
:109B400012D002281CD115E0FF38FF380238002857
:109B500012D0134C001900280AD001246404001B01
:109B60000ED10BE002230DE000230BE0002309E0FF
:109B7000002307E0012305E0012303E0012301E0C6
:109B8000002300BF00BFD8B210BD000003000004D6
:109B9000000300080000031000010008FFFFFFFBA6
:109BA0000003FFF710B502211848FFF74BFD01280D
:109BB0000CD1174A00211548FFF76EFE14481C38D7
:109BC00003F010FA02211148FFF7D2FC10210F48D0
:109BD000FFF738FD01280CD10D4A01210B48FFF792
:109BE0005BFE0B481C3803F0FDF910210748FFF716
:109BF000BFFC012189020548FFF724FD012803D19C
:109C000081020248FFF7B4FC10BD00000064004070
:109C1000D807002010B5022000F042F8002827D015
:109C2000022000F029F81348808B001D81B21148F2
:109C3000818300201AE00F490A6901010D4B803B26
:109C4000595A52180B490A614A69C100491C490016
:109C5000595A521807494A618A69C100891C49004A
:109C6000595A521803498A61411CC8B20428E2DBE0
:109C700010BD0000680200200149486070470000E4
:109C800000000240002904D0026801231A43026048
:109C900003E00268014B1A4002607047FEFF0000BB
:109CA00001460020044A12680A40002A01D001201F
:109CB00000E000207047000000000240002A03D0AE
:109CC00003680B43036002E003688B430360704743
:109CD00010B5002202680D4B1A400C6A8B682343B2
:109CE0000C6923434C6923438C692343CC69234388
:109CF0004C6A23438C6A23431A430260CB68436057
:109D00000B6883604B68C36010BD00000F80FFFFCD
:109D10000021016041608160C16001614161816138
:109D2000C1610162416281627047000030B5044642
:109D300004250B20000400F0AFF80546042D17D1D0
:109D40000C480069022108430A4908610846446139
:109D5000006940210843074908610B20000400F016
:109D60009BF80546034800690221884301490861C0
:109D7000284630BD0020024004200D49C968C907AB
:109D8000C90F002901D0012010E00949C96810223B
:109D90001140002901D0022008E00549C9680422C9
:109DA0001140002901D0032000E00420704700008A
:109DB00000200240034800698021084301490861EE
:109DC0007047000000200240002806D006490968BC
:109DD00010221143044A116005E00349096810226A
:109DE0009143014A116070470020024078B5064651
:109DF0000C460425002000900B20000400F04CF8D5
:109E00000546042D24D11348006901210843114956
:109E1000086134800B20000400F03EF80546042D54
:109E200010D1B01C0090200C009908800B20000479
:109E300000F032F80546074800694008400005492F
:109E4000086105E0034800694008400001490861D5
:109E5000284678BD0020024001460020044A1068D0
:109E60004008400002460A431046014A106070470D
:109E7000002002400548006980210840002804D0E5
:109E80000348024948600348486070470020024088
:109E900023016745AB89EFCD10B503460424FFF7D6
:109EA0006BFF044603E0FFF767FF04465B1E012CCF
:109EB00001D1002BF7D1002B00D10524204610BD85
:109EC000F0B50A4600210023002400BF3DE0012533
:109ED0008D402B4615681D402C469C4234D1157987
:109EE000012D02D01579022D16D185684F00032669
:109EF000BE40B543856055794E00B5408668354310
:109F00008560858801268E40B54385808588967951
:109F10008E40B6B23543858005684F000326BE40AB
:109F2000B543056015794E00B540066835430560B8
:109F3000C5684F000326BE40B543C560D5794E00C5
:109F4000B540C6683543C560491C1029BFD3F0BD74
:109F5000F0B5002300244D07EE0E1546B5402B4604
:109F6000CD10AE0005462035AD594E07F70E0F2631
:109F7000BE40B543CE10B60007462037BD51CD10C8
:109F8000AE003D46AD591D432C46CD10AD003E46BA
:109F90007451F0BD02460020138A0B40002B01D003
:109FA000012000E000207047018570478161704703
:109FB0000449016000210171012141710021817179
:109FC000C1717047FFFF000000BFBFF34F8F04480F
:109FD0000449C860BFF34F8F00BF00BFFEE7000019
:109FE0000400FA0500ED00E00148024908607047EE
:109FF000CCCC0000003000400148024908607047A6
:10A00000AAAA0000003000400149486070470000E3
:10A010000030004001498860704700000030004077
:10A0200001490860704700000030004070470000A0
:10A03000002905D0054A52690243044B5A6104E0E5
:10A04000024A52698243014B5A6170470010024034
:10A05000002905D0054AD2690243044BDA6104E0C5
:10A06000024AD2698243014BDA6170470010024014
:10A07000002905D0054A12690243044B1A6104E025
:10A08000024A12698243014B1A6170470010024074
:10A09000002905D0054A92690243044B9A6104E005
:10A0A000024A92698243014B9A6170470010024054
:10A0B000002905D0054AD2680243044BDA6004E067
:10A0C000024AD2688243014BDA60704700100240B6
:10A0D00010B502460021002300205111002902D1B1
:10A0E0000C4C23680BE0012902D10A4C236A06E0DC
:10A0F000022902D1074C636A01E0064C636BD1066A
:10A10000C90E01248C401C40002C01D0012000E02D
:10A11000002010BD00100240002806D00649496A00
:10A1200001221143044A516205E00349496A490882
:10A130004900014A516270470010024010B5602189
:10A14000054800F023F8002804D0034800F03AF84E
:10A15000044600BF10BD000000380040002904D0B4
:10A16000028840231A43028003E00288014B1A4010
:10A1700002807047BFFF00000246002013890B4099
:10A18000002B01D0012000E000207047F0B502460E
:10A1900000200024002300250F073F0F0126BE40AA
:10A1A000B4B20B1101269E40B3B296881E403546CC
:10A1B00016892640002E03D0002D01D0012000E09A
:10A1C0000020F0BD014688897047000010B50022CC
:10A1D0000288C1239B011A400B88CC892343CC8879
:10A1E00023430C8923434C8923438C8923431A43FB
:10A1F00002808288084B1A408B881A4382800B8A1F
:10A2000003820288054B1A404B881A430280838BD5
:10A21000034C2340838310BDFFF00000FBFF0000D0
:10A22000FFF70000014600220A460C321078704702
:10A230008288034B1A40828082880A43828070475A
:10A24000FFEF0000002202460C321170704700211F
:10A25000018041800721090281800021C1800181A4
:10A2600041818181C181072101827047014600201F
:10A27000044A10688008800002460A431046014ADA
:10A28000106070470000014000B5024802F099FFDD
:10A2900000BD000014010020F8B5002500240026B0
:10A2A0000027274840680C2108400546002D06D0AD
:10A2B000042D08D0082D0AD00C2D2ED129E02148DC
:10A2C000214908602DE021481F49086029E01C4809
:10A2D00040680F218904084004461948406803215A
:10A2E000C90308400646A00C841C002E04D118485F
:10A2F0006043154908600BE01148C06A0007000F71
:10A30000471C39461148FDF77DFF60430E49086040
:10A3100007E010480C49086003E00A480A49086051
:10A3200000BF00BF06484068F021084000090A4904
:10A330000D5C05480068E84003490860F8BD00006E
:10A340000010024000127A00000100200024F400F6
:10A3500000093D00006CDC020401002010B51B4820
:10A3600000680121084319490860084640681849F7
:10A3700008401649486008460068164908401349D5
:10A380000860084600680121890488430F49086075
:10A39000084640687F21C90388430C494860084645
:10A3A000C06A00090001C8620846006BFF215431F1
:10A3B0008843064908630846406B0749084003493B
:10A3C00048630020886000F07DFA10BD0010024054
:10A3D0000CB8FF80FFFFF6FEFEFFFEFF10B5102158
:10A3E000094800F0AEF800280CD01021064800F013
:10A3F00085F80648C07BFF2804DA0448C07B401C6F
:10A400000249C87310BD0000002C014094020020D6
:10A4100010B50821C80600F094F8002812D00821D1
:10A42000C80600F06BF808210748FFF7B3FD0028C5
:10A4300005D106480088401C0449088002E000203D
:10A440000249088010BD000000040048C00200203E
:10A4500010B50421184800F074F8002812D0042127
:10A46000154800F04BF820211448FFF793FD002811
:10A4700005D113488089401C1149888102E00020E1
:10A480000F49888108210C4800F05BF8002812D0A1
:10A490000821094800F032F820210848FFF77AFD2A
:10A4A000002805D10648C089401C0549C88102E042
:10A4B00000200349C88110BD00040040000400488A
:10A4C000A8020020002904D0028880231A430280B9
:10A4D00003E00288014B1A40028070477FFF0000B2
:10A4E000002904D0828801231A43828003E08288F5
:10A4F000014B1A4082807047FEFF0000CA4302826F
:10A5000070470000002904D0028801231A4302800A
:10A5100003E00288014B1A4002807047FEFF0000F2
:10A52000002907D04422125A0123DB031A43442393
:10A530001A5205E04422125A53045B0C442213526F
:10A54000704730B50246002000230024158A0D40D4
:10A550002B4695890D402C46002B03D0002C01D0B2
:10A56000012000E0002030BD70B505460C46208873
:10A5700000280AD12389A2886188284600F014F9AE
:10A58000E188284600F092F825E0208804280AD1C6
:10A590002389A2886188284600F022F9E1882846AC
:10A5A00000F08EF817E0208808280AD12389A288B5
:10A5B0006188284600F03AF9E188284600F08CF8D6
:10A5C00009E02389A2886188284600F053F9E188D0
:10A5D000284600F08BF870BD002A03D083890B4316
:10A5E000838102E083898B438381704770B50024A7
:10A5F00000220023058C1C4E35400584028C838884
:10A60000048B194D6F3D2C40B51E2C400D882C43FA
:10A61000751E2A408D892A434D882A43134DA8422E
:10A6200008D0134DA84205D0124DA84202D0124DB9
:10A63000A84212D10C4DED1F2A40CD892A430A4D64
:10A64000ED1E2A408D882A43074DFF3D2B400B4DC0
:10A650002B400D8A2B434D8A2B43838004838D68C6
:10A660004563028470BD0000FEFF0000002C014025
:10A67000004001400044014000480140FFFD00004F
:10A680000A460021018B034B19400B461343194620
:10A6900001837047F7FF0000002101804180818025
:10A6A00081608181C181018241827047028B034BAD
:10A6B0001A400283028B0A4302837047F3FF0000B3
:10A6C000028B044B1A400283028B0B061B0C1A43AD
:10A6D00002837047FFF30000828B034B1A40828392
:10A6E000828B0A4382837047F3FF0000828B044B06
:10A6F0001A408283828B0B061B0C1A43828370479D
:10A70000FFF3000000220288154B984206D0012377
:10A710009B07984202D0134B984203D1124B1A4028
:10A720004B881A43114B984203D0114B1A400B89A6
:10A730001A4302804B68C3620B880385084B98421A
:10A7400008D00C4B984205D00B4B984202D00B4BD3
:10A75000984201D18B7A03860123838270470000DF
:10A76000002C0140000400408FFF0000001000405A
:10A77000FFFC00000040014000440140004801404F
:10A780000021C94341600021018001814180817223
:10A79000704700000348806803210843014988602E
:10A7A0007047000000400240F0B50C460021002533
:10A7B000068C0A4F3E400684018B058C074EF23E04
:10A7C00031401E05360C16433143044E093E3540D8
:10A7D00001262643354301830584F0BDFEFF0000BA
:10A7E000F8B50C460021002500260096068C0D4F7A
:10A7F0003E400684018B058C2605360C00960A4ED9
:10A8000031401E07360C31431606360C3143054ED7
:10A81000903E35401027009E3E433543018305841A
:10A82000F8BD0000EFFF0000FF0C0000F8B50C467B
:10A830000021002500260096068C0C4F3E40068421
:10A84000818B058C2606360C0096084E0D3631405D
:10A850001E05360C16433143054E3540FF270137A0
:10A86000009E3E43354381830584F8BDFFFE000012
:10A87000FFF50000F8B50C460021002500260096E3
:10A88000068C0D4F3E400684818B058C2607360CC6
:10A8900000960A4E31401606360C31431E07360C20
:10A8A0003143074E354001273F03009E3E43354369
:10A8B00081830584F8BD0000FFEF0000FF0C00005D
:10A8C000FF5F00000CB5002001900090112031497D
:10A8D0000860314840683049486008464068486030
:10A8E000084600680121090408432B49086000BF9D
:10A8F0002948006801214904084000900198401C43
:10A9000001900098002804D105210903019888428C
:10A91000EED121480068012149040840002802D0F6
:10A920000120009001E000200090009801280DD146
:10A93000194840687F21C903884317494860084681
:10A94000406813210904084313494860124800680D
:10A950000121090608431049086000BF0E4800683D
:10A960000121490608400028F8D00B4840688008BB
:10A9700080000949486008464068022108430649AA
:10A98000486000BF044840680C2108400828F9D1FD
:10A990000CBD0000002002400010024002460020D2
:10A9A00013460B40002B01D0012000E0002070472F
:10A9B00010B5002819DA1A4A03071B0F083B9B0839
:10A9C0009B00D2588307DC0EFF23A3409A438B07DA
:10A9D0001B0E8407E40EA3401A43114B0407240FF7
:10A9E000083CA408A4001A5118E00E4A03231B02D5
:10A9F000D21883089B00D2588307DC0EFF23A340A4
:10AA00009A438B071B0E8407E40EA3401A43054BA1
:10AA1000032424021B198408A4001A5110BD00004D
:10AA20001CED00E000E100E010B5002819DA1A4A38
:10AA300003071B0F083B9B089B00D2588307DC0EC3
:10AA4000FF23A3409A438B071B0E8407E40EA34009
:10AA50001A43114B0407240F083CA408A4001A5100
:10AA600018E00E4A03231B02D21883089B00D25819
:10AA70008307DC0EFF23A3409A438B071B0E84073A
:10AA8000E40EA3401A43054B032424021B19840837
:10AA9000A4001A5110BD00001CED00E000E100E030
:10AAA00010B50120FFF738FB00BF4120FFF710FB76
:10AAB0000028FAD00648FFF7B3FA0420FFF7A4FAFB
:10AAC0000448FFF7A7FAFFF797FAFFF78DFA10BDD2
:10AAD00055550000FF0F00001CB5044601218804F5
:10AAE000FFF7A6FA6846FFF763FA402000900121BD
:10AAF000684601710321417169460C48FFF7E0F98E
:10AB000040210A48FFF750FA6846FFF751FA012042
:10AB1000C00200900021684601710121C17103212A
:10AB2000417169460148FFF7CBF91CBD000400489C
:10AB3000002181700171704710B50446A07800288B
:10AB400004D00021204600F06DF80DE00748807920
:10AB5000002804D00121204600F064F804E00348F6
:10AB60000178204600F05EF810BD0000A807002024
:10AB700010B504460121C9020148FFF70BFA10BDC8
:10AB80000004004810B504461B480078C007C00FF9
:10AB900000280CD1184807F0BBFD002807D0174843
:10ABA00002F00CFB164908601348C046C046134823
:10ABB00002F004FB12490968401AC8281BD30F4849
:10ABC00002F0FCFA0E49086040210E48FFF7E2F956
:10ABD000012810D1C1020B48FFF7DCF9002808D189
:10ABE0002079401C207120791E2804DD0120A070EE
:10ABF00001E00020207110BD64010020140100203C
:10AC0000680100200004004870B505464021044852
:10AC1000FFF7C0F90446012C00DD0124204670BD79
:10AC20000004004870B505460C46EC70002C04D1B9
:10AC300040210448FFF7B8F903E040210148FFF73D
:10AC4000B5F970BD00040048012101700021417078
:10AC500081700171704770B506460C46154629464D
:10AC60002046FFF7C3F870BD10B504460120FFF77A
:10AC7000ABF80120FFF7F0F810BD70B505460C46A3
:10AC8000FFF7F8F82046FFF751F8FFF793F80B208D
:10AC90000004FFF701F970BD02460868704770476D
:10ACA0001CB504460121C804FFF7C2F96846FFF746
:10ACB0007FF9012080030090012168460171032182
:10ACC000417169460C48FFF7FBF8012189030A48E6
:10ACD000FFF76AF96846FFF76BF90120C00300909F
:10ACE0000021684601710121C1710321417169464A
:10ACF0000148FFF7E5F81CBD0008004800218170FD
:10AD0000C17001714171704710B504460121C9033A
:10AD10000148FFF73FF910BD00080048012181718B
:10AD2000704700218171704770B504460D46374861
:10AD30000078C007C00F00280CD1344807F0E8FCA9
:10AD4000002807D0324802F039FA324908602F480B
:10AD5000C046C0462E4802F031FA2E490968401A12
:10AD60007D21C90088422FD3294802F027FA2949BA
:10AD70000860012189032848FFF70CF9012811D147
:10AD8000C1032548FFF706F9002808D12079401CA7
:10AD900020712079052817DD0120A07014E0002023
:10ADA000207111E00121C9031B48FFF7F3F80028C7
:10ADB00008D16079401C60716079052804DD0120AC
:10ADC000E07001E000202071A079002818D0A07860
:10ADD000002815D1E078002812D1205EA84204DCBA
:10ADE000012189030C48FFF7E1F80020205EC01E16
:10ADF000A8420ADB012189030748FFF7D5F804E0E0
:10AE0000012189030448FFF7CFF870BD7C010020C1
:10AE100014010020800100200008004870B505469C
:10AE2000012189030448FFF7B5F80446012C00DD31
:10AE30000124204670BD0000000800483821018030
:10AE400000218170C170017141717047F0B587B008
:10AE500004462E480078C007C00F00280CD12B48AC
:10AE600007F056FC002807D0294802F0A7F9294925
:10AE700008602648C046C046254802F09FF925498B
:10AE80000968401A7D21C90088423CD3204802F05D
:10AE900095F920490860E078FEF772F901901E48A4
:10AEA000416E019807F01EFF0746FEF725F805469C
:10AEB00000221A4BFDF752FC059104901649086DCB
:10AEC000FEF71AF803910290059B049A07F066FEBC
:10AED0000CD22079282802DA2079401C20712079B0
:10AEE0000A2810D10120207060700CE02079002821
:10AEF00007D02079401E20712079012803D1A0704D
:10AF000001E00020207007B0F0BD00008C0100209F
:10AF10001401002090010020E801002000005940A9
:10AF20000021017001714170817070470149C98A27
:10AF3000C18070472802002000210170417081709B
:10AF4000C170017141717047064916228A5E08215D
:10AF5000415E0F318A4204DD0249C98A0F3909B2C4
:10AF6000018170472802002001460B48C07A002862
:10AF700003D10948407B002801D0002070470748D2
:10AF80001622825E0C20085E824201DD0020F5E779
:10AF90000120087000BFF1E7D40100202802002042
:10AFA00000B502460C48C07A002803D10A48407B0D
:10AFB000002801D0002000BD08481621415E08206D
:10AFC000105E814201DD0020F5E7104600F024F814
:10AFD0000120107000BFEEE7D401002028020020FD
:10AFE00001460B48C07A002803D10948407B00285D
:10AFF00001D00120704707481622825E0620085EB5
:10B000003230824201DD0120F4E70020F2E7000047
:10B01000D4010020280200204179491C4171417966
:10B02000032901DB0121417070470000C721C9439A
:10B0300001810249C98AC1807047000028020020AE
:10B0400010B504460F4802F0B9F80F490968401AD4
:10B050000E4988420AD90B4802F0B0F80A49086044
:10B060006079002802D06079401E60712046FFF7A9
:10B070007BFF002804D02046FFF7CEFF012010BD43
:10B080000020FCE7140100204401002040771B0051
:10B09000BE218181704700000121044A1171002105
:10B0A0000170FE21024A117670470000A8070020B7
:10B0B000D005002070B504462078002800D170BD6E
:10B0C00000203A49C873A078002804D001281DD078
:10B0D000022867D14AE0607800280BD0344802F09B
:10B0E0006DF860600020607001203049C870314800
:10B0F000314948603048C17DFF300130C07D323079
:10B10000814202D10120A07060704BE0607800287D
:10B1100008D0274802F052F86060092026490876D6
:10B1200000206070224802F049F86168451A2349FE
:10B130002846FDF767F82249C97D081A1E49087696
:10B140001B4802F03BF86168411A1D48C07D401C55
:10B150000201101A3C2250437D22D200504381420A
:10B1600003D90220A070012060701BE060780028E5
:10B170000BD00F4802F022F86060FE200E490876DE
:10B1800000206070012009490871094802F016F892
:10B190006168401A0B49884203D90020A070012041
:10B1A000607000BF00BF00BF89E70000A807002053
:10B1B0001401002040548900D0050020A0BB0D00E0
:10B1C000D0060020C02709007FB506460D4614466C
:10B1D000052D01D1B8488486072D02D1B64820300C
:10B1E0008472082D0FD12046FDF75FFD0022B34B7E
:10B1F00001910090FDF7B2FA03910290FDF7C4F8B7
:10B20000AD494039C866092D0FD12046FDF74DFDE7
:10B210000022AA4B01910090FDF7A0FA0391029041
:10B22000FDF7B2F8A449403908670C2D08D1200E6B
:10B2300030702002000E70702004000EB070F470A8
:10B240000D2D08D1200E30712002000E70712004E7
:10B25000000EB071F4710E2D08D1200E3072200254
:10B26000000E70722004000EB072F4720F2D0AD11D
:10B27000142C01D35F2C03D950219148018302E0A3
:10B2800021B28F480183102D0AD1142C01D35F2CD9
:10B2900003D950218A48818302E021B28848818302
:10B2A000112D0AD1142C01D35F2C03D950218448CD
:10B2B000418302E021B282484183142D03D121460B
:10B2C000804801F073FC022D03D1A1B27E4801F049
:10B2D0003DFB1A2D02D120B27C494881122D07D1A5
:10B2E0007B494C7008464078072801DD00204870F3
:10B2F0004C2D0AD120B27749088008460021415ED2
:10B30000412902DD4120734908804D2D08D1002CD0
:10B3100003D100207049087002E001206E490870D6
:10B320004E2D08D1012C03D101206B49487002E059
:10B330000020694948704F2D07D168494C7508466F
:10B34000407D022801DD00204875502D08D1012CD8
:10B3500003D101205B49487102E00020594948713E
:10B36000512D0DD121B2564841842221415E03293D
:10B3700003DB2221415E642902DD1421504841840F
:10B38000522D0DD121B24E4881842421415E0329E2
:10B3900003DB2421415E642902DD1E2148488184AB
:10B3A000532D0DD121B24648C1842621415E032987
:10B3B00003DB2621415E642902DD14214048C1845B
:10B3C000542D07D13E488475807D0A2802DB002178
:10B3D0003B488175552D07D13948C475C07D0A2871
:10B3E00002DB09213648C1753548817DC07D814227
:10B3F00004DD0021324881750921C175562D0ED119
:10B400003749CC700846C078502801DD5020C870FC
:10B410003348C0781E2802DA1E203149C870572DE3
:10B420000AD1142C01D35F2C03D95A212448C1839B
:10B4300002E021B22248C183582D0DD121B220480B
:10B4400001852821415E032903DB2821415E64290F
:10B4500002DD1E211A4801850B2D0DD121B218489D
:10B46000C1852E21415E032903DB2E21415E642923
:10B4700002DD03211248C1855C2D07D111498C7171
:10B4800008468079032801DB002088715D2D02D1F8
:10B49000E1B20B4841865E2D0CD1E1B208488186AD
:10B4A000808E022803D00648808E042802DD002109
:10B4B000034881867FBD000028020020000059401B
:10B4C000D0060020C4050020C0020020D0020020C9
:10B4D000BC070020740100205C010020D005002082
:10B4E0008401002070B505460C46052C02D1674842
:10B4F000808E70BD072C03D164482030807AF8E735
:10B50000082C09D161494039C86E614907F0EAFB4E
:10B510000646FDF7F1FDECE7092C09D15B494039FE
:10B52000086F5B4907F0DEFB0646FDF7E5FDE0E747
:10B530000C2C0AD128780006697809044018A978EB
:10B5400009024018E9784018D3E70D2C0AD1287970
:10B550000006697909044018A97909024018E979B7
:10B560004018C6E70E2C0AD1287A0006697A090429
:10B570004018A97A09024018E97A4018B9E70F2C57
:10B5800003D144491820085EB3E7102C03D1414988
:10B590001C20085EADE7112C03D13E491A20085E3D
:10B5A000A7E7142C02D13C480078A2E7022C02D174
:10B5B0003A48C0789DE71A2C03D139490A20085E21
:10B5C00097E7122C02D13748407892E74C2C03D1F0
:10B5D00035490020085E8CE74D2C02D133480078B5
:10B5E00087E74E2C02D13148407882E74F2C02D1B8
:10B5F0002F48407D7DE7502C02D12748407978E7DD
:10B60000512C03D123492220085E72E7522C03D12A
:10B6100020492420085E6CE7532C03D11D492620C5
:10B62000085E66E7542C02D11A48807D61E7552CEC
:10B6300002D11848C07D5CE7562C02D11D48C07865
:10B6400057E7572C03D113491E20085E51E7582CA9
:10B6500003D110492820085E4BE70B2C03D10D497C
:10B660002E20085E45E75C2C02D10B48807940E72C
:10B670005D2C02D10748408E3BE75E2C02D1054885
:10B68000808E36E70020C04333E700002802002008
:10B690000000C842D0060020C4050020C0020020DF
:10B6A000D0020020BC070020740100205C010020B3
:10B6B000D00500208401002070B50446204600F02B
:10B6C00015FC204600F028FC7948828E0521204692
:10B6D00000F0E2FB76482030827A0721204600F015
:10B6E000DBFB73494039C86E724907F0FBFA064626
:10B6F000FDF702FD05462A460821204600F0CCFB56
:10B700006B494039086F6B4907F0ECFA0646FDF7C4
:10B71000F3FC05462A460921204600F0BDFB2078AF
:10B720000006617809044018A17809024018E17800
:10B7300042180C21204600F0AFFB20790006617909
:10B7400009044018A17909024018E17942180D2135
:10B75000204600F0A1FB207A0006617A0904401817
:10B76000A17A09024018E17A42180E21204600F021
:10B7700093FB51481822825E0F21204600F08CFB7B
:10B780004D481C22825E1021204600F085FB4A486D
:10B790001A22825E1121204600F07EFB4748027883
:10B7A0001421204600F078FB4548C278022120464B
:10B7B00000F072FB43480A22825E1A21204600F004
:10B7C0006BFB414842781221204600F065FB3F4860
:10B7D0000022825E4C21204600F05EFB3C4802784D
:10B7E0004D21204600F058FB394842784E21204632
:10B7F00000F052FB3748427D4F21204600F04CFBC1
:10B800002E4842795021204600F046FB2A48222249
:10B81000825E5121204600F03FFB27482422825EB1
:10B820005221204600F038FB23482622825E532115
:10B83000204600F031FB2048827D5421204600F054
:10B840002BFB1D48C27D5521204600F025FB2248D8
:10B85000C2785621204600F01FFB17481E22825E48
:10B860005721204600F018FB13482822825E5821F9
:10B87000204600F011FB10482E22825E0B2120464C
:10B8800000F00AFB0D4882795C21204600F004FBA1
:10B890000948428E5D21204600F0FEFA0648828E5D
:10B8A0005E21204600F0F8FA204600F019FB70BD3A
:10B8B000280200200000C842D0060020C405002055
:10B8C000C0020020D0020020BC070020740100202C
:10B8D0005C010020D005002084010020FEB5074651
:10B8E0000521384600F0B4FA0446601C002803D154
:10B8F000F021F948818601E0F7488486072138461F
:10B9000000F0A6FA04460C2C06D0182C04D00C210A
:10B91000F1482030817202E0EF4820308472082123
:10B92000384600F095FA0446601C00280ED1EA481B
:10B930002030807A0C2804D1E848E7494039C866AD
:10B9400013E0E748E4494039C8660EE02046FDF7B9
:10B95000ACF905460022E34BFCF700FF0191009093
:10B96000FCF712FDDC494039C8660921384600F071
:10B970006FFA0446601C00280FD1D7482030807A27
:10B980000C2805D18320C005D3494039086713E04E
:10B99000D548D149403908670EE02046FDF785F9C2
:10B9A00005460022CF4BFCF7D9FE01910090FCF731
:10B9B000EBFCC949403908670C21384600F048FAC9
:10B9C0000446601C002804D138707870B870F87094
:10B9D00008E0200E38702002000E78702004000E5F
:10B9E000B870FC700D21384600F032FA0446601C35
:10B9F000002804D138717871B871F87108E0200E10
:10BA000038712002000E78712004000EB871FC71AC
:10BA10000E21384600F01CFA0446601C002804D1B0
:10BA200038727872B872F87208E0200E387220020C
:10BA3000000E78722004000EB872FC720F21384696
:10BA400000F006FA0446142C01D35F2C03D95021D0
:10BA5000A648018302E021B2A448018310213846A0
:10BA600000F0F6F90446142C01D35F2C03D95021C1
:10BA70009E48818302E021B29C488183112138468F
:10BA800000F0E6F90446142C01D35F2C03D95021B1
:10BA90009648418302E021B29448418357213846B9
:10BAA00000F0D6F90446142C01D35F2C03D95A2197
:10BAB0008E48C18302E021B28C48C18314213846EC
:10BAC00000F0C6F904462146894801F06FF80221CA
:10BAD000384600F0BDF90446601C00280ED0092C41
:10BAE00003D00C2C01D0122C04D1A1B2814800F05B
:10BAF0002DFF03E00C217F4800F028FF1A21384673
:10BB000000F0A6F90446601C002804D14B20000177
:10BB10007949488102E020B27749488112213846AC
:10BB200000F096F90446601C002802D17349487061
:10BB300001E072494C7071484078072802DD00200E
:10BB40006E4948704C21384600F082F90446601C6A
:10BB5000002803D138206A4908800AE020B26849E9
:10BB6000088008460021415E412902DD41206449E8
:10BB700008804D21384600F06BF90446002C02D1B4
:10BB80006049087002E001205E4908704E21384685
:10BB900000F05EF90446012C02D15A49487002E0D7
:10BBA0000020584948704F21384600F051F90446AA
:10BBB000601C002802D15449487507E052494C7571
:10BBC0000846407D022801DD002048755021384696
:10BBD00000F03EF90446012C02D14549487102E0CB
:10BBE0000020434948715121384600F031F904469C
:10BBF000601C002803D114213C48418402E021B29A
:10BC00003A48418439482221415E032903DB22213D
:10BC1000415E642902DD14213448418452213846B2
:10BC200000F016F90446601C002803D11E212F489D
:10BC3000818402E021B22D4881842C482421415E78
:10BC4000032903DB2421415E642902DD1E212748EC
:10BC500081845321384600F0FBF80446601C00281C
:10BC600003D114212148C18402E021B21F48C184BC
:10BC70001E482621415E032903DB2621415E6429FB
:10BC800002DD14211948C1845821384600F0E0F83B
:10BC90000446601C002803D114211448018502E0E9
:10BCA00021B21248018511482821415E032903DB96
:10BCB0002821415E642902DD14210C4801855421AC
:10BCC000384600F0C5F80446601C00281ED100214B
:10BCD000064881751CE00000280200200000184181
:10BCE0000000A041000059406666F641D0060020E1
:10BCF000C4050020C0020020D0020020BC070020A4
:10BD0000740100205C010020D00500204D4884759E
:10BD10004C48807D0A2802DB00214A488175552164
:10BD2000384600F095F80446601C002803D109212C
:10BD30004448C17501E04348C4754248C07D0A28A3
:10BD400002DB09213F48C1753E48817DC07D8142AB
:10BD500004DD00213B4881750921C1755621384613
:10BD600000F076F80446601C002803D146203649CE
:10BD7000C87001E03449CC703348C078502802DDE7
:10BD800050203149C8703048C0781E2802DA1E2081
:10BD90002D49C8700B21384600F05AF80446601C43
:10BDA000002803D103212748C18502E021B225489C
:10BDB000C18524482E21415E032903DB2E21415EEB
:10BDC000642902DD03211F48C1855C21384600F04B
:10BDD0003FF80446601C002802D11C49887101E02C
:10BDE0001A498C7119488079032802DB0020174911
:10BDF00088715D21384600F02BF80446601C00284D
:10BE000003D128210F48418601E00E4844865E2177
:10BE1000384600F01DF80446601C002803D10021BC
:10BE20000848818602E0E1B2064881860548808E96
:10BE3000022803D00348808E042802DD0021014837
:10BE40008186FEBDD006002084010020C4050020AC
:10BE5000F8B507460D460D4C11E021460C48FEF79B
:10BE60001BFF0646701C002801D1401EF8BDAE42E3
:10BE700004D1211D0648FEF70FFFF7E708340548F7
:10BE80008442EAD30020C043F0E7000000E8010844
:10BE9000B401002000F0010870B504460D461646B6
:10BEA0000C49E068884213D30B49E06888420FD8F8
:10BEB0002A460A48E168FEF7CEFEE068001DE06011
:10BEC00032460648E168FEF7C6FEE068001DE06005
:10BED00070BD000000E80108F8EF0108B40100207F
:10BEE00010B50446FDF766FF10BD000070B50546AD
:10BEF000002407E0E002064A81180648FEF7BDFE6E
:10BF0000601CC4B2012CF5DB0148E86070BD000084
:10BF100000E80108B401002010B50446FDF7AAFFAF
:10BF200010BD7047F8B507460D46144600260020A0
:10BF300004E0810069588E19411C88B2A042F8DBE8
:10BF400021463046FCF768F906463046F8BD000049
:10BF500070B504460D46092080012018808E3228D5
:10BF600019DA092080012018808E810020461C30BB
:10BF70004550092080012018808E401C092189012C
:10BF800061188886044801F019F90521C901611872
:10BF900048610020207670BD14010020F0B589B002
:10BFA0000446002600270020069009208001201862
:10BFB000808E322816DA764801F000F90521C90191
:10BFC00061184969401A7349884208D901202076CE
:10BFD0006F4801F0F3F80521C9016118486100209C
:10BFE00009B0F0BD00252FE0681C810020461C3000
:10BFF0004158AA008058081A0790079800280FDDBA
:10C000000698401C002809D1A90020461C30415840
:10C01000BA00FF3091308150781C87B20120069021
:10C02000079800280EDA0698012808D1A9002046B2
:10C030001C304158B200C8308150701C86B20020BC
:10C04000C0430690681C85B2312DCDDB32222146DB
:10C050001C312046FFF766FF0190FCF71EFE002210
:10C060004D4B03910290FCF779FB05910490FCF78E
:10C070008BF9206032462146E4312046FFF752FF1B
:10C080000190FCF70AFE0022434B03910290FCF75B
:10C0900065FB05910490FCF785FDE0603A4621467A
:10C0A000FF31AD312046FFF73DFF0190FCF7F5FD74
:10C0B0000022394B03910290FCF750FB059104904C
:10C0C000FCF770FDA060A168E068401A13214901E7
:10C0D0006118897D89004F22D200A2185050132088
:10C0E00040012018807D401C13214901611888758A
:10C0F0000020092189016118888613204001201839
:10C10000807D062842DB00201321490161188875D3
:10C1100006224F20C00021182046FFF703FF0190A0
:10C12000FCF7BBFD1D4A1E4B03910290FCF716FB6A
:10C1300005910490FCF728F960610520C0012018E2
:10C14000007C01280AD103200521C9016118087467
:10C150001449606906F0C6FD206111E0216960693B
:10C1600006F018FE01D2012020710F49206906F067
:10C1700049FE0590616906F00DFE01D20020207194
:10C18000002101E002202BE73229FBDB002027E71A
:10C1900014010020B80B00000000E4407B14AE47FF
:10C1A000E17A444000002041000070410021092252
:10C1B00092018218918613225201821891750121F1
:10C1C0000522D2018218117400210171704710B547
:10C1D00004462046FFF7E2FE10BD000010B50446FD
:10C1E00000200921890161188886132149016118FD
:10C1F00088750A48206103200521C9016118087467
:10C2000000202071064800F0D9FF0521C9016118FE
:10C21000486100202076204610BD00000000484202
:10C22000140100208189052901DD01210174C189E2
:10C23000052901DD012141747047000010B58AB065
:10C24000044601218804FDF7F3FE01210220FDF7D9
:10C25000FFFE08A8FDF7ACFE10200890012108A8F9
:10C2600001710321417108A93448FDF729FE10210D
:10C270003248FDF799FE012204213048FDF768FE9F
:10C2800008A8FDF795FE20200890002108A801715C
:10C290000121C1710321417108A92848FDF710FE51
:10C2A00005A8FEF76DFA264968468182FF20F53021
:10C2B0000690002168468183C18205A92148FEF7C6
:10C2C00021FA6846FEF7E8F96021684601800121FD
:10C2D00041801B20029000216846818169461948EF
:10C2E000FEF784F91748406B401F164988630846DB
:10C2F000406B9630C863012204211248FEF76CF9A6
:10C30000012208210F48FEF767F900210D48FEF7CA
:10C31000F9F81020012181400B4A116000BF08216B
:10C320000848FEF7ADF901210648FEF7CBF80121D8
:10C330004804FDF77DFE0AB010BD0000000400486F
:10C34000BF1200000004004000E100E000218181F4
:10C35000C181017441747047F0B58DB004460E463A
:10C360001746E07C002801D00DB0F0BD3046FCF748
:10C370009CFC0022674B07910690FCF7EFF90991AE
:10C380000890FCF701F8054665602846FCF7B4FD07
:10C39000614A624B0991089006F0CEFB1ED2A07C48
:10C3A000002817D00020A0740AA8FDF701FE102075
:10C3B0000A90012108A80173032141730AA9584872
:10C3C000FDF77EFD10215648FDF7EEFD0021554892
:10C3D000FEF798F800206060A06099E0A07C00283B
:10C3E00028D10120A0740AA8FDF7E2FD10200A90D0
:10C3F000022108A8017300218173032141730AA956
:10C400004748FDF75DFD012204214548FDF7A0FDE9
:10C410004448808A012108434249888201214148D9
:10C42000FEF770F83F4820300088012108433D495D
:10C4300020310880012F52D13B4908693B4906F061
:10C4400027FC1CD22846FCF757FD0022384B0991E7
:10C45000089006F0A3FB12D833480169284606F07D
:10C4600041FC0590FCF748FD0022324B07910690F5
:10C47000FCF774F909910890FBF786FF05462A49F5
:10C4800008692D4906F004FC29D22846FCF734FD42
:10C490000022274B0991089006F04EFB1FD222493B
:10C4A0000869FCF729FD059104902846FCF724FD56
:10C4B000224A234B01910090FCF7FAFB0391029072
:10C4C000059B049AFCF7F4FB00221A4B0791069097
:10C4D000FCF744F909910890FBF756FF0546194906
:10C4E000284606F057FC00D2164DA5602846FCF7FA
:10C4F00003FD02460B460791069000201249FCF707
:10C500002DF909910890FCF783FB80B20549C862B8
:10C5100000BF29E7000059407B14AE47E17AC43FD1
:10C520000004004800040040E402002000009E4295
:10C53000000010400040594000008C429A9999999F
:10C540009999F13F000020410088C34010B504468E
:10C5500020210248FDF71EFD10BD00000004004828
:10C5600010B5044630480078C007C00F00280CD131
:10C570002D4806F0CDF8002807D02C4800F01EFE0C
:10C580002B4908602848C046C046E07C002800D1FE
:10C5900010BD264800F012FE25490968401A64289B
:10C5A00040D3224800F00AFE21490860607D00283F
:10C5B00003D110211F48FDF7F9FC607D0A2808DA35
:10C5C00020211C48FDF7E6FC002802D1207D401CFC
:10C5D0002075607D0A280CD110211648FDF7E4FC77
:10C5E000207D022803DD012020740020E07400205B
:10C5F0002075607D1E2812DD20210E48FDF7CAFC43
:10C60000002802D1207D401C2075607D232806DD96
:10C61000207D022801DD012060740020E074607D2F
:10C62000401C607500BFB3E73401002014010020F6
:10C63000380100200004004810B504462046FFF7EA
:10C640008FFF2046FFF7EEFD10BD000010B550290A
:10C6500000DD50210A2900DA0A21018002880A231C
:10C660005A43094B5A631A46536B05220A24624304
:10C670009A1A054B9A631A46536B052262439A181D
:10C68000014BDA6310BD0000000400401CB50446F5
:10C690000120E0740020607520756846FDF788FC75
:10C6A0001020009001216846017103214171694603
:10C6B0000548FDF705FC10210348FDF775FC002136
:10C6C0000248FDF71FFF1CBD0004004800040040A5
:10C6D0001B2101800021817441608160C17401755A
:10C6E000417570470188142901DD0121817070476F
:10C6F000FEB504460D4624480078C007C00F002848
:10C700000CD1214806F004F8002807D01F4800F09B
:10C7100055FD1F4908601C48C046C0461B4800F034
:10C720004DFD1B490968401A32282CD3174800F0E8
:10C7300045FD174908602946284606F0D3FA0190BE
:10C740006421E068FBF75EFD217948430090FCF727
:10C7500017FD07460199FCF7F9FB0646FCF7CCFCF0
:10C76000A06001218907A0684863A068322804D925
:10C770000846406B3238C86305E001208007406BF3
:10C7800001218907C863FEBD3C010020140100207F
:10C79000400100207CB504460D46642D00DD642573
:10C7A00025712079002824DD012060716846FDF79D
:10C7B000FFFB0120C00300900221684601710021A7
:10C7C00081710321417169460920C006FDF778FB9C
:10C7D00002220F210920C006FDF7BAFB01218807BC
:10C7E000FDF790FE15480088012108431349088091
:10C7F00022E0002060716846FDF7DAFB0120C003EB
:10C8000000900121684601710321417169460920A8
:10C81000C006FDF755FB0121C9030920C006FDF73D
:10C82000C3FB0648008840084000044908800021F6
:10C8300001208007FDF766FE7CBD0000200000405F
:10C8400010B58AB0044601214804FDF7F1FB01212F
:10C850008804FDF7EDFB01210846FDF7F9FB08A868
:10C86000FDF7A6FB0120C0030890012108A8017173
:10C870000321417108A90920C006FDF721FB012110
:10C88000C9030920C006FDF78FFB08A8FDF790FB40
:10C8900008200890002108A801710121C17103211D
:10C8A000417108A91F48FDF70BFB05A8FDF768FFBC
:10C8B0002F21684681821C480690002168468183AA
:10C8C000C18205A901208007FDF71CFF6846FDF71E
:10C8D000E3FE602168460180012141800020029032
:10C8E000002168468181694601208007FDF77EFEB0
:10C8F00001220821C806FDF76FFE002101208007F4
:10C90000FDF700FE0F2001218140084A116000BFA1
:10C910000821C806FDF7B4FE01218807FDF7D2FD06
:10C920000AB010BD00040048204E000000E100E005
:10C93000002101808170704710B50446082102482B
:10C94000FDF728FB10BD000000040048C1707047CF
:10C9500070B504460D4629462046FFF7C9FE20461D
:10C96000FFF7C0FE70BD00000C21C170C178044A01
:10C970005143C2785143C160002141710171704738
:10C98000204E0000FFB589B007461D46129E0A984A
:10C9900002040B98000210184119384600F0B4F850
:10C9A0000446002C02D113980DB0F0BD2146384644
:10C9B00000F070F804900498022801DA1398F3E765
:10C9C0002146384600F0CCF8B0422BD9002E27D0B3
:10C9D00013980690002D01D138680690012D01D1E1
:10C9E00078680690022D01D1B8680690032D01D118
:10C9F000F8680690002008902146384600F0B0F80C
:10CA00000790211D384600F0ABF805900598019677
:10CA100000903846079B069A089900F066F8C3E72D
:10CA20001398C1E7002003902AE02146384600F021
:10CA300097F80890211D384600F092F8069021469C
:10CA40000831384600F08CF8079021460C31384602
:10CA500000F086F80590089886420CD30798864225
:10CA600009D20598019600903846079B069A0899C6
:10CA700000F03BF898E708340398801C80B20390DC
:10CA80000498801E03998842CFDC211D384600F0AF
:10CA900067F889E7F3B581B00E460027354615E003
:10CAA0002946019800F05CF80446601C002808D074
:10CAB000A01C002805D0E01C002802D0201D002862
:10CAC00001D13846FEBD781C87B22D1D0248854233
:10CAD000E6D33846F6E700008436010810B5029C1C
:10CAE000016082604360C46010BDF8B50C46154615
:10CAF0001E46069F7A1B079B1B1B5A431046311B81
:10CB0000FBF78AFB4019F8BDF8B507460E46124CF4
:10CB10001CE02146384600F023F80546681C002832
:10CB200005D0E81C002802D0281D002801D10020D3
:10CB3000F8BDA81C002808D1211D384600F010F8C7
:10CB4000B04202D120460830F2E7241D0348844257
:10CB5000DFD30020ECE70000D42E01088436010862
:10CB600070B505460C4621460148FEF795F870BDA4
:10CB7000B4010020704700001CB504460121C80420
:10CB8000FDF756FA6846FDF713FA012040030090BE
:10CB9000002168460171C171032141716946024853
:10CBA000FDF78EF91CBD000000080048002202704D
:10CBB000012901D101220270022901D10222027051
:10CBC000032901D1032202707047000010B504460A
:10CBD00034480078C007C00F00280CD1314805F058
:10CBE00097FD002807D0304800F0E8FA2F49086088
:10CBF0002C48C046C0462078002802D1A070208171
:10CC000010BD294800F0DAFA28490968401A32288C
:10CC100037D3254800F0D2FA24490860012149039E
:10CC20002348FDF7B7F9012810D12089502802DAEE
:10CC30002089401C208120893D2801DB0120A07033
:10CC400020893D281DD10120E0701AE0A07800283D
:10CC50000DD02089002802D02089401E2081208903
:10CC600001280ED10020A0700120207109E0208948
:10CC70000A2804DB20893C2801DC012060700020A8
:10CC80002081207803280BD02078012801D00020B3
:10CC900060702078022803D00020A070E07020711E
:10CCA00000BFADE76C0100201401002070010020DE
:10CCB0000008004810B50446012149030148FDF76A
:10CCC00069F910BD000800480021017001818170E0
:10CCD000C17001714171704710B504461C4800785D
:10CCE000C007C00F00280CD1194805F011FD00281D
:10CCF00007D0184800F062FA174908601448C04687
:10CD0000C046144800F05AFA13490968401A3228FC
:10CD10001DD3104800F052FA0F490860207800280F
:10CD20000BD0A088502802DAA088401CA080A088E0
:10CD30003D280CD10120607009E0A088002802D0B5
:10CD4000A088401EA080A088012800D1A07010BD3E
:10CD50009C01002014010020A001002000218180FE
:10CD60000170417081707047FFB581B0174602991C
:10CD7000019800F077F80546002D01D105B0F0BD0F
:10CD80002946019800F04EF80446019800F020F87A
:10CD90004000A04201D00020F0E7002611E0294623
:10CDA000019800F087F800B271007852291D0198AF
:10CDB00000F080F801B27200049881520835701CAE
:10CDC00086B2E10F09194910B142E8DC0120D5E72C
:10CDD00070B50646114C1CE02146304600F06AF85A
:10CDE0000546681C002802D0E81C002801D100205C
:10CDF00070BDA81C00280BD1211D304600F05AF848
:10CE0000FF2805D121460831304600F053F8EFE7FE
:10CE1000241D03488442DFD30020E9E700C801084D
:10CE200000D00108F3B581B00E460027344612E069
:10CE30002146019800F03EF80546681C002805D000
:10CE4000A81C002802D0E81C002801D13846FEBDED
:10CE5000781C87B2241D02488442E9D33846F6E79D
:10CE600000D00108F8B507460E46104C19E02146DF
:10CE7000384600F01FF80546681C002802D0E81C60
:10CE8000002801D10020F8BDA81C002808D1211DD0
:10CE9000384600F00FF8B04202D120460830F2E7E1
:10CEA000241D03488442E2D30020ECE700C80108B7
:10CEB00000D0010870B505460C4621460148FDF733
:10CEC000EBFE70BDB40100207047000010B586B0C5
:10CED000044601218804FDF7ABF801214806FDF75F
:10CEE000B7F801210846FDF7D3F804A8FDF760F86C
:10CEF0000320000204900221684601750021C175DB
:10CF00000321417504A93348FCF7DAFF0422082104
:10CF10003048FDF71DF8042209212E48FDF718F8C6
:10CF20002D48FCF783FB2C480068012108432A495F
:10CF3000086000BF28484068C007C00F0028F9D02B
:10CF400025480068022188432349086001A8FCF7AE
:10CF500026FD002168468171082181800021C17170
:10CF60000E210172072141720121C1730021417319
:10CF70000121C17201A91848FCF700FC164800689D
:10CF8000400840001449086000BF13484068C007CB
:10CF9000C00F0028F9D11149086001200F4940391C
:10CFA0000860C861084600684008400008600A48F8
:10CFB0004069022108430849486100211E20FDF70D
:10CFC00033FD1E2001218140054A116000BF06B0DB
:10CFD00010BD0000000400480064004040660040AE
:10CFE00000E100E070B50446002518E01820684311
:10CFF00021463031085C00280FD1012218206843F7
:10D000000A5418216943224630328918081D142217
:10D0100021461C31FBF7A6F870BD681CC5B20A2D6D
:10D02000E4DB00BFF8E70000FFB583B004460D461F
:10D03000164600200290E5600021617404212174ED
:10D040000821A174E674069921750C9961750D99F2
:10D05000A1750E99E1750F99217610996176119954
:10D06000A176214608310E48FCF7A9FC0290002762
:10D070000020019009E00A480299FCF73BFD01906D
:10D080007F1C0848874200D902E001980128F2D1AC
:10D0900000BF03480299FCF74FFA07B0F0BD00004B
:10D0A00000640040FF0F0000172101700021417053
:10D0B0007047000070B50546FDF7EEF87D21C90008
:10D0C0001F480068FBF79EF80446601E1D49884211
:10D0D00000D90CE0601E1C4948610321081FFDF7C0
:10D0E00067FC0020184988610720086100BF002103
:10D0F000481EFDF75DFC01211020FCF7A9FF01216E
:10D100001248FDF7FFF912490D480068FBF77AF85D
:10D11000401E0E492031088101212020FCF798FF94
:10D1200001210C48FDF7EEF97D21C9000448006893
:10D13000FBF768F8401E07492031088170BD0000E8
:10D1400000010020FFFFFF0000E000E000100040B1
:10D1500040420F000014004038B504460320FDF79C
:10D1600085F8002000900BE00749009840180078EF
:10D17000012252070099891808700098401C0090FD
:10D180000098C028F0D338BD008000080A4AD16258
:10D19000928A01231A43084B9A821A46128809235D
:10D1A0001A43054B1A8000BF034A1288D207D20FD8
:10D1B000002AF9D1704700000014004001460868B9
:10D1C00070470168491C0160704770470146887BC1
:10D1D00080014A7B120180180A7B92008018CA7A6B
:10D1E0008018C0B270470146887C80014A7C1201D9
:10D1F00080180A7C92008018CA7B8018C0B27047E1
:10D20000002101708170417000BF04E00023C21C46
:10D2100053544A1CD1B20829F8DB704710B50446B4
:10D220000F48FFF793F80F48FDF782FC0E4804F013
:10D2300033FC0E48FFF77CFB0D4805F0D1F90D4893
:10D24000FDF75CFD0C48FDF777FE0C4803F040FD50
:10D250000B4801F08CFE2046FFF7D2FF10BD000006
:10D26000A80200205C01002094020020C0020020DF
:10D270004801002074010020D0020020E8010020B5
:10D28000A807002010B5044686488078C00186496A
:10D29000097C490140188449497C090140188349A7
:10D2A0000979C900401881494979890040187F49A6
:10D2B000897949004018E0707D488078C0017D4937
:10D2C000097B890140187C490978490140187A494D
:10D2D0004978090140187849C978C9004018764949
:10D2E0008978890041187548807F40000918734883
:10D2F000407F0818207172488078C0017049C97851
:10D30000890141186D48407E400109186B48807EB4
:10D31000000109186948C07EC00009186748007FED
:10D32000800009186548807D4000081860716548D4
:10D330008078C001634949788901401861490978BA
:10D3400049014018A071E07A002801D0002010BDEA
:10D350005848007B002801D028202070A07C00289D
:10D3600011D158484078002801D00120207055483C
:10D370008078002801D001202070524800780028D1
:10D3800001D0022020704C488078002801D00D2068
:10D39000207049484078002801D01D202070464860
:10D3A000C078002801D01020207043480079002860
:10D3B00001D024202070E07B002811D13B48007967
:10D3C000002801D01B20207038484079002801D067
:10D3D0001C20207035488079002801D00A20207058
:10D3E000207B00280BD13048007C002801D0112080
:10D3F00020702D48407C002801D016202070A07B92
:10D40000002805D127488078002801D00920207005
:10D41000207C002835D12948407E002801D00420F6
:10D4200020702648807E002801D0042020702348E8
:10D43000C07E002801D0032020702048007F0028F3
:10D4400001D0032020701D48807D002801D00520D8
:10D4500020701A48807F002801D00F2020701748C4
:10D46000407F002801D00C2020701448C07D002887
:10D4700001D0032060701148007E002801D00420F4
:10D480006070607C002805D109488078002801D0B0
:10D490000E2020702078002802D00B48FDF7FCFDFC
:10D4A000207854E7C0020020A80200209402002047
:10D4B0005C010020A8070020D002002048020020C4
:10D4C00074010020480100201C0100200021C172CD
:10D4D000017341738173C17301744174817400BF1E
:10D4E00004E00023C21C53544A1CD1B20829F8DBC3
:10D4F00070470000F0B587B006460C461546FF2081
:10D500000290039004900590009001906003092719
:10D510003F05C019AF02C019074F3F78FF00C0197F
:10D52000054F7F78C1190548837A40890212024865
:10D53000FFF77AFD07B0F0BDBC0700209402002081
:10D54000F0B587B006460C461546FF231348007E0B
:10D5500013498978124A52780593029203910490F4
:10D5600010488078001FC0B20D49097800910190E1
:10D57000600305277F05C019AF02C0190A4F3F7825
:10D58000FF00C019084F7F78C1190448C37D827D10
:10D590000548FFF749FD07B0F0BD0000D0050020A9
:10D5A000D40100205C010020BC070020F0B587B04A
:10D5B0000C46154611490869FBF79EFDC6B2FF20CF
:10D5C00002900390049005900096019060030B2751
:10D5D0003F05C019AF02C019094F3F78FF00C019BD
:10D5E000074F7F78C1190748008DC3B20548008DE9
:10D5F00002120348FFF718FD07B0F0BDE402002057
:10D60000BC07002028020020F0B589B00C46154662
:10D6100022494868224905F065FB0746FBF76CFD87
:10D6200086B21E4988681E4905F05CFB0746FBF779
:10D6300063FD80B208901B48FFF73CFB0701C03731
:10D640001948FDF7EBFB80003F181848FDF7DCFA9E
:10D650003818C0B2164907900979089AD2B2089BC7
:10D660001B120293039204910590F0B231120091C3
:10D67000019060030327BF05C019AF02C0190D4F09
:10D680003F78FF00C0190B4F7F78C1190A484378D3
:10D6900002780848FFF7C8FC09B0F0BDA8020020D6
:10D6A0000000C842C4050020740100205C01002075
:10D6B000C0020020BC07002094020020F7B588B00B
:10D6C0000C4615461E49086EFBF7F0FC07B23946BA
:10D6D000089800F0F3FB06461949C86DFBF7E6FC15
:10D6E00007B23946089800F0E9FB0790144840302B
:10D6F0000421415E089800F0E1FB0690FF200390B2
:10D700000490029605900799069801910090600395
:10D710000D273F05C019AF02C0190A4F3F78FF001F
:10D72000C019084F7F78C11905484030837DC08AF1
:10D730000004020E0348FFF777FC0BB0F0BD0000B9
:10D74000E8010020BC070020F0B587B006460C4673
:10D750001546FF221448007B134989890904090EE4
:10D7600004920592029103900F48007A0E490989AC
:10D770000904090E00910190600307277F05C01975
:10D78000AF02C019094F3F78FF00C019074F7F78DB
:10D79000C11905488379C0880004020E0348FFF7C9
:10D7A00043FC07B0F0BD0000D0020020BC07002001
:10D7B000F0B587B006460C461546154880791449E1
:10D7C000C9880912124A1279114B9B881B120293C5
:10D7D0000392049105900E4880780D4949880912FA
:10D7E0000091019060030F273F05C019AF02C019D7
:10D7F000084F3F78FF00C019064F7F78C1190448D1
:10D800000378008802120348FFF70EFC07B0F0BD52
:10D8100068020020BC070020F0B587B006460C4621
:10D820001546FF221248007B11498989091204928A
:10D830000592029103900E48807A0D494989091298
:10D8400000910190600301273F06C019AF02C01983
:10D85000084F3F78FF00C019064F7F78C119044870
:10D86000037A008902120348FFF7DEFB07B0F0BD20
:10D8700068020020BC07002070B586B006460C4642
:10D880001546FF20029003900490059000900190AF
:10D890006003112212058018AA028018064A127825
:10D8A000D2008018044A52788118FF231A46024891
:10D8B000FFF7BAFB06B070BDBC07002070B586B09C
:10D8C00006460C46154619200B211822FF23029309
:10D8D00003920491059010200521009101906003AE
:10D8E000092252058018AA028018074A1278D2002D
:10D8F0008018054A52788118002317220248FFF742
:10D9000093FB06B070BD0000BC070020F0B587B0E7
:10D9100006460C4615461348007A1249C979114A41
:10D920009279104B5B7902930392049105900D4814
:10D9300000790C49C97800910190600309277F059F
:10D94000C019AF02C019084F3F78FF00C019064F39
:10D950007F78C1190348837802780348FFF764FB96
:10D9600007B0F0BDD4010020BC070020F0B587B09F
:10D970000D4616460024002005E082001A49895809
:10D980000C19411CC8B20A28F7DB17481438007C70
:10D9900015491439098A0904090E134A143A1269FF
:10D9A0001202120E104B143B1B691B0E02930392C2
:10D9B00004910590E0B22104090E009101906803E2
:10D9C0000727BF05C019B702C019084F3F78FF00ED
:10D9D000C019064F7F78C1192002030E220E03489A
:10D9E000FFF722FB07B0F0BD5C070020BC0700205A
:10D9F000FFB589B01F460A9840031D21090541184B
:10DA00000B988002081854490978C90040185249F7
:10DA10004978401808905148C0687D21C9004843A2
:10DA200004464E488068484305464C4908684C49BE
:10DA300005F058F90690FBF75FFB06464749486931
:10DA4000484905F04FF90690FBF756FB80B2079066
:10DA5000012F1DD141490868FBF74EFBC0B206906B
:10DA6000E8B22904090E2A02120EE3B202930392CD
:10DA7000049105902004000E2102090E00910190EE
:10DA800001223548069B0899FFF7CEFA0DB0F0BD8C
:10DA9000022F19D1FF23F0B23104090E3202120E07
:10DAA00005930292039104902C480079001FC0B2A4
:10DAB0000799C9B2009101900798031202222648E3
:10DAC0000899FFF7B1FAE1E7FF2F35D1234908683C
:10DAD000FBF712FBC0B20690E8B22904090E2A0235
