:020000040803EF
:10000000785E00209D020308491E0308F51D0308C1
:10001000451E0308990F0308472803080000000045
:100020000000000000000000000000009D22030806
:100030006518030800000000B3020308A1220308AA
:10004000B7020308B7020308B7020308B7020308A0
:10005000B7020308B7020308B7020308B702030890
:10006000B7020308B7020308B7020308B702030880
:10007000B7020308B7020308B7020308B702030870
:10008000B7020308B7020308B7020308B702030860
:100090003F2803089D0F0308B7020308B7020308AF
:1000A000B7020308B7020308B7020308B702030840
:1000B000B7020308B7020308B7020308B702030830
:1000C000B7020308B7020308B7020308B702030820
:1000D000B702030861260308B7020308B702030842
:1000E000B7020308B702030833280308B70203085E
:1000F000B7020308B7020308B7020308B7020308F0
:10010000B7020308B7020308B7020308B7020308DF
:10011000B7020308B7020308B7020308B7020308CF
:10012000B7020308B7020308B7020308B7020308BF
:10013000B7020308B7020308B7020308B7020308AF
:10014000B5100308F1100308B7020308B70203084B
:10015000B7020308B7020308B7020308B70203088F
:10016000B7020308B7020308B7020308B70203087F
:10017000B7020308B7020308B7020308B70203086F
:10018000B70203085D260308B7020308B702030895
:10019000B7020308B702030800F002F800F06FF896
:1001A0000AA090E8000C82448344AAF10107DA45D2
:1001B00001D100F064F8AFF2090EBAE80F0013F0B5
:1001C000010F18BFFB1A43F00103184794B6000053
:1001D000B4B600000A444FF0000C10F8013B13F0D5
:1001E000070408BF10F8014B1D1108BF10F8015B90
:1001F000641E05D010F8016B641E01F8016BF9D183
:1002000013F0080F1EBF10F8014BAD1C0C1B09D1D9
:100210006D1E58BF01F801CBFAD505E014F8016B4B
:1002200001F8016B6D1EF9D59142D6D370470000DD
:100230000023002400250026103A28BF78C1FBD8EF
:10024000520728BF30C148BF0B607047642900F0D7
:100250008380732900F01584002070471FB50AF0D1
:10026000FAFD00F0D5FC0400002000210AF0E8FBB4
:10027000401C606000F05EFB1FBD10B510BD00F0BB
:10028000D9FC1146FFF7EAFF0AF074FB00F0F7FC17
:1002900003B4FFF7F2FF03BC00F0FCFC0948804701
:1002A00009480047FEE7FEE7FEE7FEE7FEE7FEE758
:1002B000FEE7FEE7FEE7FEE704480549054A064B70
:1002C0007047000099230308990103087822002051
:1002D000785E0020783A0020783A00200FB41CB5F0
:1002E000074B06AA7B4469460090059800F09FFBE7
:1002F0000020694600F0AEFB1CBC5DF814FB00005A
:100300006D07000070B50C460546012A05D0287817
:10031000800600D5EA69002302E0012305E05B1CAA
:10032000934202D2E05C0028F9D1A869E618C01A0D
:10033000A861286A184428622846AFF3008004E0C8
:10034000D5E9012114F8010B9047B442F8D32846AF
:10035000AFF3008070BD00002DE9F0410646002497
:1003600010687529314616A510D0AFF3008000281B
:1003700002DA404213A507E031688A0701D512A5C9
:1003800002E0490704D511A5012401E0AFF3008084
:1003900000210A2206F1240709E0B0FBF2FCB0FBC1
:1003A000F2F302FB1C00303078541846491C002838
:1003B000F3D123462A463046BDE8F04100F0D8BAD2
:1003C000000000002D0000002B00000020000000B5
:1003D0002DE9F05F894604464FF0000ADFF824B1AA
:1003E000FB44C0F820A02046E168884700287DD063
:1003F000252806D0D4E901219047206A401C2062BC
:10040000F1E700255F462046E16888472028064638
:1004100007DB312E05D2B81910F8200C08B10543BE
:10042000F1E7A80701D525F00405C4F81CA00027B2
:10043000C4F818A02A2E09D030460AF093FA38B32F
:1004400004EB8708303EC8F8186019E059F8041B1F
:10045000204604EB87029161E1688847012F064638
:1004600018D1E069002820DA25F020051DE0D8F831
:10047000180000EB800006EB40003038C8F8180088
:100480002046E168884706460AF06CFA0028EED15B
:10049000012F0AD02E2E08D12046E16888477F1C04
:1004A0000646022F45F02005C4DBA069002803DAC8
:1004B000404245F00105A061E80701D025F0100594
:1004C000A6B1A6F14100192802D8203645F40065EE
:1004D0004A463146204625604D46FFF7B7FE60B1DB
:1004E000012807D0ED1D25F0070000E007E000F12E
:1004F000080978E705F1040975E730467AE7206ACC
:10050000BDE8F09F86B0000070B5064600F02CFAFA
:100510000468054630460A22002100F002F82C60EB
:1005200070BD2DE9F04791460F46804604460026EF
:1005300014F8015B2DB100F00FFA0068405DC007B0
:10054000F6D12B2D02D02D2D18D0641E4A463946E7
:10055000204600F09AFA27B13968A14201D1C7F8C4
:1005600000804FF0020471050BD54042002803DDE6
:1005700000F0FAF90460A007BDE8F08746F4806651
:10058000E4E70028F8DA00F0EFF904606FF00040CB
:10059000F2E7401ECAB210F8011F8A4202D00029B9
:1005A000F9D10020704710B5431E13F8014F002CFD
:1005B000FBD105E011F8014B002C03F8014B03D0EF
:1005C000521EF7D20021197010BD0022CBB210F8D4
:1005D000011B994200D1421E0029F8D110467047F4
:1005E00010B5431C02E010F8011B71B18107FAD16C
:1005F0004FF0013202C88C1A8C4314EAC211F9D0B0
:10060000C01A0A0603D0C01E10BDC01A10BD0A04CD
:1006100001D0801E10BD0902FCD0401E10BD40EA72
:10062000010370B59B072ED14FF00136042A2AD35F
:1006300008C810C99D1B9D43121F15EAC61517D087
:10064000D8B2E1B2401A50EA056110D198B2A1B215
:10065000401A50EA05410AD123F07F4024F07F413F
:10066000401A50EA052102D1180EA0EB146070BDAB
:10067000A342DBD018BA21BA884201D9012070BD4B
:100680004FF0FF3070BD0AB9002070BD10F8013B7B
:1006900011F8014B63B1A3420AD1521E08D010F8E1
:1006A000013B11F8014B1BB1A34201D1521EEDD108
:1006B000181B70BD032A40F2308010F0030C00F0CC
:1006C000158011F8013BBCF1020F624498BF11F88C
:1006D00001CB00F8013B38BF11F8013BA2F1040245
:1006E00098BF00F801CB38BF00F8013B11F00303BD
:1006F00000F01A82083AC0F0088051F8043B083A2A
:1007000051F804CBA0E80810F5E7121D5CBF51F8C2
:10071000043B40F8043BAFF30080D20724BF11F83C
:10072000013B11F801CB48BF11F8012B24BF00F8A1
:10073000013B00F801CB48BF00F8012B7047431A7A
:1007400028BF9A427FF6B6AF032A1044114440F204
:10075000268010F0030F1EBF11F8013D521E00F855
:10076000013D10F0030F7FF4F6AF11F0030300F02A
:100770002082083AC0F00B8051F8043D083A51F845
:1007800004CD40F8043D40F804CDFFF7F3BF121D3F
:100790005CBF51F8043D40F8043DAFF30080D20740
:1007A00024BF11F8013D11F801CD48BF11F8012C0B
:1007B00024BF00F8013D00F801CD48BF00F8012C2E
:1007C00070474FF000020429C0F0128010F0030CB3
:1007D00000F01B80CCF1040CBCF1020F18BF00F834
:1007E000012BA8BF20F8022BA1EB0C0100F00DB8E3
:1007F0005FEAC17C24BF00F8012B00F8012B48BF41
:1008000000F8012B70474FF0000200B513469446E4
:100810009646203922BFA0E80C50A0E80C50B1F158
:100820002001BFF4F7AF090728BFA0E80C5048BF6C
:100830000CC05DF804EB890028BF40F8042B08BF0A
:10084000704748BF20F8022B11F0804F18BF00F806
:10085000012B704710B5044610F0030F08BF11F0CC
:10086000030F40F015804FF0013E121FC0F20E80C2
:1008700051F8043BA3EB0E0C2CEA030C1CEACE1C33
:1008800008BF40F8043BF0D0A1F1040102F10402DA
:10089000521E08DB11F8013B002B00F8013BF7D199
:1008A0001146FFF78EFF204610BD00004FF0013CBF
:1008B00050F8042B51F8043B9A4221D1A2EB0C03CF
:1008C000934313EACC1317D150F8042B51F8043B8F
:1008D0009A4215D1A2EB0C03934313EACC130BD12C
:1008E00050F8042B51F8043B9A4209D1A2EB0C03B7
:1008F000934313EACC13DBD04FF00000704700BFE6
:10090000D01A01BAB1FA81F101F0180122FA01F00E
:10091000CB40C1F12001DBB2C0B2C01A2CFA01F306
:10092000D11A914311EAC311E6D17047704770475D
:100930007047000070B5064C7C44064D7D4403E0D2
:10094000206820448047241DAC42F9D170BD0000CE
:1009500054B000006CB0000010B500F059F9001D53
:1009600010BD00BFDDA00000004870471422002029
:100970002DE9F0470D4699469246044600F12408B9
:100980000168880604D5E06921F01001216000E0CB
:100990000120A84201DD471B00E00027A1697A1968
:1009A00002EB0900081AA0612078C00602D4204694
:1009B000AFF30080002608E0D4E901211AF8060010
:1009C0009047206A401C761C20624E45F4DB20785C
:1009D000C0060AD52046AFF3008006E0D4E9012125
:1009E00030209047206A401C2062381EA7F1010782
:1009F000F4DC07E0D4E9012118F805009047206AEB
:100A0000401C2062281EA5F10105F3DC2046AFF34F
:100A100000802078000602D50220BDE8F087012082
:100A2000FBE7000001694A1C02610878704700B5C5
:100A30008FB0CDE901310021059105497944CDE917
:100A4000031011466846FFF7C3FC0FB000BD00005D
:100A5000E5FFFFFF0A6802F8010B0A60704710B556
:100A6000436913B1AFF3008001E0FFF74BFC0120B5
:100A700010BD127800F124010A7000224A70012290
:100A8000EDE711684FF0FF32E9E72DE9F05F8246AC
:100A900015468B4600270AF10104B9460078302834
:100AA00001D09DB113E014F8010B0127782803D081
:100AB000582801D045B10AE00DB1102D07D100270B
:100AC00014F8010B102502E0082500E00A25002695
:100AD000B0460EE005FB080005FB06F101271FFAF2
:100AE00080F801EB1046B6F5803F00D3B94614F804
:100AF000010B294600F090F80028EBDABBF1000F5B
:100B000005D00FB1641E00E05446CBF80040B9F1A7
:100B1000000F06D0FFF728FF02210160C81EBDE8C4
:100B2000F09F48EA0640FAE710B5203AC0F00B8083
:100B3000B1E81850203AA0E81850B1E81850A0E8E1
:100B40001850BFF4F5AF5FEA027C24BFB1E818503B
:100B5000A0E8185044BF18C918C0BDE810405FEAAB
:100B6000827C24BF51F8043B40F8043B08BF704727
:100B7000D20728BF31F8023B48BF11F8012B28BF2C
:100B800020F8023B48BF00F8012B7047431A28BFEA
:100B90009A427FF6C9AF104410F0030F11441EBFF4
:100BA00011F8013D521E00F8013D10F0030F7FF4D3
:100BB000F6AF103AC0F00A8010B531E91850103A7B
:100BC00020E91850BFF4F9AFBDE81040530724BF27
:100BD00031E9081020E9081044BF51F8043D40F8FD
:100BE000043D12F0030F08BF7047D20728BF31F849
:100BF000023D48BF11F8012C28BF20F8023D48BF34
:100C000000F8012C704700000048704714220020B3
:100C100000487047342200203A2800D2303820F0B3
:100C20002002412A01D3A2F13700884201D34FF0BC
:100C3000FF3070477546FFF7E7FFAE46050069468F
:100C4000534620F00700854618B020B5FFF734FB67
:100C5000BDE820404FF000064FF000074FF00008BD
:100C60004FF0000B21F00701AC46ACE8C009ACE83E
:100C7000C009ACE8C009ACE8C0098D46704710B5A2
:100C80000446AFF300802046BDE81040FFF700BBEC
:100C90007047000001491820ABBEFEE726000200A5
:100CA00070B505460C4675B900214FF4807001F00F
:100CB00033F9204601F024F90A4804F0C9F80A483B
:100CC00004F0C6F80CE00121204601F025F90020CF
:100CD00001F016F9034804F0C0F8034804F0BDF829
:100CE00070BD000000080240000C0240F0B5044650
:100CF000154600200022122905D1E06D20F00700E2
:100D00001843E06520E0092911DDE068A1F10A0639
:100D100006EB4607072606FA07F29043A1F10A06FA
:100D200006EB460603FA06F21043E0600CE0206989
:100D300001EB4107072606FA07F2904301EB410653
:100D400003FA06F210432061072D0FDA606B6E1E66
:100D500006EB86071F2606FA07F290436E1E06EB87
:100D6000860601FA06F21043606322E00D2D0FDAC9
:100D7000206BEE1F06EB86071F2606FA07F290434C
:100D8000EE1F06EB860601FA06F21043206310E020
:100D9000E06AA5F10D0606EB86071F2606FA07F2A4
:100DA0009043A5F10D0606EB860601FA06F2104304
:100DB000E062F0BD002221B1836843F0010383604B
:100DC00003E0836823F001038360002200E0521CEB
:100DD000B2F5947FFBD3704721B1826842F48072F0
:100DE000826003E0826822F480728260704721B1E1
:100DF000826842F4A002826003E0826822F4A002CA
:100E00008260704768B10E49096841F400010C4ADC
:100E1000116000BF0B49096841F48061094A116003
:100E20000DE00749096821F40001054A116000BF7F
:100E30000449096821F48061024A116000BF7047CB
:100E40000808024020180040014600208A6802F08D
:100E500004020AB1012000E000204A6D02B1002026
:100E6000704702460020936D0B400BB1012000E05B
:100E70000020704770B5024600200023002402F1D4
:100E800060042825256050680E4D28400E790D68B5
:100E900045EA06252843506090680B4D2840D1E96B
:100EA000026535434E7945EA460528439060D06A8D
:100EB00020F470000D7C6D1EEDB22B4340EA035010
:100EC000D06270BDFFFEF0FFFDF7F1FF10B50246E6
:100ED00000200B7A23B1D36D43F00803D36503E000
:100EE000D36D23F00803D365906D0B784BB140F4BC
:100EF000006000BF204B1B6843F480631E4C2360DE
:100F000009E020F4006000BF1B4B1B6823F48063E2
:100F1000194C236000BF4B7813B140F4806001E0AE
:100F200020F480608B7813B140F4007001E020F46D
:100F30000070CB7813B140F4807001E020F4807031
:100F40004B7913B140F0080001E020F008008B79E4
:100F500013B140F0040001E020F0040020F0030091
:100F6000CB79184320F010000B79012B01D140F010
:100F70001000906510BD0000201800400021426D57
:100F80001AB9826842F004028260002100E0491C24
:100F9000B1F5947FFBD3704700BFFEE710B5202169
:100FA000014800F0ADF810BD0064004010B500210C
:100FB000837A012202FA03F13D4A126842F00102EB
:100FC0003B4B1A603A4A1C3212688A43384B1C3336
:100FD0001A60027BCAB9364A0C3212688A43344B13
:100FE0000C331A604288C38842EA0343304A4032D5
:100FF000847A42F834300288838842EA03432C4AD8
:101000004032847A02EBC4025360027B012A19D178
:10101000274A0C3212680A43254B0C331A60428867
:10102000038842EA0343224A4032847A42F8343049
:10103000C288838842EA03431D4A4032847A02EB25
:10104000C4025360C27A3AB9194A121D12688A431F
:10105000174B1B1D1A6006E0154A121D12680A4341
:10106000134B1B1D1A60028932B9114A14321268DF
:101070008A430F4B14331A600289012A06D10C4AA5
:10108000143212680A430A4B14331A60427B012A55
:1010900006D1074A1C3212680A43054B1C331A60FA
:1010A000034A126822F00102014B1A6010BD0000D1
:1010B000006A004010B502210B4800F091F80128A9
:1010C00010D10020094908800A1D0021064800F0BF
:1010D000BAF90649091D081F06F0DEFF0221024881
:1010E00000F00EF810BD000000680040B8180020A5
:1010F00010B52021014800F003F810BD0068004041
:10110000B1F5007F3AD00FDC202928D006DC012978
:101110001CD004291DD0082940D11DE0402921D030
:10112000B1F5807F3AD126E0B1F5004F31D006DC31
:10113000B1F5806F25D0B1F5006F2FD124E0B1F566
:10114000803F12D0B1F5003F28D111E0154A8260EE
:1011500025E00822C26022E01022C2601FE00822BF
:1011600002611CE01022026119E00822426016E0D0
:101170001022426013E00422426010E00422426028
:101180000DE0042242600AE00022826104224260F3
:1011900005E0002282610422426000E000BF00BF3F
:1011A000704700000101010010B504460B4884425D
:1011B00009D10121480600F081FF00214FF00070A5
:1011C00000F07CFF08E00121880600F077FF002195
:1011D0004FF0806000F072FF10BD0000006400401E
:1011E00070B504460D46002660692840002871D07D
:1011F000B5F5807F5CD010DC082D35D006DC012DE4
:1012000020D0022D24D0042D72D127E0102D31D012
:10121000202D35D0402D6BD138E0B5F5004F60D092
:1012200009DCB5F5007F49D0B5F5806F4CD0B5F538
:10123000006F5DD14FE0B5F5803F2DD0B5F5003F93
:1012400056D12FE0A0682D4902F022FD064651E05C
:10125000E068032102F01CFD06464BE0E06808212F
:1012600002F016FD064645E0E068102102F010FD90
:1012700006463FE02069032102F00AFD064639E0F8
:101280002069082102F004FD064633E020691021A0
:1012900002F0FEFC06462DE06068082102F0F8FC32
:1012A000064627E06068102102F0F2FC064621E0C5
:1012B000A069012102F0ECFC06461BE0A0690221B6
:1012C00002F0E6FC064615E0A069042102F0E0FC0D
:1012D00006460FE00FE0A069702102F0D9FC064637
:1012E00008E06068042102F0D3FC064602E0FFE754
:1012F000002600BF00E00026304670BD010101005D
:101300001AB143690B43436102E043698B43436174
:10131000704730B5024600200023146824F0020410
:101320001460146844F00104146000E05B1C54680D
:1013300004F001041CB94FF6FF74A342F6D15468BF
:1013400004F001040CB900206CE08C79012C04D16C
:10135000146844F08004146003E0146824F08004EE
:101360001460CC79012C04D1146844F0400414605A
:1013700003E0146824F0400414600C7A012C04D1BA
:10138000146844F02004146003E0146824F020047E
:1013900014604C7A012C04D1146844F010041460D9
:1013A00003E0146824F0100414608C7A012C04D13A
:1013B000146844F00804146003E0146824F008047E
:1013C0001460CC7A012C04D1146844F00404146035
:1013D00003E0146824F0040414608C78A407CD782A
:1013E00044EA05640D7944EA05444D7944EA05541C
:1013F0000D886D1E2C43D461146824F00104146020
:10140000002300E05B1C546804F001041CB14FF69B
:10141000FF74A342F6D1546804F001040CB100201B
:1014200000E0012030BD00218171C1710172417263
:101430008172C1728170C1700321017102214171F9
:1014400001210180704710B500F5D87303EB01133B
:101450001B6803F004031372137A53B900F5D873B1
:1014600003EB01131B6840F2FF7404EA535313604B
:1014700009E000F5D87303EB01131B686FF06044BB
:1014800004EAD303536000F5D87303EB01131B6820
:1014900003F00203537200F5D87303EB01135B688A
:1014A00003F00F03937200F5D87303EB01135B682D
:1014B0001B0AD37400F5D87303EB01139B68D37236
:1014C00000F5D87303EB01139B681C0A147300F535
:1014D000D87303EB01139B681C0C547300F5D8738D
:1014E00003EB01139B681B0E937300F5D87303EB9A
:1014F0000113DB68D37300F5D87303EB0113DB68CA
:101500001C0A147400F5D87303EB0113DB681C0C80
:10151000547400F5D87303EB0113DB681B0E93744E
:1015200021B9C36843F02003C36003E0036943F0BB
:101530002003036110BD10B502460020936803F03C
:101540008063B3F1806F00D110E0936803F0006313
:10155000B3F1006F01D1012008E0936803F08053DC
:10156000B3F1805F01D1022000E00420042874D090
:1015700002F5C07303EB00131B6803F0010402F5CE
:10158000C07303EB00131C600B7A7BB94B7A0C8899
:1015900043EA445302F5C07404EB00142468234367
:1015A00002F5C07404EB0014236010E00B7A4C6861
:1015B00043EAC4034C7A234302F5C07404EB0014DD
:1015C0002468234302F5C07404EB001423608B7A73
:1015D00003F00F038B7202F5C07303EB00135B681B
:1015E00023F00F0402F5C07303EB00135C6002F5F7
:1015F000C07303EB00135B688C7A234302F5C0745D
:1016000004EB001463608B7B1C064B7B44EA0344B1
:101610000B7B44EA0323CC7A234302F5C07404EB2A
:101620000014A3608B7C1C064B7C44EA03440B7CB7
:1016300044EA0323CC7B234302F5C07404EB00147B
:10164000E36002F5C07303EB00131B6843F0010471
:1016500002F5C07303EB00131C6010BD01684FF668
:10166000FE72114001600021016041608160C16033
:101670006549884208D164490839496841F00F0139
:10168000614A083A5160BEE05F491431884208D18E
:101690005D490839496841F0F0015B4A083A5160F8
:1016A000B1E059492831884208D157490839496879
:1016B00041F47061544A083A5160A4E052493C3107
:1016C000884208D150490839496841F470414E4A6E
:1016D000083A516097E04C495031884208D14A4954
:1016E0000839496841F47021474A083A51608AE054
:1016F00045496431884208D143490839496841F471
:101700007001414A083A51607DE03F497831884292
:1017100008D13D490839496841F070613A4A083AB0
:10172000516070E038498C31884208D13649083917
:10173000496841F07041344A083A516063E03349E6
:10174000884206D1011F096841F00F01021F116094
:1017500059E02E491431884208D12C49091F0968E3
:1017600041F0F001294A121F11604CE0274928314D
:10177000884208D12549091F096841F47061234A4C
:10178000121F11603FE021493C31884208D11F49B6
:10179000091F096841F470411C4A121F116032E0B0
:1017A0001A495031884208D11849091F096841F483
:1017B0007021164A121F116025E0144964318842D5
:1017C00008D11249091F096841F470010F4A121F1C
:1017D000116018E00D497831884208D10B49091F82
:1017E000096841F07061094A121F11600BE0074956
:1017F0008C31884207D10549091F096841F07041C1
:10180000024A121F1160704708000240080402409B
:1018100021B1026842F00102026004E002684FF662
:10182000FE731A400260704710B50022026847F646
:10183000F0739A430C6A8B6823430C6923434C6909
:1018400023438C692343CC6923434C6A23438C6A2A
:1018500023431A430260CB6843600B6883604B6884
:10186000C36010BD00BFFEE701490860704700007B
:1018700014040140002123498279002A3AD00A4603
:10188000126803689A430B461A600A1D12680368BF
:101890009A430B1D1A60027911440A6803681A43BF
:1018A0000A60184A0832126803689A43154B0833D5
:1018B0001A601A1D126803689A43124B0C331A609F
:1018C0004279102A0ED11A1F126803681A430D4B71
:1018D00008331A601A1D126803681A43094B0C3347
:1018E0001A600DE00749427911440A6803681A43F7
:1018F0000A6005E0027911440A6803689A430A60A5
:1019000070470000000401400249C9680143014AD0
:10191000D16070470020024030B5044606257C2087
:10192000FFF7F2FF4FF4302000F096F80546062D41
:1019300017D10D48006940F002000B4908610846C4
:101940004461006940F0400008614FF4302000F02D
:1019500083F805460448006943F6FD7108400249D2
:101960000861284630BD00000020024006201249D0
:10197000C96801F0010109B101201CE00E49C968E4
:1019800001F0040109B1032015E00B49C96801F019
:10199000080109B104200EE00749C96801F01001EF
:1019A00009B1052007E00449C96801F0400109B107
:1019B000072000E00620704700200240034800692D
:1019C00040F080000149086170470000002002409B
:1019D00070B504460D46062604F0030010B1092632
:1019E000304670BD7C20FFF78FFF4FF4005000F0B1
:1019F00033F80646062E12D10A48006940F001006D
:101A00000849086125604FF4005000F025F80646AB
:101A10000448006943F6FE710840024908613046F7
:101A2000DFE700000020024001460020034A106862
:101A300000F0F800084310607047000000200240EA
:101A400002480349486003484860704723016745DE
:101A500000200240AB89EFCD00B502460623FFF718
:101A600085FF034603E0FFF781FF0346521E012B6B
:101A700001D1002AF7D102B90A23184600BD00009F
:101A8000F0B502460C460023002600210025002068
:101A900002F08047B7F1804F02D1844F396A11E0DC
:101AA00002F00057B7F1005F02D1804F796A09E078
:101AB00002F08057B7F1805F02D17C4FB96A01E034
:101AC0007A4F7968C2F3034593B2794F1740B7F55F
:101AD000401F0AD121F07061744F7F6827F0706752
:101AE000DFF8C8C1CCF80470BDE002F48017B7F588
:101AF000801F13D102F40017B7F5001F03D103278D
:101B0000AF403E0402E0032707FA05F6B14302F0B6
:101B1000E047002FE8D141F07061A4E002F0807747
:101B2000B7F1807F47D102F00407042F29D102F0DA
:101B30000077B7F1007F16D1C2F340573F0103FA97
:101B400007F7B9433CB1594F786840F0010040F0C5
:101B50007060786087E0554F786820F0010040F0B1
:101B6000706078607FE0C2F340573F0103FA07F7E7
:101B7000B9434E4F786820F0010040F07060786003
:101B800071E043F00407C2F3405C4FEA0C1C07FA13
:101B90000CF7B9433CB1454F786840F0010040F084
:101BA000706078605FE0414F786820F0010040F09D
:101BB0007060786057E002F08067B7F1806F47D1BE
:101BC00002F00807082F29D102F00077B7F1007F53
:101BD00016D1C2F340573F0103FA07F7B9433CB1AE
:101BE000324F786840F0080040F0706078603AE06A
:101BF0002E4F786820F0080040F07060786032E086
:101C0000C2F340573F0103FA07F7B943274F7868FB
:101C100020F0080040F07060786024E043F008078E
:101C2000C2F3405C4FEA0C1C07FA0CF7B9433CB115
:101C30001E4F786840F0080040F07060786012E055
:101C40001A4F786820F0080040F0706078600AE071
:101C5000C2F340573F0103FA07F7B94302F0E047E8
:101C60000FB941F070612CB1C2F340573F0103FA44
:101C700007F7394302F08047B7F1804F02D10B4F8D
:101C8000396211E002F00057B7F1005F02D1074F4F
:101C9000796209E002F08057B7F1805F02D1034F0B
:101CA000B96201E0014F7960F0BD00000000014021
:101CB000000030702DE9F04102460025002600208A
:101CC00000230024002791F803C00CF00F0591F8C1
:101CD00003C00CF0100CBCF1000F03D091F802C04F
:101CE0004CEA050591F800C0BCF1000F31D0146832
:101CF00000202BE04FF0010C0CFA00F3B1F800C00B
:101D00000CEA03069E4220D183004FF00F0C0CFA20
:101D100003F7BC4305FA03FC4CEA040491F803C042
:101D2000BCF1280F06D14FF0010C0CFA00FCC2F8F0
:101D300014C00AE091F803C0BCF1480F05D14FF080
:101D4000010C0CFA00FCC2F810C0401C0828D1D3CA
:101D50001460B1F800C0BCF1FF0F34DD54680020FE
:101D60002EE000F1080C4FF0010808FA0CF3B1F86E
:101D700000C00CEA03069E4221D183004FF00F0CF5
:101D80000CFA03F7BC4305FA03FC4CEA040491F88F
:101D900003C0BCF1280F05D100F1080C08FA0CF8BB
:101DA000C2F8148091F803C0BCF1480F07D100F1CC
:101DB000080C4FF0010808FA0CF8C2F81080401C1B
:101DC0000828CED35460BDE8F0814FF6FF71018042
:101DD000012181700421C170704702460020936880
:101DE0000B400BB1012000E00020704741617047BB
:101DF0000161704701201049087000BF00BF00BF9B
:101E000000BF00BFBFF34F8F00BF00BF00BF0B4834
:101E1000006800F4E0600A490843001D07490860B3
:101E200000BF00BF00BFBFF34F8F00BF00BF00BFA8
:101E300000BF00BFFDE700003E0000200CED00E009
:101E40000000FA0500BFFEE700BFFEE770B5002105
:101E500000230F22C47804B3154C246804F4E06412
:101E6000C4F5E064210AC1F10403CA40447804FACD
:101E700003F184781440214309010E4C0678A155E2
:101E8000047804F01F050124AC4005786D11AD0005
:101E900005F1E025C5F8004109E0047804F01F05CC
:101EA0000124AC40044D0678761145F8264070BDFB
:101EB0000CED00E000E400E080E100E002490143B5
:101EC000024A1160704700000000FA050CED00E0C6
:101ED000024A0A400243024B1A60704780FFFF1F0C
:101EE00008ED00E002460020044BD86A20F4806030
:101EF00020F4784010430843D86270470010024035
:101F000001460020034AD06A20F00F000843D06247
:101F1000704700000010024002460020064BD86ABD
:101F200020F4F87009B1104302E0104320F48070EF
:101F3000014BD862704700000010024001460020AB
:101F4000034A506820F0F0000843506070470000DA
:101F5000001002401149096821F480310F4A1160D4
:101F60001146096821F480211160B0F5803F03D04B
:101F7000B0F5802F0ED106E00849096841F48031A0
:101F8000064A116007E00549096841F4A021034AA7
:101F9000116000E000BF00BF704700000010024069
:101FA00001460020034A506820F4E0600843506076
:101FB000704700000010024001460020034A5068AC
:101FC00020F4605040EAC1005060704700100240A9
:101FD00002460020044B5868044B184042EA0103B3
:101FE0001843014B5860704700100240FFFFC0F7D4
:101FF00001460020034A506820F003000843506067
:102000007047000000100240034908604108024A7E
:10201000D83AC2F8DC107047D80042421348006832
:1020200040F0010011490860084640681049084026
:102030000E494860084600680E4908400B49086090
:102040000846006820F480200860084640680A4975
:102050000840064948604FF46050C8624FF4615030
:1020600008634FF41F0088607047000000100240B2
:1020700000C0FFF8FFFFF6FEFFFF00F729B1064A98
:1020800052690243044B5A6104E0034A5269824395
:10209000014B5A61704700000010024029B1064A06
:1020A000D2690243044BDA6104E0034AD2698243F5
:1020B000014BDA61704700000010024029B1064A66
:1020C00012690243044B1A6104E0034A1269824315
:1020D000014B1A61704700000010024029B1064A06
:1020E00092690243044B9A6104E0034A9269824375
:1020F000014B9A61704700000010024001490866D8
:102100007047000000004242F0B5002100BF0022ED
:1021100000250024384E7668384F06EA0702364E0E
:10212000766806F4803502F000661EB9022606EBDA
:10213000924204E04FF4F876C6EB9246721C1DB949
:102140002F4E02FB06F30BE02B4E766806F40036AA
:102150001EB12C4E02FB06F302E02B4E02FB06F3EF
:10216000254E766806F00C0121B1042905D0082916
:1021700008D105E0234E066007E0234E066004E028
:10218000036002E01F4E066000BF00BF1A4E766873
:1021900006F0F00109091D4E745C0668E6404660D1
:1021A000154E766806F4E061090A184E745C4668BC
:1021B000E6408660104E766806F46051C90A134EF8
:1021C000745C4668E640C6600B4EF66A06F00F0186
:1021D0000F4E745C4668B6FBF4F64661064EF66A2E
:1021E00006F4F871090901F00F060A4F37F8164096
:1021F000B3FBF4F60661F0BD0010024000003C089D
:1022000000093D0000127A000024F4002AB40308FB
:102210003AB403084AB4030810B50146002200236B
:1022200000204A11012A02D1094C236806E0022A43
:1022300002D1074C236A01E0054C636A01F01F02DA
:10224000012494401C400CB1012000E0002010BD8E
:10225000001002400248406800F00C007047000087
:102260000010024038B5002000900024002500BF77
:102270003120FFF7D1FF05460098401C00900098E0
:10228000B0F5004F01D0002DF2D03120FFF7C4FF90
:1022900008B1012400E00024204638BD00BFFEE75D
:1022A00000B50B4806F0F4FA0A480088B0F57A7FCA
:1022B00005DA08480088401C0649088007E000202D
:1022C0000449088002480068401C0149086000BDBC
:1022D000441800207400002010B5002100200022C6
:1022E000264B5B6803F00C0121B1042906D00829B4
:1022F00033D107E0224B234C236032E0224B214CA8
:1023000023602EE01D4B5B68204C03EA04001B4B4E
:102310005B6803F4803200F000631BB9022303EB17
:10232000904004E04FF4F873C3EB9043581C2AB973
:10233000174B43435B00134C23600DE00F4B5B686E
:1023400003F4003323B10E4B43430E4C236003E0F0
:102350000D4B43430B4C236003E0094B094C2360B6
:1023600000BF00BF054B5B68C3F30313094CE15C7E
:10237000044B1B68CB40034C236010BD001002408F
:1023800000127A00C40100200024F40000003C0880
:1023900000093D0019B4030810B52948006840F44D
:1023A0007000274908602748006840F0010025496F
:1023B00008600846406824490840224948600846A9
:1023C0000068224908401F4908600846006820F458
:1023D00080200860084640681D4908401949486047
:1023E0004FF46050C8624FF4615008634FF41F000F
:1023F00088600846C06940F08050C8611548C068D0
:1024000040F001001349C8600E48C06920F08050B8
:102410000C49C8611048006840F090000E490860FF
:1024200000F02AFC4FF000600549803908600B4835
:1024300000680B49884201D000F06CFF10BD00001D
:1024400088ED00E00010024000C0FFF8FFFFF6FE3C
:10245000FFFF00F7007000400020024098F2FF1FCD
:10246000424B52490A460021018B4FF6F77319403F
:1024700011430183704721B1026842F001020260FA
:1024800003E0026822F001020260704730B50024C8
:1024900000220023056A25F001050562026A4368EF
:1024A000048B4FF68F752C404FF6FC752C400D8831
:1024B0002C4322F002020D892A434D882A430E4DF7
:1024C000A84202D00D4DA8420FD122F008024D893A
:1024D0002A4322F004028D882A4323F4807323F4D4
:1024E00000738D892B43CD892B4343600483CD88B2
:1024F0008586026230BD0000002C0140003401409E
:102500000A46002101684D4B98420ED04C4B984230
:102510000BD0B0F1804F08D04A4B984205D04A4BBF
:10252000984202D0494B984203D121F07001538860
:102530001943474B984206D0464B984203D021F4AA
:102540004071D3881943016093888385138803857C
:102550003A4B984202D03A4B984201D1137A038603
:10256000012383820168354B98420ED0344B984248
:102570000BD0B0F1804F08D0324B984205D0324B8F
:10258000984202D0314B984206D1537A13B141F4AC
:10259000006101E021F40061B0F1804F08D0294BC7
:1025A000984205D0284B984202D0284B98420DD132
:1025B000937A13B141F4805101E021F48051D37A30
:1025C00013B141F4005101E021F40051B0F1804F0A
:1025D00005D01C4B984202D01B4B984206D1137B6E
:1025E00013B141F4804101E021F48041134B984242
:1025F0000BD0134B984208D0B0F1804F05D0114B4F
:10260000984202D0104B984206D1537B13B141F44B
:10261000004101E021F4004101604168B0F1804FC8
:1026200002D0094B984206D1937B13B141F48071DB
:1026300001E021F48071416070470000002C0140EE
:10264000003401400004004000080040000C00403D
:1026500000100040001400408186704700BFFEE774
:1026600010B540F225510B4800F04BF838B109483D
:1026700000F0D6F8C4B22146074808F03BF840F213
:102680002771044800F03DF810B1044806F020FA24
:1026900010BD00000038014054040020400200201A
:1026A000F0B50346002400260025002040F66A17F6
:1026B000B94200D100BF1846C1F3421401F01F0611
:1026C000012707FA06F5012C01D10C3004E0022C99
:1026D00001D1103000E014301AB107682F430760B1
:1026E00002E00768AF430760F0BD21B1828942F480
:1026F0000052828104E082894DF6FF731A40828184
:10270000704770B50246002400230025002040F6E3
:102710006A16B14200D100BFC1F3421501F01F0398
:10272000012606FA03F3012D02D19689334006E013
:10273000022D02D1168A334001E0968A33400C12F2
:10274000012606FA04F41688344013B10CB10120B6
:1027500000E0002070BD00002DE9F04786B005467E
:102760000F460024A24600BF00BF0026B88900B172
:1027700000BF2E462C8A4CF6FF700440F8880443B4
:102780002C82AC894EF6F3100440B888398908438E
:10279000798908430443AC81AC8A4FF6FF4004407A
:1027A000B8890443AC826846FFF7AEFC19488642FC
:1027B00005D01948864202D01848864202D1DDF879
:1027C0000CA001E0DDF808A00AEBCA0000EB0A103B
:1027D00039688900B0FBF1F86420B8FBF0F004011F
:1027E0002009642101FB1080322101EB00106421DB
:1027F000B0FBF1F90120B0EB191F04D16420B8FB44
:10280000F0F0401C040109F00F0004432C8106B0D5
:10281000BDE8F087003801400050014000540140FD
:1028200001468888C0F308007047C1F3080282801F
:10283000704710B54FF48020FFF716F810BD10B5A3
:1028400002F062FE10BD00BFFEE71CB54FF4802011
:10285000FFF70AF84FF48020009000208DF8040064
:1028600008208DF8050001208DF806006846FFF766
:1028700001F81CBD70B505460C460EA12846FEF7B2
:1028800015F820B10CA12846FEF710F810B9012068
:10289000207070BD09A12846FEF708F820B108A1F4
:1028A0002846FEF703F818B9002020700120F0E751
:1028B0000020EEE76F6E0000310000006F666600DA
:1028C0003000000030B502460C460AB1107808B955
:1028D000002030BD002300210EE0505C302802DBD8
:1028E000505C392801DD0020F3E7505C303803EB01
:1028F000830500EB4503491C505C0028EDD12360A3
:102900000120E6E72DE9F0472848006800F11005AE
:102910002E8826480068077AD6B9042F18D1244893
:10292000007801280FD100212248006880B2801C65
:10293000214A42F8101030202049088000BF0020B2
:102940001B49087003E0072710201C49088027E076
:10295000AC88A64201D8042000E002200746B44219
:1029600000D93446A0B2A96888478046002001F00B
:10297000A3FA8146A2B24946404601F08FFEA1B2B9
:10298000002001F001FA2888001B28806888204474
:10299000688030200949088000020949088000BF8A
:1029A000024909680F72BDE8F0870000A801002005
:1029B000A2010020505C004000600040BA010020ED
:1029C000B80100202DE9F84F9B48006845780027A2
:1029D000BA46062D1BD198480068007800F07F00A9
:1029E000002813D1944909688878012803D19349B4
:1029F0000968CF690AE0022803D1904909680F6A83
:102A000004E0032802D18D4909684F6A94E0002D43
:102A100064D189480068408800285FD186480068F2
:102A2000C08802285AD1844800680079002855D10E
:102A300081480068007800F07F0028B97E4800686F
:102A4000808808B97E4F77E07B480068007800F006
:102A50007F00012810D178490968487977490968C9
:102A60008A6900219047002866D173480068807AFF
:102A7000002861D0724F5FE06F480068007800F076
:102A80007F00022858D16C480068407900F00F069A
:102A900069480068407900F070096748006840792B
:102AA00000F0800038B1674901EB8600D0F8000CD7
:102AB00000F0300806E0634901EB8600D0F8000C16
:102AC00000F4405860480078B04235D9B9F1000FA1
:102AD00032D1B8F1000F2FD0594F2DE0082D07D17A
:102AE00055480068007800F07F0028BB574F23E06E
:102AF0000A2D21D150480068007800F07F0001289D
:102B00001AD14D480068807AB0B14B4800684088BF
:102B100090B949480068007970B947480068C08892
:102B2000012809D1444909684879444909688A69F2
:102B30000021904700B9464F57B13F480068A0F8C0
:102B400012A03D48006887610020B84700240FE0CC
:102B5000394A12685078394A126811698847044620
:102B6000032C05D10920344909680872BDE8F88FA3
:102B700031480068008A4FF6FF71884204D109206D
:102B80002D4909680872F1E7022C03D02A48006831
:102B9000008A20B90820284909680872E6E7264813
:102BA0000068007800F08000E0B323480068C08827
:102BB000009021480068008A0099884204D91E4983
:102BC00000980968088223E01B480068008A1A49B7
:102BD0000968C98888421BDA17480068008A1749C3
:102BE000096891F82C10884203DA0020194908700E
:102BF0000EE011480068008A1049096891F82C100D
:102C000090FBF1F201FB120010B90120114908708C
:102C10000A48006890F82C10074800688182FFF786
:102C200071FE07E0FFE7032003490968087200030B
:102C30000949088000BF99E7A8010020AC010020E5
:102C40009D430308005000400C010020654E03081E
:102C50009D480308A2010020B80100200549096829
:102C600088B220F00400034908604FF41E41014A75
:102C700011607047405C004030B500210022002305
:102C800000202C4C246844F480342A4D2C6000BF72
:102C9000284C2468C4F340425B1C12B9B3F5004FC2
:102CA000F6D1244C2468C4F340421AB9224C234D77
:102CB0002C6030BD224C206820F0070040F004005A
:102CC00020601C4C64681B4D6C602C46646844F4A6
:102CD00000546C602C46646844F4A0646C6000206E
:102CE0002C466068174C2040014641F4803141F485
:102CF0000031154C21432C466160246844F08074F7
:102D00002C6000BF0B4C246804F00074002CF9D038
:102D10000020084C606820F0030040F00200606072
:102D200000BF044C646804F00C04082CF9D100BF07
:102D3000BFE700000010024000127A00C40100202A
:102D400000200240FFFFC0F70000040800200649F1
:102D500008604FF41E400549088008460088024973
:102D6000091F086000207047445C0040B201002049
:102D70002DE9F04104460E46002504F07F0000F0E6
:102D800091FF054604F07F0001F086F807462A46C9
:102D90003946304601F06AFC2846BDE8F081F0B5BE
:102DA00003460C461BB1187808B1002A01DC00204C
:102DB000F0BD00210846491C44F8203018460CE0BC
:102DC00005782C2D08D1914206DA00250570451CA6
:102DD0000E46491C44F82650401C0578002DEFD1C2
:102DE0000846E5E72DE9F0412848006800F11004A5
:102DF0002688A068C0B1BEB1A588B54200D93546C5
:102E0000A8B2A168884707462088401B20806088B8
:102E100028446080002001F03FF88046AAB2414675
:102E2000384601F023FC00BF208850B14FF44050D9
:102E3000174908800021084600F0A6FF30201549F8
:102E400008802088A188884204DB03200F49096894
:102E5000087218E02088002804DD05200B49096865
:102E6000087210E0208870B90620084909680872C5
:102E700000210948006880B2801C084A42F81010FE
:102E8000302004490880BDE8F0810000A80100203E
:102E9000B8010020BA010020505C004000600040F2
:102EA00010B50948006805280CD108480168006879
:102EB000401C064A1060052904D100201146086014
:102EC00001F068FB10BD000094010020B800002054
:102ED00010B50120FFF798F80121C805FFF7DEF8CB
:102EE00010BD000000B52F48007920B1012806D0A0
:102EF00002280ED108E000202B49C8800DE04FF4D5
:102F000040502949C88008E04FF400502649C88045
:102F100003E001F0A9FB002000BD00BF214840797B
:102F200020B1012806D002280ED108E000201E4959
:102F300008810DE04FF480601B49088108E04FF4E0
:102F4000C0601949088103E001F08EFB0020E3E72F
:102F500000BF14488079072802D0082810D103E068
:102F60000020114988800FE00F48008918B900201F
:102F70000D49888003E04FF480500B49888003E0BE
:102F800001F072FB0020C7E700BF06480068064951
:102F90000860002088810C204881084600F081FEEE
:102FA0000120B9E704010020E81800200146CAB258
:102FB0000B1243EA022070472DE9F04105460C460A
:102FC0002846FDF70DFB06462046FDF709FB0746A0
:102FD0000A2E01DB0A2F02DA0020BDE8F081E21997
:102FE000A2F10A01AA19A2F10A000A22FDF717FBB1
:102FF00008B90120F1E70020EFE72DE9F04FADF52A
:103000000F7D06460C4617469846DDF860A2DDF8AF
:1030100068924FF4F2714846FDF7D3FB0CB120786B
:1030200018B90DF50F7DBDE8F08FB8F1000F0CD089
:1030300098F8000048B146B1307830B1414630468A
:10304000FFF7BAFF08B1012000E00020834600200E
:103050008E90BBF1000F17D1BAF1000F14D09EB1C2
:10306000307888B100250DE00AEB0510007840B1FA
:103070000AEB05113046FFF79FFF10B101208E903B
:1030800002E06D1C042DEFDB8D94BBF1000F19D114
:103090008E98B8B91FB13846FDF7A2FA00E00020BB
:1030A0000546042D00D0BCE7042239462046FDF732
:1030B000B6FA00B1B5E72079202800D0B1E7601D4D
:1030C0008D9010E07FB13846FDF78AFA04280AD1C6
:1030D000042239462046FDF7A2FA20B9207920289B
:1030E00001D1601D8D90012089F8000089F801B0A0
:1030F00040F2FF120DA88D99FDF7ACFB00208DF872
:1031000033020A2203A90DA8FFF749FE0290002509
:103110001EE003A951F8250002F09EFA03A850F81A
:103120002500007800B912E003A951F8250002F04B
:10313000ABFF03A951F825006A4601A900F086FDFE
:103140004B46999ADDE9001002F004FB00BF6D1CAC
:1031500002988542DDDB00BF63E7000070B5022600
:1031600047480068447846480068007800F07F00CF
:10317000002844D1092C03D101F08AFE06465FE005
:10318000052C14D13E480068C0787F280BDC3C48F1
:103190000068807838B93A480068808818B938489B
:1031A0000068807A08B1082565E0002648E0032C15
:1031B0000ED133480068C078012807D13048006834
:1031C000808818B901F088FE064639E0022637E00B
:1031D000012C35D12A480068C07801280DD1284833
:1031E0000068808848B926480068407A00F02000CE
:1031F00018B101F09DFA064622E0022620E02048A0
:103200000068007800F07F00012805D10B2C17D151
:1032100001F05AFB064613E019480068007800F0F8
:103220007F0002280BD1012C03D101F081FA064660
:1032300006E0032C04D101F09FFE064600E00226C2
:103240004EB1E0B20F4A1268516988470646032E14
:1032500001D109250FE00EB108250CE0062500215B
:103260000948006880B2801C084A42F810103020DB
:103270000749088000BF024909680D7270BD00004F
:10328000A8010020AC010020505C0040006000401C
:10329000BA01002030B50E4C04EB8003D3F8003C9B
:1032A0004BF68F7403EA040201F480530BB182F4ED
:1032B000805201F400530BB182F4005242F40043F7
:1032C00043F08003024D05EB8004C4F8003C30BDA0
:1032D0000050004030B50E4C04EB8003D3F8003CA6
:1032E00048F6BF7403EA040201F010030BB182F048
:1032F000100201F020030BB182F0200242F40043DF
:1033000043F08003024D05EB8004C4F8003C30BD5F
:103310000050004000200021104AD26942F0805243
:103320000E4BDA610E4A1168C1F304610D4AD06890
:1033300020F47870891C29B11F2903D240EA41107A
:10334000D06003E040F47870064AD060034AD26946
:1033500022F08052014BDA617047000000100240F9
:103360000018004000700040084A02EB8001D1F8CC
:10337000001C48F68F62114048F280021143034B53
:1033800003EB8002C2F8001C7047000000500040B0
:103390004FF6F8710140014A11607047505C0040DF
:1033A00010B5074B03EB8002D2F8002C48F68F13C0
:1033B0001A400A43024C04EB8003C3F8002C10BDF2
:1033C000005000402DE9F047FEB007468946F84816
:1033D000407E0090F648037E0C224946F54804F0F2
:1033E000EDF9F348407E0090F148037E0D22394606
:1033F000F04804F0E3F9F0A103C97D917C9003AAA1
:10340000EF4890F8061200F5E070A0F110038DE887
:10341000070000F1400249463846FFF7EEFD9DF8EF
:103420000C0028B9E7A002F0E3F87EB0BDE8F08711
:103430004FF00008002416E0E7A002F0D9F854A9E4
:1034400001EB441002F0D4F8E2A002F0D1F854A944
:1034500001EB44100822E5A1FDF7E1F808B94FF0AF
:103460000108601CC4B29DF84F01A042E4DCB8F131
:10347000000F04D0E04A3946D14805F025FE002669
:103480005EE30DF10F0000EB46142078192874D28A
:10349000DFE800F0731A32F0EF56EE74879CB1D07B
:1034A000F1ECEBEAE9E8E7E60D137366E500D3A279
:1034B0003946C34805F008FE3FE3D2A23946C0486A
:1034C00005F002FE00F0FEFFA07908B1A01D00E0AB
:1034D000384605460F222946CE48FDF7BBF90021A4
:1034E000B74880F8BF11CC4806F0DAFECBA23946C7
:1034F000B34805F0E9FD20E3607901281FDB60791E
:1035000004281CDCA07908B1A01D00E0384605465F
:103510006279C04901EB02100F222946FDF79AF9A2
:1035200000216279BB4800EB0210C173BA4806F073
:10353000B7FEBDA23946A24805F0C6FD00BFFCE2B9
:10354000B4485030D4F816100160A17E0171B24821
:1035500006F0A6FEB8A23946994805F0B5FDECE2A2
:10356000B9A103C9CDE9010101A9162002F05EFD50
:10357000B7A1384601F012FEDFE2DDE2607840F0EC
:10358000FC008DF8F7017CA9162002F04FFD607851
:1035900008B1B1A000E0B3A00146384601F0FEFD3D
:1035A000CBE26078F32141EA8000C0B28DF8F701E8
:1035B0007CA9162002F03AFD607808B1ACA000E0CA
:1035C000AEA00146384601F0E9FDB6E26078CF21B1
:1035D00041EA0010C0B28DF8F7017CA9162002F074
:1035E00025FD607808B1A9A000E0ABA001463846EF
:1035F00001F0D4FDA1E203208DF8F001A0784B305A
:10360000C0B28DF8F1017CA9132002F00FFD01F08A
:1036100045FF054694F9020001F0D8FF82462B468B
:103620005246A0A1A248FCF759FEA149384601F034
:10363000B5FD82E260783F2141EA8010C0B28DF88A
:10364000F7017CA9162002F0F1FC607808B199A07E
:1036500000E09BA00146384601F0A0FD6DE254E277
:1036600065E2B2E188E169E172E023E02AE202E08A
:1036700003E215E2D2E103208DF8F001A0784B308F
:10368000C0B28DF8F3017CA9132002F0CFFC01F049
:1036900005FF054694F9020001F098FF82462B468B
:1036A00052468AA18D48FCF719FE8C49384601F034
:1036B00075FD42E2E07E00F0EDFD20B988A13846BC
:1036C00001F06CFD39E2E07E062828D2DFE800F048
:1036D000270309111921207F40F0FC008DF8F0012B
:1036E0001DE0207FF32141EA8000C0B28DF8F00197
:1036F00015E0207FCF2141EA0010C0B28DF8F00123
:103700000DE0207F3F2141EA8010C0B28DF8F0012A
:1037100005E0207F40F0FC008DF8F10100BF00BF04
:103720007CA9162002F082FC207F032804DA207F87
:103730006F4951F8200000E06EA00346E27E6EA1C2
:103740006F48FCF7CBFD6E49384601F027FDF4E1E8
:10375000E07E00F09FFD20B961A1384601F01EFD1A
:10376000EBE1E07E062809D2DFE800F0D203091180
:1037700019CC607F40F0FC008DF8F501C8E0607F57
:10378000F32141EA8000C0B28DF8F501C0E0607F0E
:10379000CF2141EA0010C0B28DF8F501B8E0607F9A
:1037A0003F2141EA8010C0B28DF8F501B0E0000081
:1037B000B818002098140020FFFFFFFFFFFFFFFF55
:1037C00040020020534D533A2061757468206661B1
:1037D000696C65640D0A0000534D5320706172736B
:1037E00065206572726F723A20000000756E6B6E14
:1037F0006F776E3A00000000ECB20308706F6E67DE
:1038000000000000526573657474696E672E2E2E79
:1038100000000000F00300207C00002041646D697E
:103820006E2073657400000050686F6E65207570BF
:1038300064617465642E000050494E2075706461A7
:103840007465642E000000000000FFFFFFFFFF0012
:10385000416C6C206F6666004275726E65723A202C
:103860004F4E00004275726E65723A204F46460018
:10387000456C656D656E743A204F4E00456C656D04
:10388000656E743A204F464600000000466C6F6F2C
:10389000723A204F4E000000466C6F6F723A204F14
:1038A00046460000466C6F6F723A2025642573000F
:1038B000C8110020456E67696E653A204F4E0000C2
:1038C000456E67696E653A204F464600456E6769EA
:1038D0006E653A202564257300000000E011002089
:1038E0004E6F7420617661696C61626C65000000E6
:1038F000440000203F0000005A25643A2025730050
:10390000F8110020607F40F0FC008DF8F60100BF48
:1039100000BF7CA91B2002F089FB607F012801D138
:103920008BA000E08CA00346E27E8DA18F48FCF7BF
:10393000D5FC8E49384601F031FCFEE0E07E00F017
:10394000A9FC28B9AFF26801384601F027FCF4E081
:10395000A17FE07E401E7CAA11547CA91B2002F0AE
:1039600065FBA37FE27E82A18548FCF7B7FC844912
:10397000384601F013FCE0E0E07E00F08BFC28B953
:10398000AFF2A401384601F009FCD6E0E07F4B30ED
:10399000C1B2E07E401E7CAA11547CA9192002F01D
:1039A00045FB01F07BFD054694F91F0001F00EFE7A
:1039B00082460095E27E534672A17648FCF78EFC63
:1039C0007449384601F0EAFBB7E0E07E00F062FCA3
:1039D00028B9AFF2F401384601F0E0FBADE0E07F3A
:1039E0004B30C1B2E07E401E7CAA11547CA9192044
:1039F00002F01CFB01F052FD054694F91F0001F096
:103A0000E5FD82460095E27E534663A16648FCF7D9
:103A100065FC6549384601F0C1FB8EE055208DF804
:103A2000F001FD208DF8F1017CA9162002F0FEFACC
:103A3000207920B101280AD0022818D10FE0F12006
:103A40008DF8F7017CA9162002F0F0FA0FE0F420BF
:103A50008DF8F7017CA9162002F0E8FA07E0F520BE
:103A60008DF8F7017CA9162002F0E0FA00BF00BF34
:103A70004EA1384601F092FB5FE0E0784F4981F8B3
:103A800006024F4806F00CFCE078012801D14DA059
:103A900000E04FA002463946484805F015FB4CE0CF
:103AA0006078464981F80702454806F0F9FB6078DE
:103AB00008B14AA000E04EA0024639463F4805F052
:103AC00003FB3AE0A0784F4981F82300A578642DE4
:103AD00000DC05B96425602D04DD4BA15048FCF7DE
:103AE000FDFB04E02A464FA14D48FCF7F7FB0320FD
:103AF0008DF8F0018DF8F6517CA9132002F096FAAA
:103B00004749384601F04AFB17E060782B4981F8B5
:103B100008022B4806F0C4FB607808B146A000E01C
:103B200047A002463946254805F0CEFA05E0394659
:103B3000344802F0C5FA00E000BF00BF701CC6B2F6
:103B40009DF80E00B0423FF79CAC00BF6DE4000052
:103B50006D616E75616C00006175746F000000002E
:103B60005A25642066616E3A2025730008120020F1
:103B70005A25642066616E3A2025642525000000E0
:103B8000201200205A2564206461793A202564259A
:103B900073000000341200205A2564206E696768A3
:103BA000743A2025642573004C1200205761726D11
:103BB00075702073746172746564000040020020A7
:103BC0007C000020556E6974733A204600000000A6
:103BD000556E6974733A2043000000004661756CAD
:103BE00074207265706F72743A204F4E00000000AE
:103BF0004661756C74207265706F72743A204F461E
:103C0000460000005011002053797374656D2074D4
:103C1000696D65723A20756E6C696D6974656400D2
:103C20006412002053797374656D2074696D657238
:103C30003A2025642068000041636B3A204F4E0013
:103C400041636B3A204F4646000000002DE9F041E9
:103C500005460F4614463D604FF020084146284671
:103C6000FCF797FC064666B100203070701C20609F
:103C700002E02068401C2060206800782028F8D0EE
:103C800004E02846FCF7ACFC28442060BDE8F08145
:103C90000246002002EA01030BB1012000E00020EF
:103CA0007047704701460648006880B200EBC100CB
:103CB000801D044A32F81000C0F30900704700006C
:103CC000505C00400060004010B518480068047A5D
:103CD000022C01D0042C05D1FEF714FE1348006815
:103CE000047A1CE0062C19D1104800684078052899
:103CF0000ED10E480068007800F07F0040B90B49F3
:103D00000968C87800F0ECFC09490968086A80472E
:103D10000849096888688047082400E008240349A6
:103D200009680C7200F03EF910BD0000A8010020E7
:103D3000B4010020AC0100207047000010B502461D
:103D40000F48006880B200EBC200801D0D4C04EBF0
:103D500040033E290BDD481101F01F040CB9441E3D
:103D6000A0B24FF4004444EA80241C6007E04810ED
:103D700001F001040CB1441CA0B284021C6010BD0F
:103D8000505C004000600040044A126892B202EBAE
:103D9000C002921C024B43F812107047505C004066
:103DA0000060004070B51E480078012836D11D48DB
:103DB000006818B900201A4908702FE019480068F7
:103DC00040280ED91848008885B24024164800685B
:103DD00040301549086013480068403811490860B0
:103DE0000FE01148008885B20E48008884B20E4862
:103DF00000680C49096808440B490860002009491B
:103E000008600A4948192246C02100F047FC2146B3
:103E10000120FFF7B9FF012000F002F970BD00009A
:103E2000980000209400002090000020F818002046
:103E30000B4A02EB8001D1F8001C01F4804171B102
:103E400002EB8001D1F8001C48F68F7211404CF251
:103E500080021143024B03EB8002C2F8001C704742
:103E6000005000400B4A02EB8001D1F8001C01F029
:103E7000400171B102EB8001D1F8001C48F68F724D
:103E8000114048F2C0021143024B03EB8002C2F81A
:103E9000001C70470050004001460548006880B291
:103EA00000EBC100001D034A32F8100080B27047D9
:103EB000505C00400060004001460548006880B248
:103EC00000EBC100034A32F8100080B270470000D6
:103ED000505C00400060004010B511480068047A52
:103EE000022C01D0042C01D1082412E0032C01D0B3
:103EF000052C05D1FEF776FF09480068047A08E032
:103F0000072C05D107490968C8688047082400E0E4
:103F10000824034909680C7200F044F810BD000041
:103F2000A8010020AC01002010B54A105300054A3A
:103F3000126892B202EBC002121D034C44F8123018
:103F400010BD0000505C00400060004010B54A10F9
:103F50005200044B1B689BB203EBC003024C44F8B5
:103F6000132010BD505C0040006000400246312A22
:103F700006DB352A04DCA2F130000870012070470E
:103F80000020FCE710B506490320FEF7F1FE84B2DD
:103F9000E1B2034800F06EFE032000F027F810BDE8
:103FA0009821002010B50D4890F82C100020FFF744
:103FB000C5FE0B480068007A082805D1400209496F
:103FC000088010200849088005480068007A092800
:103FD00001D1012010BD0020FCE7000010010020ED
:103FE000A8010020B8010020BA01002010B50B4B39
:103FF00003EB8002D2F8002C4BF68F7302EA030128
:1040000081F4805181F4005141F4004242F0800279
:10401000024C04EB8003C3F8002C10BD005000409C
:1040200010B50B4B03EB8002D2F8002C48F6BF739F
:1040300002EA030181F0100181F0200141F4004205
:1040400042F08002024C04EB8003C3F8002C10BD48
:104050000050004070B504460CB1207808B900202B
:1040600070BD00250CE0084951F835002146FCF7E9
:104070001DFC20B9044800EBC5004068F0E76D1C4A
:104080003B2DF0D30020EBE76CAE03082DE9F047A1
:104090000446204600F074FA08B1BDE8F0872078A5
:1040A000732802D02078532826D16078202823D185
:1040B000A71CB846814649464046FCF76AFA0646C0
:1040C000B6B1002006F8010B41A001F091FA384684
:1040D00001F08EFA43A001F08BFA304601F088FA25
:1040E00042A001F085FA3146384606F08BFC02E02A
:1040F0003FA001F07DFAD0E72078752802D0207823
:10410000552810D1607820280DD1A11C424805F017
:104110001DF842A001F004F9A01C01F001F933A040
:1041200001F0FEF8B9E7207800B9B6E72578722DDE
:1041300001D0522D1DD100BF00BF00BF00BF00BF86
:10414000BFF34F8F00BF00BF00BF3948006800F4C5
:10415000E06038490843001D3549086000BF00BFD2
:1041600000BFBFF34F8F00BF00BF00BF00BF00BF45
:10417000FDE7622D01D0422D06D101202E490870A5
:104180002EA001F035FA88E7672D01D0472D06D122
:1041900020203349086033A001F02AFA7DE7612D21
:1041A00001D0412D06D100202D49086031A001F039
:1041B0001FFA72E76C2D01D04C2D06D1242028491E
:1041C000086030A001F014FA67E700BF65E700005F
:1041D0005B55534220534D535D2070686F6E653DB3
:1041E00000000000206D73673D0000000D0A000014
:1041F0005B55534220534D535D2075736167653A9B
:104200002053203C70686F6E653E203C6D65737373
:104210006167653E0D0A0000400200205B55535364
:10422000445D2073656E64696E673A20000000008B
:104230000CED00E00000FA053C0000200D0A5B4296
:104240007269646765204F4E5D2020747970652027
:104250002B2B2B20746F20657869740D0A000000E9
:10426000080000200D0A5B4C6F673A2047534D5DF4
:104270000D0A00000D0A5B4C6F673A20414C4C5D03
:104280000D0A00000D0A5B4C6F673A2041545D0D2A
:104290000A0000000146012901DB052901DD01209A
:1042A0007047481E044B1A561AB1022A01D0012049
:1042B000F6E70020F4E700008C11002038B5012457
:1042C0002948006880B2001D284931F8100080B2EA
:1042D00001EB4000009026480068007A092832D09F
:1042E000009800782249096808700098401C0090E6
:1042F000009800781E49096848700098401C00909A
:10430000009800EB44000090009931F8020B0091F6
:10431000FEF74CFE164909684880009800EB4400FF
:104320000090009931F8020B0091FEF73FFE104912
:1043300009688880009800EB44000090009800888D
:104340000B490968C88001200949096808720848B2
:104350000068C08810B9FEF701FF01E0FEF732FBEC
:10436000FFF720FE38BD0000505C004000600040B8
:10437000A80100201CB506A103C9CDE900016946CA
:10438000162001F053FE0020034908701CBD0000F8
:104390000000FFFFFFFFFF004000002010B50446B3
:1043A0002CB90220394909680882002010BD00207C
:1043B0003749088035480068007800F07F0018BB56
:1043C00032490968487A00F0200131B13049097852
:1043D00041F002012E4A117005E02D49097801F0E3
:1043E000FD012B4A117000F0400131B128490978D4
:1043F00041F00101264A117005E02549097801F0D4
:10440000FE01234A11703AE020480068007800F06D
:104410007F00012801D11E48C8E71C4800680078C9
:1044200000F07F00022828D1184A1268517901F063
:104430000F0001F080027AB1164B03EB8002D2F834
:10444000002C02F03002102A16D1114A127842F0E4
:1044500001020F4B1A700FE00E4B03EB8002D2F8F3
:10446000002C02F44052B2F5805F05D1084A127860
:1044700042F00102064B1A7001E0002096E706495F
:10448000096808698047024890E70000A8010020F9
:10449000A001002000500040B401002010B5002809
:1044A00004DB0A07130E054A135406E00A07140E2C
:1044B000034A00F00F031B1FD45410BD00E400E0BA
:1044C00018ED00E000BF00BF00BFBFF34F8F00BF7B
:1044D00000BF00BF0948006800F4E06008490843D5
:1044E000001D0649086000BF00BF00BFBFF34F8F2B
:1044F00000BF00BF00BF00BF00BFFDE70CED00E044
:104500000000FA057CB51B480078401C032190FB95
:10451000F1F201FB1200174908700846007818B143
:1045200008460078022801D1012000E0002004465E
:1045300010480078012803D00E480078022801D1E5
:10454000012000E0002005460BA103C9CDE90001D0
:1045500055208DF80000FD208DF8010044F0F0009A
:1045600040EA85008DF807006946162001F05EFDDF
:104570007CBD000040000020FFFFFFFFFFFFFFFFAA
:1045800010B504462146024802F096FD10BD000019
:104590007D00002070B52F480078012858D02E48A3
:1045A0000068B0F5006F02D100202B4908602A484E
:1045B00000682A490968884203D10020254908700B
:1045C00070BD2548006825490968884206D92248F7
:1045D0000068C0F500602249086006E01F480068D6
:1045E0001D490968401A1E4908601D480068402896
:1045F0000ED91948008885B2402417480068403019
:1046000015490860164800684038154908600FE0F1
:104610001148008885B21248008884B20E480068AC
:104620000F49096808440C49086000200C490860DB
:104630000120084908700B4948192246C02100F0A2
:104640002DF821460120FFF79FFB0120FFF7E8FC32
:1046500000BFB5E798000020900000208C000020EB
:1046600094000020F818002070470000F0B5561C98
:104670007510084E06EB41042B4607E034F8047B26
:1046800020F8017B401C044E30605B1E002BF5D1EE
:10469000F0BD000000600040BC010020F0B51446F1
:1046A00004F1010C4FEA6C07DFF82CC00CEB41035E
:1046B0003D460EE00678401C90F800C046EA0C2209
:1046C00023F8022B9B1C401CDFF810C0CCF8000024
:1046D0006D1E002DEED1F0BD00600040C001002035
:1046E00030B501460F4B1A78002014E003060E4C3B
:1046F00004EB9353D3F8003C48F68F74234048F200
:1047000080042343C4B223430406074D05EB9454AD
:10471000C4F8003C401C9042E8D341F08003034CB5
:10472000236030BD0C010020005000404C5C004074
:104730002DE9F04754480068007800F07F08B8F190
:10474000000F0AD150480068407A00F0DF004E495F
:10475000096848720020BDE8F087B8F1020F7CD1EB
:1047600049480068408818B947480068007908B18E
:104770000220F0E7DFF8149143480068477927F0FA
:1047800080052C4640480068407900F0800038B130
:104790003F4901EB8400D0F8000C00F0300606E041
:1047A0003B4901EB8400D0F8000C00F4405699F826
:1047B0000000A84204D91EB133480068807A08B9C5
:1047C0000220C8E707F0800080B1314901EB840086
:1047D000D0F8000C00F0300010284BD1E0B2FFF709
:1047E00041FBE0B23021FEF775FD43E0284901EBC3
:1047F0008400D0F8000C00F44050B0F5805F39D14F
:10480000E4B9244A92F82C10E0B2FFF797FA204A54
:1048100002EB8401D1F8001C4BF68F7201EA020012
:1048200080F4805080F4005040F4004141F0800159
:10483000174B03EB8402C2F8001C1BE0E0B2FFF749
:10484000F7FA134A02EB8401D1F8001C4BF68F7281
:1048500001EA020080F4805000E011E080F4005092
:1048600040F4004141F08001094B03EB8402C2F89F
:10487000001C00BF084909684869804700206AE7B2
:1048800000BF022067E70000A80100200C01002003
:104890000050004010010020B401002010B5044673
:1048A0002CB90120064909680882002010BD05497D
:1048B000096888688047024800680C30F6E7000005
:1048C000A8010020B401002010B5174B1B68D9784F
:1048D000154B1B685879154B1B689A69904704461D
:1048E00011480068807AE8B13CB90F480068007947
:1048F00018B90D480068807808B1022010BD8CB945
:104900000B490968C868804707480068407906492C
:104910000968C87204480068C078034909680873C8
:104920000020EBE70220E9E7A8010020AC0100200D
:10493000B401002008B50020009022E197480088CB
:1049400000F00F00964908700846007800287CD1D6
:1049500094480068944908800846008800F03000B8
:10496000924908809048008800F440508E490880A1
:104970008C4909684BF6BF7201EA020080F40050CE
:1049800080F0200040F4004141F08001854A116030
:104990008248008800F0100090BB1046006848F67E
:1049A0000F71084011460860FFF78EF97D490968CC
:1049B0004BF6BF7201EA02007B49098801F480517D
:1049C00009B180F480507849098801F4005109B197
:1049D00080F400507549098801F0100109B180F098
:1049E00010007249098801F0200109B180F020000F
:1049F00081B241F4004141F080016A4A116008BD72
:104A0000FFE76848006880B20090BDF8000000F43D
:104A10000060B0B363480068C0F30E0048F68F71C1
:104A2000084060490860FFF749FC5E4909684BF699
:104A3000BF7201EA02005C49098801F4805109B1A2
:104A400080F480505849098800E056E001F4005194
:104A500009B180F400505549098801F0100109B1ED
:104A600080F010005149098801F0200109B180F05F
:104A7000200081B241F4004141F08001494A1160B7
:104A8000BDE7FFE7BDF8000000F40040002878D043
:104A900044480068C0F30E0048F68F710840414951
:104AA0000860FFF719FA3F4909684BF6BF7201EA3F
:104AB00002003D49098801F4805109B180F4805019
:104AC0003949098801F4005109B180F4005037498F
:104AD000098801F0100109B180F0100033490988FC
:104AE00001F0200109B180F0200081B241F40041C1
:104AF00041F080012B4A116081E7294800782C4958
:104B000001EB8000D0F8000C80B20090BDF80000EE
:104B100000F40040C0B12248007801EB8000D0F8DA
:104B2000000CC0F30E0048F68F7108401C4909784C
:104B30001F4A02EB8101C1F8000C19490978491E8E
:104B40001C4A52F821008047BDF8000000F08000A8
:104B5000B8B113480078164901EB8000D0F8000C7A
:104B600048F60F7108400E490978114A02EB81019D
:104B7000C1F8000C0A490978491E0F4A52F8210071
:104B8000804708484430006880B20449088000F437
:104B9000004000287FF4D2AE00BF30E7BC00002008
:104BA000A4010020005C0040B8010020BA010020F0
:104BB00000500040E4000020C800002008B54FF479
:104BC000A060FDF77BF914208DF8000001208DF81E
:104BD000010000208DF8020001208DF803006846D6
:104BE000FDF734F92A208DF8000000208DF801002F
:104BF00001208DF803006846FDF728F908BD000084
:104C000010B5002006490968887200F0C1FBFEF764
:104C10009DF8FFF729FD00200249086010BD000043
:104C2000A8010020940100200F498979072906D1A5
:104C300000F07F010D4A0E4B1B68D15407E00A4972
:104C40008979082903D10949094A12688854084911
:104C50000968491C064A116011460968B1F5006FE0
:104C600001D100211160704704010020F8180020D4
:104C70008C0000202DE9F04106460F46002558E043
:104C8000745D2E480078002832D02B2C12D12C488D
:104C90000078401C2A4908700846007803280CDB7D
:104CA0000020264908702649087026A000F0A0FCC4
:104CB000BDE8F0810020224908700D2C01D00A2C9B
:104CC00006D10D20FFF7B0FF0A20FFF7ADFF02E08D
:104CD0002046FFF7A9FF20480078402807DA34B1C2
:104CE0001D490878411C1C4A11701C490C541FE0D6
:104CF0000020134908700D2C01D00A2C0BD1002084
:104D00001749184A127888540846FFF7BFF900205F
:104D1000144908700BE0134800789F2807DA1148FF
:104D200001780078401C0F4A10700D48445400BFB1
:104D30006D1CBD42A4D300BFBAE700003C000020B8
:104D4000990000200D0A5B427269646765204F4636
:104D5000465D0D0A000000003D000020BB0F002052
:104D6000F82000209A00002010B50020344909687E
:104D700088723448C0793249096848720020304945
:104D80000968C872FEF704FB4FF400710020FEF7BB
:104D900007FB10210020FEF79DFA40210020FFF7BD
:104DA000C3F880210020FFF7D1F80020FEF7DCFADD
:104DB000254890F82C100020FEF7C0FF0020FFF7D8
:104DC00015F900210120FEF7EBFAC0210120FFF7C1
:104DD000BDF820210120FEF77DFA00210120FEF719
:104DE00059FA4FF4C0610220FEF7DAFA4FF48071ED
:104DF0000220FFF7ABF800210220FEF74BFA20213A
:104E00000220FEF767FA00210320FEF7C9FA4FF4EB
:104E100088710320FFF788F840210320FEF78EFFFA
:104E20004FF440510320FEF735FA00210320FEF72E
:104E300051FA0020FFF754FC01200449086010BD1E
:104E4000A80100207AB3030810010020940100207B
:104E5000816D21F0100181657047816D41F0100175
:104E60008165704710B504462CB9012006490968D0
:104E70000882002010BD054909680868804702487B
:104E800000680A30F6E70000A8010020B401002005
:104E900010B50E480068C0780D494978884213DC87
:104EA0000A480068807878B908480068808858B94E
:104EB00006480068C078054909688872054909688C
:104EC00048688047002010BD0220FCE7A8010020B0
:104ED0000C010020B401002010B507480068407A9A
:104EE00040F0200004490968487204490968C8690B
:104EF0008047002010BD0000A8010020B401002060
:104F000010B5024606480068438A32B98888C01A3C
:104F1000034C24682082002010BD08681844FBE779
:104F2000A801002010B505480078202804D1FDF71D
:104F3000D9FF00200149087010BD000000010020C9
:104F400010B50948007800B910BD00200649087066
:104F50000648D0F80C0228B104480549D0F80C22C4
:104F60000448904700BFEFE73F00002040020020C8
:104F70000B100020FB0F00202DE9F0412E480068A7
:104F8000467926F080073C462B480068407900F0BF
:104F9000800038B1294901EB8400D0F8000C00F002
:104FA000300506E0254901EB8400D0F8000C00F440
:104FB000405523480078A04208D91F48006840881F
:104FC00020B91DB11C480068807A10B90220BDE8E4
:104FD000F08106F08000A0B1184A02EB8401D1F8FC
:104FE000001C48F6BF7201EA020080F0100040F495
:104FF000004141F08001114B03EB8402C2F8001C18
:1050000014E00E4A02EB8401D1F8001C4BF68F72BB
:1050100001EA020080F4805040F4004141F0800138
:10502000064B03EB8402C2F8001C00BF0549096867
:10503000886980470020CAE7A8010020005000408E
:105040000C010020B401002070B504460025212C7D
:1050500008D112480068007800F07F0021280ED1A6
:105060000F4D0CE0202C0AD10C480068007800F0AD
:105070007F00212800D10B4D20200B4908700DB96D
:10508000022070BD05480068856100210348006862
:1050900041820020A8470020F3E70000A80100207B
:1050A000D9500308F55003080001002070470000A4
:1050B000014608480068007800F07F00212807D1E9
:1050C000022901D100207047222901D10020FAE7EE
:1050D0000220F8E7A8010020014629B90820034A68
:1050E00012681082002070470148FCE7A8010020E8
:1050F00004010020014629B90820034A12681082E1
:10510000002070470148FCE7A801002004010020AE
:105110000348817A11B10521024A116070470000ED
:10512000F821002094010020042001490860704704
:105130009401002010B5044602492046FFF7E0FE26
:1051400010BD00006C01002010B504460249204645
:10515000FFF7D6FE10BD00006401002070B50546C3
:1051600006480068C478042C01DD002070BD0448A6
:1051700000EBC4012846FFF7C3FEF7E7A8010020B3
:10518000740100200246002901DD02207047012A37
:1051900001DD0220FAE70020F8E7000070B50446C0
:1051A0000D46054890F8080220B12A4621460248DB
:1051B00003F08AFF70BD00004002002030B50346B6
:1051C000002A08DA8B2904DA2D2508464C1CE1B2A6
:1051D0001D54504202B2642A0ADB8B2908DA64208B
:1051E00092FBF0F03030C5B208464C1CE1B21D54C1
:1051F0000A2A0FDB8B290DDA0A2092FBF0F00A2431
:1052000090FBF4F504FB15003030C5B208464C1C89
:10521000E1B21D548B290ADA0A2092FBF0F400FB5C
:1052200014203030C5B208464C1CE1B21D5408466B
:1052300030BD30B5034605E012F8015B08464C1C52
:10524000E1B21D54107808B18B29F5DB084630BD5A
:1052500010B50446072C01D02E4804702D48007864
:10526000082850D2DFE800F004111A202B384D4EE8
:105270002948006828B9FDF7F1FC06202549087087
:1052800002E005202349087041E0FDF7E7FC042017
:105290002049087001202049086038E002201D499B
:1052A00048700320087032E01A484078401E1949BF
:1052B00048700846407808B90420087027E017486D
:1052C000006883B243F010031448036005201149BD
:1052D00008700A2048701AE00E484078401E0D49B8
:1052E00048700846407858B90C48006883B223F0EB
:1052F00010030A4803600620087000200649086071
:1053000005E000BF00BF06200249087000BF00BFD3
:1053100010BD0000990100209C010020405C00406D
:1053200010B504460748006824280AD106E0207812
:105330000D2802D02078FFF777FC641C2078002825
:10534000F5D110BD0800002010B5024607E012F8A4
:10535000013B11F8014BA34201D0002010BD087899
:105360000028F4D10120F9E70848007E4FF0707161
:1053700041EA40300549497E40EA81200349097EDF
:1053800040EAC1000149497E08437047B81800202F
:1053900001210B48016000200A4A10801046008855
:1053A000074A10600020121D10604FF4E050054ABB
:1053B000108010460088024A1060002070470000EC
:1053C000405C0040B201002010B50021204A126864
:1053D00090B200BF09E01F4B03EB8102D2F8002C12
:1053E00092B21D4B43F82120491C0829F3D340F405
:1053F0008060174A106040F00100106020F001004A
:10540000106000BF124A121D126802F48062002A66
:10541000F8D04FF6FF320E4B1B1D1A60002109E039
:105420000D4A52F8212092B20A4C04EB8103C3F8D2
:10543000002C491C0829F3D340F00800044A1060EE
:10544000126890B240F00400014A106010BD0000E4
:10545000405C004000500040D821002070B5044658
:105460000D46A0780A280ADAA278511CA170E11C26
:1054700001EB421020222946FBF71CF903E002A1B0
:10548000204600F01DF970BD746F6F206D616E795C
:1054900020636F6D6D616E6473000000044890F8C6
:1054A0000602012801D103A0704703A0FCE7000019
:1054B00040020020B0460000B043000010B50B4889
:1054C0000B4908600220096808720A480A49086006
:1054D0000A480B4908600849096808688047094874
:1054E000006840F080500749086010BDF821002096
:1054F000A801002010010020AC0100204001002084
:10550000B40100202018004010B52A4800682A493C
:1055100008800846008800F40040284909880840AF
:1055200008B1FFF707FA2448008800F48060234997
:105530000988084030B14FF6FF301E490860204905
:10554000486880471C48008800F480501B4909883F
:10555000084030B14EF6FF70164908600020FFF792
:1055600077FE1548008800F4006014490988084057
:1055700060B11448007810B1FFF726FF02E0022066
:10558000FFF766FE4FF2FF700A4908600A4800887C
:1055900000F4007009490988084050B14FF6FF50E7
:1055A0000449086008480078401C07490870FDF766
:1055B00077FC10BD445C0040BC000020B20100201C
:1055C0001001002098010020BE000020014607487D
:1055D00090F80602012807D101EBC100052290FBDB
:1055E000F2F0203000B270470846FCE7400200208D
:1055F00010B5044607E0207820B114F8010BFFF73E
:1056000013FB00E000E0F6E700BF10BD01460129F2
:1056100006D0022906D0032906D0042908D105E0C6
:1056200004A0704704A0FCE705A0FAE706A0F8E78D
:1056300007A0F6E749474E00686561740000000066
:10564000776F726B00000000626C6F7700000000E3
:1056500069646C65000000002DE9F04104460026F5
:1056600000E0761CA05D2028FBD0A05D0928F8D0C2
:105670004EB12046FAF7B4FF871BA1197A1C2046C9
:10568000FBF75DF800BF2046FAF7AAFF054603E0E6
:105690000021681E05462154002D0FDD681E205C88
:1056A0002028F5D0681E205C0928F1D0681E205CF7
:1056B0000D28EDD0681E205C0A28E9D0BDE8F081F5
:1056C00070B504460D4694F84301052816DA94F89F
:1056D000432104F5A27101EB42101F222946FBF77A
:1056E000B9F8002194F8432104F5A27000EB4210B0
:1056F000C17794F84301401C84F8430170BDF0B5B4
:105700001D4600230024002616701BE00678222E7A
:1057100001D15B1C15E0012606EB41069E4209D132
:105720006E1EA64206DD90F800C02646641C02F8F4
:1057300006C005E0012606EB41069E4200DA04E0C1
:1057400000BF401C0678002EE0D100BF0026165591
:10575000F0BD00002DE9F04794B004460E46154612
:10576000984620210CA8FBF74EF8FEA12046FBF737
:105770009DF820B1FDA12046FBF798F848B9132009
:105780008DF830000CA94046FFF768FE14B0BDE864
:10579000F087F7A12046FBF789F838B914208DF877
:1057A00030000CA94046FFF759FEEFE7F2A1204672
:1057B000FBF77CF838B915208DF830000CA940466D
:1057C000FFF74CFEE2E7EEA12046FBF76FF838B991
:1057D00016208DF830000CA94046FFF73FFED5E7B4
:1057E0002078702829D16078682826D1A0786F2881
:1057F00023D1E0786E2820D1207965281DD16079E9
:1058000031281ADB6079342817DCA079A8B9022086
:105810008DF8300060793038C0B28DF835000F2235
:1058200031460DF13600FBF715F800210CA8417543
:105830000CA94046FFF712FEA8E7D3A12046FBF7CC
:1058400035F848BB03208DF83000307820B1D0A166
:105850003046FBF72BF818B900208DF8340016E01D
:10586000CDA13046FBF722F818B901208DF834009D
:105870000DE0CBA13046FBF719F818B902208DF8DE
:10588000340004E0C8A14046FFF71AFF7EE70CA9E8
:105890004046FFF7E3FD79E7CAA12046FBF706F88B
:1058A00080B901208DF830000F2231460DF136000D
:1058B000FAF7D0FF00210CA841750CA94046FFF76C
:1058C000CDFD63E7C1A12046FAF7F0FFA8B90AA908
:1058D0003046FCF7CFFF20B9BFA14046FFF7F0FEEE
:1058E00054E704208DF830009DF828008DF8310031
:1058F0000CA94046FFF7B2FD48E7BCA12046FAF7E5
:10590000D5FF38BB3046FAF76BFE042804D0B9A1A6
:105910004046FFF7D5FE39E700270BE0F05D302861
:1059200002DBF05D392804DDB8A14046FFF7C8FE70
:105930002CE77F1C042FF1DB05208DF83000306848
:10594000CDF8460000210CA881760CA94046FFF74F
:1059500085FD1BE7B2A12046FAF7A8FF20BBB2A144
:105960003046FAF7A3FF50B906208DF8300000202A
:105970008DF833000CA94046FFF770FD13E0ABA192
:105980003046FAF793FF50B906208DF83000012019
:105990008DF833000CA94046FFF760FD03E0A4A199
:1059A0004046FFF78DFEF1E68FA12046FAF77EFF15
:1059B00038B917208DF830000CA94046FFF74EFD8E
:1059C000E4E69FA12046FAF771FFA8B90AA930467C
:1059D000FCF750FF20B99BA14046FFF771FED5E6CA
:1059E00018208DF830009DF828008DF831000CA9A2
:1059F0004046FFF733FDC9E665A12046FAF756FF9A
:105A0000A8B90AA93046FCF735FF20B990A1404655
:105A1000FFF756FEBAE607208DF830009DF8280003
:105A20008DF831000CA94046FFF718FDAEE65AA1EB
:105A30002046FAF73BFFA8B90AA93046FCF71AFF3F
:105A400020B987A14046FFF73BFE9FE608208DF86E
:105A500030009DF828008DF831000CA94046FFF772
:105A6000FDFC93E682A12046FAF720FFB0BB012D92
:105A700001D1242000E002200746012D01D15A2047
:105A800000E0202081460AA93046FCF7F3FE58B119
:105A900009208DF830009DF828008DF831000CA900
:105AA0004046FFF7DBFC23E00BA93046FCF70AFF7A
:105AB000A8B10B98B84212DB0B9848450FDC0A20BE
:105AC0008DF8300029460B9800F0EDFA40B28DF8C1
:105AD00032000CA94046FFF7C1FC09E009E0012DA6
