:020000040802F0
:10A000005555555555557900000B000000000000CE
:10A010000000000000000000000000000000000040
:10A020000000000000000000000000000000000030
:10A030000000000000000000000000000000000020
:10A040000000000000000000000000000000000010
:10A80000509C0020D9AA020835CA0208E1C90208F2
:10A8100031CA020885BB020833D4020800000000D8
:10A8200000000000000000000000000089CE0208C7
:10A8300051C4020800000000EFAA02088DCE0208F1
:10A84000F3AA0208F3AA0208F3AA0208F3AA02086C
:10A85000F3AA0208F3AA0208F3AA0208F3AA02085C
:10A86000F3AA0208F3AA0208F3AA0208F3AA02084C
:10A87000F3AA0208F3AA0208F3AA0208F3AA02083C
:10A88000F3AA0208F3AA0208F3AA0208F3AA02082C
:10A890002BD4020889BB0208F3AA0208F3AA020813
:10A8A000F3AA0208F3AA0208F3AA0208F3AA02080C
:10A8B000F3AA0208F3AA0208F3AA0208F3AA0208FC
:10A8C000F3AA0208F3AA0208F3AA0208F3AA0208EC
:10A8D000F3AA02084DD20208F3AA0208F3AA02085A
:10A8E000F3AA0208F3AA02081FD40208F3AA020876
:10A8F000F3AA0208F3AA0208F3AA0208F3AA0208BC
:10A90000F3AA0208F3AA0208F3AA0208F3AA0208AB
:10A91000F3AA0208F3AA0208F3AA0208F3AA02089B
:10A92000F3AA0208F3AA0208F3AA0208F3AA02088B
:10A93000F3AA0208F3AA0208F3AA0208F3AA02087B
:10A94000A1BC0208DDBC0208F3AA0208F3AA0208AF
:10A95000F3AA0208F3AA0208F3AA0208F3AA02085B
:10A96000F3AA0208F3AA0208F3AA0208F3AA02084B
:10A97000F3AA0208F3AA0208F3AA0208F3AA02083B
:10A98000F3AA020849D20208F3AA0208F3AA0208AD
:10A99000F3AA0208F3AA020800F002F800F08CF80B
:10A9A0000AA090E8000C82448344AAF10107DA452A
:10A9B00001D100F081F8AFF2090EBAE80F0013F0F0
:10A9C000010F18BFFB1A43F001031847C46A0100C6
:10A9D000E46A01000A444FF0000C10F8013B13F048
:10A9E000070408BF10F8014B1D1108BF10F8015BE8
:10A9F000641E05D010F8016B641E01F8016BF9D1DB
:10AA000013F0080F1EBF10F8014BAD1C0C1B09D131
:10AA10006D1E58BF01F801CBFAD505E014F8016BA3
:10AA200001F8016B6D1EF9D59142D6D37047000035
:10AA30000023002400250026103A28BF78C1FBD847
:10AA4000520728BF30C148BF0B6070476E2900F025
:10AA50001581702900F0E081692900F0D380642914
:10AA600000F0D080752900F0CD806F2900F078814A
:10AA7000782900F0C4810368DB0928BF41F0800118
:10AA8000632900F0B685732900F0BB85E32900F047
:10AA9000C685002070471FB514F073FD00F0AEFEB0
:10AAA00004000020002114F061FB401C606000F0F5
:10AAB00001FD1FBD10B510BD00F0B2FE1146FFF73D
:10AAC000EAFF13F097FF00F0D0FE03B4FFF7F2FFA8
:10AAD00003BC00F0D5FE0000094880470948004744
:10AAE000FEE7FEE7FEE7FEE7FEE7FEE7FEE7FEE73E
:10AAF000FEE7FEE704480549054A064B704700009B
:10AB000085CF020899A9020850600020509C0020BF
:10AB100050780020507800200FB41CB5074B06AACF
:10AB20007B4469460090059800F041FD002069468D
:10AB300000F050FD1CBC5DF814FB0000B10A0000E1
:10AB400070B5044685690068C10601D5302600E06D
:10AB50002026C00707D070BDD4E9012130469047B8
:10AB6000206A401C20626D1EF6D570BD70B504468B
:10AB700085690078C00707D170BDD4E90121202084
:10AB80009047206A401C20626D1EF6D570BD096892
:10AB90004A0501D540B27047C905FCD500B27047DF
:10ABA00009684A0501D5C0B27047C905FCD580B215
:10ABB000704770B50C460546012A05D028788006F6
:10ABC00000D5EA69002302E0012305E05B1C934203
:10ABD00002D2E05C0028F9D1A869E618C01AA86181
:10ABE000286A184428622846FFF7AAFF04E0D5E93E
:10ABF000012114F8010B9047B442F8D32846FFF71F
:10AC0000B5FF70BD2DE9F041064600241068752996
:10AC1000314616A510D0FFF7BAFF002802DA4042ED
:10AC200013A507E031688A0701D512A502E049079C
:10AC300004D511A5012401E0FFF7B2FF00210A228B
:10AC400006F1240709E0B0FBF2FCB0FBF2F302FBD3
:10AC50001C00303078541846491C0028F3D1234694
:10AC60002A463046BDE8F04100F042BC000000003A
:10AC70002D0000002B000000200000001168026879
:10AC8000006A530501D508700AE0D30501D5088094
:10AC900006E0130603D5C217C1E9000200E0086010
:10ACA000012070472DE9FF5F15468A460446DFF80C
:10ACB000AC80F8440027D8E900103E46CDE90010EA
:10ACC00010E05AF826106A4602A800F003FD411C65
:10ACD00007D02178890603D5E269391891420DD849
:10ACE0000744761C2078800602D5E069B84205DD6D
:10ACF000AE42E6DB5AF826000028E2D1A069C01B6C
:10AD0000A0612046FFF71CFFD8E90010CDE9001034
:10AD1000002017E05AF828106A4602A800F0DAFC72
:10AD2000B0F1FF3F81460BD000250DF1080B05E087
:10AD3000D4E901211BF8050090476D1C4D45F7D360
:10AD400008F10100B0428046E4DB206A384420620A
:10AD50002046FFF70BFFBDE8FF9F00005E53010098
:10AD600070B5044621461068FFF71AFF002104F170
:10AD7000240505E000F007023032C0086A54491C7F
:10AD80000028F7D12068002307A2050707D5800611
:10AD900000D421B1E069012304A2401EE0612046F5
:10ADA000BDE8704000F0A4BB0000000030000000CF
:10ADB000F0B40D460188090502D51B4C7C4402E025
:10ADC000194C7C440E34002100F1240305E002F00C
:10ADD0000F061209A65D5E54491C002AF7D10278BD
:10ADE0000023120704D5702D06D009B102231134B7
:10ADF0002246F0BC00F07CBB01231034F8E770B5AC
:10AE000004460D4621461068FFF7CAFE0246294651
:10AE10002046BDE87040CBE70368126843F020038A
:10AE200003600823C361C3E75C5201002DE9F05FB2
:10AE3000894604464FF0000ADFF874B1FB44C0F8BD
:10AE400020A02046E1688847002874D0252806D035
:10AE5000D4E901219047206A401C2062F1E70026D6
:10AE60005F462046E16888472028054607DB312DEC
:10AE700005D2781910F8200C08B10643F1E7B007A5
:10AE800001D526F00406C4F81CA00027C4F818A0B9
:10AE90002A2D09D0284613F0A5FD38B304EB870806
:10AEA000303DC8F8185019E059F8041B204604EB4F
:10AEB00087029161E1688847012F054618D1E06952
:10AEC000002820DA26F020061DE0D8F8180000EB54
:10AED000800005EB40003038C8F818002046E168D3
:10AEE0008847054613F07EFD0028EED1012F0AD0D9
:10AEF0002E2D08D12046E16888477F1C0546022F89
:10AF000046F02006C4DBA069002803DA404246F080
:10AF10000106A061F00701D026F010066C2D0BD0C1
:10AF2000682D09D04C2D39D06A2D35D0742D35D0EF
:10AF30007A2D33D016E038E0E1682F462046884766
:10AF4000B842054609D16C2F26D04FF48060E168E5
:10AF5000064320468847054604E06C2F1AD04FF47C
:10AF6000807006430DB3A5F14100192802D82035A1
:10AF700046F400664A462946204626604E46FFF7BC
:10AF800065FD80B101280BD0F61D26F0070000F109
:10AF9000080956E74020E4E78020D8E70020D6E7FC
:10AFA00006F104094DE7284652E7206ABDE8F09F04
:10AFB0000452010070B5064600F096FA0468054692
:10AFC00030460A22002100F002F82C6070BD2DE905
:10AFD000F04791460F4680460446002614F8015B70
:10AFE0002DB100F079FA0068405DC007F6D12B2D35
:10AFF00002D02D2D18D0641E4A463946204600F056
:10B000001AFB27B13968A14201D1C7F800804FF07F
:10B01000020471050BD54042002803DD00F064FAFC
:10B020000460A007BDE8F08746F48066E4E70028E6
:10B03000F8DA00F059FA04606FF00040F2E7401EC1
:10B04000CAB210F8011F8A4202D00029F9D10020AB
:10B05000704710B5431E13F8014F002CFBD105E0DB
:10B0600011F8014B002C03F8014B03D0521EF7D20C
:10B070000021197010BD30B505460B462A4613F85D
:10B08000014B12F8010B08B1A042F8D01CB1002806
:10B0900002D06D1CF1E7284630BD40EA010310B52F
:10B0A0009B070FD1042A0DD310C808C9121F9C4258
:10B0B000F8D020BA19BA884201D9012010BD4FF04A
:10B0C000FF3010BD1AB1D30703D0521C07E0002097
:10B0D00010BD10F8013B11F8014B1B1B07D110F8F4
:10B0E000013B11F8014B1B1B01D1921EF1D11846F7
:10B0F00010BD40EA0103024630B59B0710D14FF066
:10B10000013400E008C208C91D1B9D4315EAC41F95
:10B11000F8D013F0FF0102F8011B0DD01B0AF8E76D
:10B1200011F8013B002B02F8013B05D011F8013B5F
:10B13000002B02F8013BF3D130BD0022CBB210F856
:10B14000011B994200D1421E0029F8D110467047D8
:10B1500010B5431C02E010F8011B71B18107FAD150
:10B160004FF0013202C88C1A8C4314EAC211F9D094
:10B17000C01A0A0603D0C01E10BDC01A10BD0A04B2
:10B1800001D0801E10BD0902FCD0401E10BD40EA57
:10B19000010370B59B072ED14FF00136042A2AD344
:10B1A00008C810C99D1B9D43121F15EAC61517D06C
:10B1B000D8B2E1B2401A50EA056110D198B2A1B2FA
:10B1C000401A50EA05410AD123F07F4024F07F4124
:10B1D000401A50EA052102D1180EA0EB146070BD90
:10B1E000A342DBD018BA21BA884201D9012070BD30
:10B1F0004FF0FF3070BD0AB9002070BD10F8013B60
:10B2000011F8014B63B1A3420AD1521E08D010F8C5
:10B21000013B11F8014B1BB1A34201D1521EEDD1EC
:10B22000181B70BD032A40F2308010F0030C00F0B0
:10B23000158011F8013BBCF1020F624498BF11F870
:10B2400001CB00F8013B38BF11F8013BA2F1040229
:10B2500098BF00F801CB38BF00F8013B11F00303A1
:10B2600000F05882083AC0F0088051F8043B083AD0
:10B2700051F804CBA0E80810F5E7121D5CBF51F8A7
:10B28000043B40F8043BAFF30080D20724BF11F821
:10B29000013B11F801CB48BF11F8012B24BF00F886
:10B2A000013B00F801CB48BF00F8012B7047431A5F
:10B2B00028BF9A427FF6B6AF032A1044114440F2E9
:10B2C000268010F0030F1EBF11F8013D521E00F83A
:10B2D000013D10F0030F7FF4F6AF11F0030300F00F
:10B2E0005E82083AC0F00B8051F8043D083A51F8EC
:10B2F00004CD40F8043D40F804CDFFF7F3BF121D24
:10B300005CBF51F8043D40F8043DAFF30080D20724
:10B3100024BF11F8013D11F801CD48BF11F8012CEF
:10B3200024BF00F8013D00F801CD48BF00F8012C12
:10B33000704702F0FF0343EA032242EA024200F0B0
:10B3400002B84FF000020429C0F0128010F0030C84
:10B3500000F01B80CCF1040CBCF1020F18BF00F808
:10B36000012BA8BF20F8022BA1EB0C0100F00DB8B7
:10B370005FEAC17C24BF00F8012B00F8012B48BF15
:10B3800000F8012B70474FF0000200B513469446B9
:10B390009646203922BFA0E80C50A0E80C50B1F12D
:10B3A0002001BFF4F7AF090728BFA0E80C5048BF41
:10B3B0000CC05DF804EB890028BF40F8042B08BFDF
:10B3C000704748BF20F8022B11F0804F18BF00F8DB
:10B3D000012B704710B5044610F0030F08BF11F0A1
:10B3E000030F40F015804FF0013E121FC0F20E8097
:10B3F00051F8043BA3EB0E0C2CEA030C1CEACE1C08
:10B4000008BF40F8043BF0D0A1F1040102F10402AE
:10B41000521E08DB11F8013B002B00F8013BF7D16D
:10B420001146FFF78EFF204610BD00004FF0013C93
:10B4300050F8042B51F8043B9A4221D1A2EB0C03A3
:10B44000934313EACC1317D150F8042B51F8043B63
:10B450009A4215D1A2EB0C03934313EACC130BD100
:10B4600050F8042B51F8043B9A4209D1A2EB0C038B
:10B47000934313EACC13DBD04FF00000704700BFBA
:10B48000D01A01BAB1FA81F101F0180122FA01F0E3
:10B49000CB40C1F12001DBB2C0B2C01A2CFA01F3DB
:10B4A000D11A914311EAC311E6D170477047704732
:10B4B0007047000070B5064C7C44064D7D4403E0A7
:10B4C000206820448047241DAC42F9D170BD0000A3
:10B4D000046101001C61010010B500F08FF9001D2E
:10B4E00010BD00BF893C010000487047F05F00209C
:10B4F0002DE9F0470D4699469246044600F124088E
:10B500000168880604D5E06921F01001216000E09F
:10B510000120A84201DD471B00E00027A1697A193C
:10B5200002EB0900081AA0612078C00602D4204668
:10B53000FFF706FB002608E0D4E901211AF806000F
:10B540009047206A401C761C20624E45F4DB207830
:10B55000C0060AD52046FFF7F3FA06E0D4E9012138
:10B5600030209047206A401C2062381EA7F1010756
:10B57000F4DC07E0D4E9012118F805009047206ABF
:10B58000401C2062281EA5F10105F3DC2046FFF7D0
:10B59000EDFA2078000602D50220BDE8F0870120F0
:10B5A000FBE7000001694A1C02610878704700B59A
:10B5B0008FB0CDE901310021059105497944CDE9EC
:10B5C000031011466846FFF731FC0FB000BD0000C4
:10B5D000E5FFFFFF0A6802F8010B0A60704710B52B
:10B5E000436913B1AFF3008001E0FFF7E2FA0120F5
:10B5F00010BD127800F124010A7000224A70012265
:10B60000EDE711684FF0FF32E9E710B5436913B178
:10B61000AFF3008001E0FFF745FB012010BD126889
:10B6200000F124014262002282620122EDE71168EA
:10B630004FF0FF32E9E72DE9F05F824615468B4671
:10B6400000270AF10104B9460078302801D09DB1E5
:10B6500013E014F8010B0127782803D0582801D0F3
:10B6600045B10AE00DB1102D07D1002714F8010BE8
:10B67000102502E0082500E00A250026B0460EE06D
:10B6800005FB080005FB06F101271FFA80F801EB16
:10B690001046B6F5803F00D3B94614F8010B294691
:10B6A00000F0B0F80028EBDABBF1000F05D00FB1C5
:10B6B000641E00E05446CBF80040B9F1000F06D0FC
:10B6C000FFF712FF02210160C81EBDE8F09F48EAA3
:10B6D0000640FAE770B516460C460546FFF7FCFE35
:10B6E000036893F80101012806D0FF2C0FD8185DDC
:10B6F00068B101202C7070BDD3F807013246214695
:10B7000003F2071303442846BDE8704018474FF082
:10B71000FF3070BD10B5203AC0F00B80B1E8185072
:10B72000203AA0E81850B1E81850A0E81850BFF42B
:10B73000F5AF5FEA027C24BFB1E81850A0E81850CA
:10B7400044BF18C918C0BDE810405FEA827C24BF1E
:10B7500051F8043B40F8043B08BF7047D20728BFAC
:10B7600031F8023B48BF11F8012B28BF20F8023BFB
:10B7700048BF00F8012B7047431A28BF9A427FF652
:10B78000C9AF104410F0030F11441EBF11F8013D62
:10B79000521E00F8013D10F0030F7FF4F6AF103A8F
:10B7A000C0F00A8010B531E91850103A20E918505D
:10B7B000BFF4F9AFBDE81040530724BF31E90810CA
:10B7C00020E9081044BF51F8043D40F8043D12F050
:10B7D000030F08BF7047D20728BF31F8023D48BFAA
:10B7E00011F8012C28BF20F8023D48BF00F8012CB9
:10B7F0007047000000487047F05F00200048704725
:10B80000106000203A2800D2303820F02002412A6F
:10B8100001D3A2F13700884201D34FF0FF307047C7
:10B820007546FFF7E7FFAE4605006946534620F030
:10B830000700854618B020B5FFF75CF9BDE8204049
:10B840004FF000064FF000074FF000084FF0000BDC
:10B8500021F00701AC46ACE8C009ACE8C009ACE88F
:10B86000C009ACE8C0098D46704710B50446AFF377
:10B8700000802046BDE81040FFF727B97047000060
:10B8800001491820ABBEFEE72600020070B5054650
:10B890000C4675B900214FF4807001F033F9204651
:10B8A00001F024F90A4806F0A2F90A4806F09FF9C7
:10B8B0000CE00121204601F025F9002001F016F9E5
:10B8C000034806F099F9034806F096F970BD0000A8
:10B8D00000080240000C0240F0B504461546002066
:10B8E0000022122905D1E06D20F007001843E06521
:10B8F00020E0092911DDE068A1F10A0606EB460700
:10B90000072606FA07F29043A1F10A0606EB46065F
:10B9100003FA06F21043E0600CE0206901EB4107F6
:10B92000072606FA07F2904301EB410603FA06F2F6
:10B9300010432061072D0FDA606B6E1E06EB860741
:10B940001F2606FA07F290436E1E06EB860601FAE2
:10B9500006F21043606322E00D2D0FDA206BEE1F1C
:10B9600006EB86071F2606FA07F29043EE1F06EB4A
:10B97000860601FA06F21043206310E0E06AA5F1A2
:10B980000D0606EB86071F2606FA07F29043A5F17F
:10B990000D0606EB860601FA06F21043E062F0BDE2
:10B9A000002221B1836843F00103836003E08368D0
:10B9B00023F001038360002200E0521CB2F5947F63
:10B9C000FBD3704721B1826842F48072826003E049
:10B9D000826822F480728260704721B1826842F4EA
:10B9E000A002826003E0826822F4A00282607047B5
:10B9F00068B10E49096841F400010C4A116000BFAA
:10BA00000B49096841F48061094A11600DE007495A
:10BA1000096821F40001054A116000BF0449096862
:10BA200021F48061024A116000BF7047080802409B
:10BA300020180040014600208A6802F004020AB182
:10BA4000012000E000204A6D02B10020704702464C
:10BA50000020936D0B400BB1012000E000207047E7
:10BA600070B5024600200023002402F1600428255E
:10BA7000256050680E4D28400E790D6845EA062570
:10BA80002843506090680B4D2840D1E9026535434A
:10BA90004E7945EA460528439060D06A20F470004C
:10BAA0000D7C6D1EEDB22B4340EA0350D06270BD99
:10BAB000FFFEF0FFFDF7F1FF10B5024600200B7A04
:10BAC00023B1D36D43F00803D36503E0D36D23F0B6
:10BAD0000803D365906D0B784BB140F4006000BF54
:10BAE000204B1B6843F480631E4C236009E020F464
:10BAF000006000BF1B4B1B6823F48063194C23605C
:10BB000000BF4B7813B140F4806001E020F4806006
:10BB10008B7813B140F4007001E020F40070CB7812
:10BB200013B140F4807001E020F480704B7913B1C0
:10BB300040F0080001E020F008008B7913B140F0DC
:10BB4000040001E020F0040020F00300CB7918434A
:10BB500020F010000B79012B01D140F0100090650E
:10BB600010BD0000201800400021426D1AB9826803
:10BB700042F004028260002100E0491CB1F5947F8C
:10BB8000FBD3704700BFFEE710B52021014800F04D
:10BB9000ADF810BD0064004010B50021837A012289
:10BBA00002FA03F13D4A126842F001023B4B1A606F
:10BBB0003A4A1C3212688A43384B1C331A60027BA3
:10BBC000CAB9364A0C3212688A43344B0C331A60B5
:10BBD0004288C38842EA0343304A4032847A42F8BA
:10BBE00034300288838842EA03432C4A4032847A04
:10BBF00002EBC4025360027B012A19D1274A0C329E
:10BC000012680A43254B0C331A604288038842EAC3
:10BC10000343224A4032847A42F83430C28883880F
:10BC200042EA03431D4A4032847A02EBC402536065
:10BC3000C27A3AB9194A121D12688A43174B1B1D62
:10BC40001A6006E0154A121D12680A43134B1B1DA9
:10BC50001A60028932B9114A143212688A430F4BB2
:10BC600014331A600289012A06D10C4A1432126870
:10BC70000A430A4B14331A60427B012A06D1074A51
:10BC80001C3212680A43054B1C331A60034A1268BF
:10BC900022F00102014B1A6010BD0000006A004052
:10BCA00010B502210B4800F091F8012810D10020B6
:10BCB000094908800A1D0021064800F0BAF9064922
:10BCC000091D081F0BF0B8F80221024800F00EF819
:10BCD00010BD0000006800409456002010B52021DF
:10BCE000014800F003F810BD00680040B1F5007F86
:10BCF0003AD00FDC202928D006DC01291CD00429E9
:10BD00001DD0082940D11DE0402921D0B1F5807F08
:10BD10003AD126E0B1F5004F31D006DCB1F5806FA5
:10BD200025D0B1F5006F2FD124E0B1F5803F12D0BE
:10BD3000B1F5003F28D111E0154A826025E00822C4
:10BD4000C26022E01022C2601FE0082202611CE0F3
:10BD50001022026119E00822426016E010224260BF
:10BD600013E00422426010E0042242600DE004224D
:10BD700042600AE0002282610422426005E0002263
:10BD800082610422426000E000BF00BF70470000F3
:10BD90000101010010B504460B48844209D101217C
:10BDA000480600F081FF00214FF0007000F07CFF9A
:10BDB00008E00121880600F077FF00214FF0806045
:10BDC00000F072FF10BD00000064004070B5044632
:10BDD0000D46002660692840002871D0B5F5807FA7
:10BDE0005CD010DC082D35D006DC012D20D0022DD2
:10BDF00024D0042D72D127E0102D31D0202D35D044
:10BE0000402D6BD138E0B5F5004F60D009DCB5F5B9
:10BE1000007F49D0B5F5806F4CD0B5F5006F5DD18E
:10BE20004FE0B5F5803F2DD0B5F5003F56D12FE05E
:10BE3000A0682D4903F0A2FD064651E0E068032109
:10BE400003F09CFD06464BE0E068082103F096FDF8
:10BE5000064645E0E068102103F090FD06463FE00D
:10BE60002069032103F08AFD064639E02069082194
:10BE700003F084FD064633E02069102103F07EFDC7
:10BE800006462DE06068082103F078FD064627E0AD
:10BE90006068102103F072FD064621E0A0690121CF
:10BEA00003F06CFD06461BE0A069022103F066FD6D
:10BEB000064615E0A069042103F060FD06460FE088
:10BEC0000FE0A069702103F059FD064608E06068A4
:10BED000042103F053FD064602E0FFE7002600BF01
:10BEE00000E00026304670BD010101001AB143692F
:10BEF0000B43436102E043698B434361704730B5B4
:10BF0000024600200023146824F002041460146820
:10BF100044F00104146000E05B1C546804F0010468
:10BF20001CB94FF6FF74A342F6D1546804F0010423
:10BF30000CB900206CE08C79012C04D1146844F019
:10BF40008004146003E0146824F080041460CC7949
:10BF5000012C04D1146844F04004146003E0146818
:10BF600024F0400414600C7A012C04D1146844F0CD
:10BF70002004146003E0146824F0200414604C7A58
:10BF8000012C04D1146844F01004146003E0146818
:10BF900024F0100414608C7A012C04D1146844F04D
:10BFA0000804146003E0146824F008041460CC7AD8
:10BFB000012C04D1146844F00404146003E01468F4
:10BFC00024F0040414608C78A407CD7844EA056456
:10BFD0000D7944EA05444D7944EA05540D886D1EF7
:10BFE0002C43D461146824F001041460002300E0A1
:10BFF0005B1C546804F001041CB14FF6FF74A342AB
:10C00000F6D1546804F001040CB1002000E00120D6
:10C0100030BD00218171C171017241728172C172A2
:10C020008170C170032101710221417101210180E0
:10C03000704710B500F5D87303EB01131B6803F0CC
:10C0400004031372137A53B900F5D87303EB011389
:10C050001B6840F2FF7404EA5353136009E000F5D3
:10C06000D87303EB01131B686FF0604404EAD30339
:10C07000536000F5D87303EB01131B6803F0020350
:10C08000537200F5D87303EB01135B6803F00F03E1
:10C09000937200F5D87303EB01135B681B0AD3742A
:10C0A00000F5D87303EB01139B68D37200F5D873C6
:10C0B00003EB01139B681C0A147300F5D87303EBA0
:10C0C00001139B681C0C547300F5D87303EB011328
:10C0D0009B681B0E937300F5D87303EB0113DB68A9
:10C0E000D37300F5D87303EB0113DB681C0A1474D7
:10C0F00000F5D87303EB0113DB681C0C547400F5D6
:10C10000D87303EB0113DB681B0E937421B9C3686A
:10C1100043F02003C36003E0036943F0200303619D
:10C1200010BD10B502460020936803F08063B3F1A0
:10C13000806F00D110E0936803F00063B3F1006FEB
:10C1400001D1012008E0936803F08053B3F1805FD0
:10C1500001D1022000E00420042874D002F5C0734D
:10C1600003EB00131B6803F0010402F5C07303EB3B
:10C1700000131C600B7A7BB94B7A0C8843EA44535A
:10C1800002F5C07404EB00142468234302F5C07464
:10C1900004EB0014236010E00B7A4C6843EAC403FC
:10C1A0004C7A234302F5C07404EB00142468234343
:10C1B00002F5C07404EB001423608B7A03F00F03C4
:10C1C0008B7202F5C07303EB00135B6823F00F045E
:10C1D00002F5C07303EB00135C6002F5C07303EB60
:10C1E00000135B688C7A234302F5C07404EB0014DF
:10C1F00063608B7B1C064B7B44EA03440B7B44EA65
:10C200000323CC7A234302F5C07404EB0014A3602B
:10C210008B7C1C064B7C44EA03440B7C44EA0323DE
:10C22000CC7B234302F5C07404EB0014E36002F5F9
:10C23000C07303EB00131B6843F0010402F5C073E5
:10C2400003EB00131C6010BD01684FF6FE72114035
:10C2500001600021016041608160C16065498842E0
:10C2600008D164490839496841F00F01614A083A28
:10C270005160BEE05F491431884208D15D490839F8
:10C28000496841F0F0015B4A083A5160B1E0594910
:10C290002831884208D157490839496841F470610A
:10C2A000544A083A5160A4E052493C31884208D1CE
:10C2B00050490839496841F470414E4A083A516082
:10C2C00097E04C495031884208D14A4908394968B9
:10C2D00041F47021474A083A51608AE04549643187
:10C2E000884208D143490839496841F47001414AFC
:10C2F000083A51607DE03F497831884208D13D4994
:10C300000839496841F070613A4A083A516070E072
:10C3100038498C31884208D136490839496841F09A
:10C320007041344A083A516063E03349884206D18B
:10C33000011F096841F00F01021F116059E02E49E9
:10C340001431884208D12C49091F096841F0F001D5
:10C35000294A121F11604CE027492831884208D130
:10C360002549091F096841F47061234A121F1160B1
:10C370003FE021493C31884208D11F49091F096823
:10C3800041F470411C4A121F116032E01A495031C9
:10C39000884208D11849091F096841F47021164ADA
:10C3A000121F116025E014496431884208D11249F6
:10C3B000091F096841F470010F4A121F116018E04B
:10C3C0000D497831884208D10B49091F096841F0AD
:10C3D0007061094A121F11600BE007498C318842D5
:10C3E00007D10549091F096841F07041024A121F2F
:10C3F00011607047080002400804024021B1026841
:10C4000042F00102026004E002684FF6FE731A4037
:10C410000260704710B50022026847F6F0739A4335
:10C420000C6A8B6823430C6923434C6923438C6952
:10C430002343CC6923434C6A23438C6A23431A4326
:10C440000260CB6843600B6883604B68C36010BDBB
:10C4500000BFFEE701490860704700001404014076
:10C46000002123498279002A3AD00A4612680368DB
:10C470009A430B461A600A1D126803689A430B1D03
:10C480001A60027911440A6803681A430A60184A5C
:10C490000832126803689A43154B08331A601A1D54
:10C4A000126803689A43124B0C331A604279102ABF
:10C4B0000ED11A1F126803681A430D4B08331A6015
:10C4C0001A1D126803681A43094B0C331A600DE0F9
:10C4D0000749427911440A6803681A430A6005E073
:10C4E000027911440A6803689A430A6070470000A1
:10C4F000000401400249C9680143014AD160704704
:10C500000020024030B5044606257C20FFF7F2FFEC
:10C510004FF4302000F096F80546062D17D10D484F
:10C52000006940F002000B49086108464461006957
:10C5300040F0400008614FF4302000F083F80546D9
:10C540000448006943F6FD71084002490861284625
:10C5500030BD00000020024006201249C96801F0E9
:10C56000010109B101201CE00E49C96801F0040174
:10C5700009B1032015E00B49C96801F0080109B1B0
:10C5800004200EE00749C96801F0100109B1052037
:10C5900007E00449C96801F0400109B1072000E043
:10C5A00006207047002002400348006940F08000E8
:10C5B00001490861704700000020024070B5044640
:10C5C0000D46062604F0030010B10926304670BD62
:10C5D0007C20FFF78FFF4FF4005000F033F8064641
:10C5E000062E12D10A48006940F00100084908618E
:10C5F00025604FF4005000F025F806460448006915
:10C6000043F6FE710840024908613046DFE700004A
:10C610000020024001460020034A106800F0F800A4
:10C6200008431060704700000020024002480349A0
:10C630004860034848607047230167450020024076
:10C64000AB89EFCD00B502460623FFF785FF034611
:10C6500003E0FFF781FF0346521E012B01D1002AA0
:10C66000F7D102B90A23184600BD0000F0B5024612
:10C670000C460023002600210025002002F0804700
:10C68000B7F1804F02D1844F396A11E002F00057B0
:10C69000B7F1005F02D1804F796A09E002F080575C
:10C6A000B7F1805F02D17C4FB96A01E07A4F7968B7
:10C6B000C2F3034593B2794F1740B7F5401F0AD133
:10C6C00021F07061744F7F6827F07067DFF8C8C190
:10C6D000CCF80470BDE002F48017B7F5801F13D1C9
:10C6E00002F40017B7F5001F03D10327AF403E0443
:10C6F00002E0032707FA05F6B14302F0E047002FF6
:10C70000E8D141F07061A4E002F08077B7F1807F5A
:10C7100047D102F00407042F29D102F00077B7F1C6
:10C72000007F16D1C2F340573F0103FA07F7B94320
:10C730003CB1594F786840F0010040F0706078607B
:10C7400087E0554F786820F0010040F07060786015
:10C750007FE0C2F340573F0103FA07F7B9434E4F5A
:10C76000786820F0010040F07060786071E043F07C
:10C770000407C2F3405C4FEA0C1C07FA0CF7B943FC
:10C780003CB1454F786840F0010040F0706078603F
:10C790005FE0414F786820F0010040F07060786001
:10C7A00057E002F08067B7F1806F47D102F00807C9
:10C7B000082F29D102F00077B7F1007F16D1C2F31C
:10C7C00040573F0103FA07F7B9433CB1324F78684D
:10C7D00040F0080040F0706078603AE02E4F7868D2
:10C7E00020F0080040F07060786032E0C2F34057FB
:10C7F0003F0103FA07F7B943274F786820F0080094
:10C8000040F07060786024E043F00807C2F3405CB9
:10C810004FEA0C1C07FA0CF7B9433CB11E4F78687D
:10C8200040F0080040F07060786012E01A4F7868BD
:10C8300020F0080040F0706078600AE0C2F34057D2
:10C840003F0103FA07F7B94302F0E0470FB941F09F
:10C8500070612CB1C2F340573F0103FA07F7394327
:10C8600002F08047B7F1804F02D10B4F396211E0DF
:10C8700002F00057B7F1005F02D1074F796209E07B
:10C8800002F08057B7F1805F02D1034FB96201E037
:10C89000014F7960F0BD00000000014000003070E1
:10C8A0002DE9F04102460025002600200023002447
:10C8B000002791F803C00CF00F0591F803C00CF0AD
:10C8C000100CBCF1000F03D091F802C04CEA050532
:10C8D00091F800C0BCF1000F31D0146800202BE0AB
:10C8E0004FF0010C0CFA00F3B1F800C00CEA03069B
:10C8F0009E4220D183004FF00F0C0CFA03F7BC438B
:10C9000005FA03FC4CEA040491F803C0BCF1280FBB
:10C9100006D14FF0010C0CFA00FCC2F814C00AE07A
:10C9200091F803C0BCF1480F05D14FF0010C0CFA8F
:10C9300000FCC2F810C0401C0828D1D31460B1F824
:10C9400000C0BCF1FF0F34DD546800202EE000F180
:10C95000080C4FF0010808FA0CF3B1F800C00CEA1B
:10C9600003069E4221D183004FF00F0C0CFA03F70F
:10C97000BC4305FA03FC4CEA040491F803C0BCF183
:10C98000280F05D100F1080C08FA0CF8C2F8148041
:10C9900091F803C0BCF1480F07D100F1080C4FF02B
:10C9A000010808FA0CF8C2F81080401C0828CED301
:10C9B0005460BDE8F0814FF6FF7101800121817064
:10C9C0000421C17070470246002093680B400BB1F0
:10C9D000012000E00020704741617047016170470D
:10C9E00001201049087000BF00BF00BF00BF00BF9A
:10C9F000BFF34F8F00BF00BF00BF0B48006800F4BB
:10CA0000E0600A490843001D0749086000BF00BFF5
:10CA100000BFBFF34F8F00BF00BF00BF00BF00BF0C
:10CA2000FDE70000760000200CED00E00000FA05B4
:10CA300000BFFEE700BFFEE770B5002100230F2214
:10CA4000C47804B3154C246804F4E064C4F5E064CD
:10CA5000210AC1F10403CA40447804FA03F184783E
:10CA60001440214309010E4C0678A155047804F0C6
:10CA70001F050124AC4005786D11AD0005F1E025DE
:10CA8000C5F8004109E0047804F01F050124AC401A
:10CA9000044D0678761145F8264070BD0CED00E097
:10CAA00000E400E080E100E002490143024A116035
:10CAB000704700000000FA050CED00E0024A0A4051
:10CAC0000243024B1A60704780FFFF1F08ED00E031
:10CAD00002460020044BD86A20F4806020F478409D
:10CAE00010430843D86270470010024001460020FE
:10CAF000034AD06A20F00F000843D062704700005C
:10CB00000010024002460020064BD86A20F4F8705C
:10CB100009B1104302E0104320F48070014BD86249
:10CB2000704700000010024001460020034A506890
:10CB300020F0F000084350607047000000100240F1
:10CB40001149096821F480310F4A116011460968C2
:10CB500021F480211160B0F5803F03D0B0F5802F23
:10CB60000ED106E00849096841F48031064A116097
:10CB700007E00549096841F4A021034A116000E07B
:10CB800000BF00BF704700000010024001460020B7
:10CB9000034A506820F4E06008435060704700008A
:10CBA0000010024001460020034A506820F4605003
:10CBB00040EAC10050607047001002400246002069
:10CBC000044B5868044B184042EA01031843014BD8
:10CBD0005860704700100240FFFFC0F70146002078
:10CBE000034A506820F0030008435060704700007B
:10CBF00000100240034908604108024AD83AC2F8CE
:10CC0000DC107047D80042421348006840F0010031
:10CC10001149086008464068104908400E494860BC
:10CC2000084600680E4908400B490860084600683D
:10CC300020F480200860084640680A4908400649F8
:10CC400048604FF46050C8624FF4615008634FF47D
:10CC50001F008860704700000010024000C0FFF80D
:10CC6000FFFFF6FEFFFF00F729B1064A52690243B3
:10CC7000044B5A6104E0034A52698243014B5A61F2
:10CC8000704700000010024029B1064AD2690243F1
:10CC9000044BDA6104E0034AD2698243014BDA6152
:10CCA000704700000010024029B1064A1269024391
:10CCB000044B1A6104E0034A12698243014B1A6172
:10CCC000704700000010024029B1064A92690243F1
:10CCD000044B9A6104E0034A92698243014B9A61D2
:10CCE00070470000001002400149086670470000CC
:10CCF00000004242F0B5002100BF002200250024C0
:10CD0000384E7668384F06EA0702364E766806F4E3
:10CD1000803502F000661EB9022606EB924204E05E
:10CD20004FF4F876C6EB9246721C1DB92F4E02FBEB
:10CD300006F30BE02B4E766806F400361EB12C4E3F
:10CD400002FB06F302E02B4E02FB06F3254E76684B
:10CD500006F00C0121B1042905D0082908D105E00D
:10CD6000234E066007E0234E066004E0036002E005
:10CD70001F4E066000BF00BF1A4E766806F0F00135
:10CD800009091D4E745C0668E6404660154E7668DB
:10CD900006F4E061090A184E745C4668E640866055
:10CDA000104E766806F46051C90A134E745C4668EA
:10CDB000E640C6600B4EF66A06F00F010F4E745C3B
:10CDC0004668B6FBF4F64661064EF66A06F4F8715C
:10CDD000090901F00F060A4F37F81640B3FBF4F6C5
:10CDE0000661F0BD0010024000003C0800093D0053
:10CDF00000127A000024F400D2FF0308E2FF0308C7
:10CE0000F2FF030810B501460022002300204A115A
:10CE1000012A02D1094C236806E0022A02D1074CFC
:10CE2000236A01E0054C636A01F01F02012494406B
:10CE30001C400CB1012000E0002010BD0010024099
:10CE40000248406800F00C007047000000100240EB
:10CE500038B5002000900024002500BF3120FFF7E6
:10CE6000D1FF05460098401C00900098B0F5004F97
:10CE700001D0002DF2D03120FFF7C4FF08B101240A
:10CE800000E00024204638BD00BFFEE700B50B4897
:10CE90000AF000FC0A480088B0F57A7F05DA0848F5
:10CEA0000088401C0649088007E0002004490880EB
:10CEB00002480068401C0149086000BD1C56002063
:10CEC0007401002010B5002100200022264B5B6871
:10CED00003F00C0121B1042906D0082933D107E061
:10CEE000224B234C236032E0224B214C23602EE066
:10CEF0001D4B5B68204C03EA04001B4B5B6803F48A
:10CF0000803200F000631BB9022303EB904004E081
:10CF10004FF4F873C3EB9043581C2AB9174B4343A3
:10CF20005B00134C23600DE00F4B5B6803F4003390
:10CF300023B10E4B43430E4C236003E00D4B4343A0
:10CF40000B4C236003E0094B094C236000BF00BF7A
:10CF5000054B5B68C3F30313094CE15C044B1B688E
:10CF6000CB40034C236010BD0010024000127A0039
:10CF7000C40200200024F40000003C0800093D0029
:10CF8000C1FF030810B52948006840F47000274924
:10CF900008602748006840F00100254908600846FD
:10CFA00040682449084022494860084600682249F0
:10CFB00008401F4908600846006820F48020086087
:10CFC000084640681D490840194948604FF46050C0
:10CFD000C8624FF4615008634FF41F008860084630
:10CFE000C06940F08050C8611548C06840F0010039
:10CFF0001349C8600E48C06920F080500C49C861D0
:10D000001048006840F090000E49086000F086FD6E
:10D010004FF000600549803908600B4800680B49F3
:10D02000884201D001F046FA10BD000088ED00E012
:10D030000010024000C0FFF8FFFFF6FEFFFF00F700
:10D04000007000400020024098F2FF1F424B5249FE
:10D050000A460021018B4FF6F773194011430183F3
:10D06000704721B1026842F00102026003E00268E9
:10D0700022F001020260704730B500240022002334
:10D08000056A25F001050562026A4368048B4FF6C4
:10D090008F752C404FF6FC752C400D882C4322F0E8
:10D0A00002020D892A434D882A430E4DA84202D020
:10D0B0000D4DA8420FD122F008024D892A4322F0DB
:10D0C00004028D882A4323F4807323F400738D892E
:10D0D0002B43CD892B4343600483CD888586026230
:10D0E00030BD0000002C0140003401400A46002100
:10D0F00001684D4B98420ED04C4B98420BD0B0F18A
:10D10000804F08D04A4B984205D04A4B984202D0F3
:10D11000494B984203D121F0700153881943474B82
:10D12000984206D0464B984203D021F44071D388F0
:10D130001943016093888385138803853A4B98428D
:10D1400002D03A4B984201D1137A0386012383829D
:10D150000168354B98420ED0344B98420BD0B0F159
:10D16000804F08D0324B984205D0324B984202D0C3
:10D17000314B984206D1537A13B141F4006101E07A
:10D1800021F40061B0F1804F08D0294B984205D0BE
:10D19000284B984202D0284B98420DD1937A13B174
:10D1A00041F4805101E021F48051D37A13B141F46C
:10D1B000005101E021F40051B0F1804F05D01C4B2B
:10D1C000984202D01B4B984206D1137B13B141F415
:10D1D000804101E021F48041134B98420BD0134B66
:10D1E000984208D0B0F1804F05D0114B984202D040
:10D1F000104B984206D1537B13B141F4004101E03A
:10D2000021F4004101604168B0F1804F02D0094B28
:10D21000984206D1937B13B141F4807101E021F46F
:10D220008071416070470000002C014000340140D3
:10D230000004004000080040000C004000100040C6
:10D24000001400408186704700BFFEE710B540F231
:10D2500025510B4800F04BF838B1094800F0D6F8DA
:10D26000C4B22146074810F04FF940F22771044834
:10D2700000F03DF810B104480CF030FD10BD000086
:10D2800000380140500A002088060020F0B503460F
:10D29000002400260025002040F66A17B94200D17C
:10D2A00000BF1846C1F3421401F01F06012707FA18
:10D2B00006F5012C01D10C3004E0022C01D1103014
:10D2C00000E014301AB107682F43076002E00768D6
:10D2D000AF430760F0BD21B1828942F400528281E0
:10D2E00004E082894DF6FF731A408281704770B561
:10D2F0000246002400230025002040F66A16B142B1
:10D3000000D100BFC1F3421501F01F03012606FA48
:10D3100003F3012D02D19689334006E0022D02D19C
:10D32000168A334001E0968A33400C12012606FA31
:10D3300004F41688344013B10CB1012000E0002041
:10D3400070BD00002DE9F04786B005460F46002469
:10D35000A24600BF00BF0026B88900B100BF2E461C
:10D360002C8A4CF6FF700440F88804432C82AC8968
:10D370004EF6F3100440B888398908437989084388
:10D380000443AC81AC8A4FF6FF400440B8890443A3
:10D39000AC826846FFF7AEFC1948864205D01948B2
:10D3A000864202D01848864202D1DDF80CA001E086
:10D3B000DDF808A00AEBCA0000EB0A103968890002
:10D3C000B0FBF1F86420B8FBF0F0040120096421FF
:10D3D00001FB1080322101EB00106421B0FBF1F958
:10D3E0000120B0EB191F04D16420B8FBF0F0401C01
:10D3F000040109F00F0004432C8106B0BDE8F0875A
:10D400000038014000500140005401400146888826
:10D41000C0F308007047C1F308028280704710B55E
:10D420004FF48020FFF716F810BD10B504F076FF1A
:10D4300010BD00BFFEE71CB54FF48020FFF70AF8CF
:10D440004FF48020009000208DF8040008208DF813
:10D45000050001208DF806006846FFF701F81CBDA5
:10D460007EB5044600232AB930260846491C2654B6
:10D4700008467EBD0CE00A20B2FBF0F500FB15204B
:10D4800030301D465B1C0DF805000A20B2FBF0F29F
:10D490000AB10A2BEFDB06E0581E03461DF80060B8
:10D4A0000846491C2654002BF6DC0846E1E77EB509
:10D4B000044600232AB930260846491C265408464B
:10D4C0007EBD0CE00A20B2FBF0F500FB15203030E9
:10D4D0001D465B1C0DF805000A20B2FBF0F20AB1F4
:10D4E0000A2BEFDB06E0581E03461DF800600846D5
:10D4F000491C2654002BF6DC0846E1E77EB50446BD
:10D5000000232AB930260846491C265408467EBD09
:10D510000CE00A20B2FBF0F500FB152030301D4670
:10D520005B1C0DF805000A20B2FBF0F20AB10A2BD1
:10D53000EFDB06E0581E03461DF800600846491C54
:10D540002654002BF6DC0846E1E77EB504460023AE
:10D550002AB930260846491C265408467EBD0CE0F0
:10D560000A20B2FBF0F500FB152030301D465B1C95
:10D570000DF805000A20B2FBF0F20AB10A2BEFDB2E
:10D5800006E0581E03461DF800600846491C265454
:10D59000002BF6DC0846E1E7F0B502460B464FF6F5
:10D5A000FF70002112E0545C00250CE000F0010641
:10D5B000401004F00107B74202D04AF20107784058
:10D5C00064106E1CF5B2082DF0DB491C9942EAD3B9
:10D5D000F0BD00002DE9F04106460F4690460024BC
:10D5E00022A505E015F8012B2046641C24490A54A5
:10D5F00028780028F6D1324621462148FFF730FF2F
:10D60000044620222046641C1D490A542822204634
:10D61000641C0A54384605E003782146641C184A05
:10D620005354401C017809B1502CF5DB3D222046B3
:10D63000641C13490A54424621461148FFF710FF63
:10D64000044629222046641C0D490A540D22204616
:10D65000641C0A540A222046641C0A5400200855FF
:10D66000084604F0A8FFBDE8F08100005B4F54417C
:10D670005D204641494C2073746570200000000015
:10D68000B83C002010B5044604A004F0BBFE2046C0
:10D6900004F0B8FE03A004F0B5FE10BD5B4F54418A
:10D6A0005D2000000D0A000070B506460C461546C8
:10D6B00019A13046FDF7BAFE20B118A13046FDF79A
:10D6C000B5FE28B90120207000202870012070BD0F
:10D6D00013A13046FDF7AAFE20B112A13046FDF796
:10D6E000A5FE20B90020207028700120EFE70EA1D0
:10D6F0003046FDF79BFE18B9012020702870E6E740
:10D700000AA13046FDF792FE20B9002020700120CA
:10D710002870DCE70020DAE76F6E000031000000BF
:10D720006F6666003000000065696E006175730009
:10D7300030B502460C460AB1107808B9002030BD59
:10D74000002300210EE0505C302802DB505C3928B9
:10D7500001DD0020F3E7505C303803EB830500EB7C
:10D760004503491C505C0028EDD123600120E6E709
:10D77000034618787A2802D158786E2801D0002004
:10D7800070479878312805DB9878352802DCD878FE
:10D790002F2801D00020F3E7987830380870181D42
:10D7A00010600120ECE700002DE9F04728480068F0
:10D7B00000F110052E8826480068077AD6B9042F94
:10D7C00018D12448007801280FD100212248006890
:10D7D00080B2801C214A42F8101030202049088075
:10D7E00000BF00201B49087003E0072710201C49D8
:10D7F000088027E0AC88A64201D8042000E002207F
:10D800000746B44200D93446A0B2A968884780468A
:10D81000002002F097FA8146A2B24946404602F043
:10D82000A9FFA1B2002002F025F92888001B28805A
:10D83000688820446880302009490880000209492E
:10D84000088000BF024909680F72BDE8F087000038
:10D85000A8020020A2020020505C004000600040AE
:10D86000BA020020B80200202DE9F84F9B4800685A
:10D8700045780027BA46062D1BD1984800680078E5
:10D8800000F07F00002813D19449096888780128A6
:10D8900003D193490968CF690AE0022803D190496E
:10D8A00009680F6A04E0032802D18D4909684F6AAC
:10D8B00094E0002D64D189480068408800285FD139
:10D8C00086480068C08802285AD1844800680079D8
:10D8D000002855D181480068007800F07F0028B901
:10D8E0007E480068808808B97E4F77E07B480068F2
:10D8F000007800F07F00012810D178490968487944
:10D90000774909688A6900219047002866D17348E1
:10D910000068807A002861D0724F5FE06F4800682D
:10D92000007800F07F00022858D16C4800684079E8
:10D9300000F00F0669480068407900F070096748F8
:10D940000068407900F0800038B1674901EB86003B
:10D95000D0F8000C00F0300806E0634901EB8600C7
:10D96000D0F8000C00F4405860480078B04235D937
:10D97000B9F1000F32D1B8F1000F2FD0594F2DE07F
:10D98000082D07D155480068007800F07F0028BBBB
:10D99000574F23E00A2D21D150480068007800F04D
:10D9A0007F0001281AD14D480068807AB0B14B48F9
:10D9B0000068408890B949480068007970B94748C4
:10D9C0000068C088012809D1444909684879444958
:10D9D00009688A690021904700B9464F57B13F480E
:10D9E0000068A0F812A03D48006887610020B84791
:10D9F00000240FE0394A12685078394A12681169D8
:10DA000088470446032C05D1092034490968087267
:10DA1000BDE8F88F31480068008A4FF6FF718842F0
:10DA200004D109202D4909680872F1E7022C03D0BE
:10DA30002A480068008A20B9082028490968087225
:10DA4000E6E726480068007800F08000E0B323484D
:10DA50000068C088009021480068008A00998842C8
:10DA600004D91E4900980968088223E01B48006811
:10DA7000008A1A490968C98888421BDA1748006871
:10DA8000008A1749096891F82C10884203DA0020AF
:10DA9000194908700EE011480068008A10490968A9
:10DAA00091F82C1090FBF1F201FB120010B901204B
:10DAB000114908700A48006890F82C10074800685F
:10DAC0008182FFF771FE07E0FFE703200349096841
:10DAD000087200030949088000BF99E7A8020020E6
:10DAE000AC020020C1030308005000400C020020DB
:10DAF000051C03088D090308A2020020B8020020BB
:10DB00000549096888B220F00400034908604FF411
:10DB10001E41014A11607047405C004030B5002151
:10DB20000022002300202C4C246844F480342A4D29
:10DB30002C6000BF284C2468C4F340425B1C12B91F
:10DB4000B3F5004FF6D1244C2468C4F340421AB90F
:10DB5000224C234D2C6030BD224C206820F0070061
:10DB600040F0040020601C4C64681B4D6C602C4627
:10DB7000646844F400546C602C46646844F4A06407
:10DB80006C6000202C466068174C2040014641F430
:10DB9000803141F40031154C21432C4661602468EA
:10DBA00044F080742C6000BF0B4C246804F00074B7
:10DBB000002CF9D00020084C606820F0030040F0F1
:10DBC0000200606000BF044C646804F00C04082C80
:10DBD000F9D100BFBFE700000010024000127A0038
:10DBE000C402002000200240FFFFC0F7000004082C
:10DBF0000020064908604FF41E4005490880084689
:10DC000000880249091F086000207047445C0040FA
:10DC1000B20200202DE9F04104460E46002504F032
:10DC20007F0001F0B5FE054604F07F0002F07AF8AF
:10DC300007462A463946304602F084FD2846BDE8AC
:10DC4000F08100002DE9F05F05468846924699462E
:10DC5000DDF828B0002426A704E017F8012B2046A1
:10DC6000641C2A5438780028F7D1404604E010F8A4
:10DC7000013B2146641C6B54017809B1962CF6DBFC
:10DC80001DA604E016F8012B2046641C2A543078A7
:10DC900008B1962CF6DB524621462846FFF7E0FBFA
:10DCA0000446962C03DA2F222046641C2A54484648
:10DCB00004E010F8013B2146641C6B54017809B163
:10DCC000962CF6DB962C03DA2F222046641C2A546D
:10DCD000584604E010F8013B2146641C6B5401785F
:10DCE00009B19B2CF6DB00202855BDE8F09F000011
:10DCF000687474703A2F2F003A333030302F6669D1
:10DD0000726D776172652F00012180F86E14704783
:10DD1000F0B503460C461BB1187808B1002A01DCA7
:10DD20000020F0BD00210846491C44F82030184668
:10DD30000CE005782C2D08D1914206DA00250570FB
:10DD4000451C0E46491C44F82650401C0578002D01
:10DD5000EFD10846E5E700002DE9F04128480068CA
:10DD600000F110042688A068C0B1BEB1A588B542F4
:10DD700000D93546A8B2A168884707462088401BCD
:10DD80002080608828446080002001F0CBFF80461E
:10DD9000AAB24146384602F0D5FC00BF208850B1F7
:10DDA0004FF44050174908800021084601F062FEF8
:10DDB0003020154908802088A188884204DB032090
:10DDC0000F490968087218E02088002804DD052042
:10DDD0000B490968087210E0208870B906200849CC
:10DDE0000968087200210948006880B2801C084A4E
:10DDF00042F81010302004490880BDE8F08100008E
:10DE0000A8020020B8020020BA020020505C0040A6
:10DE10000060004010B50848006805280BD107488D
:10DE200001680068401C054A106021B900201146B5
:10DE3000086002F01BFC10BD94020020B801002015
:10DE400010B50120FEF7D6FE0121C805FEF71CFF24
:10DE500010BD000000B52F48007920B1012806D080
:10DE600002280ED108E000202B49C8800DE04FF4B5
:10DE700040502949C88008E04FF400502649C88026
:10DE800003E002F05DFC002000BD00BF21484079A6
:10DE900020B1012806D002280ED108E000201E493A
:10DEA00008810DE04FF480601B49088108E04FF4C1
:10DEB000C0601949088103E002F042FC0020E3E75A
:10DEC00000BF14488079072802D0082810D103E049
:10DED0000020114988800FE00F48008918B9002000
:10DEE0000D49888003E04FF480500B49888003E09F
:10DEF00002F026FC0020C7E700BF0648006806497C
:10DF00000860002088810C204881084601F03FFD10
:10DF10000120B9E704020020C45600200146CAB21D
:10DF20000B1243EA022070472DE9F04103460D46EB
:10DF30000020002132E05F5C4FEA074C4F1CDF5DA0
:10DF40004CEA072701F1020C13F80CC047EA0C0455
:10DF50003C4F4FEA944C17F80C800746401C02F8DF
:10DF60000780384FC4F3053C17F80C800746401C67
:10DF700002F80780334FC4F3851C17F80C8007465E
:10DF8000401C02F8078004F03F07DFF8B8C01CF817
:10DF900007800746401C02F80780C91C8C1CAC4255
:10DFA000C9DB6E1A012E1ED15F5C3C04254F4FEA7F
:10DFB000944C17F80C800746401C02F80780214F4C
:10DFC000C4F3053C17F80C800746401C02F8078094
:10DFD0004FF03D080746401C02F807800746401CEA
:10DFE00002F807802AE0022E28D15F5C4FEA074C36
:10DFF0004F1CDF5D4CEA0724124F4FEA944C17F890
:10E000000C800746401C02F807800E4FC4F3053C05
:10E0100017F80C800746401C02F80780094FC4F32C
:10E02000851C17F80C800746401C02F807804FF04B
:10E030003D080746401C02F8078000BF0024145426
:10E04000BDE8F081C8FD03087FB506460C460025F3
:10E05000227829466846FFF72AFA05462E222846E6
:10E060006D1C0DF80020627829466846FFF71FFAFC
:10E0700005462E2228466D1C0DF80020A278294660
:10E080006846FFF714FA05462E2228466D1C0DF847
:10E090000020E27829466846FFF709FA0546002085
:10E0A0000DF805006946304603F0C6FF7FBD00004D
:10E0B0002DE9F04706460F4691469846002427A5CD
:10E0C00005E015F8012B2046641C2A490A542878DB
:10E0D0000028F6D1324621462648FFF736FA044694
:10E0E00020222046641C23490A5428222046641C0E
:10E0F0000A54384605E003782146641C1D4A5354EF
:10E10000401C017809B15A2CF5DB3D222046641CE5
:10E1100018490A54B8F1000F05D04A46214615485F
:10E1200004F005FA04E04A4621461248FFF70DFACA
:10E13000044629222046641C0E490A540D2220461A
:10E14000641C0A540A222046641C0A540020085504
:10E15000084604F030FABDE8F08700005B43414E0A
:10E1600052454C41595D204641494C2073746570BD
:10E17000200000003C4D002010B5044604A004F02F
:10E1800041F9204604F03EF904A004F03BF910BD2B
:10E190005B43414E52454C41595D20000D0A000041
:10E1A0002DE9F04105460C462846FCF7D1FF06460E
:10E1B0002046FCF7CDFF07460A2E01DB0A2F02DAC4
:10E1C0000020BDE8F081E219A2F10A01AA19A2F12A
:10E1D0000A000A22FCF7DBFF08B90120F1E7002062
:10E1E000EFE72DE9F04FADF5037D05460C461646E9
:10E1F0001F46DDF830A2DDF8388240F26F4140461C
:10E20000FDF79FF80CB1207818B90DF5037DBDE836
:10E21000F08F5FB1387848B145B1287830B13946D0
:10E220002846FFF7BDFF08B1012000E0002083462B
:10E2300000208290BBF1000F1AD1BAF1000F17D065
:10E24000B5B12878A0B14FF000090EE00AEB091033
:10E25000007840B10AEB09112846FFF7A1FF10B181
:10E260000120829004E009F10109B9F1040FEDDB0E
:10E270008194BBF1000F1AD18298C0B91EB130460B
:10E28000FCF766FF00E000208146B9F1040F00D0E2
:10E29000BBE7042231462046FCF779FF00B1B4E722
:10E2A0002079202800D0B0E7601D819010E07EB179
:10E2B0003046FCF74DFF04280AD10422314620469F
:10E2C000FCF765FF20B92079202801D1601D8190DD
:10E2D000012088F8000088F801B040F2FF1201A880
:10E2E0008199FDF777F800208DF80302424601A8D6
:10E2F0008D9901F029FC00BF87E7000070B5022668
:10E3000047480068447846480068007800F07F007D
:10E31000002844D1092C03D103F08AFC06465FE0B3
:10E32000052C14D13E480068C0787F280BDC3C489F
:10E330000068807838B93A480068808818B9384849
:10E340000068807A08B1082565E0002648E0032CC3
:10E350000ED133480068C078012807D130480068E2
:10E36000808818B903F088FC064639E0022637E0B9
:10E37000012C35D12A480068C07801280DD12848E1
:10E380000068808848B926480068407A00F020007C
:10E3900018B102F045FA064622E0022620E02048A5
:10E3A0000068007800F07F00012805D10B2C17D100
:10E3B00002F002FB064613E019480068007800F0FE
:10E3C0007F0002280BD1012C03D102F029FA064666
:10E3D00006E0032C04D103F09FFC064600E0022671
:10E3E0004EB1E0B20F4A1268516988470646032EC3
:10E3F00001D109250FE00EB108250CE0062500210A
:10E400000948006880B2801C084A42F81010302089
:10E410000749088000BF024909680D7270BD0000FD
:10E42000A8020020AC020020505C004000600040C8
:10E43000BA02002030B50E4C04EB8003D3F8003C48
:10E440004BF68F7403EA040201F480530BB182F49B
:10E45000805201F400530BB182F4005242F40043A5
:10E4600043F08003024D05EB8004C4F8003C30BD4E
:10E470000050004030B50E4C04EB8003D3F8003C54
:10E4800048F6BF7403EA040201F010030BB182F0F6
:10E49000100201F020030BB182F0200242F400438D
:10E4A00043F08003024D05EB8004C4F8003C30BD0E
:10E4B0000050004000200021104AD26942F08052F2
:10E4C0000E4BDA610E4A1168C1F304610D4AD0683F
:10E4D00020F47870891C29B11F2903D240EA411029
:10E4E000D06003E040F47870064AD060034AD269F5
:10E4F00022F08052014BDA617047000000100240A8
:10E500000018004000700040084A02EB8001D1F87A
:10E51000001C48F68F62114048F280021143034B01
:10E5200003EB8002C2F8001C70470000005000405E
:10E530004FF6F8710140014A11607047505C00408D
:10E5400010B5074B03EB8002D2F8002C48F68F136E
:10E550001A400A43024C04EB8003C3F8002C10BDA0
:10E56000005000402DE9F04704460D4690462046F5
:10E57000FCF7EEFD0746042F09DB3846F91707EBD9
:10E5800091718910A7EB810109B9012100E00021F7
:10E59000894600210FE0605C302801DB392809DD65
:10E5A000412801DB462805DD612801DB662801DD05
:10E5B0004FF00009491CB94202DAB9F1000FEAD163
:10E5C000B9F1000F0CD1A8F1010221462846FCF751
:10E5D00001FF0021A8F1010029540020BDE8F087C7
:10E5E0000026002082E0225C612A02DB225C573A8E
:10E5F00007E0225C412A02DB225C373A01E0225C20
:10E60000303A1303421CA25C612A03DB421CA25C69
:10E61000573A0AE0421CA25C412A03DB421CA25C7E
:10E62000373A02E0421CA25C303A43EA0223821CE1
:10E63000A25C612A03DB821CA25C573A0AE0821CBE
:10E64000A25C412A03DB821CA25C373A02E0821CF6
:10E65000A25C303AD2B243EA0213C21CA25C612A25
:10E6600003DBC21CA25C573A0AE0C21CA25C412A2E
:10E6700003DBC21CA25C373A02E0C21CA25C303A47
:10E68000D2B2134399B2802903DA3246761CA954D8
:10E690002BE0B1F5006F11DAC02242EAA11202F0BC
:10E6A000FF0C3246761C05F802C001F03F0242F032
:10E6B000800C3246761C05F802C016E0E02242EAE1
:10E6C000213C3246761C05F802C0C1F3851242F0A7
:10E6D000800C3246761C05F802C001F03F0242F081
:10E6E000800C3246761C05F802C0001DF91E8142DE
:10E6F00004DDA8F10401B1423FF775AF0020A85531
:10E7000001206BE72DE9F04106460F46002419A5CC
:10E7100005E015F8012B2046641C18490A54287896
:10E720000028F6D1304605E003782146641C134AE0
:10E730005354401C017809B1322CF5DB3D222046B0
:10E74000641C0E490A543A4621460C48FEF788FEDE
:10E7500004460D222046641C08490A540A22204619
:10E76000641C0A5400200855084603F04BFEBDE81F
:10E77000F08100005B4F54415D200000183D0020F7
:10E780002DE9F04FADF2844D07468B46FA48407EA6
:10E790000090F948037E0C225946F84807F077FCB0
:10E7A000F548407E0090F448037E0D223946F34838
:10E7B00007F06DFCF2A006C80DF27C4006C003AA6B
:10E7C000F14890F8BA1300F55D70A0F110038DE8E0
:10E7D000070000F1400259463846FFF702FD9DF858
:10E7E0000C0030B9E9A003F00DFE0DF2844DBDE838
:10E7F000F08F9DF87A04012804D0E34890F8BF0315
:10E80000012801D1012000E0002005464FF000085A
:10E81000002418E0E2A003F0F5FD0DF2DA3101EB7F
:10E82000441003F0EFFDDDA003F0ECFD0DF2DA3152
:10E8300001EB44100822DFA1FCF7A9FC08B94FF056
:10E840000108601CC4B29DF8D903A042E2DCB8F113
:10E85000000F08D00DB1DA4800E0DA480246394628
:10E86000C9480BF05BFF002600F0E8BE06EB46103F
:10E8700000EB86110DF10F000C182078252880F090
:10E88000D986DFE810F0D70637005000B003FF0349
:10E890007500E7039800B300D000ED0011012E01D0
:10E8A00015045201C702200348037C035D042500C0
:10E8B0002C00D7068700470463047B049104E80515
:10E8C000FE05BF0614062A06400660068006A0065E
:10E8D000BDA23946AC480BF021FF00F0ACBE0DB133
:10E8E000BBA000E0BDA002463946A7480BF016FFCA
:10E8F00001F0FAFDA07908B1A01D00E0384681467C
:10E900000F224946B948FCF765FD00219E4880F872
:10E9100073130DB1B6A000E0B9A0024639469A487B
:10E920000BF0FCFED9E76079012820DB6079042830
:10E930001DDCA07908B1A01D00E03846814662794F
:10E94000AA4901EB02100F224946FCF743FD0021C2
:10E950006279A64800EB0210C1730DB1ABA000E0D4
:10E96000B0A00246394688480BF0D8FE00BFB4E795
:10E970008548D4F81610C0F8B413A17E80F8B813F7
:10E980000DB1ACA000E0B0A0024639467E480BF0C5
:10E99000C5FEA2E7B0A006C8CDE9011201A9162064
:10E9A00004F0D6FE0DB1AEA000E0B0A0014638469E
:10E9B00003F0C4FA91E7607840F0FC008DF883041E
:10E9C0000DF27C41162004F0C3FE2DB1607808B131
:10E9D000A8A006E0ABA004E0607808B1ADA000E01C
:10E9E000AFA00146384603F0A9FA76E76078F32134
:10E9F00041EA8000C0B28DF883040DF27C411620FC
:10EA000004F0A6FE2DB1607808B1A8A006E0ABA086
:10EA100004E0607808B1ADA000E0AFA00146384640
:10EA200003F08CFA59E76078CF2141EA0010C0B2B8
:10EA30008DF883040DF27C41162004F089FE2DB17F
:10EA4000607808B1A8A006E0AAA004E0607808B148
:10EA5000ABA000E0ADA00146384603F06FFA3CE7FA
:10EA600003208DF87C04A0784B30C0B28DF87D0473
:10EA70000DF27C41132004F06BFE03F019FC81467B
:10EA800094F9020003F0ACFC82460DB1A2A000E0B4
:10EA9000A4A001464B465246A548FCF73DF8A449C0
:10EAA000384603F04BFA18E760783F2141EA8010BE
:10EAB000C0B28DF883040DF27C41162004F048FEAC
:10EAC0002DB1607808B19BA006E09DA004E06078BD
:10EAD00008B19EA000E0A0A00146384603F02EFA3F
:10EAE000FBE603208DF87C04A0784B30C0B28DF893
:10EAF0007F040DF27C41132004F02AFE03F0D8FBC2
:10EB0000814694F9020003F06BFC82460DB195A09A
:10EB100000E097A001464B4652469948FBF7FCFFA0
:10EB20009749384603F00AFAD7E6E07E01F06EFB1B
:10EB300040B90DB193A000E097A00146384603F01C
:10EB4000FDF9CAE6E07E062809D2DFE800F00803F6
:10EB500009131211207F40F0FC008DF87C0439E18C
:10EB6000207FF32141EA8000C0B28DF87C0431E1BE
:10EB70002AE121E118E1000094560020344F0020E2
:10EB8000FFFFFFFFFFFFFFFF88060020534D533AB2
:10EB90002061757468206661696C65640D0A000007
:10EBA000534D53207061727365206572726F723AB3
:10EBB00020000000756E6B6E6F776E3A00000000EB
:10EBC0007BFE030809FE0308706F6E6700000000FB
:10EBD0004E657573746172742E2E2E0052657365C6
:10EBE0007474696E672E2E2E00000000EC09002060
:10EBF00041646D696E2067657365747A7400000006
:10EC000041646D696E2073657400000054656C6525
:10EC1000666F6E20616B7475616C6973696572747F
:10EC20002E00000050686F6E652075706461746519
:10EC3000642E000050494E20616B7475616C6973DD
:10EC4000696572742E00000050494E207570646131
:10EC50007465642E000000000000FFFFFFFFFF004E
:10EC6000416C6C657320617573000000416C6C2011
:10EC70006F6666004272656E6E65723A2045494E57
:10EC8000000000004272656E6E65723A2041555375
:10EC9000000000004275726E65723A204F4E00000F
:10ECA0004275726E65723A204F4646004865697A31
:10ECB000737461623A2045494E0000004865697AE4
:10ECC000737461623A20415553000000456C656DD4
:10ECD000656E743A204F4E00456C656D656E743AF2
:10ECE000204F464600000000426F64656E3A2045A2
:10ECF000494E0000426F64656E3A20415553000052
:10ED0000466C6F6F723A204F4E000000466C6F6F7A
:10ED1000723A204F46460000426F64656E3A2025E5
:10ED200064257300466C6F6F723A2025642573006A
:10ED3000B44A00204D6F746F723A2045494E00006E
:10ED40004D6F746F723A204155530000456E6769EC
:10ED50006E653A204F4E0000456E67696E653A2039
:10ED60004F4646004D6F746F723A2025642573003C
:10ED7000456E67696E653A202564257300000000C2
:10ED8000CC4A00204E6963687420766572667565AA
:10ED900067626172000000004E6F742061766169E5
:10EDA0006C61626C65000000207FCF2141EA001099
:10EDB000C0B28DF87C040DE0207F3F2141EA801035
:10EDC000C0B28DF87C0405E0207F40F0FC008DF897
:10EDD0007D0400BF00BF0DF27C41162004F0B8FC9A
:10EDE000207F03280ADA25B1207FF84951F8200056
:10EDF00005E0207FF64951F8200000E0F5A0034629
:10EE0000E27EF5A1F648FBF787FEF549384603F0A8
:10EE100095F862E5E07E01F0F9F950B915B1AFF26D
:10EE20009C0001E0AFF290000146384603F086F8FE
:10EE300053E5E07E062828D2DFE800F02703091119
:10EE40001921607F40F0FC008DF881041DE0607F97
:10EE5000F32141EA8000C0B28DF8810415E0607FA3
:10EE6000CF2141EA0010C0B28DF881040DE0607F2F
:10EE70003F2141EA8010C0B28DF8810405E0607F37
:10EE800040F0FC008DF8820400BF00BF0DF27C4111
:10EE90001B2004F05DFC607F012804D10DB1D1A0DE
:10EEA00002E0D2A000E0D3A00346E27E0DB1D3A0E1
:10EEB00000E0D6A00146D848FBF72EFED6493846DA
:10EEC00003F03CF8B7E3E07E01F0A0F950B915B1CA
:10EED000AFF2501001E0AFF240100146384603F0A7
:10EEE0002DF8A8E3A17FE07E401E0DF27C42115474
:10EEF00011461B2004F02CFCA37FE27E0DB1C7A0BD
:10EF000000E0CBA00146CE48FBF706FECC493846D0
:10EF100003F014F88FE3E07E01F078F950B915B1F1
:10EF2000AFF2A01001E0AFF290100146384603F0B6
:10EF300005F880E3E07F4B30C1B2E07E401E0DF269
:10EF40007C4211541146192004F002FC03F0B0F980
:10EF5000814694F91F0003F043FA8246CDF80090F1
:10EF6000E27E0DB1B7A000E0BAA001465346BD480D
:10EF7000FBF7D2FDBB49384602F0E0FF5BE3E07EE1
:10EF800001F044F950B915B1AFF2082001E0AFF239
:10EF9000F8100146384602F0D1FF4CE3E07F4B30D9
:10EFA000C1B2E07E401E0DF27C4211541146192080
:10EFB00004F0CEFB03F07CF9814694F91F0003F0C6
:10EFC0000FFA8246CDF80090E27E0DB1A6A000E0D7
:10EFD000A9A001465346AC48FBF79EFDAA49384616
:10EFE00002F0ACFF27E355208DF87C04FD208DF85E
:10EFF0007D040DF27C41162004F0AAFB207920B19B
:10F0000001280BD002281BD111E0F1208DF88304D8
:10F010000DF27C41162004F09BFB11E0F4208DF8EA
:10F0200083040DF27C41162004F092FB08E0F520E9
:10F030008DF883040DF27C41162004F089FB00BF9B
:10F0400000BF0DB191A000E096A00146384602F045
:10F0500075FFF0E2E178974880F8BA1335B1E078AF
:10F06000012801D194A007E096A005E0E0780128EE
:10F0700001D197A000E099A0024639468D480BF0D7
:10F080004DFBD8E261788B4880F8BD132DB16078D4
:10F0900008B195A006E099A004E0607808B19CA0B2
:10F0A00000E0A0A00246394682480BF037FBC2E2DE
:10F0B000A078A14981F85C0094F80290B9F1640F3E
:10F0C00002DCB9F1000F01D14FF06409B9F1600F12
:10F0D00008DD0DB199A000E09EA00146A348FBF712
:10F0E0001BFD08E00DB1A2A000E0A6A001464A4623
:10F0F0009E48FBF711FD03208DF87C048DF8829467
:10F100000DF27C41132004F023FB9849384602F0AD
:10F1100015FF90E26178674880F8BE132DB16078E2
:10F1200008B19DA006E0A1A004E0607808B1A4A009
:10F1300000E0A5A0024639465E480BF0EFFA7AE2FD
:10F140002A4639467C4804F04DFB74E294F82010BE
:10F15000584880F8BF1394F82000012800D100E03F
:10F1600000208146B9F1000F01D09AA000E09EA0D6
:10F17000024639464F480BF0D1FA5CE21F2204F1F7
:10F1800021019E48FCF726F900214A4880F8E51243
:10F1900009F080FE0DB19AA000E0A0A00246394619
:10F1A00044480BF0BBFA46E20F2204F121019348D8
:10F1B0002030FCF70FF900213E4880F8F51209F0E5
:10F1C00069FE0DB19AA040E13EE100008C000020F4
:10F1D000800000203F0000005A25643A202573007B
:10F1E000E44A00206D616E75656C6C006D616E7532
:10F1F000616C00006175746F000000005A25642086
:10F200004C7565667465723A202573005A25642032
:10F2100066616E3A20257300F44A00205A25642066
:10F220004C7565667465723A2025642525000000DA
:10F230005A25642066616E3A202564252500000069
:10F240000C4B00205A2564205461673A2025642520
:10F25000730000005A2564206461793A20256425F2
:10F2600073000000204B00205A2564204E61636823
:10F27000743A2025642573005A2564206E696768F6
:10F28000743A202564257300384B00204175667759
:10F290006165726D656E2067657374617274657403
:10F2A000000000005761726D757020737461727494
:10F2B000656400008806002045696E686569743AD7
:10F2C0002046000045696E686569743A2043000075
:10F2D000556E6974733A204600000000556E6974DB
:10F2E000733A2043000000004665686C65726D65E6
:10F2F0006C64756E673A2045494E00004665686C3F
:10F3000065726D656C64756E673A204155530000F7
:10F310004661756C74207265706F72743A204F4E3E
:10F32000000000004661756C74207265706F727425
:10F330003A204F4646000000004A0020537973747B
:10F34000656D7A6569743A20756E62656772656E7F
:10F350007A74000053797374656D2074696D6572F9
:10F360003A20756E6C696D6974656400504B0020BD
:10F3700053797374656D7A6569743A2025642068E1
:10F380000000000053797374656D2074696D6572B7
:10F390003A202564206800004265737461657469D1
:10F3A00067756E673A2045494E00000042657374E8
:10F3B0006165746967756E673A20415553000000B6
:10F3C00041636B3A204F4E0041636B3A204F4646F3
:10F3D00000000000537072616368653A20446575EF
:10F3E00074736368000000004C616E677561676547
:10F3F0003A20456E676C6973680000004E09002072
:10F400004D5154542D53657276657220616B74753D
:10F41000616C697369657274000000004D51545449
:10F42000207365727665722075706461746564001E
:10F430004D5154542D4C6F67696E20616B7475612A
:10F440006C6973696572740080A00246394684480D
:10F450000BF064F9EFE0172204F121018148FBF77A
:10F46000B9FF00217E4880F80D1309F013FD0DB19E
:10F470007DA000E083A00246394679480BF04EF9A2
:10F48000D9E06178764880F8B9132DB1607808B179
:10F4900082A006E085A004E0607808B187A000E0C3
:10F4A0008AA0024639466E480BF038F9C3E061780D
:10F4B0006B4880F8BB132DB1607808B187A006E0D7
:10F4C0008CA004E0607808B190A000E095A002460E
:10F4D000394663480BF022F9ADE06178604880F866
:10F4E000BC132DB1607808B194A006E096A004E0AA
:10F4F000607808B197A000E099A0024639465848C4
:10F500000BF00CF997E01F2204F1210155489138C6
:10F51000FBF760FF0021524880F8841235B190F863
:10F52000650208B192A008E096A006E04C4890F869
:10F53000650208B19CA000E09EA0024639464848FA
:10F540000BF0ECF877E01F2204F1210145487138F7
:10F55000FBF740FF0021424880F8A41235B190F833
:10F56000850208B198A008E09EA006E03C4890F80B
:10F57000850208B1A2A000E0A7A00246394638489B
:10F580000BF0CCF857E01F2204F121013548513827
:10F59000FBF720FF0021324880F8C41235B190F803
:10F5A000A50208B1A1A008E0A7A006E02C4890F8A9
:10F5B000A50208B1ABA000E0B0A002463946284839
:10F5C0000BF0ACF837E03F2204F12101B048FBF723
:10F5D00001FF0021224880F8041235B190F8C501DE
:10F5E00008B1ACA008E0B1A006E01D4890F8C50144
:10F5F00008B1B5A000E0B9A00246394618480BF0A2
:10F600008DF818E0164890F8B90348B90DB1B7A0C5
:10F6100000E0C0A00246394611480BF07FF80AE02E
:10F620000F4809F063FB9A4A403239460C480BF008
:10F6300075F800E000BF00BF701CC6B29DF80E0058
:10F64000B0423FF713A900BFFFF7CFB84D51545454
:10F65000206C6F67696E207570646174656400006A
:10F66000880600207E0900204D5154542D506173AE
:10F6700073776F727420616B7475616C69736965FF
:10F68000727400004D5154542070617373776F721F
:10F69000642075706461746564000000496E74656F
:10F6A000726E65743A2045494E000000496E7465DB
:10F6B000726E65743A20415553000000496E7465BE
:10F6C000726E65743A204F4E00000000496E7465FA
:10F6D000726E65743A204F4646000000526F616DAD
:10F6E000696E672D496E7465726E65743A2045497E
:10F6F0004E000000526F616D696E672D496E746532
:10F70000726E65743A20415553000000526F616D6E
:10F71000696E6720696E7465726E65743A204F4E2B
:10F7200000000000526F616D696E6720696E74653C
:10F73000726E65743A204F46460000004E75722086
:10F7400032473A2045494E004E75722032473A20E2
:10F75000415553003247206F6E6C793A204F4E006E
:10F760003247206F6E6C793A204F46460000000009
:10F7700041504E20616B7475616C69736965727478
:10F780000000000041504E207A7572C3BC636B6765
:10F79000657365747A7420286175746F6D6174691E
:10F7A000736368290000000041504E207570646149
:10F7B0007465640041504E20726573657420286141
:10F7C00075746F290000000041504E2D42656E7522
:10F7D000747A657220616B7475616C6973696572A6
:10F7E0007400000041504E2D42656E75747A65724A
:10F7F000207A7572C3BC636B67657365747A740035
:10F8000041504E20757365726E616D652075706430
:10F81000617465640000000041504E20757365728C
:10F820006E616D65207265736574000041504E2DE8
:10F8300050617373776F727420616B7475616C695A
:10F84000736965727400000041504E2D50617373EE
:10F85000776F7274207A7572C3BC636B676573656A
:10F86000747A740041504E2070617373776F7264C4
:10F8700020757064617465640000000041504E2082
:10F8800070617373776F72642072657365740000C2
:10F890004D080020436865636B2D55524C20616B09
:10F8A0007475616C6973696572740000436865639F
:10F8B0006B2D55524C207A7572C3BC636B676573B0
:10F8C00065747A7400000000436865636B205552CC
:10F8D0004C20757064617465640000004368656362
:10F8E0006B2055524C2072657365740045727374B9
:10F8F00020496E7465726E657420616B74697669F7
:10F900006572656E3A20696E7465726E6574203139
:10F9100000000000456E61626C6520696E7465725E
:10F920006E65742066697273743A20696E746572CC
:10F930006E657420310000002DE9F04105460F4648
:10F9400014463D604FF0200841462846FBF777FB00
:10F95000064666B100203070701C206002E020680E
:10F96000401C2060206800782028F8D004E0284659
:10F97000FBF7EEFB28442060BDE8F0810246002042
:10F9800002EA01030BB1012000E00020704770473C
:10F9900001460648006880B200EBC100801D044AA1
:10F9A00032F81000C0F3090070470000505C0040BE
:10F9B0000060004010B518480068047A022C01D09D
:10F9C000042C05D1FDF7F0FE13480068047A1CE012
:10F9D000062C19D110480068407805280ED10E4831
:10F9E0000068007800F07F0040B90B490968C878CA
:10F9F00000F0E2FE09490968086A80470849096879
:10FA000088688047082400E00824034909680C72CC
:10FA100000F04CFA10BD0000A8020020B402002043
:10FA2000AC0200207047000010B502460F48006885
:10FA300080B200EBC200801D0D4C04EB40033E2958
:10FA40000BDD481101F01F040CB9441EA0B24FF4A5
:10FA5000004444EA80241C6007E0481001F00104DF
:10FA60000CB1441CA0B284021C6010BD505C00406C
:10FA700000600040044A126892B202EBC002921C7D
:10FA8000024B43F812107047505C00400060004089
:10FA90003EB52A4807F0DEFD2949B0FBF1F201FB33
:10FAA00012045B208DF800002648B4FBF0F00A2118
:10FAB000B0FBF1F201FB120030308DF8010042F290
:10FAC0001070B4FBF0F0B0FBF1F201FB120030302B
:10FAD0008DF802004FF47A70B4FBF0F0B0FBF1F255
:10FAE00001FB120030308DF803006420B4FBF0F00D
:10FAF000B0FBF1F201FB120030308DF804000A2057
:10FB0000B4FBF0F0B0FBF1F201FB120030308DF8E5
:10FB100005000A20B4FBF0F100FB114030308DF8F5
:10FB200006005D208DF8070020208DF808000020D9
:10FB30008DF80900684602F0FBFA3EBD1C56002015
:10FB400040420F00A08601002DE9F043B5B0804689
:10FB50000D4616460A222BA94046FEF7D9F88146E3
:10FB6000002430E02BA951F8240002F08DFC2BA8D2
:10FB700050F82400007800B924E02BA850F8241095
:10FB80009F2203A8FBF726FC00208DF8AB002BA9D1
:10FB900051F8240003F00AFE2BA951F8240001AA11
:10FBA00002A9FFF7C9FE2BA850F824000199081AF2
:10FBB00003A947182B463A460096DDE9011002F0EA
:10FBC00033FD00BF641C4C45CCDB35B0BDE8F08391
:10FBD0002DE9F04704460D46904699460021681EDF
:10FBE0002154002601E0701C86B2AE4202DAA05D0C
:10FBF0000028F8D10127002008E0215C202902DB41
:10FC0000215C7E2900DD0027411C88B20FB1B04283
:10FC1000F3DB57B96A1E41462046FBF7DBFB0021A8
:10FC2000681E2154012089F80000BDE8F08700001B
:10FC300070B51E480078012836D11D48006818B9F3
:10FC400000201A4908702FE01948006840280ED992
:10FC50001848008885B2402416480068403015498D
:10FC60000860134800684038114908600FE01148E7
:10FC7000008885B20E48008884B20E4800680C499E
:10FC8000096808440B4908600020094908600A49CE
:10FC900048192246C02100F06DFD21460120FFF7E2
:10FCA000E9FE012000F040F970BD0000980100203D
:10FCB0009401002090010020D45600200B4A02EB52
:10FCC0008001D1F8001C01F4804171B102EB800188
:10FCD000D1F8001C48F68F7211404CF2800211439B
:10FCE000024B03EB8002C2F8001C7047005000403A
:10FCF0000B4A02EB8001D1F8001C01F0400171B108
:10FD000002EB8001D1F8001C48F68F72114048F2D6
:10FD1000C0021143024B03EB8002C2F8001C704783
:10FD20000050004001460548006880B200EBC10069
:10FD3000001D034A32F8100080B27047505C00404A
:10FD40000060004001460548006880B200EBC10039
:10FD5000034A32F8100080B270470000505C004047
:10FD60000060004010B511480068047A022C01D0F0
:10FD7000042C01D1082412E0032C01D0052C05D15C
:10FD8000FDF7EAFF09480068047A08E0072C05D16E
:10FD900007490968C8688047082400E00824034927
:10FDA00009680C7200F082F810BD0000A802002063
:10FDB000AC02002010B54A105300054A126892B2F6
:10FDC00002EBC002121D034C44F8123010BD0000BB
:10FDD000505C00400060004010B54A105200044BD7
:10FDE0001B689BB203EBC003024C44F8132010BD08
:10FDF000505C0040006000402DE9F04106460F468F
:10FE0000002418A505E015F8012B2046641C1849AC
:10FE10000A5428780028F6D1304605E003782146B8
:10FE2000641C134A5354401C01780029F6D13D222A
:10FE30002046641C0E490A543A4621460C48FDF7F8
:10FE400084FB04460D222046641C09490A540A22F8
:10FE50002046641C0A5400200855084602F0D2FAD5
:10FE6000BDE8F0815B43414E52454C41595D200055
:10FE7000FC4C00200246312A06DB352A04DCA2F1C4
:10FE800030000870012070470020FCE710B50649DB
:10FE90000320FDF7BFFE84B2E1B2034801F054FD38
:10FEA000032000F027F810BD745F002010B50D4846
:10FEB00090F82C100020FFF7B7FD0B480068007A7F
:10FEC000082805D140020949088010200849088007
:10FED00005480068007A092801D1012010BD0020E2
:10FEE000FCE7000010020020A8020020B802002059
:10FEF000BA02002010B50B4B03EB8002D2F8002CA5
:10FF00004BF68F7302EA030181F4805181F40051B2
:10FF100041F4004242F08002024C04EB8003C3F83B
:10FF2000002C10BD0050004010B50B4B03EB8002BD
:10FF3000D2F8002C48F6BF7302EA030181F01001E9
:10FF400081F0200141F4004242F08002024C04EBB7
:10FF50008003C3F8002C10BD0050004070B504466B
:10FF60000CB1207808B9002070BD00250CE00849CC
:10FF700051F835002146FBF759FA20B9044800EB47
:10FF8000C5004068F0E76D1C3B2DF0D30020EBE787
:10FF900048F903082DE9F0470446204600F05CFBD1
:10FFA00008B1BDE8F0872078732802D02078532864
:10FFB00026D16078202823D1A71CB846814649461F
:10FFC0004046FBF73CF80646B6B1002006F8010BA8
:10FFD00052A002F017FA384602F014FA54A002F0C8
:10FFE00011FA304602F00EFA53A002F00BFA314635
:10FFF00038460EF04BFD02E050A002F003FAD0E7C5
:020000040803EF
:10000000042258A12046FBF7C2F860B9201D0FF06A
:1000100099F856A002F0F6F9201D02F0F3F946A077
:1000200002F0F0F9BDE756A12046FBF7FFF910B941
:100030000EF080FEB5E754A12046FBF7F7F910B9A2
:100040000EF042FDADE72078752802D020785528C3
:1000500010D1607820280DD1A11C4D480AF0EEFB8C
:100060004CA002F065F8A01C02F062F832A002F089
:100070005FF896E7207800B993E72578722D01D0D4
:10008000522D1DD100BF00BF00BF00BF00BFBFF396
:100090004F8F00BF00BF00BF4348006800F4E0601E
:1000A00042490843001D4049086000BF00BF00BF2F
:1000B000BFF34F8F00BF00BF00BF00BF00BFFDE711
:1000C000622D01D0422D06D101203949087039A096
:1000D00002F098F965E7672D01D0472D06D1202061
:1000E0003D4908603DA002F08DF95AE7612D01D02D
:1000F000412D06D10020384908603CA002F082F969
:100100004FE76C2D01D04C2D06D1242032490860D8
:100110003AA002F077F944E700BF42E75B5553424B
:1001200020534D535D2070686F6E653D00000000E8
:10013000206D73673D0000000D0A00005B555342BF
:1001400020534D535D2075736167653A2053203C01
:1001500070686F6E653E203C6D6573736167653EC8
:100160000D0A000073657420000000005B555342C7
:10017000205345545D207175657565643A20000013
:100180007374617475730000636F6E666967000055
:10019000880600205B555353445D2073656E646987
:1001A0006E673A20000000000CED00E00000FA0548
:1001B000740000200D0A5B427269646765204F4E2F
:1001C0005D202074797065202B2B2B20746F2065A7
:1001D0007869740D0A000000000000200D0A5B4CD5
:1001E0006F673A2047534D5D0D0A00000D0A5B4CC6
:1001F0006F673A20414C4C5D0D0A00000D0A5B4CC4
:100200006F673A2041545D0D0A0000000146012944
:1002100001DB052901DD01207047481E044B1A56F9
:100220001AB1022A01D00120F6E70020F4E700000D
:10023000754A002038B501242948006880B2001DA5
:10024000284931F8100080B201EB400000902648A8
:100250000068007A092832D000980078224909689D
:1002600008700098401C0090009800781E490968AA
:1002700048700098401C0090009800EB44000090EB
